{
    "_format": "hh-sol-artifact-1",
    "contractName": "AAStarDemoNFT",
    "sourceName": "contracts/AAStarNFT.sol",
    "abi": [
        {
            "inputs": [],
            "stateMutability": "nonpayable",
            "type": "constructor"
        },
        {
            "anonymous": false,
            "inputs": [
                {
                    "indexed": true,
                    "internalType": "address",
                    "name": "owner",
                    "type": "address"
                },
                {
                    "indexed": true,
                    "internalType": "address",
                    "name": "approved",
                    "type": "address"
                },
                {
                    "indexed": true,
                    "internalType": "uint256",
                    "name": "tokenId",
                    "type": "uint256"
                }
            ],
            "name": "Approval",
            "type": "event"
        },
        {
            "anonymous": false,
            "inputs": [
                {
                    "indexed": true,
                    "internalType": "address",
                    "name": "owner",
                    "type": "address"
                },
                {
                    "indexed": true,
                    "internalType": "address",
                    "name": "operator",
                    "type": "address"
                },
                {
                    "indexed": false,
                    "internalType": "bool",
                    "name": "approved",
                    "type": "bool"
                }
            ],
            "name": "ApprovalForAll",
            "type": "event"
        },
        {
            "anonymous": false,
            "inputs": [
                {
                    "indexed": true,
                    "internalType": "address",
                    "name": "previousOwner",
                    "type": "address"
                },
                {
                    "indexed": true,
                    "internalType": "address",
                    "name": "newOwner",
                    "type": "address"
                }
            ],
            "name": "OwnershipTransferred",
            "type": "event"
        },
        {
            "anonymous": false,
            "inputs": [
                {
                    "indexed": true,
                    "internalType": "address",
                    "name": "from",
                    "type": "address"
                },
                {
                    "indexed": true,
                    "internalType": "address",
                    "name": "to",
                    "type": "address"
                },
                {
                    "indexed": true,
                    "internalType": "uint256",
                    "name": "tokenId",
                    "type": "uint256"
                }
            ],
            "name": "Transfer",
            "type": "event"
        },
        {
            "inputs": [
                {
                    "internalType": "address",
                    "name": "to",
                    "type": "address"
                },
                {
                    "internalType": "uint256",
                    "name": "tokenId",
                    "type": "uint256"
                }
            ],
            "name": "approve",
            "outputs": [],
            "stateMutability": "nonpayable",
            "type": "function"
        },
        {
            "inputs": [
                {
                    "internalType": "address",
                    "name": "owner",
                    "type": "address"
                }
            ],
            "name": "balanceOf",
            "outputs": [
                {
                    "internalType": "uint256",
                    "name": "",
                    "type": "uint256"
                }
            ],
            "stateMutability": "view",
            "type": "function"
        },
        {
            "inputs": [
                {
                    "internalType": "uint256",
                    "name": "tokenId",
                    "type": "uint256"
                }
            ],
            "name": "burn",
            "outputs": [],
            "stateMutability": "nonpayable",
            "type": "function"
        },
        {
            "inputs": [
                {
                    "internalType": "uint256",
                    "name": "tokenId",
                    "type": "uint256"
                }
            ],
            "name": "getApproved",
            "outputs": [
                {
                    "internalType": "address",
                    "name": "",
                    "type": "address"
                }
            ],
            "stateMutability": "view",
            "type": "function"
        },
        {
            "inputs": [
                {
                    "internalType": "address",
                    "name": "owner",
                    "type": "address"
                },
                {
                    "internalType": "address",
                    "name": "operator",
                    "type": "address"
                }
            ],
            "name": "isApprovedForAll",
            "outputs": [
                {
                    "internalType": "bool",
                    "name": "",
                    "type": "bool"
                }
            ],
            "stateMutability": "view",
            "type": "function"
        },
        {
            "inputs": [
                {
                    "internalType": "address",
                    "name": "account",
                    "type": "address"
                },
                {
                    "internalType": "uint256",
                    "name": "count",
                    "type": "uint256"
                }
            ],
            "name": "mint",
            "outputs": [],
            "stateMutability": "nonpayable",
            "type": "function"
        },
        {
            "inputs": [],
            "name": "name",
            "outputs": [
                {
                    "internalType": "string",
                    "name": "",
                    "type": "string"
                }
            ],
            "stateMutability": "view",
            "type": "function"
        },
        {
            "inputs": [],
            "name": "owner",
            "outputs": [
                {
                    "internalType": "address",
                    "name": "",
                    "type": "address"
                }
            ],
            "stateMutability": "view",
            "type": "function"
        },
        {
            "inputs": [
                {
                    "internalType": "uint256",
                    "name": "tokenId",
                    "type": "uint256"
                }
            ],
            "name": "ownerOf",
            "outputs": [
                {
                    "internalType": "address",
                    "name": "",
                    "type": "address"
                }
            ],
            "stateMutability": "view",
            "type": "function"
        },
        {
            "inputs": [],
            "name": "renounceOwnership",
            "outputs": [],
            "stateMutability": "nonpayable",
            "type": "function"
        },
        {
            "inputs": [
                {
                    "internalType": "address",
                    "name": "from",
                    "type": "address"
                },
                {
                    "internalType": "address",
                    "name": "to",
                    "type": "address"
                },
                {
                    "internalType": "uint256",
                    "name": "tokenId",
                    "type": "uint256"
                }
            ],
            "name": "safeTransferFrom",
            "outputs": [],
            "stateMutability": "nonpayable",
            "type": "function"
        },
        {
            "inputs": [
                {
                    "internalType": "address",
                    "name": "from",
                    "type": "address"
                },
                {
                    "internalType": "address",
                    "name": "to",
                    "type": "address"
                },
                {
                    "internalType": "uint256",
                    "name": "tokenId",
                    "type": "uint256"
                },
                {
                    "internalType": "bytes",
                    "name": "_data",
                    "type": "bytes"
                }
            ],
            "name": "safeTransferFrom",
            "outputs": [],
            "stateMutability": "nonpayable",
            "type": "function"
        },
        {
            "inputs": [
                {
                    "internalType": "address",
                    "name": "operator",
                    "type": "address"
                },
                {
                    "internalType": "bool",
                    "name": "approved",
                    "type": "bool"
                }
            ],
            "name": "setApprovalForAll",
            "outputs": [],
            "stateMutability": "nonpayable",
            "type": "function"
        },
        {
            "inputs": [
                {
                    "internalType": "bytes4",
                    "name": "interfaceId",
                    "type": "bytes4"
                }
            ],
            "name": "supportsInterface",
            "outputs": [
                {
                    "internalType": "bool",
                    "name": "",
                    "type": "bool"
                }
            ],
            "stateMutability": "view",
            "type": "function"
        },
        {
            "inputs": [],
            "name": "symbol",
            "outputs": [
                {
                    "internalType": "string",
                    "name": "",
                    "type": "string"
                }
            ],
            "stateMutability": "view",
            "type": "function"
        },
        {
            "inputs": [
                {
                    "internalType": "uint256",
                    "name": "index",
                    "type": "uint256"
                }
            ],
            "name": "tokenByIndex",
            "outputs": [
                {
                    "internalType": "uint256",
                    "name": "",
                    "type": "uint256"
                }
            ],
            "stateMutability": "view",
            "type": "function"
        },
        {
            "inputs": [
                {
                    "internalType": "address",
                    "name": "owner",
                    "type": "address"
                },
                {
                    "internalType": "uint256",
                    "name": "index",
                    "type": "uint256"
                }
            ],
            "name": "tokenOfOwnerByIndex",
            "outputs": [
                {
                    "internalType": "uint256",
                    "name": "",
                    "type": "uint256"
                }
            ],
            "stateMutability": "view",
            "type": "function"
        },
        {
            "inputs": [
                {
                    "internalType": "uint256",
                    "name": "tokenId",
                    "type": "uint256"
                }
            ],
            "name": "tokenURI",
            "outputs": [
                {
                    "internalType": "string",
                    "name": "",
                    "type": "string"
                }
            ],
            "stateMutability": "view",
            "type": "function"
        },
        {
            "inputs": [],
            "name": "totalSupply",
            "outputs": [
                {
                    "internalType": "uint256",
                    "name": "",
                    "type": "uint256"
                }
            ],
            "stateMutability": "view",
            "type": "function"
        },
        {
            "inputs": [
                {
                    "internalType": "address",
                    "name": "from",
                    "type": "address"
                },
                {
                    "internalType": "address",
                    "name": "to",
                    "type": "address"
                },
                {
                    "internalType": "uint256",
                    "name": "tokenId",
                    "type": "uint256"
                }
            ],
            "name": "transferFrom",
            "outputs": [],
            "stateMutability": "nonpayable",
            "type": "function"
        },
        {
            "inputs": [
                {
                    "internalType": "address",
                    "name": "newOwner",
                    "type": "address"
                }
            ],
            "name": "transferOwnership",
            "outputs": [],
            "stateMutability": "nonpayable",
            "type": "function"
        }
    ],
    "bytecode": "0x60806040523480156200001157600080fd5b506040518060400160405280600f81526020017f4141537461722044656d6f204e465400000000000000000000000000000000008152506040518060400160405280600381526020017f41444e0000000000000000000000000000000000000000000000000000000000815250816000908051906020019062000096929190620001a6565b508060019080519060200190620000af929190620001a6565b505050620000d2620000c6620000d860201b60201c565b620000e060201b60201c565b620002bb565b600033905090565b6000600b60009054906101000a900473ffffffffffffffffffffffffffffffffffffffff16905081600b60006101000a81548173ffffffffffffffffffffffffffffffffffffffff021916908373ffffffffffffffffffffffffffffffffffffffff1602179055508173ffffffffffffffffffffffffffffffffffffffff168173ffffffffffffffffffffffffffffffffffffffff167f8be0079c531659141344cd1fd0a4f28419497f9722a3daafe3b4186f6b6457e060405160405180910390a35050565b828054620001b49062000256565b90600052602060002090601f016020900481019282620001d8576000855562000224565b82601f10620001f357805160ff191683800117855562000224565b8280016001018555821562000224579182015b828111156200022357825182559160200191906001019062000206565b5b50905062000233919062000237565b5090565b5b808211156200025257600081600090555060010162000238565b5090565b600060028204905060018216806200026f57607f821691505b602082108114156200028657620002856200028c565b5b50919050565b7f4e487b7100000000000000000000000000000000000000000000000000000000600052602260045260246000fd5b61373080620002cb6000396000f3fe608060405234801561001057600080fd5b50600436106101375760003560e01c80634f6ccce7116100b857806395d89b411161007c57806395d89b411461034c578063a22cb4651461036a578063b88d4fde14610386578063c87b56dd146103a2578063e985e9c5146103d2578063f2fde38b1461040257610137565b80634f6ccce7146102945780636352211e146102c457806370a08231146102f4578063715018a6146103245780638da5cb5b1461032e57610137565b806323b872dd116100ff57806323b872dd146101f45780632f745c591461021057806340c10f191461024057806342842e0e1461025c57806342966c681461027857610137565b806301ffc9a71461013c57806306fdde031461016c578063081812fc1461018a578063095ea7b3146101ba57806318160ddd146101d6575b600080fd5b61015660048036038101906101519190612591565b61041e565b6040516101639190612a4f565b60405180910390f35b610174610430565b6040516101819190612a6a565b60405180910390f35b6101a4600480360381019061019f91906125e3565b6104c2565b6040516101b191906129e8565b60405180910390f35b6101d460048036038101906101cf9190612555565b610547565b005b6101de61065f565b6040516101eb9190612cec565b60405180910390f35b61020e6004803603810190610209919061244f565b61066c565b005b61022a60048036038101906102259190612555565b6106cc565b6040516102379190612cec565b60405180910390f35b61025a60048036038101906102559190612555565b610771565b005b6102766004803603810190610271919061244f565b6107b7565b005b610292600480360381019061028d91906125e3565b6107d7565b005b6102ae60048036038101906102a991906125e3565b610833565b6040516102bb9190612cec565b60405180910390f35b6102de60048036038101906102d991906125e3565b6108ca565b6040516102eb91906129e8565b60405180910390f35b61030e600480360381019061030991906123ea565b61097c565b60405161031b9190612cec565b60405180910390f35b61032c610a34565b005b610336610abc565b60405161034391906129e8565b60405180910390f35b610354610ae6565b6040516103619190612a6a565b60405180910390f35b610384600480360381019061037f9190612519565b610b78565b005b6103a0600480360381019061039b919061249e565b610b8e565b005b6103bc60048036038101906103b791906125e3565b610bf0565b6040516103c99190612a6a565b60405180910390f35b6103ec60048036038101906103e79190612413565b610c69565b6040516103f99190612a4f565b60405180910390f35b61041c600480360381019061041791906123ea565b610cfd565b005b600061042982610df5565b9050919050565b60606000805461043f90612f11565b80601f016020809104026020016040519081016040528092919081815260200182805461046b90612f11565b80156104b85780601f1061048d576101008083540402835291602001916104b8565b820191906000526020600020905b81548152906001019060200180831161049b57829003601f168201915b5050505050905090565b60006104cd82610e6f565b61050c576040517f08c379a000000000000000000000000000000000000000000000000000000000815260040161050390612c2c565b60405180910390fd5b6004600083815260200190815260200160002060009054906101000a900473ffffffffffffffffffffffffffffffffffffffff169050919050565b6000610552826108ca565b90508073ffffffffffffffffffffffffffffffffffffffff168373ffffffffffffffffffffffffffffffffffffffff1614156105c3576040517f08c379a00000000000000000000000000000000000000000000000000000000081526004016105ba90612c6c565b60405180910390fd5b8073ffffffffffffffffffffffffffffffffffffffff166105e2610edb565b73ffffffffffffffffffffffffffffffffffffffff16148061061157506106108161060b610edb565b610c69565b5b610650576040517f08c379a000000000000000000000000000000000000000000000000000000000815260040161064790612bac565b60405180910390fd5b61065a8383610ee3565b505050565b6000600880549050905090565b61067d610677610edb565b82610f9c565b6106bc576040517f08c379a00000000000000000000000000000000000000000000000000000000081526004016106b390612c8c565b60405180910390fd5b6106c783838361107a565b505050565b60006106d78361097c565b8210610718576040517f08c379a000000000000000000000000000000000000000000000000000000000815260040161070f90612aac565b60405180910390fd5b600660008473ffffffffffffffffffffffffffffffffffffffff1673ffffffffffffffffffffffffffffffffffffffff168152602001908152602001600020600083815260200190815260200160002054905092915050565b60005b818110156107b2576000610788600c6112e1565b905061079484826112ef565b61079e600c61130d565b5080806107aa90612f74565b915050610774565b505050565b6107d283838360405180602001604052806000815250610b8e565b505050565b6107e86107e2610edb565b82610f9c565b610827576040517f08c379a000000000000000000000000000000000000000000000000000000000815260040161081e90612ccc565b60405180910390fd5b61083081611323565b50565b600061083d61065f565b821061087e576040517f08c379a000000000000000000000000000000000000000000000000000000000815260040161087590612cac565b60405180910390fd5b600882815481106108b8577f4e487b7100000000000000000000000000000000000000000000000000000000600052603260045260246000fd5b90600052602060002001549050919050565b6000806002600084815260200190815260200160002060009054906101000a900473ffffffffffffffffffffffffffffffffffffffff169050600073ffffffffffffffffffffffffffffffffffffffff168173ffffffffffffffffffffffffffffffffffffffff161415610973576040517f08c379a000000000000000000000000000000000000000000000000000000000815260040161096a90612bec565b60405180910390fd5b80915050919050565b60008073ffffffffffffffffffffffffffffffffffffffff168273ffffffffffffffffffffffffffffffffffffffff1614156109ed576040517f08c379a00000000000000000000000000000000000000000000000000000000081526004016109e490612bcc565b60405180910390fd5b600360008373ffffffffffffffffffffffffffffffffffffffff1673ffffffffffffffffffffffffffffffffffffffff168152602001908152602001600020549050919050565b610a3c610edb565b73ffffffffffffffffffffffffffffffffffffffff16610a5a610abc565b73ffffffffffffffffffffffffffffffffffffffff1614610ab0576040517f08c379a0000000000000000000000000000000000000000000000000000000008152600401610aa790612c4c565b60405180910390fd5b610aba600061132f565b565b6000600b60009054906101000a900473ffffffffffffffffffffffffffffffffffffffff16905090565b606060018054610af590612f11565b80601f0160208091040260200160405190810160405280929190818152602001828054610b2190612f11565b8015610b6e5780601f10610b4357610100808354040283529160200191610b6e565b820191906000526020600020905b815481529060010190602001808311610b5157829003601f168201915b5050505050905090565b610b8a610b83610edb565b83836113f5565b5050565b610b9f610b99610edb565b83610f9c565b610bde576040517f08c379a0000000000000000000000000000000000000000000000000000000008152600401610bd590612c8c565b60405180910390fd5b610bea84848484611562565b50505050565b6060610bfb82610e6f565b610c3a576040517f08c379a0000000000000000000000000000000000000000000000000000000008152600401610c3190612a8c565b60405180910390fd5b610c43826115be565b604051602001610c5391906129bb565b6040516020818303038152906040529050919050565b6000600560008473ffffffffffffffffffffffffffffffffffffffff1673ffffffffffffffffffffffffffffffffffffffff16815260200190815260200160002060008373ffffffffffffffffffffffffffffffffffffffff1673ffffffffffffffffffffffffffffffffffffffff16815260200190815260200160002060009054906101000a900460ff16905092915050565b610d05610edb565b73ffffffffffffffffffffffffffffffffffffffff16610d23610abc565b73ffffffffffffffffffffffffffffffffffffffff1614610d79576040517f08c379a0000000000000000000000000000000000000000000000000000000008152600401610d7090612c4c565b60405180910390fd5b600073ffffffffffffffffffffffffffffffffffffffff168173ffffffffffffffffffffffffffffffffffffffff161415610de9576040517f08c379a0000000000000000000000000000000000000000000000000000000008152600401610de090612aec565b60405180910390fd5b610df28161132f565b50565b60007f780e9d63000000000000000000000000000000000000000000000000000000007bffffffffffffffffffffffffffffffffffffffffffffffffffffffff1916827bffffffffffffffffffffffffffffffffffffffffffffffffffffffff19161480610e685750610e678261176b565b5b9050919050565b60008073ffffffffffffffffffffffffffffffffffffffff166002600084815260200190815260200160002060009054906101000a900473ffffffffffffffffffffffffffffffffffffffff1673ffffffffffffffffffffffffffffffffffffffff1614159050919050565b600033905090565b816004600083815260200190815260200160002060006101000a81548173ffffffffffffffffffffffffffffffffffffffff021916908373ffffffffffffffffffffffffffffffffffffffff160217905550808273ffffffffffffffffffffffffffffffffffffffff16610f56836108ca565b73ffffffffffffffffffffffffffffffffffffffff167f8c5be1e5ebec7d5bd14f71427d1e84f3dd0314c0f7b2291e5b200ac8c7c3b92560405160405180910390a45050565b6000610fa782610e6f565b610fe6576040517f08c379a0000000000000000000000000000000000000000000000000000000008152600401610fdd90612b8c565b60405180910390fd5b6000610ff1836108ca565b90508073ffffffffffffffffffffffffffffffffffffffff168473ffffffffffffffffffffffffffffffffffffffff16148061106057508373ffffffffffffffffffffffffffffffffffffffff16611048846104c2565b73ffffffffffffffffffffffffffffffffffffffff16145b8061107157506110708185610c69565b5b91505092915050565b8273ffffffffffffffffffffffffffffffffffffffff1661109a826108ca565b73ffffffffffffffffffffffffffffffffffffffff16146110f0576040517f08c379a00000000000000000000000000000000000000000000000000000000081526004016110e790612b0c565b60405180910390fd5b600073ffffffffffffffffffffffffffffffffffffffff168273ffffffffffffffffffffffffffffffffffffffff161415611160576040517f08c379a000000000000000000000000000000000000000000000000000000000815260040161115790612b4c565b60405180910390fd5b61116b83838361184d565b611176600082610ee3565b6001600360008573ffffffffffffffffffffffffffffffffffffffff1673ffffffffffffffffffffffffffffffffffffffff16815260200190815260200160002060008282546111c69190612e27565b925050819055506001600360008473ffffffffffffffffffffffffffffffffffffffff1673ffffffffffffffffffffffffffffffffffffffff168152602001908152602001600020600082825461121d9190612da0565b92505081905550816002600083815260200190815260200160002060006101000a81548173ffffffffffffffffffffffffffffffffffffffff021916908373ffffffffffffffffffffffffffffffffffffffff160217905550808273ffffffffffffffffffffffffffffffffffffffff168473ffffffffffffffffffffffffffffffffffffffff167fddf252ad1be2c89b69c2b068fc378daa952ba7f163c4a11628f55a4df523b3ef60405160405180910390a46112dc83838361185d565b505050565b600081600001549050919050565b611309828260405180602001604052806000815250611862565b5050565b6001816000016000828254019250508190555050565b61132c816118bd565b50565b6000600b60009054906101000a900473ffffffffffffffffffffffffffffffffffffffff16905081600b60006101000a81548173ffffffffffffffffffffffffffffffffffffffff021916908373ffffffffffffffffffffffffffffffffffffffff1602179055508173ffffffffffffffffffffffffffffffffffffffff168173ffffffffffffffffffffffffffffffffffffffff167f8be0079c531659141344cd1fd0a4f28419497f9722a3daafe3b4186f6b6457e060405160405180910390a35050565b8173ffffffffffffffffffffffffffffffffffffffff168373ffffffffffffffffffffffffffffffffffffffff161415611464576040517f08c379a000000000000000000000000000000000000000000000000000000000815260040161145b90612b6c565b60405180910390fd5b80600560008573ffffffffffffffffffffffffffffffffffffffff1673ffffffffffffffffffffffffffffffffffffffff16815260200190815260200160002060008473ffffffffffffffffffffffffffffffffffffffff1673ffffffffffffffffffffffffffffffffffffffff16815260200190815260200160002060006101000a81548160ff0219169083151502179055508173ffffffffffffffffffffffffffffffffffffffff168373ffffffffffffffffffffffffffffffffffffffff167f17307eab39ab6107e8899845ad3d59bd9653f200f220920489ca2b5937696c31836040516115559190612a4f565b60405180910390a3505050565b61156d84848461107a565b61157984848484611910565b6115b8576040517f08c379a00000000000000000000000000000000000000000000000000000000081526004016115af90612acc565b60405180910390fd5b50505050565b60606000821415611606576040518060400160405280600181526020017f30000000000000000000000000000000000000000000000000000000000000008152509050611766565b600082905060005b6000821461163857808061162190612f74565b915050600a826116319190612df6565b915061160e565b60008167ffffffffffffffff81111561167a577f4e487b7100000000000000000000000000000000000000000000000000000000600052604160045260246000fd5b6040519080825280601f01601f1916602001820160405280156116ac5781602001600182028036833780820191505090505b5090505b6000851461175f576001826116c59190612e27565b9150600a856116d49190612fbd565b60306116e09190612da0565b60f81b81838151811061171c577f4e487b7100000000000000000000000000000000000000000000000000000000600052603260045260246000fd5b60200101907effffffffffffffffffffffffffffffffffffffffffffffffffffffffffffff1916908160001a905350600a856117589190612df6565b94506116b0565b8093505050505b919050565b60007f80ac58cd000000000000000000000000000000000000000000000000000000007bffffffffffffffffffffffffffffffffffffffffffffffffffffffff1916827bffffffffffffffffffffffffffffffffffffffffffffffffffffffff1916148061183657507f5b5e139f000000000000000000000000000000000000000000000000000000007bffffffffffffffffffffffffffffffffffffffffffffffffffffffff1916827bffffffffffffffffffffffffffffffffffffffffffffffffffffffff1916145b80611846575061184582611aa7565b5b9050919050565b611858838383611b11565b505050565b505050565b61186c8383611c25565b6118796000848484611910565b6118b8576040517f08c379a00000000000000000000000000000000000000000000000000000000081526004016118af90612acc565b60405180910390fd5b505050565b6118c681611dff565b6000600a600083815260200190815260200160002080546118e690612f11565b90501461190d57600a6000828152602001908152602001600020600061190c91906122bc565b5b50565b60006119318473ffffffffffffffffffffffffffffffffffffffff16611f1c565b15611a9a578373ffffffffffffffffffffffffffffffffffffffff1663150b7a0261195a610edb565b8786866040518563ffffffff1660e01b815260040161197c9493929190612a03565b602060405180830381600087803b15801561199657600080fd5b505af19250505080156119c757506040513d601f19601f820116820180604052508101906119c491906125ba565b60015b611a4a573d80600081146119f7576040519150601f19603f3d011682016040523d82523d6000602084013e6119fc565b606091505b50600081511415611a42576040517f08c379a0000000000000000000000000000000000000000000000000000000008152600401611a3990612acc565b60405180910390fd5b805181602001fd5b63150b7a0260e01b7bffffffffffffffffffffffffffffffffffffffffffffffffffffffff1916817bffffffffffffffffffffffffffffffffffffffffffffffffffffffff191614915050611a9f565b600190505b949350505050565b60007f01ffc9a7000000000000000000000000000000000000000000000000000000007bffffffffffffffffffffffffffffffffffffffffffffffffffffffff1916827bffffffffffffffffffffffffffffffffffffffffffffffffffffffff1916149050919050565b611b1c838383611f3f565b600073ffffffffffffffffffffffffffffffffffffffff168373ffffffffffffffffffffffffffffffffffffffff161415611b5f57611b5a81611f44565b611b9e565b8173ffffffffffffffffffffffffffffffffffffffff168373ffffffffffffffffffffffffffffffffffffffff1614611b9d57611b9c8382611f8d565b5b5b600073ffffffffffffffffffffffffffffffffffffffff168273ffffffffffffffffffffffffffffffffffffffff161415611be157611bdc816120fa565b611c20565b8273ffffffffffffffffffffffffffffffffffffffff168273ffffffffffffffffffffffffffffffffffffffff1614611c1f57611c1e828261223d565b5b5b505050565b600073ffffffffffffffffffffffffffffffffffffffff168273ffffffffffffffffffffffffffffffffffffffff161415611c95576040517f08c379a0000000000000000000000000000000000000000000000000000000008152600401611c8c90612c0c565b60405180910390fd5b611c9e81610e6f565b15611cde576040517f08c379a0000000000000000000000000000000000000000000000000000000008152600401611cd590612b2c565b60405180910390fd5b611cea6000838361184d565b6001600360008473ffffffffffffffffffffffffffffffffffffffff1673ffffffffffffffffffffffffffffffffffffffff1681526020019081526020016000206000828254611d3a9190612da0565b92505081905550816002600083815260200190815260200160002060006101000a81548173ffffffffffffffffffffffffffffffffffffffff021916908373ffffffffffffffffffffffffffffffffffffffff160217905550808273ffffffffffffffffffffffffffffffffffffffff16600073ffffffffffffffffffffffffffffffffffffffff167fddf252ad1be2c89b69c2b068fc378daa952ba7f163c4a11628f55a4df523b3ef60405160405180910390a4611dfb6000838361185d565b5050565b6000611e0a826108ca565b9050611e188160008461184d565b611e23600083610ee3565b6001600360008373ffffffffffffffffffffffffffffffffffffffff1673ffffffffffffffffffffffffffffffffffffffff1681526020019081526020016000206000828254611e739190612e27565b925050819055506002600083815260200190815260200160002060006101000a81549073ffffffffffffffffffffffffffffffffffffffff021916905581600073ffffffffffffffffffffffffffffffffffffffff168273ffffffffffffffffffffffffffffffffffffffff167fddf252ad1be2c89b69c2b068fc378daa952ba7f163c4a11628f55a4df523b3ef60405160405180910390a4611f188160008461185d565b5050565b6000808273ffffffffffffffffffffffffffffffffffffffff163b119050919050565b505050565b6008805490506009600083815260200190815260200160002081905550600881908060018154018082558091505060019003906000526020600020016000909190919091505550565b60006001611f9a8461097c565b611fa49190612e27565b9050600060076000848152602001908152602001600020549050818114612089576000600660008673ffffffffffffffffffffffffffffffffffffffff1673ffffffffffffffffffffffffffffffffffffffff168152602001908152602001600020600084815260200190815260200160002054905080600660008773ffffffffffffffffffffffffffffffffffffffff1673ffffffffffffffffffffffffffffffffffffffff168152602001908152602001600020600084815260200190815260200160002081905550816007600083815260200190815260200160002081905550505b6007600084815260200190815260200160002060009055600660008573ffffffffffffffffffffffffffffffffffffffff1673ffffffffffffffffffffffffffffffffffffffff16815260200190815260200160002060008381526020019081526020016000206000905550505050565b6000600160088054905061210e9190612e27565b9050600060096000848152602001908152602001600020549050600060088381548110612164577f4e487b7100000000000000000000000000000000000000000000000000000000600052603260045260246000fd5b9060005260206000200154905080600883815481106121ac577f4e487b7100000000000000000000000000000000000000000000000000000000600052603260045260246000fd5b906000526020600020018190555081600960008381526020019081526020016000208190555060096000858152602001908152602001600020600090556008805480612221577f4e487b7100000000000000000000000000000000000000000000000000000000600052603160045260246000fd5b6001900381819060005260206000200160009055905550505050565b60006122488361097c565b905081600660008573ffffffffffffffffffffffffffffffffffffffff1673ffffffffffffffffffffffffffffffffffffffff168152602001908152602001600020600083815260200190815260200160002081905550806007600084815260200190815260200160002081905550505050565b5080546122c890612f11565b6000825580601f106122da57506122f9565b601f0160209004906000526020600020908101906122f891906122fc565b5b50565b5b808211156123155760008160009055506001016122fd565b5090565b600061232c61232784612d2c565b612d07565b90508281526020810184848401111561234457600080fd5b61234f848285612ecf565b509392505050565b6000813590506123668161369e565b92915050565b60008135905061237b816136b5565b92915050565b600081359050612390816136cc565b92915050565b6000815190506123a5816136cc565b92915050565b600082601f8301126123bc57600080fd5b81356123cc848260208601612319565b91505092915050565b6000813590506123e4816136e3565b92915050565b6000602082840312156123fc57600080fd5b600061240a84828501612357565b91505092915050565b6000806040838503121561242657600080fd5b600061243485828601612357565b925050602061244585828601612357565b9150509250929050565b60008060006060848603121561246457600080fd5b600061247286828701612357565b935050602061248386828701612357565b9250506040612494868287016123d5565b9150509250925092565b600080600080608085870312156124b457600080fd5b60006124c287828801612357565b94505060206124d387828801612357565b93505060406124e4878288016123d5565b925050606085013567ffffffffffffffff81111561250157600080fd5b61250d878288016123ab565b91505092959194509250565b6000806040838503121561252c57600080fd5b600061253a85828601612357565b925050602061254b8582860161236c565b9150509250929050565b6000806040838503121561256857600080fd5b600061257685828601612357565b9250506020612587858286016123d5565b9150509250929050565b6000602082840312156125a357600080fd5b60006125b184828501612381565b91505092915050565b6000602082840312156125cc57600080fd5b60006125da84828501612396565b91505092915050565b6000602082840312156125f557600080fd5b6000612603848285016123d5565b91505092915050565b61261581612e5b565b82525050565b61262481612e6d565b82525050565b600061263582612d5d565b61263f8185612d73565b935061264f818560208601612ede565b612658816130aa565b840191505092915050565b600061266e82612d68565b6126788185612d84565b9350612688818560208601612ede565b612691816130aa565b840191505092915050565b60006126a782612d68565b6126b18185612d95565b93506126c1818560208601612ede565b80840191505092915050565b60006126da604483612d95565b91506126e5826130bb565b604482019050919050565b60006126fd602383612d84565b915061270882613130565b604082019050919050565b6000612720602b83612d84565b915061272b8261317f565b604082019050919050565b6000612743603283612d84565b915061274e826131ce565b604082019050919050565b6000612766602683612d84565b91506127718261321d565b604082019050919050565b6000612789602583612d84565b91506127948261326c565b604082019050919050565b60006127ac601c83612d84565b91506127b7826132bb565b602082019050919050565b60006127cf602483612d84565b91506127da826132e4565b604082019050919050565b60006127f2601983612d84565b91506127fd82613333565b602082019050919050565b6000612815602c83612d84565b91506128208261335c565b604082019050919050565b6000612838603883612d84565b9150612843826133ab565b604082019050919050565b600061285b602a83612d84565b9150612866826133fa565b604082019050919050565b600061287e602983612d84565b915061288982613449565b604082019050919050565b60006128a1602083612d84565b91506128ac82613498565b602082019050919050565b60006128c4602c83612d84565b91506128cf826134c1565b604082019050919050565b60006128e7600583612d95565b91506128f282613510565b600582019050919050565b600061290a602083612d84565b915061291582613539565b602082019050919050565b600061292d602183612d84565b915061293882613562565b604082019050919050565b6000612950603183612d84565b915061295b826135b1565b604082019050919050565b6000612973602c83612d84565b915061297e82613600565b604082019050919050565b6000612996603083612d84565b91506129a18261364f565b604082019050919050565b6129b581612ec5565b82525050565b60006129c6826126cd565b91506129d2828461269c565b91506129dd826128da565b915081905092915050565b60006020820190506129fd600083018461260c565b92915050565b6000608082019050612a18600083018761260c565b612a25602083018661260c565b612a3260408301856129ac565b8181036060830152612a44818461262a565b905095945050505050565b6000602082019050612a64600083018461261b565b92915050565b60006020820190508181036000830152612a848184612663565b905092915050565b60006020820190508181036000830152612aa5816126f0565b9050919050565b60006020820190508181036000830152612ac581612713565b9050919050565b60006020820190508181036000830152612ae581612736565b9050919050565b60006020820190508181036000830152612b0581612759565b9050919050565b60006020820190508181036000830152612b258161277c565b9050919050565b60006020820190508181036000830152612b458161279f565b9050919050565b60006020820190508181036000830152612b65816127c2565b9050919050565b60006020820190508181036000830152612b85816127e5565b9050919050565b60006020820190508181036000830152612ba581612808565b9050919050565b60006020820190508181036000830152612bc58161282b565b9050919050565b60006020820190508181036000830152612be58161284e565b9050919050565b60006020820190508181036000830152612c0581612871565b9050919050565b60006020820190508181036000830152612c2581612894565b9050919050565b60006020820190508181036000830152612c45816128b7565b9050919050565b60006020820190508181036000830152612c65816128fd565b9050919050565b60006020820190508181036000830152612c8581612920565b9050919050565b60006020820190508181036000830152612ca581612943565b9050919050565b60006020820190508181036000830152612cc581612966565b9050919050565b60006020820190508181036000830152612ce581612989565b9050919050565b6000602082019050612d0160008301846129ac565b92915050565b6000612d11612d22565b9050612d1d8282612f43565b919050565b6000604051905090565b600067ffffffffffffffff821115612d4757612d4661307b565b5b612d50826130aa565b9050602081019050919050565b600081519050919050565b600081519050919050565b600082825260208201905092915050565b600082825260208201905092915050565b600081905092915050565b6000612dab82612ec5565b9150612db683612ec5565b9250827fffffffffffffffffffffffffffffffffffffffffffffffffffffffffffffffff03821115612deb57612dea612fee565b5b828201905092915050565b6000612e0182612ec5565b9150612e0c83612ec5565b925082612e1c57612e1b61301d565b5b828204905092915050565b6000612e3282612ec5565b9150612e3d83612ec5565b925082821015612e5057612e4f612fee565b5b828203905092915050565b6000612e6682612ea5565b9050919050565b60008115159050919050565b60007fffffffff0000000000000000000000000000000000000000000000000000000082169050919050565b600073ffffffffffffffffffffffffffffffffffffffff82169050919050565b6000819050919050565b82818337600083830152505050565b60005b83811015612efc578082015181840152602081019050612ee1565b83811115612f0b576000848401525b50505050565b60006002820490506001821680612f2957607f821691505b60208210811415612f3d57612f3c61304c565b5b50919050565b612f4c826130aa565b810181811067ffffffffffffffff82111715612f6b57612f6a61307b565b5b80604052505050565b6000612f7f82612ec5565b91507fffffffffffffffffffffffffffffffffffffffffffffffffffffffffffffffff821415612fb257612fb1612fee565b5b600182019050919050565b6000612fc882612ec5565b9150612fd383612ec5565b925082612fe357612fe261301d565b5b828206905092915050565b7f4e487b7100000000000000000000000000000000000000000000000000000000600052601160045260246000fd5b7f4e487b7100000000000000000000000000000000000000000000000000000000600052601260045260246000fd5b7f4e487b7100000000000000000000000000000000000000000000000000000000600052602260045260246000fd5b7f4e487b7100000000000000000000000000000000000000000000000000000000600052604160045260246000fd5b6000601f19601f8301169050919050565b7f68747470733a2f2f697066732e696f2f697066732f516d5556346e4e55376f5360008201527f38704d487461664a67314c765172565558526559326b3843663647585562336260208201527f5276532f00000000000000000000000000000000000000000000000000000000604082015250565b7f57473a2055524920517565727920466f72204e6f6e6578697374656e7420546f60008201527f6b656e0000000000000000000000000000000000000000000000000000000000602082015250565b7f455243373231456e756d657261626c653a206f776e657220696e646578206f7560008201527f74206f6620626f756e6473000000000000000000000000000000000000000000602082015250565b7f4552433732313a207472616e7366657220746f206e6f6e20455243373231526560008201527f63656976657220696d706c656d656e7465720000000000000000000000000000602082015250565b7f4f776e61626c653a206e6577206f776e657220697320746865207a65726f206160008201527f6464726573730000000000000000000000000000000000000000000000000000602082015250565b7f4552433732313a207472616e736665722066726f6d20696e636f72726563742060008201527f6f776e6572000000000000000000000000000000000000000000000000000000602082015250565b7f4552433732313a20746f6b656e20616c7265616479206d696e74656400000000600082015250565b7f4552433732313a207472616e7366657220746f20746865207a65726f2061646460008201527f7265737300000000000000000000000000000000000000000000000000000000602082015250565b7f4552433732313a20617070726f766520746f2063616c6c657200000000000000600082015250565b7f4552433732313a206f70657261746f7220717565727920666f72206e6f6e657860008201527f697374656e7420746f6b656e0000000000000000000000000000000000000000602082015250565b7f4552433732313a20617070726f76652063616c6c6572206973206e6f74206f7760008201527f6e6572206e6f7220617070726f76656420666f7220616c6c0000000000000000602082015250565b7f4552433732313a2062616c616e636520717565727920666f7220746865207a6560008201527f726f206164647265737300000000000000000000000000000000000000000000602082015250565b7f4552433732313a206f776e657220717565727920666f72206e6f6e657869737460008201527f656e7420746f6b656e0000000000000000000000000000000000000000000000602082015250565b7f4552433732313a206d696e7420746f20746865207a65726f2061646472657373600082015250565b7f4552433732313a20617070726f76656420717565727920666f72206e6f6e657860008201527f697374656e7420746f6b656e0000000000000000000000000000000000000000602082015250565b7f2e6a736f6e000000000000000000000000000000000000000000000000000000600082015250565b7f4f776e61626c653a2063616c6c6572206973206e6f7420746865206f776e6572600082015250565b7f4552433732313a20617070726f76616c20746f2063757272656e74206f776e6560008201527f7200000000000000000000000000000000000000000000000000000000000000602082015250565b7f4552433732313a207472616e736665722063616c6c6572206973206e6f74206f60008201527f776e6572206e6f7220617070726f766564000000000000000000000000000000602082015250565b7f455243373231456e756d657261626c653a20676c6f62616c20696e646578206f60008201527f7574206f6620626f756e64730000000000000000000000000000000000000000602082015250565b7f4552433732314275726e61626c653a2063616c6c6572206973206e6f74206f7760008201527f6e6572206e6f7220617070726f76656400000000000000000000000000000000602082015250565b6136a781612e5b565b81146136b257600080fd5b50565b6136be81612e6d565b81146136c957600080fd5b50565b6136d581612e79565b81146136e057600080fd5b50565b6136ec81612ec5565b81146136f757600080fd5b5056fea2646970667358221220a6a103974edd8195f847b7f6be58d3a7e436479b32f92e5bf52fc3f99018cd2e64736f6c63430008040033",
    "linkReferences": {},
    "deployedLinkReferences": {}
}