{
  "_format": "hh-sol-artifact-1",
  "contractName": "AAStarDemoNFT",
  "sourceName": "contracts/AAStarNFT.sol",
  "abi": [
    {
      "inputs": [],
      "stateMutability": "nonpayable",
      "type": "constructor"
    },
    {
      "anonymous": false,
      "inputs": [
        {
          "indexed": true,
          "internalType": "address",
          "name": "owner",
          "type": "address"
        },
        {
          "indexed": true,
          "internalType": "address",
          "name": "approved",
          "type": "address"
        },
        {
          "indexed": true,
          "internalType": "uint256",
          "name": "tokenId",
          "type": "uint256"
        }
      ],
      "name": "Approval",
      "type": "event"
    },
    {
      "anonymous": false,
      "inputs": [
        {
          "indexed": true,
          "internalType": "address",
          "name": "owner",
          "type": "address"
        },
        {
          "indexed": true,
          "internalType": "address",
          "name": "operator",
          "type": "address"
        },
        {
          "indexed": false,
          "internalType": "bool",
          "name": "approved",
          "type": "bool"
        }
      ],
      "name": "ApprovalForAll",
      "type": "event"
    },
    {
      "anonymous": false,
      "inputs": [
        {
          "indexed": true,
          "internalType": "address",
          "name": "previousOwner",
          "type": "address"
        },
        {
          "indexed": true,
          "internalType": "address",
          "name": "newOwner",
          "type": "address"
        }
      ],
      "name": "OwnershipTransferred",
      "type": "event"
    },
    {
      "anonymous": false,
      "inputs": [
        {
          "indexed": true,
          "internalType": "address",
          "name": "from",
          "type": "address"
        },
        {
          "indexed": true,
          "internalType": "address",
          "name": "to",
          "type": "address"
        },
        {
          "indexed": true,
          "internalType": "uint256",
          "name": "tokenId",
          "type": "uint256"
        }
      ],
      "name": "Transfer",
      "type": "event"
    },
    {
      "inputs": [
        {
          "internalType": "address",
          "name": "to",
          "type": "address"
        },
        {
          "internalType": "uint256",
          "name": "tokenId",
          "type": "uint256"
        }
      ],
      "name": "approve",
      "outputs": [],
      "stateMutability": "nonpayable",
      "type": "function"
    },
    {
      "inputs": [
        {
          "internalType": "address",
          "name": "owner",
          "type": "address"
        }
      ],
      "name": "balanceOf",
      "outputs": [
        {
          "internalType": "uint256",
          "name": "",
          "type": "uint256"
        }
      ],
      "stateMutability": "view",
      "type": "function"
    },
    {
      "inputs": [
        {
          "internalType": "uint256",
          "name": "tokenId",
          "type": "uint256"
        }
      ],
      "name": "burn",
      "outputs": [],
      "stateMutability": "nonpayable",
      "type": "function"
    },
    {
      "inputs": [
        {
          "internalType": "address",
          "name": "account",
          "type": "address"
        }
      ],
      "name": "getAccountTokenIds",
      "outputs": [
        {
          "internalType": "uint256[]",
          "name": "",
          "type": "uint256[]"
        }
      ],
      "stateMutability": "view",
      "type": "function"
    },
    {
      "inputs": [
        {
          "internalType": "uint256",
          "name": "tokenId",
          "type": "uint256"
        }
      ],
      "name": "getApproved",
      "outputs": [
        {
          "internalType": "address",
          "name": "",
          "type": "address"
        }
      ],
      "stateMutability": "view",
      "type": "function"
    },
    {
      "inputs": [
        {
          "internalType": "address",
          "name": "owner",
          "type": "address"
        },
        {
          "internalType": "address",
          "name": "operator",
          "type": "address"
        }
      ],
      "name": "isApprovedForAll",
      "outputs": [
        {
          "internalType": "bool",
          "name": "",
          "type": "bool"
        }
      ],
      "stateMutability": "view",
      "type": "function"
    },
    {
      "inputs": [
        {
          "internalType": "address",
          "name": "account",
          "type": "address"
        },
        {
          "internalType": "uint256",
          "name": "count",
          "type": "uint256"
        }
      ],
      "name": "mint",
      "outputs": [],
      "stateMutability": "nonpayable",
      "type": "function"
    },
    {
      "inputs": [],
      "name": "name",
      "outputs": [
        {
          "internalType": "string",
          "name": "",
          "type": "string"
        }
      ],
      "stateMutability": "view",
      "type": "function"
    },
    {
      "inputs": [],
      "name": "owner",
      "outputs": [
        {
          "internalType": "address",
          "name": "",
          "type": "address"
        }
      ],
      "stateMutability": "view",
      "type": "function"
    },
    {
      "inputs": [
        {
          "internalType": "uint256",
          "name": "tokenId",
          "type": "uint256"
        }
      ],
      "name": "ownerOf",
      "outputs": [
        {
          "internalType": "address",
          "name": "",
          "type": "address"
        }
      ],
      "stateMutability": "view",
      "type": "function"
    },
    {
      "inputs": [],
      "name": "renounceOwnership",
      "outputs": [],
      "stateMutability": "nonpayable",
      "type": "function"
    },
    {
      "inputs": [
        {
          "internalType": "address",
          "name": "from",
          "type": "address"
        },
        {
          "internalType": "address",
          "name": "to",
          "type": "address"
        },
        {
          "internalType": "uint256",
          "name": "tokenId",
          "type": "uint256"
        }
      ],
      "name": "safeTransferFrom",
      "outputs": [],
      "stateMutability": "nonpayable",
      "type": "function"
    },
    {
      "inputs": [
        {
          "internalType": "address",
          "name": "from",
          "type": "address"
        },
        {
          "internalType": "address",
          "name": "to",
          "type": "address"
        },
        {
          "internalType": "uint256",
          "name": "tokenId",
          "type": "uint256"
        },
        {
          "internalType": "bytes",
          "name": "_data",
          "type": "bytes"
        }
      ],
      "name": "safeTransferFrom",
      "outputs": [],
      "stateMutability": "nonpayable",
      "type": "function"
    },
    {
      "inputs": [
        {
          "internalType": "address",
          "name": "operator",
          "type": "address"
        },
        {
          "internalType": "bool",
          "name": "approved",
          "type": "bool"
        }
      ],
      "name": "setApprovalForAll",
      "outputs": [],
      "stateMutability": "nonpayable",
      "type": "function"
    },
    {
      "inputs": [
        {
          "internalType": "bytes4",
          "name": "interfaceId",
          "type": "bytes4"
        }
      ],
      "name": "supportsInterface",
      "outputs": [
        {
          "internalType": "bool",
          "name": "",
          "type": "bool"
        }
      ],
      "stateMutability": "view",
      "type": "function"
    },
    {
      "inputs": [],
      "name": "symbol",
      "outputs": [
        {
          "internalType": "string",
          "name": "",
          "type": "string"
        }
      ],
      "stateMutability": "view",
      "type": "function"
    },
    {
      "inputs": [
        {
          "internalType": "uint256",
          "name": "index",
          "type": "uint256"
        }
      ],
      "name": "tokenByIndex",
      "outputs": [
        {
          "internalType": "uint256",
          "name": "",
          "type": "uint256"
        }
      ],
      "stateMutability": "view",
      "type": "function"
    },
    {
      "inputs": [
        {
          "internalType": "address",
          "name": "",
          "type": "address"
        },
        {
          "internalType": "uint256",
          "name": "",
          "type": "uint256"
        }
      ],
      "name": "tokenIds",
      "outputs": [
        {
          "internalType": "uint256",
          "name": "",
          "type": "uint256"
        }
      ],
      "stateMutability": "view",
      "type": "function"
    },
    {
      "inputs": [
        {
          "internalType": "address",
          "name": "owner",
          "type": "address"
        },
        {
          "internalType": "uint256",
          "name": "index",
          "type": "uint256"
        }
      ],
      "name": "tokenOfOwnerByIndex",
      "outputs": [
        {
          "internalType": "uint256",
          "name": "",
          "type": "uint256"
        }
      ],
      "stateMutability": "view",
      "type": "function"
    },
    {
      "inputs": [
        {
          "internalType": "uint256",
          "name": "tokenId",
          "type": "uint256"
        }
      ],
      "name": "tokenURI",
      "outputs": [
        {
          "internalType": "string",
          "name": "",
          "type": "string"
        }
      ],
      "stateMutability": "view",
      "type": "function"
    },
    {
      "inputs": [],
      "name": "totalSupply",
      "outputs": [
        {
          "internalType": "uint256",
          "name": "",
          "type": "uint256"
        }
      ],
      "stateMutability": "view",
      "type": "function"
    },
    {
      "inputs": [
        {
          "internalType": "address",
          "name": "from",
          "type": "address"
        },
        {
          "internalType": "address",
          "name": "to",
          "type": "address"
        },
        {
          "internalType": "uint256",
          "name": "tokenId",
          "type": "uint256"
        }
      ],
      "name": "transferFrom",
      "outputs": [],
      "stateMutability": "nonpayable",
      "type": "function"
    },
    {
      "inputs": [
        {
          "internalType": "address",
          "name": "newOwner",
          "type": "address"
        }
      ],
      "name": "transferOwnership",
      "outputs": [],
      "stateMutability": "nonpayable",
      "type": "function"
    }
  ],
  "bytecode": "0x60806040523480156200001157600080fd5b506040518060400160405280600f81526020017f4141537461722044656d6f204e465400000000000000000000000000000000008152506040518060400160405280600381526020017f41444e0000000000000000000000000000000000000000000000000000000000815250816000908051906020019062000096929190620001a6565b508060019080519060200190620000af929190620001a6565b505050620000d2620000c6620000d860201b60201c565b620000e060201b60201c565b620002bb565b600033905090565b6000600b60009054906101000a900473ffffffffffffffffffffffffffffffffffffffff16905081600b60006101000a81548173ffffffffffffffffffffffffffffffffffffffff021916908373ffffffffffffffffffffffffffffffffffffffff1602179055508173ffffffffffffffffffffffffffffffffffffffff168173ffffffffffffffffffffffffffffffffffffffff167f8be0079c531659141344cd1fd0a4f28419497f9722a3daafe3b4186f6b6457e060405160405180910390a35050565b828054620001b49062000256565b90600052602060002090601f016020900481019282620001d8576000855562000224565b82601f10620001f357805160ff191683800117855562000224565b8280016001018555821562000224579182015b828111156200022357825182559160200191906001019062000206565b5b50905062000233919062000237565b5090565b5b808211156200025257600081600090555060010162000238565b5090565b600060028204905060018216806200026f57607f821691505b602082108114156200028657620002856200028c565b5b50919050565b7f4e487b7100000000000000000000000000000000000000000000000000000000600052602260045260246000fd5b6139b480620002cb6000396000f3fe608060405234801561001057600080fd5b506004361061014d5760003560e01c80634f6ccce7116100c357806395d89b411161007c57806395d89b41146103c2578063a22cb465146103e0578063b88d4fde146103fc578063c87b56dd14610418578063e985e9c514610448578063f2fde38b146104785761014d565b80634f6ccce7146102da5780636352211e1461030a57806369358db31461033a57806370a082311461036a578063715018a61461039a5780638da5cb5b146103a45761014d565b806323b872dd1161011557806323b872dd1461020a5780632f745c59146102265780633de419e91461025657806340c10f191461028657806342842e0e146102a257806342966c68146102be5761014d565b806301ffc9a71461015257806306fdde0314610182578063081812fc146101a0578063095ea7b3146101d057806318160ddd146101ec575b600080fd5b61016c60048036038101906101679190612735565b610494565b6040516101799190612c9a565b60405180910390f35b61018a6104a6565b6040516101979190612cb5565b60405180910390f35b6101ba60048036038101906101b59190612787565b610538565b6040516101c79190612c11565b60405180910390f35b6101ea60048036038101906101e591906126f9565b6105bd565b005b6101f46106d5565b6040516102019190612f37565b60405180910390f35b610224600480360381019061021f91906125f3565b6106e2565b005b610240600480360381019061023b91906126f9565b610742565b60405161024d9190612f37565b60405180910390f35b610270600480360381019061026b91906126f9565b6107e7565b60405161027d9190612f37565b60405180910390f35b6102a0600480360381019061029b91906126f9565b610818565b005b6102bc60048036038101906102b791906125f3565b6108c4565b005b6102d860048036038101906102d39190612787565b6108e4565b005b6102f460048036038101906102ef9190612787565b610940565b6040516103019190612f37565b60405180910390f35b610324600480360381019061031f9190612787565b6109d7565b6040516103319190612c11565b60405180910390f35b610354600480360381019061034f919061258e565b610a89565b6040516103619190612c78565b60405180910390f35b610384600480360381019061037f919061258e565b610b20565b6040516103919190612f37565b60405180910390f35b6103a2610bd8565b005b6103ac610c60565b6040516103b99190612c11565b60405180910390f35b6103ca610c8a565b6040516103d79190612cb5565b60405180910390f35b6103fa60048036038101906103f591906126bd565b610d1c565b005b61041660048036038101906104119190612642565b610d32565b005b610432600480360381019061042d9190612787565b610d94565b60405161043f9190612cb5565b60405180910390f35b610462600480360381019061045d91906125b7565b610e0d565b60405161046f9190612c9a565b60405180910390f35b610492600480360381019061048d919061258e565b610ea1565b005b600061049f82610f99565b9050919050565b6060600080546104b590613195565b80601f01602080910402602001604051908101604052809291908181526020018280546104e190613195565b801561052e5780601f106105035761010080835404028352916020019161052e565b820191906000526020600020905b81548152906001019060200180831161051157829003601f168201915b5050505050905090565b600061054382611013565b610582576040517f08c379a000000000000000000000000000000000000000000000000000000000815260040161057990612e77565b60405180910390fd5b6004600083815260200190815260200160002060009054906101000a900473ffffffffffffffffffffffffffffffffffffffff169050919050565b60006105c8826109d7565b90508073ffffffffffffffffffffffffffffffffffffffff168373ffffffffffffffffffffffffffffffffffffffff161415610639576040517f08c379a000000000000000000000000000000000000000000000000000000000815260040161063090612eb7565b60405180910390fd5b8073ffffffffffffffffffffffffffffffffffffffff1661065861107f565b73ffffffffffffffffffffffffffffffffffffffff16148061068757506106868161068161107f565b610e0d565b5b6106c6576040517f08c379a00000000000000000000000000000000000000000000000000000000081526004016106bd90612df7565b60405180910390fd5b6106d08383611087565b505050565b6000600880549050905090565b6106f36106ed61107f565b82611140565b610732576040517f08c379a000000000000000000000000000000000000000000000000000000000815260040161072990612ed7565b60405180910390fd5b61073d83838361121e565b505050565b600061074d83610b20565b821061078e576040517f08c379a000000000000000000000000000000000000000000000000000000000815260040161078590612cf7565b60405180910390fd5b600660008473ffffffffffffffffffffffffffffffffffffffff1673ffffffffffffffffffffffffffffffffffffffff168152602001908152602001600020600083815260200190815260200160002054905092915050565b600d602052816000526040600020818154811061080357600080fd5b90600052602060002001600091509150505481565b60005b818110156108bf57600061082f600c611485565b905061083b8482611493565b610845600c6114b1565b600d60008573ffffffffffffffffffffffffffffffffffffffff1673ffffffffffffffffffffffffffffffffffffffff1681526020019081526020016000208190806001815401808255809150506001900390600052602060002001600090919091909150555080806108b7906131f8565b91505061081b565b505050565b6108df83838360405180602001604052806000815250610d32565b505050565b6108f56108ef61107f565b82611140565b610934576040517f08c379a000000000000000000000000000000000000000000000000000000000815260040161092b90612f17565b60405180910390fd5b61093d816114c7565b50565b600061094a6106d5565b821061098b576040517f08c379a000000000000000000000000000000000000000000000000000000000815260040161098290612ef7565b60405180910390fd5b600882815481106109c5577f4e487b7100000000000000000000000000000000000000000000000000000000600052603260045260246000fd5b90600052602060002001549050919050565b6000806002600084815260200190815260200160002060009054906101000a900473ffffffffffffffffffffffffffffffffffffffff169050600073ffffffffffffffffffffffffffffffffffffffff168173ffffffffffffffffffffffffffffffffffffffff161415610a80576040517f08c379a0000000000000000000000000000000000000000000000000000000008152600401610a7790612e37565b60405180910390fd5b80915050919050565b6060600d60008373ffffffffffffffffffffffffffffffffffffffff1673ffffffffffffffffffffffffffffffffffffffff168152602001908152602001600020805480602002602001604051908101604052809291908181526020018280548015610b1457602002820191906000526020600020905b815481526020019060010190808311610b00575b50505050509050919050565b60008073ffffffffffffffffffffffffffffffffffffffff168273ffffffffffffffffffffffffffffffffffffffff161415610b91576040517f08c379a0000000000000000000000000000000000000000000000000000000008152600401610b8890612e17565b60405180910390fd5b600360008373ffffffffffffffffffffffffffffffffffffffff1673ffffffffffffffffffffffffffffffffffffffff168152602001908152602001600020549050919050565b610be061107f565b73ffffffffffffffffffffffffffffffffffffffff16610bfe610c60565b73ffffffffffffffffffffffffffffffffffffffff1614610c54576040517f08c379a0000000000000000000000000000000000000000000000000000000008152600401610c4b90612e97565b60405180910390fd5b610c5e60006114d3565b565b6000600b60009054906101000a900473ffffffffffffffffffffffffffffffffffffffff16905090565b606060018054610c9990613195565b80601f0160208091040260200160405190810160405280929190818152602001828054610cc590613195565b8015610d125780601f10610ce757610100808354040283529160200191610d12565b820191906000526020600020905b815481529060010190602001808311610cf557829003601f168201915b5050505050905090565b610d2e610d2761107f565b8383611599565b5050565b610d43610d3d61107f565b83611140565b610d82576040517f08c379a0000000000000000000000000000000000000000000000000000000008152600401610d7990612ed7565b60405180910390fd5b610d8e84848484611706565b50505050565b6060610d9f82611013565b610dde576040517f08c379a0000000000000000000000000000000000000000000000000000000008152600401610dd590612cd7565b60405180910390fd5b610de782611762565b604051602001610df79190612be4565b6040516020818303038152906040529050919050565b6000600560008473ffffffffffffffffffffffffffffffffffffffff1673ffffffffffffffffffffffffffffffffffffffff16815260200190815260200160002060008373ffffffffffffffffffffffffffffffffffffffff1673ffffffffffffffffffffffffffffffffffffffff16815260200190815260200160002060009054906101000a900460ff16905092915050565b610ea961107f565b73ffffffffffffffffffffffffffffffffffffffff16610ec7610c60565b73ffffffffffffffffffffffffffffffffffffffff1614610f1d576040517f08c379a0000000000000000000000000000000000000000000000000000000008152600401610f1490612e97565b60405180910390fd5b600073ffffffffffffffffffffffffffffffffffffffff168173ffffffffffffffffffffffffffffffffffffffff161415610f8d576040517f08c379a0000000000000000000000000000000000000000000000000000000008152600401610f8490612d37565b60405180910390fd5b610f96816114d3565b50565b60007f780e9d63000000000000000000000000000000000000000000000000000000007bffffffffffffffffffffffffffffffffffffffffffffffffffffffff1916827bffffffffffffffffffffffffffffffffffffffffffffffffffffffff1916148061100c575061100b8261190f565b5b9050919050565b60008073ffffffffffffffffffffffffffffffffffffffff166002600084815260200190815260200160002060009054906101000a900473ffffffffffffffffffffffffffffffffffffffff1673ffffffffffffffffffffffffffffffffffffffff1614159050919050565b600033905090565b816004600083815260200190815260200160002060006101000a81548173ffffffffffffffffffffffffffffffffffffffff021916908373ffffffffffffffffffffffffffffffffffffffff160217905550808273ffffffffffffffffffffffffffffffffffffffff166110fa836109d7565b73ffffffffffffffffffffffffffffffffffffffff167f8c5be1e5ebec7d5bd14f71427d1e84f3dd0314c0f7b2291e5b200ac8c7c3b92560405160405180910390a45050565b600061114b82611013565b61118a576040517f08c379a000000000000000000000000000000000000000000000000000000000815260040161118190612dd7565b60405180910390fd5b6000611195836109d7565b90508073ffffffffffffffffffffffffffffffffffffffff168473ffffffffffffffffffffffffffffffffffffffff16148061120457508373ffffffffffffffffffffffffffffffffffffffff166111ec84610538565b73ffffffffffffffffffffffffffffffffffffffff16145b8061121557506112148185610e0d565b5b91505092915050565b8273ffffffffffffffffffffffffffffffffffffffff1661123e826109d7565b73ffffffffffffffffffffffffffffffffffffffff1614611294576040517f08c379a000000000000000000000000000000000000000000000000000000000815260040161128b90612d57565b60405180910390fd5b600073ffffffffffffffffffffffffffffffffffffffff168273ffffffffffffffffffffffffffffffffffffffff161415611304576040517f08c379a00000000000000000000000000000000000000000000000000000000081526004016112fb90612d97565b60405180910390fd5b61130f8383836119f1565b61131a600082611087565b6001600360008573ffffffffffffffffffffffffffffffffffffffff1673ffffffffffffffffffffffffffffffffffffffff168152602001908152602001600020600082825461136a91906130ab565b925050819055506001600360008473ffffffffffffffffffffffffffffffffffffffff1673ffffffffffffffffffffffffffffffffffffffff16815260200190815260200160002060008282546113c19190613024565b92505081905550816002600083815260200190815260200160002060006101000a81548173ffffffffffffffffffffffffffffffffffffffff021916908373ffffffffffffffffffffffffffffffffffffffff160217905550808273ffffffffffffffffffffffffffffffffffffffff168473ffffffffffffffffffffffffffffffffffffffff167fddf252ad1be2c89b69c2b068fc378daa952ba7f163c4a11628f55a4df523b3ef60405160405180910390a4611480838383611a01565b505050565b600081600001549050919050565b6114ad828260405180602001604052806000815250611a06565b5050565b6001816000016000828254019250508190555050565b6114d081611a61565b50565b6000600b60009054906101000a900473ffffffffffffffffffffffffffffffffffffffff16905081600b60006101000a81548173ffffffffffffffffffffffffffffffffffffffff021916908373ffffffffffffffffffffffffffffffffffffffff1602179055508173ffffffffffffffffffffffffffffffffffffffff168173ffffffffffffffffffffffffffffffffffffffff167f8be0079c531659141344cd1fd0a4f28419497f9722a3daafe3b4186f6b6457e060405160405180910390a35050565b8173ffffffffffffffffffffffffffffffffffffffff168373ffffffffffffffffffffffffffffffffffffffff161415611608576040517f08c379a00000000000000000000000000000000000000000000000000000000081526004016115ff90612db7565b60405180910390fd5b80600560008573ffffffffffffffffffffffffffffffffffffffff1673ffffffffffffffffffffffffffffffffffffffff16815260200190815260200160002060008473ffffffffffffffffffffffffffffffffffffffff1673ffffffffffffffffffffffffffffffffffffffff16815260200190815260200160002060006101000a81548160ff0219169083151502179055508173ffffffffffffffffffffffffffffffffffffffff168373ffffffffffffffffffffffffffffffffffffffff167f17307eab39ab6107e8899845ad3d59bd9653f200f220920489ca2b5937696c31836040516116f99190612c9a565b60405180910390a3505050565b61171184848461121e565b61171d84848484611ab4565b61175c576040517f08c379a000000000000000000000000000000000000000000000000000000000815260040161175390612d17565b60405180910390fd5b50505050565b606060008214156117aa576040518060400160405280600181526020017f3000000000000000000000000000000000000000000000000000000000000000815250905061190a565b600082905060005b600082146117dc5780806117c5906131f8565b915050600a826117d5919061307a565b91506117b2565b60008167ffffffffffffffff81111561181e577f4e487b7100000000000000000000000000000000000000000000000000000000600052604160045260246000fd5b6040519080825280601f01601f1916602001820160405280156118505781602001600182028036833780820191505090505b5090505b600085146119035760018261186991906130ab565b9150600a856118789190613241565b60306118849190613024565b60f81b8183815181106118c0577f4e487b7100000000000000000000000000000000000000000000000000000000600052603260045260246000fd5b60200101907effffffffffffffffffffffffffffffffffffffffffffffffffffffffffffff1916908160001a905350600a856118fc919061307a565b9450611854565b8093505050505b919050565b60007f80ac58cd000000000000000000000000000000000000000000000000000000007bffffffffffffffffffffffffffffffffffffffffffffffffffffffff1916827bffffffffffffffffffffffffffffffffffffffffffffffffffffffff191614806119da57507f5b5e139f000000000000000000000000000000000000000000000000000000007bffffffffffffffffffffffffffffffffffffffffffffffffffffffff1916827bffffffffffffffffffffffffffffffffffffffffffffffffffffffff1916145b806119ea57506119e982611c4b565b5b9050919050565b6119fc838383611cb5565b505050565b505050565b611a108383611dc9565b611a1d6000848484611ab4565b611a5c576040517f08c379a0000000000000000000000000000000000000000000000000000000008152600401611a5390612d17565b60405180910390fd5b505050565b611a6a81611fa3565b6000600a60008381526020019081526020016000208054611a8a90613195565b905014611ab157600a60008281526020019081526020016000206000611ab09190612460565b5b50565b6000611ad58473ffffffffffffffffffffffffffffffffffffffff166120c0565b15611c3e578373ffffffffffffffffffffffffffffffffffffffff1663150b7a02611afe61107f565b8786866040518563ffffffff1660e01b8152600401611b209493929190612c2c565b602060405180830381600087803b158015611b3a57600080fd5b505af1925050508015611b6b57506040513d601f19601f82011682018060405250810190611b68919061275e565b60015b611bee573d8060008114611b9b576040519150601f19603f3d011682016040523d82523d6000602084013e611ba0565b606091505b50600081511415611be6576040517f08c379a0000000000000000000000000000000000000000000000000000000008152600401611bdd90612d17565b60405180910390fd5b805181602001fd5b63150b7a0260e01b7bffffffffffffffffffffffffffffffffffffffffffffffffffffffff1916817bffffffffffffffffffffffffffffffffffffffffffffffffffffffff191614915050611c43565b600190505b949350505050565b60007f01ffc9a7000000000000000000000000000000000000000000000000000000007bffffffffffffffffffffffffffffffffffffffffffffffffffffffff1916827bffffffffffffffffffffffffffffffffffffffffffffffffffffffff1916149050919050565b611cc08383836120e3565b600073ffffffffffffffffffffffffffffffffffffffff168373ffffffffffffffffffffffffffffffffffffffff161415611d0357611cfe816120e8565b611d42565b8173ffffffffffffffffffffffffffffffffffffffff168373ffffffffffffffffffffffffffffffffffffffff1614611d4157611d408382612131565b5b5b600073ffffffffffffffffffffffffffffffffffffffff168273ffffffffffffffffffffffffffffffffffffffff161415611d8557611d808161229e565b611dc4565b8273ffffffffffffffffffffffffffffffffffffffff168273ffffffffffffffffffffffffffffffffffffffff1614611dc357611dc282826123e1565b5b5b505050565b600073ffffffffffffffffffffffffffffffffffffffff168273ffffffffffffffffffffffffffffffffffffffff161415611e39576040517f08c379a0000000000000000000000000000000000000000000000000000000008152600401611e3090612e57565b60405180910390fd5b611e4281611013565b15611e82576040517f08c379a0000000000000000000000000000000000000000000000000000000008152600401611e7990612d77565b60405180910390fd5b611e8e600083836119f1565b6001600360008473ffffffffffffffffffffffffffffffffffffffff1673ffffffffffffffffffffffffffffffffffffffff1681526020019081526020016000206000828254611ede9190613024565b92505081905550816002600083815260200190815260200160002060006101000a81548173ffffffffffffffffffffffffffffffffffffffff021916908373ffffffffffffffffffffffffffffffffffffffff160217905550808273ffffffffffffffffffffffffffffffffffffffff16600073ffffffffffffffffffffffffffffffffffffffff167fddf252ad1be2c89b69c2b068fc378daa952ba7f163c4a11628f55a4df523b3ef60405160405180910390a4611f9f60008383611a01565b5050565b6000611fae826109d7565b9050611fbc816000846119f1565b611fc7600083611087565b6001600360008373ffffffffffffffffffffffffffffffffffffffff1673ffffffffffffffffffffffffffffffffffffffff168152602001908152602001600020600082825461201791906130ab565b925050819055506002600083815260200190815260200160002060006101000a81549073ffffffffffffffffffffffffffffffffffffffff021916905581600073ffffffffffffffffffffffffffffffffffffffff168273ffffffffffffffffffffffffffffffffffffffff167fddf252ad1be2c89b69c2b068fc378daa952ba7f163c4a11628f55a4df523b3ef60405160405180910390a46120bc81600084611a01565b5050565b6000808273ffffffffffffffffffffffffffffffffffffffff163b119050919050565b505050565b6008805490506009600083815260200190815260200160002081905550600881908060018154018082558091505060019003906000526020600020016000909190919091505550565b6000600161213e84610b20565b61214891906130ab565b905060006007600084815260200190815260200160002054905081811461222d576000600660008673ffffffffffffffffffffffffffffffffffffffff1673ffffffffffffffffffffffffffffffffffffffff168152602001908152602001600020600084815260200190815260200160002054905080600660008773ffffffffffffffffffffffffffffffffffffffff1673ffffffffffffffffffffffffffffffffffffffff168152602001908152602001600020600084815260200190815260200160002081905550816007600083815260200190815260200160002081905550505b6007600084815260200190815260200160002060009055600660008573ffffffffffffffffffffffffffffffffffffffff1673ffffffffffffffffffffffffffffffffffffffff16815260200190815260200160002060008381526020019081526020016000206000905550505050565b600060016008805490506122b291906130ab565b9050600060096000848152602001908152602001600020549050600060088381548110612308577f4e487b7100000000000000000000000000000000000000000000000000000000600052603260045260246000fd5b906000526020600020015490508060088381548110612350577f4e487b7100000000000000000000000000000000000000000000000000000000600052603260045260246000fd5b9060005260206000200181905550816009600083815260200190815260200160002081905550600960008581526020019081526020016000206000905560088054806123c5577f4e487b7100000000000000000000000000000000000000000000000000000000600052603160045260246000fd5b6001900381819060005260206000200160009055905550505050565b60006123ec83610b20565b905081600660008573ffffffffffffffffffffffffffffffffffffffff1673ffffffffffffffffffffffffffffffffffffffff168152602001908152602001600020600083815260200190815260200160002081905550806007600084815260200190815260200160002081905550505050565b50805461246c90613195565b6000825580601f1061247e575061249d565b601f01602090049060005260206000209081019061249c91906124a0565b5b50565b5b808211156124b95760008160009055506001016124a1565b5090565b60006124d06124cb84612f77565b612f52565b9050828152602081018484840111156124e857600080fd5b6124f3848285613153565b509392505050565b60008135905061250a81613922565b92915050565b60008135905061251f81613939565b92915050565b60008135905061253481613950565b92915050565b60008151905061254981613950565b92915050565b600082601f83011261256057600080fd5b81356125708482602086016124bd565b91505092915050565b60008135905061258881613967565b92915050565b6000602082840312156125a057600080fd5b60006125ae848285016124fb565b91505092915050565b600080604083850312156125ca57600080fd5b60006125d8858286016124fb565b92505060206125e9858286016124fb565b9150509250929050565b60008060006060848603121561260857600080fd5b6000612616868287016124fb565b9350506020612627868287016124fb565b925050604061263886828701612579565b9150509250925092565b6000806000806080858703121561265857600080fd5b6000612666878288016124fb565b9450506020612677878288016124fb565b935050604061268887828801612579565b925050606085013567ffffffffffffffff8111156126a557600080fd5b6126b18782880161254f565b91505092959194509250565b600080604083850312156126d057600080fd5b60006126de858286016124fb565b92505060206126ef85828601612510565b9150509250929050565b6000806040838503121561270c57600080fd5b600061271a858286016124fb565b925050602061272b85828601612579565b9150509250929050565b60006020828403121561274757600080fd5b600061275584828501612525565b91505092915050565b60006020828403121561277057600080fd5b600061277e8482850161253a565b91505092915050565b60006020828403121561279957600080fd5b60006127a784828501612579565b91505092915050565b60006127bc8383612bc6565b60208301905092915050565b6127d1816130df565b82525050565b60006127e282612fb8565b6127ec8185612fe6565b93506127f783612fa8565b8060005b8381101561282857815161280f88826127b0565b975061281a83612fd9565b9250506001810190506127fb565b5085935050505092915050565b61283e816130f1565b82525050565b600061284f82612fc3565b6128598185612ff7565b9350612869818560208601613162565b6128728161332e565b840191505092915050565b600061288882612fce565b6128928185613008565b93506128a2818560208601613162565b6128ab8161332e565b840191505092915050565b60006128c182612fce565b6128cb8185613019565b93506128db818560208601613162565b80840191505092915050565b60006128f4604483613019565b91506128ff8261333f565b604482019050919050565b6000612917602383613008565b9150612922826133b4565b604082019050919050565b600061293a602b83613008565b915061294582613403565b604082019050919050565b600061295d603283613008565b915061296882613452565b604082019050919050565b6000612980602683613008565b915061298b826134a1565b604082019050919050565b60006129a3602583613008565b91506129ae826134f0565b604082019050919050565b60006129c6601c83613008565b91506129d18261353f565b602082019050919050565b60006129e9602483613008565b91506129f482613568565b604082019050919050565b6000612a0c601983613008565b9150612a17826135b7565b602082019050919050565b6000612a2f602c83613008565b9150612a3a826135e0565b604082019050919050565b6000612a52603883613008565b9150612a5d8261362f565b604082019050919050565b6000612a75602a83613008565b9150612a808261367e565b604082019050919050565b6000612a98602983613008565b9150612aa3826136cd565b604082019050919050565b6000612abb602083613008565b9150612ac68261371c565b602082019050919050565b6000612ade602c83613008565b9150612ae982613745565b604082019050919050565b6000612b01600583613019565b9150612b0c82613794565b600582019050919050565b6000612b24602083613008565b9150612b2f826137bd565b602082019050919050565b6000612b47602183613008565b9150612b52826137e6565b604082019050919050565b6000612b6a603183613008565b9150612b7582613835565b604082019050919050565b6000612b8d602c83613008565b9150612b9882613884565b604082019050919050565b6000612bb0603083613008565b9150612bbb826138d3565b604082019050919050565b612bcf81613149565b82525050565b612bde81613149565b82525050565b6000612bef826128e7565b9150612bfb82846128b6565b9150612c0682612af4565b915081905092915050565b6000602082019050612c2660008301846127c8565b92915050565b6000608082019050612c4160008301876127c8565b612c4e60208301866127c8565b612c5b6040830185612bd5565b8181036060830152612c6d8184612844565b905095945050505050565b60006020820190508181036000830152612c9281846127d7565b905092915050565b6000602082019050612caf6000830184612835565b92915050565b60006020820190508181036000830152612ccf818461287d565b905092915050565b60006020820190508181036000830152612cf08161290a565b9050919050565b60006020820190508181036000830152612d108161292d565b9050919050565b60006020820190508181036000830152612d3081612950565b9050919050565b60006020820190508181036000830152612d5081612973565b9050919050565b60006020820190508181036000830152612d7081612996565b9050919050565b60006020820190508181036000830152612d90816129b9565b9050919050565b60006020820190508181036000830152612db0816129dc565b9050919050565b60006020820190508181036000830152612dd0816129ff565b9050919050565b60006020820190508181036000830152612df081612a22565b9050919050565b60006020820190508181036000830152612e1081612a45565b9050919050565b60006020820190508181036000830152612e3081612a68565b9050919050565b60006020820190508181036000830152612e5081612a8b565b9050919050565b60006020820190508181036000830152612e7081612aae565b9050919050565b60006020820190508181036000830152612e9081612ad1565b9050919050565b60006020820190508181036000830152612eb081612b17565b9050919050565b60006020820190508181036000830152612ed081612b3a565b9050919050565b60006020820190508181036000830152612ef081612b5d565b9050919050565b60006020820190508181036000830152612f1081612b80565b9050919050565b60006020820190508181036000830152612f3081612ba3565b9050919050565b6000602082019050612f4c6000830184612bd5565b92915050565b6000612f5c612f6d565b9050612f6882826131c7565b919050565b6000604051905090565b600067ffffffffffffffff821115612f9257612f916132ff565b5b612f9b8261332e565b9050602081019050919050565b6000819050602082019050919050565b600081519050919050565b600081519050919050565b600081519050919050565b6000602082019050919050565b600082825260208201905092915050565b600082825260208201905092915050565b600082825260208201905092915050565b600081905092915050565b600061302f82613149565b915061303a83613149565b9250827fffffffffffffffffffffffffffffffffffffffffffffffffffffffffffffffff0382111561306f5761306e613272565b5b828201905092915050565b600061308582613149565b915061309083613149565b9250826130a05761309f6132a1565b5b828204905092915050565b60006130b682613149565b91506130c183613149565b9250828210156130d4576130d3613272565b5b828203905092915050565b60006130ea82613129565b9050919050565b60008115159050919050565b60007fffffffff0000000000000000000000000000000000000000000000000000000082169050919050565b600073ffffffffffffffffffffffffffffffffffffffff82169050919050565b6000819050919050565b82818337600083830152505050565b60005b83811015613180578082015181840152602081019050613165565b8381111561318f576000848401525b50505050565b600060028204905060018216806131ad57607f821691505b602082108114156131c1576131c06132d0565b5b50919050565b6131d08261332e565b810181811067ffffffffffffffff821117156131ef576131ee6132ff565b5b80604052505050565b600061320382613149565b91507fffffffffffffffffffffffffffffffffffffffffffffffffffffffffffffffff82141561323657613235613272565b5b600182019050919050565b600061324c82613149565b915061325783613149565b925082613267576132666132a1565b5b828206905092915050565b7f4e487b7100000000000000000000000000000000000000000000000000000000600052601160045260246000fd5b7f4e487b7100000000000000000000000000000000000000000000000000000000600052601260045260246000fd5b7f4e487b7100000000000000000000000000000000000000000000000000000000600052602260045260246000fd5b7f4e487b7100000000000000000000000000000000000000000000000000000000600052604160045260246000fd5b6000601f19601f8301169050919050565b7f68747470733a2f2f697066732e696f2f697066732f516d5556346e4e55376f5360008201527f38704d487461664a67314c765172565558526559326b3843663647585562336260208201527f5276532f00000000000000000000000000000000000000000000000000000000604082015250565b7f57473a2055524920517565727920466f72204e6f6e6578697374656e7420546f60008201527f6b656e0000000000000000000000000000000000000000000000000000000000602082015250565b7f455243373231456e756d657261626c653a206f776e657220696e646578206f7560008201527f74206f6620626f756e6473000000000000000000000000000000000000000000602082015250565b7f4552433732313a207472616e7366657220746f206e6f6e20455243373231526560008201527f63656976657220696d706c656d656e7465720000000000000000000000000000602082015250565b7f4f776e61626c653a206e6577206f776e657220697320746865207a65726f206160008201527f6464726573730000000000000000000000000000000000000000000000000000602082015250565b7f4552433732313a207472616e736665722066726f6d20696e636f72726563742060008201527f6f776e6572000000000000000000000000000000000000000000000000000000602082015250565b7f4552433732313a20746f6b656e20616c7265616479206d696e74656400000000600082015250565b7f4552433732313a207472616e7366657220746f20746865207a65726f2061646460008201527f7265737300000000000000000000000000000000000000000000000000000000602082015250565b7f4552433732313a20617070726f766520746f2063616c6c657200000000000000600082015250565b7f4552433732313a206f70657261746f7220717565727920666f72206e6f6e657860008201527f697374656e7420746f6b656e0000000000000000000000000000000000000000602082015250565b7f4552433732313a20617070726f76652063616c6c6572206973206e6f74206f7760008201527f6e6572206e6f7220617070726f76656420666f7220616c6c0000000000000000602082015250565b7f4552433732313a2062616c616e636520717565727920666f7220746865207a6560008201527f726f206164647265737300000000000000000000000000000000000000000000602082015250565b7f4552433732313a206f776e657220717565727920666f72206e6f6e657869737460008201527f656e7420746f6b656e0000000000000000000000000000000000000000000000602082015250565b7f4552433732313a206d696e7420746f20746865207a65726f2061646472657373600082015250565b7f4552433732313a20617070726f76656420717565727920666f72206e6f6e657860008201527f697374656e7420746f6b656e0000000000000000000000000000000000000000602082015250565b7f2e6a736f6e000000000000000000000000000000000000000000000000000000600082015250565b7f4f776e61626c653a2063616c6c6572206973206e6f7420746865206f776e6572600082015250565b7f4552433732313a20617070726f76616c20746f2063757272656e74206f776e6560008201527f7200000000000000000000000000000000000000000000000000000000000000602082015250565b7f4552433732313a207472616e736665722063616c6c6572206973206e6f74206f60008201527f776e6572206e6f7220617070726f766564000000000000000000000000000000602082015250565b7f455243373231456e756d657261626c653a20676c6f62616c20696e646578206f60008201527f7574206f6620626f756e64730000000000000000000000000000000000000000602082015250565b7f4552433732314275726e61626c653a2063616c6c6572206973206e6f74206f7760008201527f6e6572206e6f7220617070726f76656400000000000000000000000000000000602082015250565b61392b816130df565b811461393657600080fd5b50565b613942816130f1565b811461394d57600080fd5b50565b613959816130fd565b811461396457600080fd5b50565b61397081613149565b811461397b57600080fd5b5056fea2646970667358221220b7eb673366436250eaa14ba2bbc1bd85eb00c6d77af4f6104b540d5edeb6085764736f6c63430008040033",
  "linkReferences": {},
  "deployedLinkReferences": {}
}