{
  "_format": "hh-sol-artifact-1",
  "contractName": "CommunityManager",
  "sourceName": "contracts/CommunityManager.sol",
  "abi": [
    {
      "inputs": [
        {
          "internalType": "address",
          "name": "initialOwner",
          "type": "address"
        }
      ],
      "stateMutability": "nonpayable",
      "type": "constructor"
    },
    {
      "inputs": [
        {
          "internalType": "address",
          "name": "owner",
          "type": "address"
        }
      ],
      "name": "OwnableInvalidOwner",
      "type": "error"
    },
    {
      "inputs": [
        {
          "internalType": "address",
          "name": "account",
          "type": "address"
        }
      ],
      "name": "OwnableUnauthorizedAccount",
      "type": "error"
    },
    {
      "anonymous": false,
      "inputs": [
        {
          "indexed": true,
          "internalType": "address",
          "name": "previousOwner",
          "type": "address"
        },
        {
          "indexed": true,
          "internalType": "address",
          "name": "newOwner",
          "type": "address"
        }
      ],
      "name": "OwnershipTransferred",
      "type": "event"
    },
    {
      "inputs": [
        {
          "internalType": "uint256",
          "name": "",
          "type": "uint256"
        }
      ],
      "name": "communityList",
      "outputs": [
        {
          "internalType": "address",
          "name": "",
          "type": "address"
        }
      ],
      "stateMutability": "view",
      "type": "function"
    },
    {
      "inputs": [
        {
          "internalType": "address",
          "name": "communityAddress",
          "type": "address"
        },
        {
          "internalType": "bytes",
          "name": "_data",
          "type": "bytes"
        }
      ],
      "name": "createCommunity",
      "outputs": [],
      "stateMutability": "nonpayable",
      "type": "function"
    },
    {
      "inputs": [],
      "name": "getCommunityList",
      "outputs": [
        {
          "internalType": "address[]",
          "name": "",
          "type": "address[]"
        }
      ],
      "stateMutability": "view",
      "type": "function"
    },
    {
      "inputs": [],
      "name": "owner",
      "outputs": [
        {
          "internalType": "address",
          "name": "",
          "type": "address"
        }
      ],
      "stateMutability": "view",
      "type": "function"
    },
    {
      "inputs": [],
      "name": "renounceOwnership",
      "outputs": [],
      "stateMutability": "nonpayable",
      "type": "function"
    },
    {
      "inputs": [
        {
          "internalType": "address",
          "name": "newOwner",
          "type": "address"
        }
      ],
      "name": "transferOwnership",
      "outputs": [],
      "stateMutability": "nonpayable",
      "type": "function"
    }
  ],
  "bytecode": "0x608060405234801561001057600080fd5b506040516109fa3803806109fa83398101604081905261002f916100be565b806001600160a01b03811661005e57604051631e4fbdf760e01b81526000600482015260240160405180910390fd5b6100678161006e565b50506100ee565b600080546001600160a01b038381166001600160a01b0319831681178455604051919092169283917f8be0079c531659141344cd1fd0a4f28419497f9722a3daafe3b4186f6b6457e09190a35050565b6000602082840312156100d057600080fd5b81516001600160a01b03811681146100e757600080fd5b9392505050565b6108fd806100fd6000396000f3fe608060405234801561001057600080fd5b50600436106100625760003560e01c8063715018a6146100675780638da5cb5b1461007157806390cea25e1461009b578063a681b7ba146100b0578063f2fde38b146100c3578063f800ced7146100d6575b600080fd5b61006f6100e9565b005b6000546001600160a01b03165b6040516001600160a01b0390911681526020015b60405180910390f35b6100a36100fd565b60405161009291906102e2565b61007e6100be36600461032f565b61015f565b61006f6100d1366004610364565b610189565b61006f6100e436600461039c565b6101cc565b6100f1610258565b6100fb6000610285565b565b6060600180548060200260200160405190810160405280929190818152602001828054801561015557602002820191906000526020600020905b81546001600160a01b03168152600190910190602001808311610137575b5050505050905090565b6001818154811061016f57600080fd5b6000918252602090912001546001600160a01b0316905081565b610191610258565b6001600160a01b0381166101c057604051631e4fbdf760e01b8152600060048201526024015b60405180910390fd5b6101c981610285565b50565b600082826040516101dc906102d5565b6101e792919061045e565b604051809103906000f080158015610203573d6000803e3d6000fd5b506001805480820182556000919091527fb10e2d527612073b26eecdfd717e6a320cf44b4afac2b0732d9fcbe2b7fa0cf60180546001600160a01b0319166001600160a01b0392909216919091179055505050565b6000546001600160a01b031633146100fb5760405163118cdaa760e01b81523360048201526024016101b7565b600080546001600160a01b038381166001600160a01b0319831681178455604051919092169283917f8be0079c531659141344cd1fd0a4f28419497f9722a3daafe3b4186f6b6457e09190a35050565b61040a806104be83390190565b6020808252825182820181905260009190848201906040850190845b818110156103235783516001600160a01b0316835292840192918401916001016102fe565b50909695505050505050565b60006020828403121561034157600080fd5b5035919050565b80356001600160a01b038116811461035f57600080fd5b919050565b60006020828403121561037657600080fd5b61037f82610348565b9392505050565b634e487b7160e01b600052604160045260246000fd5b600080604083850312156103af57600080fd5b6103b883610348565b9150602083013567ffffffffffffffff808211156103d557600080fd5b818501915085601f8301126103e957600080fd5b8135818111156103fb576103fb610386565b604051601f8201601f19908116603f0116810190838211818310171561042357610423610386565b8160405282815288602084870101111561043c57600080fd5b8260208601602083013760006020848301015280955050505050509250929050565b60018060a01b03831681526000602060406020840152835180604085015260005b8181101561049b5785810183015185820160600152820161047f565b506000606082860101526060601f19601f83011685010192505050939250505056fe608060405260405161040a38038061040a83398101604081905261002291610268565b61002c8282610033565b5050610352565b61003c82610092565b6040516001600160a01b038316907fbc7cd75a20ee27fd9adebab32041f755214dbc6bffa90cc0225b39da2e5c2d3b90600090a280511561008657610081828261010e565b505050565b61008e610185565b5050565b806001600160a01b03163b6000036100cd57604051634c9c8ce360e01b81526001600160a01b03821660048201526024015b60405180910390fd5b7f360894a13ba1a3210667c828492db98dca3e2076cc3735a920a3ca505d382bbc80546001600160a01b0319166001600160a01b0392909216919091179055565b6060600080846001600160a01b03168460405161012b9190610336565b600060405180830381855af49150503d8060008114610166576040519150601f19603f3d011682016040523d82523d6000602084013e61016b565b606091505b50909250905061017c8583836101a6565b95945050505050565b34156101a45760405163b398979f60e01b815260040160405180910390fd5b565b6060826101bb576101b682610205565b6101fe565b81511580156101d257506001600160a01b0384163b155b156101fb57604051639996b31560e01b81526001600160a01b03851660048201526024016100c4565b50805b9392505050565b8051156102155780518082602001fd5b604051630a12f52160e11b815260040160405180910390fd5b634e487b7160e01b600052604160045260246000fd5b60005b8381101561025f578181015183820152602001610247565b50506000910152565b6000806040838503121561027b57600080fd5b82516001600160a01b038116811461029257600080fd5b60208401519092506001600160401b03808211156102af57600080fd5b818501915085601f8301126102c357600080fd5b8151818111156102d5576102d561022e565b604051601f8201601f19908116603f011681019083821181831017156102fd576102fd61022e565b8160405282815288602084870101111561031657600080fd5b610327836020830160208801610244565b80955050505050509250929050565b60008251610348818460208701610244565b9190910192915050565b60aa806103606000396000f3fe6080604052600a600c565b005b60186014601a565b6051565b565b6000604c7f360894a13ba1a3210667c828492db98dca3e2076cc3735a920a3ca505d382bbc546001600160a01b031690565b905090565b3660008037600080366000845af43d6000803e808015606f573d6000f35b3d6000fdfea2646970667358221220bd42728c374f7f0ddc17b53ec61cdb40d51094c5fa601cbd894add86d0771b8264736f6c63430008180033a2646970667358221220d1873014f0443a8ab8a4c4ec49fe0d870b3517a10d33cad675db02c30d51e28f64736f6c63430008180033",
  "linkReferences": {},
  "deployedLinkReferences": {}
}