{
    "_format": "hh-sol-artifact-1",
    "contractName": "CommunityGoods",
    "sourceName": "contracts/CommunityGoods.sol",
    "abi": [
        {
            "inputs": [
                {
                    "internalType": "address",
                    "name": "initialOwner",
                    "type": "address"
                },
                {
                    "components": [
                        {
                            "internalType": "string",
                            "name": "name",
                            "type": "string"
                        },
                        {
                            "internalType": "string",
                            "name": "description",
                            "type": "string"
                        },
                        {
                            "internalType": "string",
                            "name": "logo",
                            "type": "string"
                        },
                        {
                            "internalType": "address",
                            "name": "payToken",
                            "type": "address"
                        },
                        {
                            "internalType": "address",
                            "name": "receiver",
                            "type": "address"
                        },
                        {
                            "internalType": "uint256",
                            "name": "amount",
                            "type": "uint256"
                        },
                        {
                            "internalType": "uint256",
                            "name": "price",
                            "type": "uint256"
                        }
                    ],
                    "internalType": "struct CommunityGoods.GoodsSetting",
                    "name": "_setting",
                    "type": "tuple"
                }
            ],
            "stateMutability": "nonpayable",
            "type": "constructor"
        },
        {
            "inputs": [
                {
                    "internalType": "address",
                    "name": "owner",
                    "type": "address"
                }
            ],
            "name": "OwnableInvalidOwner",
            "type": "error"
        },
        {
            "inputs": [
                {
                    "internalType": "address",
                    "name": "account",
                    "type": "address"
                }
            ],
            "name": "OwnableUnauthorizedAccount",
            "type": "error"
        },
        {
            "anonymous": false,
            "inputs": [
                {
                    "indexed": true,
                    "internalType": "address",
                    "name": "previousOwner",
                    "type": "address"
                },
                {
                    "indexed": true,
                    "internalType": "address",
                    "name": "newOwner",
                    "type": "address"
                }
            ],
            "name": "OwnershipTransferred",
            "type": "event"
        },
        {
            "inputs": [
                {
                    "internalType": "uint256",
                    "name": "count",
                    "type": "uint256"
                }
            ],
            "name": "buy",
            "outputs": [],
            "stateMutability": "nonpayable",
            "type": "function"
        },
        {
            "inputs": [],
            "name": "goodsAmount",
            "outputs": [
                {
                    "internalType": "uint256",
                    "name": "",
                    "type": "uint256"
                }
            ],
            "stateMutability": "view",
            "type": "function"
        },
        {
            "inputs": [],
            "name": "owner",
            "outputs": [
                {
                    "internalType": "address",
                    "name": "",
                    "type": "address"
                }
            ],
            "stateMutability": "view",
            "type": "function"
        },
        {
            "inputs": [],
            "name": "renounceOwnership",
            "outputs": [],
            "stateMutability": "nonpayable",
            "type": "function"
        },
        {
            "inputs": [],
            "name": "setting",
            "outputs": [
                {
                    "internalType": "string",
                    "name": "name",
                    "type": "string"
                },
                {
                    "internalType": "string",
                    "name": "description",
                    "type": "string"
                },
                {
                    "internalType": "string",
                    "name": "logo",
                    "type": "string"
                },
                {
                    "internalType": "address",
                    "name": "payToken",
                    "type": "address"
                },
                {
                    "internalType": "address",
                    "name": "receiver",
                    "type": "address"
                },
                {
                    "internalType": "uint256",
                    "name": "amount",
                    "type": "uint256"
                },
                {
                    "internalType": "uint256",
                    "name": "price",
                    "type": "uint256"
                }
            ],
            "stateMutability": "view",
            "type": "function"
        },
        {
            "inputs": [
                {
                    "internalType": "address",
                    "name": "newOwner",
                    "type": "address"
                }
            ],
            "name": "transferOwnership",
            "outputs": [],
            "stateMutability": "nonpayable",
            "type": "function"
        },
        {
            "inputs": [
                {
                    "internalType": "address",
                    "name": "",
                    "type": "address"
                },
                {
                    "internalType": "uint256",
                    "name": "",
                    "type": "uint256"
                }
            ],
            "name": "userPurchaseHistory",
            "outputs": [
                {
                    "internalType": "uint256",
                    "name": "amount",
                    "type": "uint256"
                },
                {
                    "internalType": "uint256",
                    "name": "price",
                    "type": "uint256"
                },
                {
                    "internalType": "uint256",
                    "name": "time",
                    "type": "uint256"
                }
            ],
            "stateMutability": "view",
            "type": "function"
        }
    ],
    "bytecode": "0x60806040523480156200001157600080fd5b5060405162000c3238038062000c3283398101604081905262000034916200026d565b816001600160a01b0381166200006457604051631e4fbdf760e01b81526000600482015260240160405180910390fd5b6200006f81620000ff565b50805160019062000081908262000410565b50602081015160029062000096908262000410565b506040810151600390620000ab908262000410565b506060810151600480546001600160a01b039283166001600160a01b03199182161790915560a0830151600681905560c08401516007556080909301516005805491909316911617905560085550620004dc565b600080546001600160a01b038381166001600160a01b0319831681178455604051919092169283917f8be0079c531659141344cd1fd0a4f28419497f9722a3daafe3b4186f6b6457e09190a35050565b80516001600160a01b03811681146200016757600080fd5b919050565b634e487b7160e01b600052604160045260246000fd5b60405160e081016001600160401b0381118282101715620001a757620001a76200016c565b60405290565b604051601f8201601f191681016001600160401b0381118282101715620001d857620001d86200016c565b604052919050565b600082601f830112620001f257600080fd5b81516001600160401b038111156200020e576200020e6200016c565b602062000224601f8301601f19168201620001ad565b82815285828487010111156200023957600080fd5b60005b83811015620002595785810183015182820184015282016200023c565b506000928101909101919091529392505050565b600080604083850312156200028157600080fd5b6200028c836200014f565b60208401519092506001600160401b0380821115620002aa57600080fd5b9084019060e08287031215620002bf57600080fd5b620002c962000182565b825182811115620002d957600080fd5b620002e788828601620001e0565b825250602083015182811115620002fd57600080fd5b6200030b88828601620001e0565b6020830152506040830151828111156200032457600080fd5b6200033288828601620001e0565b60408301525062000346606084016200014f565b606082015262000359608084016200014f565b608082015260a083015160a082015260c083015160c08201528093505050509250929050565b600181811c908216806200039457607f821691505b602082108103620003b557634e487b7160e01b600052602260045260246000fd5b50919050565b601f8211156200040b576000816000526020600020601f850160051c81016020861015620003e65750805b601f850160051c820191505b818110156200040757828155600101620003f2565b5050505b505050565b81516001600160401b038111156200042c576200042c6200016c565b62000444816200043d84546200037f565b84620003bb565b602080601f8311600181146200047c5760008415620004635750858301515b600019600386901b1c1916600185901b17855562000407565b600085815260208120601f198616915b82811015620004ad578886015182559484019460019091019084016200048c565b5085821015620004cc5787850151600019600388901b60f8161c191681555b5050505050600190811b01905550565b61074680620004ec6000396000f3fe608060405234801561001057600080fd5b506004361061006d5760003560e01c80635fcd79ca14610072578063715018a61461008e5780638da5cb5b14610098578063c0c9ce30146100b1578063d96a094a146100cc578063eed3e097146100df578063f2fde38b1461010d575b600080fd5b61007b60085481565b6040519081526020015b60405180910390f35b610096610120565b005b6000546001600160a01b0316604051610085919061052a565b6100b9610134565b6040516100859796959493929190610584565b6100966100da3660046105ed565b610309565b6100f26100ed366004610622565b610424565b60408051938452602084019290925290820152606001610085565b61009661011b36600461064c565b610466565b6101286104ad565b61013260006104da565b565b6001805481906101439061066e565b80601f016020809104026020016040519081016040528092919081815260200182805461016f9061066e565b80156101bc5780601f10610191576101008083540402835291602001916101bc565b820191906000526020600020905b81548152906001019060200180831161019f57829003601f168201915b5050505050908060010180546101d19061066e565b80601f01602080910402602001604051908101604052809291908181526020018280546101fd9061066e565b801561024a5780601f1061021f5761010080835404028352916020019161024a565b820191906000526020600020905b81548152906001019060200180831161022d57829003601f168201915b50505050509080600201805461025f9061066e565b80601f016020809104026020016040519081016040528092919081815260200182805461028b9061066e565b80156102d85780601f106102ad576101008083540402835291602001916102d8565b820191906000526020600020905b8154815290600101906020018083116102bb57829003601f168201915b5050505060038301546004840154600585015460069095015493946001600160a01b03928316949290911692509087565b3360009081526009602090815260409182902082516060810184528481526007549281019290925242928201929092526008546103479084906106be565b600855815460018181018455600084815260209081902084516003909402019283558301519082015560408201516002909101556004546005546007546001600160a01b03928316926323b872dd9233929116906103a69088906106d7565b6040516001600160e01b031960e086901b1681526001600160a01b03938416600482015292909116602483015260448201526064016020604051808303816000875af11580156103fa573d6000803e3d6000fd5b505050506040513d601f19601f8201168201806040525081019061041e91906106ee565b50505050565b6009602052816000526040600020818154811061044057600080fd5b600091825260209091206003909102018054600182015460029092015490935090915083565b61046e6104ad565b6001600160a01b0381166104a1576000604051631e4fbdf760e01b8152600401610498919061052a565b60405180910390fd5b6104aa816104da565b50565b6000546001600160a01b03163314610132573360405163118cdaa760e01b8152600401610498919061052a565b600080546001600160a01b038381166001600160a01b0319831681178455604051919092169283917f8be0079c531659141344cd1fd0a4f28419497f9722a3daafe3b4186f6b6457e09190a35050565b6001600160a01b0391909116815260200190565b6000815180845260005b8181101561056457602081850181015186830182015201610548565b506000602082860101526020601f19601f83011685010191505092915050565b60e08152600061059760e083018a61053e565b82810360208401526105a9818a61053e565b905082810360408401526105bd818961053e565b6001600160a01b0397881660608501529590961660808301525060a081019290925260c090910152949350505050565b6000602082840312156105ff57600080fd5b5035919050565b80356001600160a01b038116811461061d57600080fd5b919050565b6000806040838503121561063557600080fd5b61063e83610606565b946020939093013593505050565b60006020828403121561065e57600080fd5b61066782610606565b9392505050565b600181811c9082168061068257607f821691505b6020821081036106a257634e487b7160e01b600052602260045260246000fd5b50919050565b634e487b7160e01b600052601160045260246000fd5b818103818111156106d1576106d16106a8565b92915050565b80820281158282048414176106d1576106d16106a8565b60006020828403121561070057600080fd5b8151801515811461066757600080fdfea26469706673582212209e6f3387bf2590c54dda21c64d44726f0c05007d2f0d2caf95d719c73d0c5de264736f6c63430008180033",
    "linkReferences": {},
    "deployedLinkReferences": {}
}