{
  "_format": "hh-sol-artifact-1",
  "contractName": "CommunityNFT",
  "sourceName": "contracts/CommunityNFT.sol",
  "abi": [
    {
      "inputs": [
        {
          "internalType": "address",
          "name": "initialOwner",
          "type": "address"
        },
        {
          "internalType": "string",
          "name": "_name",
          "type": "string"
        },
        {
          "internalType": "string",
          "name": "_symbol",
          "type": "string"
        },
        {
          "internalType": "string",
          "name": "_baseTokenURI",
          "type": "string"
        },
        {
          "internalType": "address",
          "name": "_payToken",
          "type": "address"
        },
        {
          "internalType": "uint256",
          "name": "_price",
          "type": "uint256"
        }
      ],
      "stateMutability": "nonpayable",
      "type": "constructor"
    },
    {
      "inputs": [
        {
          "internalType": "address",
          "name": "sender",
          "type": "address"
        },
        {
          "internalType": "uint256",
          "name": "tokenId",
          "type": "uint256"
        },
        {
          "internalType": "address",
          "name": "owner",
          "type": "address"
        }
      ],
      "name": "ERC721IncorrectOwner",
      "type": "error"
    },
    {
      "inputs": [
        {
          "internalType": "address",
          "name": "operator",
          "type": "address"
        },
        {
          "internalType": "uint256",
          "name": "tokenId",
          "type": "uint256"
        }
      ],
      "name": "ERC721InsufficientApproval",
      "type": "error"
    },
    {
      "inputs": [
        {
          "internalType": "address",
          "name": "approver",
          "type": "address"
        }
      ],
      "name": "ERC721InvalidApprover",
      "type": "error"
    },
    {
      "inputs": [
        {
          "internalType": "address",
          "name": "operator",
          "type": "address"
        }
      ],
      "name": "ERC721InvalidOperator",
      "type": "error"
    },
    {
      "inputs": [
        {
          "internalType": "address",
          "name": "owner",
          "type": "address"
        }
      ],
      "name": "ERC721InvalidOwner",
      "type": "error"
    },
    {
      "inputs": [
        {
          "internalType": "address",
          "name": "receiver",
          "type": "address"
        }
      ],
      "name": "ERC721InvalidReceiver",
      "type": "error"
    },
    {
      "inputs": [
        {
          "internalType": "address",
          "name": "sender",
          "type": "address"
        }
      ],
      "name": "ERC721InvalidSender",
      "type": "error"
    },
    {
      "inputs": [
        {
          "internalType": "uint256",
          "name": "tokenId",
          "type": "uint256"
        }
      ],
      "name": "ERC721NonexistentToken",
      "type": "error"
    },
    {
      "inputs": [
        {
          "internalType": "address",
          "name": "owner",
          "type": "address"
        }
      ],
      "name": "OwnableInvalidOwner",
      "type": "error"
    },
    {
      "inputs": [
        {
          "internalType": "address",
          "name": "account",
          "type": "address"
        }
      ],
      "name": "OwnableUnauthorizedAccount",
      "type": "error"
    },
    {
      "anonymous": false,
      "inputs": [
        {
          "indexed": true,
          "internalType": "address",
          "name": "owner",
          "type": "address"
        },
        {
          "indexed": true,
          "internalType": "address",
          "name": "approved",
          "type": "address"
        },
        {
          "indexed": true,
          "internalType": "uint256",
          "name": "tokenId",
          "type": "uint256"
        }
      ],
      "name": "Approval",
      "type": "event"
    },
    {
      "anonymous": false,
      "inputs": [
        {
          "indexed": true,
          "internalType": "address",
          "name": "owner",
          "type": "address"
        },
        {
          "indexed": true,
          "internalType": "address",
          "name": "operator",
          "type": "address"
        },
        {
          "indexed": false,
          "internalType": "bool",
          "name": "approved",
          "type": "bool"
        }
      ],
      "name": "ApprovalForAll",
      "type": "event"
    },
    {
      "anonymous": false,
      "inputs": [
        {
          "indexed": false,
          "internalType": "uint256",
          "name": "_fromTokenId",
          "type": "uint256"
        },
        {
          "indexed": false,
          "internalType": "uint256",
          "name": "_toTokenId",
          "type": "uint256"
        }
      ],
      "name": "BatchMetadataUpdate",
      "type": "event"
    },
    {
      "anonymous": false,
      "inputs": [
        {
          "indexed": false,
          "internalType": "uint256",
          "name": "_tokenId",
          "type": "uint256"
        }
      ],
      "name": "MetadataUpdate",
      "type": "event"
    },
    {
      "anonymous": false,
      "inputs": [
        {
          "indexed": true,
          "internalType": "address",
          "name": "previousOwner",
          "type": "address"
        },
        {
          "indexed": true,
          "internalType": "address",
          "name": "newOwner",
          "type": "address"
        }
      ],
      "name": "OwnershipTransferred",
      "type": "event"
    },
    {
      "anonymous": false,
      "inputs": [
        {
          "indexed": false,
          "internalType": "address",
          "name": "account",
          "type": "address"
        },
        {
          "indexed": false,
          "internalType": "uint256",
          "name": "tokenId",
          "type": "uint256"
        }
      ],
      "name": "TokenMinted",
      "type": "event"
    },
    {
      "anonymous": false,
      "inputs": [
        {
          "indexed": true,
          "internalType": "address",
          "name": "from",
          "type": "address"
        },
        {
          "indexed": true,
          "internalType": "address",
          "name": "to",
          "type": "address"
        },
        {
          "indexed": true,
          "internalType": "uint256",
          "name": "tokenId",
          "type": "uint256"
        }
      ],
      "name": "Transfer",
      "type": "event"
    },
    {
      "inputs": [
        {
          "internalType": "address",
          "name": "to",
          "type": "address"
        },
        {
          "internalType": "uint256",
          "name": "tokenId",
          "type": "uint256"
        }
      ],
      "name": "approve",
      "outputs": [],
      "stateMutability": "nonpayable",
      "type": "function"
    },
    {
      "inputs": [
        {
          "internalType": "address",
          "name": "owner",
          "type": "address"
        }
      ],
      "name": "balanceOf",
      "outputs": [
        {
          "internalType": "uint256",
          "name": "",
          "type": "uint256"
        }
      ],
      "stateMutability": "view",
      "type": "function"
    },
    {
      "inputs": [],
      "name": "baseTokenURI",
      "outputs": [
        {
          "internalType": "string",
          "name": "",
          "type": "string"
        }
      ],
      "stateMutability": "view",
      "type": "function"
    },
    {
      "inputs": [
        {
          "internalType": "address",
          "name": "account",
          "type": "address"
        }
      ],
      "name": "getAccountTokenIds",
      "outputs": [
        {
          "internalType": "uint256[]",
          "name": "",
          "type": "uint256[]"
        }
      ],
      "stateMutability": "view",
      "type": "function"
    },
    {
      "inputs": [
        {
          "internalType": "uint256",
          "name": "tokenId",
          "type": "uint256"
        }
      ],
      "name": "getApproved",
      "outputs": [
        {
          "internalType": "address",
          "name": "",
          "type": "address"
        }
      ],
      "stateMutability": "view",
      "type": "function"
    },
    {
      "inputs": [
        {
          "internalType": "address",
          "name": "owner",
          "type": "address"
        },
        {
          "internalType": "address",
          "name": "operator",
          "type": "address"
        }
      ],
      "name": "isApprovedForAll",
      "outputs": [
        {
          "internalType": "bool",
          "name": "",
          "type": "bool"
        }
      ],
      "stateMutability": "view",
      "type": "function"
    },
    {
      "inputs": [
        {
          "internalType": "address",
          "name": "account",
          "type": "address"
        },
        {
          "internalType": "uint256",
          "name": "count",
          "type": "uint256"
        }
      ],
      "name": "mint",
      "outputs": [],
      "stateMutability": "nonpayable",
      "type": "function"
    },
    {
      "inputs": [],
      "name": "name",
      "outputs": [
        {
          "internalType": "string",
          "name": "",
          "type": "string"
        }
      ],
      "stateMutability": "view",
      "type": "function"
    },
    {
      "inputs": [],
      "name": "owner",
      "outputs": [
        {
          "internalType": "address",
          "name": "",
          "type": "address"
        }
      ],
      "stateMutability": "view",
      "type": "function"
    },
    {
      "inputs": [
        {
          "internalType": "uint256",
          "name": "tokenId",
          "type": "uint256"
        }
      ],
      "name": "ownerOf",
      "outputs": [
        {
          "internalType": "address",
          "name": "",
          "type": "address"
        }
      ],
      "stateMutability": "view",
      "type": "function"
    },
    {
      "inputs": [],
      "name": "payToken",
      "outputs": [
        {
          "internalType": "address",
          "name": "",
          "type": "address"
        }
      ],
      "stateMutability": "view",
      "type": "function"
    },
    {
      "inputs": [],
      "name": "price",
      "outputs": [
        {
          "internalType": "uint256",
          "name": "",
          "type": "uint256"
        }
      ],
      "stateMutability": "view",
      "type": "function"
    },
    {
      "inputs": [],
      "name": "renounceOwnership",
      "outputs": [],
      "stateMutability": "nonpayable",
      "type": "function"
    },
    {
      "inputs": [
        {
          "internalType": "address",
          "name": "from",
          "type": "address"
        },
        {
          "internalType": "address",
          "name": "to",
          "type": "address"
        },
        {
          "internalType": "uint256",
          "name": "tokenId",
          "type": "uint256"
        }
      ],
      "name": "safeTransferFrom",
      "outputs": [],
      "stateMutability": "nonpayable",
      "type": "function"
    },
    {
      "inputs": [
        {
          "internalType": "address",
          "name": "from",
          "type": "address"
        },
        {
          "internalType": "address",
          "name": "to",
          "type": "address"
        },
        {
          "internalType": "uint256",
          "name": "tokenId",
          "type": "uint256"
        },
        {
          "internalType": "bytes",
          "name": "data",
          "type": "bytes"
        }
      ],
      "name": "safeTransferFrom",
      "outputs": [],
      "stateMutability": "nonpayable",
      "type": "function"
    },
    {
      "inputs": [
        {
          "internalType": "address",
          "name": "operator",
          "type": "address"
        },
        {
          "internalType": "bool",
          "name": "approved",
          "type": "bool"
        }
      ],
      "name": "setApprovalForAll",
      "outputs": [],
      "stateMutability": "nonpayable",
      "type": "function"
    },
    {
      "inputs": [
        {
          "internalType": "bytes4",
          "name": "interfaceId",
          "type": "bytes4"
        }
      ],
      "name": "supportsInterface",
      "outputs": [
        {
          "internalType": "bool",
          "name": "",
          "type": "bool"
        }
      ],
      "stateMutability": "view",
      "type": "function"
    },
    {
      "inputs": [],
      "name": "symbol",
      "outputs": [
        {
          "internalType": "string",
          "name": "",
          "type": "string"
        }
      ],
      "stateMutability": "view",
      "type": "function"
    },
    {
      "inputs": [
        {
          "internalType": "address",
          "name": "",
          "type": "address"
        },
        {
          "internalType": "uint256",
          "name": "",
          "type": "uint256"
        }
      ],
      "name": "tokenIds",
      "outputs": [
        {
          "internalType": "uint256",
          "name": "",
          "type": "uint256"
        }
      ],
      "stateMutability": "view",
      "type": "function"
    },
    {
      "inputs": [
        {
          "internalType": "uint256",
          "name": "tokenId",
          "type": "uint256"
        }
      ],
      "name": "tokenURI",
      "outputs": [
        {
          "internalType": "string",
          "name": "",
          "type": "string"
        }
      ],
      "stateMutability": "view",
      "type": "function"
    },
    {
      "inputs": [
        {
          "internalType": "address",
          "name": "from",
          "type": "address"
        },
        {
          "internalType": "address",
          "name": "to",
          "type": "address"
        },
        {
          "internalType": "uint256",
          "name": "tokenId",
          "type": "uint256"
        }
      ],
      "name": "transferFrom",
      "outputs": [],
      "stateMutability": "nonpayable",
      "type": "function"
    },
    {
      "inputs": [
        {
          "internalType": "address",
          "name": "newOwner",
          "type": "address"
        }
      ],
      "name": "transferOwnership",
      "outputs": [],
      "stateMutability": "nonpayable",
      "type": "function"
    }
  ],
  "bytecode": "0x60806040523480156200001157600080fd5b506040516200197038038062001970833981016040819052620000349162000207565b858585600062000045838262000358565b50600162000054828262000358565b5050506001600160a01b0381166200008657604051631e4fbdf760e01b81526000600482015260240160405180910390fd5b6200009181620000d0565b506009620000a0848262000358565b50600a80546001600160a01b0319166001600160a01b039390931692909217909155600b55506200042492505050565b600780546001600160a01b038381166001600160a01b0319831681179093556040519116919082907f8be0079c531659141344cd1fd0a4f28419497f9722a3daafe3b4186f6b6457e090600090a35050565b80516001600160a01b03811681146200013a57600080fd5b919050565b634e487b7160e01b600052604160045260246000fd5b600082601f8301126200016757600080fd5b81516001600160401b03808211156200018457620001846200013f565b604051601f8301601f19908116603f01168101908282118183101715620001af57620001af6200013f565b8160405283815260209250866020858801011115620001cd57600080fd5b600091505b83821015620001f15785820183015181830184015290820190620001d2565b6000602085830101528094505050505092915050565b60008060008060008060c087890312156200022157600080fd5b6200022c8762000122565b60208801519096506001600160401b03808211156200024a57600080fd5b620002588a838b0162000155565b965060408901519150808211156200026f57600080fd5b6200027d8a838b0162000155565b955060608901519150808211156200029457600080fd5b50620002a389828a0162000155565b935050620002b46080880162000122565b915060a087015190509295509295509295565b600181811c90821680620002dc57607f821691505b602082108103620002fd57634e487b7160e01b600052602260045260246000fd5b50919050565b601f82111562000353576000816000526020600020601f850160051c810160208610156200032e5750805b601f850160051c820191505b818110156200034f578281556001016200033a565b5050505b505050565b81516001600160401b038111156200037457620003746200013f565b6200038c81620003858454620002c7565b8462000303565b602080601f831160018114620003c45760008415620003ab5750858301515b600019600386901b1c1916600185901b1785556200034f565b600085815260208120601f198616915b82811015620003f557888601518255948401946001909101908401620003d4565b5085821015620004145787850151600019600388901b60f8161c191681555b5050505050600190811b01905550565b61153c80620004346000396000f3fe608060405234801561001057600080fd5b50600436106101425760003560e01c8063715018a6116100b8578063a22cb4651161007c578063a22cb46514610296578063b88d4fde146102a9578063c87b56dd146102bc578063d547cfb7146102cf578063e985e9c5146102d7578063f2fde38b146102ea57600080fd5b8063715018a6146102595780638da5cb5b1461026157806395d89b411461027257806396336b301461027a578063a035b1fe1461028d57600080fd5b80633de419e91161010a5780633de419e9146101cc57806340c10f19146101ed57806342842e0e146102005780636352211e1461021357806369358db31461022657806370a082311461024657600080fd5b806301ffc9a71461014757806306fdde031461016f578063081812fc14610184578063095ea7b3146101a457806323b872dd146101b9575b600080fd5b61015a610155366004611034565b6102fd565b60405190151581526020015b60405180910390f35b610177610328565b60405161016691906110a8565b6101976101923660046110bb565b6103ba565b60405161016691906110d4565b6101b76101b2366004611104565b6103e3565b005b6101b76101c736600461112e565b6103f2565b6101df6101da366004611104565b610486565b604051908152602001610166565b6101b76101fb366004611104565b6104b7565b6101b761020e36600461112e565b610649565b6101976102213660046110bb565b610669565b61023961023436600461116a565b610674565b6040516101669190611185565b6101df61025436600461116a565b6106e0565b6101b7610728565b6007546001600160a01b0316610197565b61017761073c565b600a54610197906001600160a01b031681565b6101df600b5481565b6101b76102a43660046111d7565b61074b565b6101b76102b7366004611224565b610756565b6101776102ca3660046110bb565b61076d565b6101776107a1565b61015a6102e5366004611300565b61082f565b6101b76102f836600461116a565b61085d565b60006001600160e01b03198216632483248360e11b148061032257506103228261089b565b92915050565b60606000805461033790611333565b80601f016020809104026020016040519081016040528092919081815260200182805461036390611333565b80156103b05780601f10610385576101008083540402835291602001916103b0565b820191906000526020600020905b81548152906001019060200180831161039357829003601f168201915b5050505050905090565b60006103c5826108eb565b506000828152600460205260409020546001600160a01b0316610322565b6103ee828233610924565b5050565b6001600160a01b038216610425576000604051633250574960e11b815260040161041c91906110d4565b60405180910390fd5b6000610432838333610931565b9050836001600160a01b0316816001600160a01b031614610480576040516364283d7b60e01b81526001600160a01b038086166004830152602482018490528216604482015260640161041c565b50505050565b600c60205281600052604060002081815481106104a257600080fd5b90600052602060002001600091509150505481565b600081116105075760405162461bcd60e51b815260206004820152601f60248201527f436f756e74206d7573742062652067726561746572207468616e207a65726f00604482015260640161041c565b60085460005b828110156105a457816105208582610a2a565b6001600160a01b0385166000908152600c60209081526040822080546001810182559083529120018190558261055581611383565b604080516001600160a01b0389168152602081018590529195507fb9144c96c86541f6fa89c9f2f02495cccf4b08cd6643e26d34ee00aa586558a892500160405180910390a15060010161050d565b506008819055600a54600b546001600160a01b03909116906323b872dd90339030906105d190879061139c565b6040516001600160e01b031960e086901b1681526001600160a01b03938416600482015292909116602483015260448201526064016020604051808303816000875af1158015610625573d6000803e3d6000fd5b505050506040513d601f19601f8201168201806040525081019061048091906113b3565b61066483838360405180602001604052806000815250610756565b505050565b6000610322826108eb565b6001600160a01b0381166000908152600c60209081526040918290208054835181840281018401909452808452606093928301828280156106d457602002820191906000526020600020905b8154815260200190600101908083116106c0575b50505050509050919050565b60006001600160a01b03821661070c5760006040516322718ad960e21b815260040161041c91906110d4565b506001600160a01b031660009081526003602052604090205490565b610730610a44565b61073a6000610a71565b565b60606001805461033790611333565b6103ee338383610ac3565b6107618484846103f2565b61048084848484610b59565b6060600961077a83610c70565b60405160200161078b9291906113ec565b6040516020818303038152906040529050919050565b600980546107ae90611333565b80601f01602080910402602001604051908101604052809291908181526020018280546107da90611333565b80156108275780601f106107fc57610100808354040283529160200191610827565b820191906000526020600020905b81548152906001019060200180831161080a57829003601f168201915b505050505081565b6001600160a01b03918216600090815260056020908152604080832093909416825291909152205460ff1690565b610865610a44565b6001600160a01b03811661088f576000604051631e4fbdf760e01b815260040161041c91906110d4565b61089881610a71565b50565b60006001600160e01b031982166380ac58cd60e01b14806108cc57506001600160e01b03198216635b5e139f60e01b145b8061032257506301ffc9a760e01b6001600160e01b0319831614610322565b6000818152600260205260408120546001600160a01b03168061032257604051637e27328960e01b81526004810184905260240161041c565b6106648383836001610d03565b6000828152600260205260408120546001600160a01b039081169083161561095e5761095e818486610e00565b6001600160a01b0381161561099c5761097b600085600080610d03565b6001600160a01b038116600090815260036020526040902080546000190190555b6001600160a01b038516156109cb576001600160a01b0385166000908152600360205260409020805460010190555b60008481526002602052604080822080546001600160a01b0319166001600160a01b0389811691821790925591518793918516917fddf252ad1be2c89b69c2b068fc378daa952ba7f163c4a11628f55a4df523b3ef91a4949350505050565b6103ee828260405180602001604052806000815250610e64565b6007546001600160a01b0316331461073a573360405163118cdaa760e01b815260040161041c91906110d4565b600780546001600160a01b038381166001600160a01b0319831681179093556040519116919082907f8be0079c531659141344cd1fd0a4f28419497f9722a3daafe3b4186f6b6457e090600090a35050565b6001600160a01b038216610aec5781604051630b61174360e31b815260040161041c91906110d4565b6001600160a01b03838116600081815260056020908152604080832094871680845294825291829020805460ff191686151590811790915591519182527f17307eab39ab6107e8899845ad3d59bd9653f200f220920489ca2b5937696c31910160405180910390a3505050565b6001600160a01b0383163b1561048057604051630a85bd0160e11b81526001600160a01b0384169063150b7a0290610b9b9033908890879087906004016114ac565b6020604051808303816000875af1925050508015610bd6575060408051601f3d908101601f19168201909252610bd3918101906114e9565b60015b610c36573d808015610c04576040519150601f19603f3d011682016040523d82523d6000602084013e610c09565b606091505b508051600003610c2e5783604051633250574960e11b815260040161041c91906110d4565b805181602001fd5b6001600160e01b03198116630a85bd0160e11b14610c695783604051633250574960e11b815260040161041c91906110d4565b5050505050565b60606000610c7d83610e7b565b600101905060008167ffffffffffffffff811115610c9d57610c9d61120e565b6040519080825280601f01601f191660200182016040528015610cc7576020820181803683370190505b5090508181016020015b600019016f181899199a1a9b1b9c1cb0b131b232b360811b600a86061a8153600a8504945084610cd157509392505050565b8080610d1757506001600160a01b03821615155b15610dd0576000610d27846108eb565b90506001600160a01b03831615801590610d535750826001600160a01b0316816001600160a01b031614155b8015610d665750610d64818461082f565b155b15610d86578260405163a9fbf51f60e01b815260040161041c91906110d4565b8115610dce5783856001600160a01b0316826001600160a01b03167f8c5be1e5ebec7d5bd14f71427d1e84f3dd0314c0f7b2291e5b200ac8c7c3b92560405160405180910390a45b505b5050600090815260046020526040902080546001600160a01b0319166001600160a01b0392909216919091179055565b610e0b838383610f53565b610664576001600160a01b038316610e3957604051637e27328960e01b81526004810182905260240161041c565b60405163177e802f60e01b81526001600160a01b03831660048201526024810182905260440161041c565b610e6e8383610fb9565b6106646000848484610b59565b60008072184f03e93ff9f4daa797ed6e38ed64bf6a1f0160401b8310610eba5772184f03e93ff9f4daa797ed6e38ed64bf6a1f0160401b830492506040015b6d04ee2d6d415b85acef81000000008310610ee6576d04ee2d6d415b85acef8100000000830492506020015b662386f26fc100008310610f0457662386f26fc10000830492506010015b6305f5e1008310610f1c576305f5e100830492506008015b6127108310610f3057612710830492506004015b60648310610f42576064830492506002015b600a83106103225760010192915050565b60006001600160a01b03831615801590610fb15750826001600160a01b0316846001600160a01b03161480610f8d5750610f8d848461082f565b80610fb157506000828152600460205260409020546001600160a01b038481169116145b949350505050565b6001600160a01b038216610fe3576000604051633250574960e11b815260040161041c91906110d4565b6000610ff183836000610931565b90506001600160a01b038116156106645760006040516339e3563760e11b815260040161041c91906110d4565b6001600160e01b03198116811461089857600080fd5b60006020828403121561104657600080fd5b81356110518161101e565b9392505050565b60005b8381101561107357818101518382015260200161105b565b50506000910152565b60008151808452611094816020860160208601611058565b601f01601f19169290920160200192915050565b602081526000611051602083018461107c565b6000602082840312156110cd57600080fd5b5035919050565b6001600160a01b0391909116815260200190565b80356001600160a01b03811681146110ff57600080fd5b919050565b6000806040838503121561111757600080fd5b611120836110e8565b946020939093013593505050565b60008060006060848603121561114357600080fd5b61114c846110e8565b925061115a602085016110e8565b9150604084013590509250925092565b60006020828403121561117c57600080fd5b611051826110e8565b6020808252825182820181905260009190848201906040850190845b818110156111bd578351835292840192918401916001016111a1565b50909695505050505050565b801515811461089857600080fd5b600080604083850312156111ea57600080fd5b6111f3836110e8565b91506020830135611203816111c9565b809150509250929050565b634e487b7160e01b600052604160045260246000fd5b6000806000806080858703121561123a57600080fd5b611243856110e8565b9350611251602086016110e8565b925060408501359150606085013567ffffffffffffffff8082111561127557600080fd5b818701915087601f83011261128957600080fd5b81358181111561129b5761129b61120e565b604051601f8201601f19908116603f011681019083821181831017156112c3576112c361120e565b816040528281528a60208487010111156112dc57600080fd5b82602086016020830137600060208483010152809550505050505092959194509250565b6000806040838503121561131357600080fd5b61131c836110e8565b915061132a602084016110e8565b90509250929050565b600181811c9082168061134757607f821691505b60208210810361136757634e487b7160e01b600052602260045260246000fd5b50919050565b634e487b7160e01b600052601160045260246000fd5b6000600182016113955761139561136d565b5060010190565b80820281158282048414176103225761032261136d565b6000602082840312156113c557600080fd5b8151611051816111c9565b600081516113e2818560208601611058565b9290920192915050565b60008084548160018260011c9150600183168061140a57607f831692505b6020808410820361142957634e487b7160e01b86526022600452602486fd5b81801561143d57600181146114525761147f565b60ff198616895284151585028901965061147f565b60008b81526020902060005b868110156114775781548b82015290850190830161145e565b505084890196505b5050505050506114a361149282866113d0565b64173539b7b760d91b815260050190565b95945050505050565b6001600160a01b03858116825284166020820152604081018390526080606082018190526000906114df9083018461107c565b9695505050505050565b6000602082840312156114fb57600080fd5b81516110518161101e56fea2646970667358221220857a327d363510adec8662afa6719590fe12dffef7698f66eae41ced433ee9de64736f6c63430008180033",
  "linkReferences": {},
  "deployedLinkReferences": {}
}