{
    "_format": "hh-sol-artifact-1",
    "contractName": "CommunityStoreV3",
    "sourceName": "contracts/CommunityStoreV3.sol",
    "abi": [
        {
            "inputs": [
                {
                    "internalType": "address",
                    "name": "target",
                    "type": "address"
                }
            ],
            "name": "AddressEmptyCode",
            "type": "error"
        },
        {
            "inputs": [
                {
                    "internalType": "address",
                    "name": "implementation",
                    "type": "address"
                }
            ],
            "name": "ERC1967InvalidImplementation",
            "type": "error"
        },
        {
            "inputs": [],
            "name": "ERC1967NonPayable",
            "type": "error"
        },
        {
            "inputs": [],
            "name": "FailedInnerCall",
            "type": "error"
        },
        {
            "inputs": [],
            "name": "InvalidInitialization",
            "type": "error"
        },
        {
            "inputs": [],
            "name": "NotInitializing",
            "type": "error"
        },
        {
            "inputs": [
                {
                    "internalType": "address",
                    "name": "owner",
                    "type": "address"
                }
            ],
            "name": "OwnableInvalidOwner",
            "type": "error"
        },
        {
            "inputs": [
                {
                    "internalType": "address",
                    "name": "account",
                    "type": "address"
                }
            ],
            "name": "OwnableUnauthorizedAccount",
            "type": "error"
        },
        {
            "inputs": [],
            "name": "UUPSUnauthorizedCallContext",
            "type": "error"
        },
        {
            "inputs": [
                {
                    "internalType": "bytes32",
                    "name": "slot",
                    "type": "bytes32"
                }
            ],
            "name": "UUPSUnsupportedProxiableUUID",
            "type": "error"
        },
        {
            "anonymous": false,
            "inputs": [
                {
                    "indexed": false,
                    "internalType": "uint64",
                    "name": "version",
                    "type": "uint64"
                }
            ],
            "name": "Initialized",
            "type": "event"
        },
        {
            "anonymous": false,
            "inputs": [
                {
                    "indexed": true,
                    "internalType": "address",
                    "name": "previousOwner",
                    "type": "address"
                },
                {
                    "indexed": true,
                    "internalType": "address",
                    "name": "newOwner",
                    "type": "address"
                }
            ],
            "name": "OwnershipTransferred",
            "type": "event"
        },
        {
            "anonymous": false,
            "inputs": [
                {
                    "indexed": true,
                    "internalType": "address",
                    "name": "implementation",
                    "type": "address"
                }
            ],
            "name": "Upgraded",
            "type": "event"
        },
        {
            "inputs": [],
            "name": "UPGRADE_INTERFACE_VERSION",
            "outputs": [
                {
                    "internalType": "string",
                    "name": "",
                    "type": "string"
                }
            ],
            "stateMutability": "view",
            "type": "function"
        },
        {
            "inputs": [
                {
                    "components": [
                        {
                            "internalType": "uint256",
                            "name": "id",
                            "type": "uint256"
                        },
                        {
                            "internalType": "string",
                            "name": "name",
                            "type": "string"
                        },
                        {
                            "internalType": "string",
                            "name": "description",
                            "type": "string"
                        },
                        {
                            "internalType": "string[]",
                            "name": "images",
                            "type": "string[]"
                        },
                        {
                            "internalType": "string[]",
                            "name": "descImages",
                            "type": "string[]"
                        },
                        {
                            "internalType": "address",
                            "name": "payToken",
                            "type": "address"
                        },
                        {
                            "internalType": "string",
                            "name": "payTokenSymbol",
                            "type": "string"
                        },
                        {
                            "internalType": "uint256",
                            "name": "payTokenDecimals",
                            "type": "uint256"
                        },
                        {
                            "internalType": "uint256",
                            "name": "amount",
                            "type": "uint256"
                        },
                        {
                            "internalType": "uint256",
                            "name": "price",
                            "type": "uint256"
                        },
                        {
                            "internalType": "bool",
                            "name": "enabled",
                            "type": "bool"
                        }
                    ],
                    "internalType": "struct CommunityStoreV3.GoodsSetting",
                    "name": "_setting",
                    "type": "tuple"
                }
            ],
            "name": "addGoods",
            "outputs": [],
            "stateMutability": "nonpayable",
            "type": "function"
        },
        {
            "inputs": [
                {
                    "internalType": "uint256",
                    "name": "goodsId",
                    "type": "uint256"
                },
                {
                    "internalType": "uint256",
                    "name": "count",
                    "type": "uint256"
                }
            ],
            "name": "buy",
            "outputs": [],
            "stateMutability": "payable",
            "type": "function"
        },
        {
            "inputs": [
                {
                    "internalType": "uint256",
                    "name": "goodsId",
                    "type": "uint256"
                }
            ],
            "name": "disableGoods",
            "outputs": [],
            "stateMutability": "nonpayable",
            "type": "function"
        },
        {
            "inputs": [
                {
                    "internalType": "uint256",
                    "name": "goodsId",
                    "type": "uint256"
                }
            ],
            "name": "enableGoods",
            "outputs": [],
            "stateMutability": "nonpayable",
            "type": "function"
        },
        {
            "inputs": [],
            "name": "getGoodsList",
            "outputs": [
                {
                    "components": [
                        {
                            "internalType": "uint256",
                            "name": "id",
                            "type": "uint256"
                        },
                        {
                            "internalType": "string",
                            "name": "name",
                            "type": "string"
                        },
                        {
                            "internalType": "string",
                            "name": "description",
                            "type": "string"
                        },
                        {
                            "internalType": "string[]",
                            "name": "images",
                            "type": "string[]"
                        },
                        {
                            "internalType": "string[]",
                            "name": "descImages",
                            "type": "string[]"
                        },
                        {
                            "internalType": "address",
                            "name": "payToken",
                            "type": "address"
                        },
                        {
                            "internalType": "string",
                            "name": "payTokenSymbol",
                            "type": "string"
                        },
                        {
                            "internalType": "uint256",
                            "name": "payTokenDecimals",
                            "type": "uint256"
                        },
                        {
                            "internalType": "uint256",
                            "name": "amount",
                            "type": "uint256"
                        },
                        {
                            "internalType": "uint256",
                            "name": "price",
                            "type": "uint256"
                        },
                        {
                            "internalType": "bool",
                            "name": "enabled",
                            "type": "bool"
                        }
                    ],
                    "internalType": "struct CommunityStoreV3.GoodsSetting[]",
                    "name": "",
                    "type": "tuple[]"
                }
            ],
            "stateMutability": "view",
            "type": "function"
        },
        {
            "inputs": [],
            "name": "getImplementationAddress",
            "outputs": [
                {
                    "internalType": "address",
                    "name": "",
                    "type": "address"
                }
            ],
            "stateMutability": "view",
            "type": "function"
        },
        {
            "inputs": [
                {
                    "internalType": "address",
                    "name": "account",
                    "type": "address"
                }
            ],
            "name": "getPurchaseHistory",
            "outputs": [
                {
                    "components": [
                        {
                            "internalType": "uint256",
                            "name": "goodsId",
                            "type": "uint256"
                        },
                        {
                            "internalType": "uint256",
                            "name": "amount",
                            "type": "uint256"
                        },
                        {
                            "internalType": "uint256",
                            "name": "price",
                            "type": "uint256"
                        },
                        {
                            "internalType": "uint256",
                            "name": "time",
                            "type": "uint256"
                        },
                        {
                            "internalType": "address",
                            "name": "account",
                            "type": "address"
                        }
                    ],
                    "internalType": "struct CommunityStoreV3.GoodsPurchase[]",
                    "name": "",
                    "type": "tuple[]"
                }
            ],
            "stateMutability": "view",
            "type": "function"
        },
        {
            "inputs": [
                {
                    "internalType": "address",
                    "name": "account",
                    "type": "address"
                }
            ],
            "name": "getStoreInfo",
            "outputs": [
                {
                    "components": [
                        {
                            "components": [
                                {
                                    "internalType": "string",
                                    "name": "name",
                                    "type": "string"
                                },
                                {
                                    "internalType": "string",
                                    "name": "description",
                                    "type": "string"
                                },
                                {
                                    "internalType": "string",
                                    "name": "image",
                                    "type": "string"
                                },
                                {
                                    "internalType": "address",
                                    "name": "receiver",
                                    "type": "address"
                                }
                            ],
                            "internalType": "struct CommunityStoreV3.StoreSettig",
                            "name": "setting",
                            "type": "tuple"
                        },
                        {
                            "components": [
                                {
                                    "internalType": "uint256",
                                    "name": "id",
                                    "type": "uint256"
                                },
                                {
                                    "internalType": "string",
                                    "name": "name",
                                    "type": "string"
                                },
                                {
                                    "internalType": "string",
                                    "name": "description",
                                    "type": "string"
                                },
                                {
                                    "internalType": "string[]",
                                    "name": "images",
                                    "type": "string[]"
                                },
                                {
                                    "internalType": "string[]",
                                    "name": "descImages",
                                    "type": "string[]"
                                },
                                {
                                    "internalType": "address",
                                    "name": "payToken",
                                    "type": "address"
                                },
                                {
                                    "internalType": "string",
                                    "name": "payTokenSymbol",
                                    "type": "string"
                                },
                                {
                                    "internalType": "uint256",
                                    "name": "payTokenDecimals",
                                    "type": "uint256"
                                },
                                {
                                    "internalType": "uint256",
                                    "name": "amount",
                                    "type": "uint256"
                                },
                                {
                                    "internalType": "uint256",
                                    "name": "price",
                                    "type": "uint256"
                                },
                                {
                                    "internalType": "bool",
                                    "name": "enabled",
                                    "type": "bool"
                                }
                            ],
                            "internalType": "struct CommunityStoreV3.GoodsSetting[]",
                            "name": "goodsList",
                            "type": "tuple[]"
                        },
                        {
                            "components": [
                                {
                                    "internalType": "uint256",
                                    "name": "goodsId",
                                    "type": "uint256"
                                },
                                {
                                    "internalType": "uint256",
                                    "name": "amount",
                                    "type": "uint256"
                                },
                                {
                                    "internalType": "uint256",
                                    "name": "price",
                                    "type": "uint256"
                                },
                                {
                                    "internalType": "uint256",
                                    "name": "time",
                                    "type": "uint256"
                                },
                                {
                                    "internalType": "address",
                                    "name": "account",
                                    "type": "address"
                                }
                            ],
                            "internalType": "struct CommunityStoreV3.GoodsPurchase[]",
                            "name": "userPurchaseHistory",
                            "type": "tuple[]"
                        },
                        {
                            "components": [
                                {
                                    "internalType": "uint256",
                                    "name": "goodsId",
                                    "type": "uint256"
                                },
                                {
                                    "internalType": "uint256",
                                    "name": "buyAllowance",
                                    "type": "uint256"
                                },
                                {
                                    "internalType": "uint256",
                                    "name": "payTokenBalance",
                                    "type": "uint256"
                                }
                            ],
                            "internalType": "struct CommunityStoreV3.GoodsAccountInfo[]",
                            "name": "goodsAccountInfos",
                            "type": "tuple[]"
                        },
                        {
                            "internalType": "bool",
                            "name": "isAdmin",
                            "type": "bool"
                        },
                        {
                            "internalType": "address",
                            "name": "implementation",
                            "type": "address"
                        },
                        {
                            "internalType": "uint256[]",
                            "name": "goodsSalesAmount",
                            "type": "uint256[]"
                        }
                    ],
                    "internalType": "struct CommunityStoreV3.StoreInfo",
                    "name": "",
                    "type": "tuple"
                }
            ],
            "stateMutability": "view",
            "type": "function"
        },
        {
            "inputs": [
                {
                    "internalType": "uint256",
                    "name": "",
                    "type": "uint256"
                }
            ],
            "name": "goodsList",
            "outputs": [
                {
                    "internalType": "uint256",
                    "name": "id",
                    "type": "uint256"
                },
                {
                    "internalType": "string",
                    "name": "name",
                    "type": "string"
                },
                {
                    "internalType": "string",
                    "name": "description",
                    "type": "string"
                },
                {
                    "internalType": "address",
                    "name": "payToken",
                    "type": "address"
                },
                {
                    "internalType": "string",
                    "name": "payTokenSymbol",
                    "type": "string"
                },
                {
                    "internalType": "uint256",
                    "name": "payTokenDecimals",
                    "type": "uint256"
                },
                {
                    "internalType": "uint256",
                    "name": "amount",
                    "type": "uint256"
                },
                {
                    "internalType": "uint256",
                    "name": "price",
                    "type": "uint256"
                },
                {
                    "internalType": "bool",
                    "name": "enabled",
                    "type": "bool"
                }
            ],
            "stateMutability": "view",
            "type": "function"
        },
        {
            "inputs": [
                {
                    "internalType": "uint256",
                    "name": "",
                    "type": "uint256"
                }
            ],
            "name": "goodsPurchaseList",
            "outputs": [
                {
                    "internalType": "uint256",
                    "name": "goodsId",
                    "type": "uint256"
                },
                {
                    "internalType": "uint256",
                    "name": "amount",
                    "type": "uint256"
                },
                {
                    "internalType": "uint256",
                    "name": "price",
                    "type": "uint256"
                },
                {
                    "internalType": "uint256",
                    "name": "time",
                    "type": "uint256"
                },
                {
                    "internalType": "address",
                    "name": "account",
                    "type": "address"
                }
            ],
            "stateMutability": "view",
            "type": "function"
        },
        {
            "inputs": [
                {
                    "internalType": "uint256",
                    "name": "",
                    "type": "uint256"
                }
            ],
            "name": "goodsSalesAmountMap",
            "outputs": [
                {
                    "internalType": "uint256",
                    "name": "",
                    "type": "uint256"
                }
            ],
            "stateMutability": "view",
            "type": "function"
        },
        {
            "inputs": [
                {
                    "internalType": "address",
                    "name": "initialOwner",
                    "type": "address"
                },
                {
                    "components": [
                        {
                            "internalType": "string",
                            "name": "name",
                            "type": "string"
                        },
                        {
                            "internalType": "string",
                            "name": "description",
                            "type": "string"
                        },
                        {
                            "internalType": "string",
                            "name": "image",
                            "type": "string"
                        },
                        {
                            "internalType": "address",
                            "name": "receiver",
                            "type": "address"
                        }
                    ],
                    "internalType": "struct CommunityStoreV3.StoreSettig",
                    "name": "_setting",
                    "type": "tuple"
                }
            ],
            "name": "initialize",
            "outputs": [],
            "stateMutability": "nonpayable",
            "type": "function"
        },
        {
            "inputs": [],
            "name": "owner",
            "outputs": [
                {
                    "internalType": "address",
                    "name": "",
                    "type": "address"
                }
            ],
            "stateMutability": "view",
            "type": "function"
        },
        {
            "inputs": [],
            "name": "proxiableUUID",
            "outputs": [
                {
                    "internalType": "bytes32",
                    "name": "",
                    "type": "bytes32"
                }
            ],
            "stateMutability": "view",
            "type": "function"
        },
        {
            "inputs": [],
            "name": "renounceOwnership",
            "outputs": [],
            "stateMutability": "nonpayable",
            "type": "function"
        },
        {
            "inputs": [],
            "name": "setting",
            "outputs": [
                {
                    "internalType": "string",
                    "name": "name",
                    "type": "string"
                },
                {
                    "internalType": "string",
                    "name": "description",
                    "type": "string"
                },
                {
                    "internalType": "string",
                    "name": "image",
                    "type": "string"
                },
                {
                    "internalType": "address",
                    "name": "receiver",
                    "type": "address"
                }
            ],
            "stateMutability": "view",
            "type": "function"
        },
        {
            "inputs": [
                {
                    "internalType": "address",
                    "name": "newOwner",
                    "type": "address"
                }
            ],
            "name": "transferOwnership",
            "outputs": [],
            "stateMutability": "nonpayable",
            "type": "function"
        },
        {
            "inputs": [
                {
                    "internalType": "uint256",
                    "name": "goodsId",
                    "type": "uint256"
                },
                {
                    "internalType": "string",
                    "name": "description",
                    "type": "string"
                }
            ],
            "name": "updateGoodsDescription",
            "outputs": [],
            "stateMutability": "nonpayable",
            "type": "function"
        },
        {
            "inputs": [
                {
                    "internalType": "uint256",
                    "name": "goodsId",
                    "type": "uint256"
                },
                {
                    "internalType": "string",
                    "name": "name",
                    "type": "string"
                }
            ],
            "name": "updateGoodsName",
            "outputs": [],
            "stateMutability": "nonpayable",
            "type": "function"
        },
        {
            "inputs": [
                {
                    "internalType": "uint256",
                    "name": "goodsId",
                    "type": "uint256"
                },
                {
                    "internalType": "address",
                    "name": "payToken",
                    "type": "address"
                }
            ],
            "name": "updateGoodsPayToken",
            "outputs": [],
            "stateMutability": "nonpayable",
            "type": "function"
        },
        {
            "inputs": [
                {
                    "internalType": "uint256",
                    "name": "goodsId",
                    "type": "uint256"
                },
                {
                    "internalType": "uint256",
                    "name": "price",
                    "type": "uint256"
                }
            ],
            "name": "updateGoodsPrice",
            "outputs": [],
            "stateMutability": "nonpayable",
            "type": "function"
        },
        {
            "inputs": [
                {
                    "internalType": "uint256",
                    "name": "goodsId",
                    "type": "uint256"
                },
                {
                    "components": [
                        {
                            "internalType": "uint256",
                            "name": "id",
                            "type": "uint256"
                        },
                        {
                            "internalType": "string",
                            "name": "name",
                            "type": "string"
                        },
                        {
                            "internalType": "string",
                            "name": "description",
                            "type": "string"
                        },
                        {
                            "internalType": "string[]",
                            "name": "images",
                            "type": "string[]"
                        },
                        {
                            "internalType": "string[]",
                            "name": "descImages",
                            "type": "string[]"
                        },
                        {
                            "internalType": "address",
                            "name": "payToken",
                            "type": "address"
                        },
                        {
                            "internalType": "string",
                            "name": "payTokenSymbol",
                            "type": "string"
                        },
                        {
                            "internalType": "uint256",
                            "name": "payTokenDecimals",
                            "type": "uint256"
                        },
                        {
                            "internalType": "uint256",
                            "name": "amount",
                            "type": "uint256"
                        },
                        {
                            "internalType": "uint256",
                            "name": "price",
                            "type": "uint256"
                        },
                        {
                            "internalType": "bool",
                            "name": "enabled",
                            "type": "bool"
                        }
                    ],
                    "internalType": "struct CommunityStoreV3.GoodsSetting",
                    "name": "_setting",
                    "type": "tuple"
                }
            ],
            "name": "updateGoodsSetting",
            "outputs": [],
            "stateMutability": "nonpayable",
            "type": "function"
        },
        {
            "inputs": [
                {
                    "components": [
                        {
                            "internalType": "string",
                            "name": "name",
                            "type": "string"
                        },
                        {
                            "internalType": "string",
                            "name": "description",
                            "type": "string"
                        },
                        {
                            "internalType": "string",
                            "name": "image",
                            "type": "string"
                        },
                        {
                            "internalType": "address",
                            "name": "receiver",
                            "type": "address"
                        }
                    ],
                    "internalType": "struct CommunityStoreV3.StoreSettig",
                    "name": "_setting",
                    "type": "tuple"
                }
            ],
            "name": "updateSettng",
            "outputs": [],
            "stateMutability": "nonpayable",
            "type": "function"
        },
        {
            "inputs": [
                {
                    "internalType": "address",
                    "name": "newImplementation",
                    "type": "address"
                }
            ],
            "name": "upgrade",
            "outputs": [],
            "stateMutability": "nonpayable",
            "type": "function"
        },
        {
            "inputs": [
                {
                    "internalType": "address",
                    "name": "newImplementation",
                    "type": "address"
                },
                {
                    "internalType": "bytes",
                    "name": "data",
                    "type": "bytes"
                }
            ],
            "name": "upgradeToAndCall",
            "outputs": [],
            "stateMutability": "payable",
            "type": "function"
        },
        {
            "inputs": [
                {
                    "internalType": "address",
                    "name": "",
                    "type": "address"
                },
                {
                    "internalType": "uint256",
                    "name": "",
                    "type": "uint256"
                }
            ],
            "name": "userPurchaseHistory",
            "outputs": [
                {
                    "internalType": "uint256",
                    "name": "goodsId",
                    "type": "uint256"
                },
                {
                    "internalType": "uint256",
                    "name": "amount",
                    "type": "uint256"
                },
                {
                    "internalType": "uint256",
                    "name": "price",
                    "type": "uint256"
                },
                {
                    "internalType": "uint256",
                    "name": "time",
                    "type": "uint256"
                },
                {
                    "internalType": "address",
                    "name": "account",
                    "type": "address"
                }
            ],
            "stateMutability": "view",
            "type": "function"
        }
    ],
    "bytecode": "0x60a06040523060805234801561001457600080fd5b5060805161409761003e60003960008181612da401528181612dcd0152612f0e01526140976000f3fe60806040526004361061019c5760003560e01c80638547ca0e116100ec578063bde5b8e01161008a578063e708817e11610064578063e708817e146104fa578063eed3e0971461051a578063f2fde38b1461053a578063f53c6cd41461055a57600080fd5b8063bde5b8e0146104a2578063c0c9ce30146104c2578063d6febde8146104e757600080fd5b8063a809b793116100c6578063a809b793146103d3578063aab12d6e146103f3578063ad3cb1cc14610444578063b41e2d751461048257600080fd5b80638547ca0e146103715780638a457ecd1461039e5780638da5cb5b146103be57600080fd5b80634d4d205611610159578063715018a611610133578063715018a6146102fa57806379b89ac91461030f57806383f8f54c1461032f578063852aa6d61461035157600080fd5b80634d4d2056146102a45780634f1ef286146102c457806352d1902d146102d757600080fd5b806304608f21146101a15780630900f010146101c35780630cbcae70146101e3578063210344441461021557806328d27f0914610242578063329a587314610277575b600080fd5b3480156101ad57600080fd5b506101c16101bc366004613474565b61057a565b005b3480156101cf57600080fd5b506101c16101de3660046134c1565b6106eb565b3480156101ef57600080fd5b506101f861070f565b6040516001600160a01b0390911681526020015b60405180910390f35b34801561022157600080fd5b506102356102303660046134c1565b610735565b60405161020c9190613517565b34801561024e57600080fd5b5061026261025d366004613560565b6107df565b60405161020c999897969594939291906135c9565b34801561028357600080fd5b506102976102923660046134c1565b6109e4565b60405161020c919061387b565b3480156102b057600080fd5b506101c16102bf366004613b7c565b6117cc565b6101c16102d2366004613bb8565b6118e7565b3480156102e357600080fd5b506102ec611906565b60405190815260200161020c565b34801561030657600080fd5b506101c1611923565b34801561031b57600080fd5b506101c161032a366004613560565b611937565b34801561033b57600080fd5b50610344611982565b60405161020c9190613c0f565b34801561035d57600080fd5b506101c161036c366004613c22565b611d9e565b34801561037d57600080fd5b506102ec61038c366004613560565b60076020526000908152604090205481565b3480156103aa57600080fd5b506101c16103b9366004613c44565b611ddd565b3480156103ca57600080fd5b506101f8611e25565b3480156103df57600080fd5b506101c16103ee366004613c80565b611e53565b3480156103ff57600080fd5b5061041361040e366004613560565b6120c4565b6040805195865260208601949094529284019190915260608301526001600160a01b0316608082015260a00161020c565b34801561045057600080fd5b50610475604051806040016040528060058152602001640352e302e360dc1b81525081565b60405161020c9190613cbc565b34801561048e57600080fd5b506101c161049d366004613560565b61210e565b3480156104ae57600080fd5b506101c16104bd366004613c44565b612125565b3480156104ce57600080fd5b506104d7612168565b60405161020c9493929190613ccf565b6101c16104f5366004613c22565b612325565b34801561050657600080fd5b506101c1610515366004613d22565b612a22565b34801561052657600080fd5b50610413610535366004613d56565b612a94565b34801561054657600080fd5b506101c16105553660046134c1565b612aeb565b34801561056657600080fd5b506101c1610575366004613d80565b612b26565b7ff0c57e16840df040f15088dc2f81fe391c3923bec73e23a9662efc9c229c6a008054600160401b810460ff1615906001600160401b03166000811580156105bf5750825b90506000826001600160401b031660011480156105db5750303b155b9050811580156105e9575080155b156106075760405163f92ee8a960e01b815260040160405180910390fd5b845467ffffffffffffffff19166001178555831561063157845460ff60401b1916600160401b1785555b61063a87612d4e565b610642612d5f565b85516000906106519082613e2e565b5060208601516001906106649082613e2e565b5060408601516002906106779082613e2e565b506060860151600380546001600160a01b0319166001600160a01b0390921691909117905583156106e257845460ff60401b19168555604051600181527fc7f505b2f371ae2175ee4913f4499e1f2633a7b5936321eed1cdaeb6115181d29060200160405180910390a15b50505050505050565b6106f3612d67565b61070c81604051806020016040528060008152506118e7565b50565b6000610730600080516020614042833981519152546001600160a01b031690565b905090565b6001600160a01b0381166000908152600660209081526040808320805482518185028101850190935280835260609492939192909184015b828210156107d45760008481526020908190206040805160a08101825260058602909201805483526001808201548486015260028201549284019290925260038101546060840152600401546001600160a01b03166080830152908352909201910161076d565b505050509050919050565b600481815481106107ef57600080fd5b60009182526020909120600b9091020180546001820180549193509061081490613dac565b80601f016020809104026020016040519081016040528092919081815260200182805461084090613dac565b801561088d5780601f106108625761010080835404028352916020019161088d565b820191906000526020600020905b81548152906001019060200180831161087057829003601f168201915b5050505050908060020180546108a290613dac565b80601f01602080910402602001604051908101604052809291908181526020018280546108ce90613dac565b801561091b5780601f106108f05761010080835404028352916020019161091b565b820191906000526020600020905b8154815290600101906020018083116108fe57829003601f168201915b505050600584015460068501805494956001600160a01b0390921694919350915061094590613dac565b80601f016020809104026020016040519081016040528092919081815260200182805461097190613dac565b80156109be5780601f10610993576101008083540402835291602001916109be565b820191906000526020600020905b8154815290600101906020018083116109a157829003601f168201915b50505050600783015460088401546009850154600a909501549394919390925060ff1689565b610a52604080516101608101909152606060e08201818152610100830182905261012083019190915260006101408301528190815260200160608152602001606081526020016060815260200160001515815260200160006001600160a01b03168152602001606081525090565b6004546000816001600160401b03811115610a6f57610a6f6132c1565b604051908082528060200260200182016040528015610ac457816020015b610ab160405180606001604052806000815260200160008152602001600081525090565b815260200190600190039081610a8d5790505b5090506000826001600160401b03811115610ae157610ae16132c1565b604051908082528060200260200182016040528015610b0a578160200160208202803683370190505b50905060005b838110156110dc57600060048281548110610b2d57610b2d613eed565b90600052602060002090600b02016040518061016001604052908160008201548152602001600182018054610b6190613dac565b80601f0160208091040260200160405190810160405280929190818152602001828054610b8d90613dac565b8015610bda5780601f10610baf57610100808354040283529160200191610bda565b820191906000526020600020905b815481529060010190602001808311610bbd57829003601f168201915b50505050508152602001600282018054610bf390613dac565b80601f0160208091040260200160405190810160405280929190818152602001828054610c1f90613dac565b8015610c6c5780601f10610c4157610100808354040283529160200191610c6c565b820191906000526020600020905b815481529060010190602001808311610c4f57829003601f168201915b5050505050815260200160038201805480602002602001604051908101604052809291908181526020016000905b82821015610d46578382906000526020600020018054610cb990613dac565b80601f0160208091040260200160405190810160405280929190818152602001828054610ce590613dac565b8015610d325780601f10610d0757610100808354040283529160200191610d32565b820191906000526020600020905b815481529060010190602001808311610d1557829003601f168201915b505050505081526020019060010190610c9a565b50505050815260200160048201805480602002602001604051908101604052809291908181526020016000905b82821015610e1f578382906000526020600020018054610d9290613dac565b80601f0160208091040260200160405190810160405280929190818152602001828054610dbe90613dac565b8015610e0b5780601f10610de057610100808354040283529160200191610e0b565b820191906000526020600020905b815481529060010190602001808311610dee57829003601f168201915b505050505081526020019060010190610d73565b5050509082525060058201546001600160a01b03166020820152600682018054604090920191610e4e90613dac565b80601f0160208091040260200160405190810160405280929190818152602001828054610e7a90613dac565b8015610ec75780601f10610e9c57610100808354040283529160200191610ec7565b820191906000526020600020905b815481529060010190602001808311610eaa57829003601f168201915b5050509183525050600782015460208201526008820154604082015260098201546060820152600a9091015460ff16151560809091015260a08101519091506001600160a01b0316610f69576040805160608101825282518152600019602082018190526001600160a01b038a16319282018390528651909291908190889087908110610f5657610f56613eed565b60200260200101819052505050506110d3565b60a0810151604051636eb1769f60e11b81526001600160a01b038981166004830152306024830152600092169063dd62ed3e90604401602060405180830381865afa158015610fbc573d6000803e3d6000fd5b505050506040513d601f19601f82011682018060405250810190610fe09190613f03565b60a08301516040516370a0823160e01b81526001600160a01b038b81166004830152929350600092909116906370a0823190602401602060405180830381865afa158015611032573d6000803e3d6000fd5b505050506040513d601f19601f820116820180604052508101906110569190613f03565b905060006040518060600160405280856000015181526020018481526020018381525090508087868151811061108e5761108e613eed565b60200260200101819052506007600085600001518152602001908152602001600020548686815181106110c3576110c3613eed565b6020026020010181815250505050505b50600101610b10565b5060006040518060e00160405280600060405180608001604052908160008201805461110790613dac565b80601f016020809104026020016040519081016040528092919081815260200182805461113390613dac565b80156111805780601f1061115557610100808354040283529160200191611180565b820191906000526020600020905b81548152906001019060200180831161116357829003601f168201915b5050505050815260200160018201805461119990613dac565b80601f01602080910402602001604051908101604052809291908181526020018280546111c590613dac565b80156112125780601f106111e757610100808354040283529160200191611212565b820191906000526020600020905b8154815290600101906020018083116111f557829003601f168201915b5050505050815260200160028201805461122b90613dac565b80601f016020809104026020016040519081016040528092919081815260200182805461125790613dac565b80156112a45780601f10611279576101008083540402835291602001916112a4565b820191906000526020600020905b81548152906001019060200180831161128757829003601f168201915b5050509183525050600391909101546001600160a01b0316602091820152908252600480546040805182850281018501909152818152938301939260009084015b828210156116d457838290600052602060002090600b0201604051806101600160405290816000820154815260200160018201805461132390613dac565b80601f016020809104026020016040519081016040528092919081815260200182805461134f90613dac565b801561139c5780601f106113715761010080835404028352916020019161139c565b820191906000526020600020905b81548152906001019060200180831161137f57829003601f168201915b505050505081526020016002820180546113b590613dac565b80601f01602080910402602001604051908101604052809291908181526020018280546113e190613dac565b801561142e5780601f106114035761010080835404028352916020019161142e565b820191906000526020600020905b81548152906001019060200180831161141157829003601f168201915b5050505050815260200160038201805480602002602001604051908101604052809291908181526020016000905b8282101561150857838290600052602060002001805461147b90613dac565b80601f01602080910402602001604051908101604052809291908181526020018280546114a790613dac565b80156114f45780601f106114c9576101008083540402835291602001916114f4565b820191906000526020600020905b8154815290600101906020018083116114d757829003601f168201915b50505050508152602001906001019061145c565b50505050815260200160048201805480602002602001604051908101604052809291908181526020016000905b828210156115e157838290600052602060002001805461155490613dac565b80601f016020809104026020016040519081016040528092919081815260200182805461158090613dac565b80156115cd5780601f106115a2576101008083540402835291602001916115cd565b820191906000526020600020905b8154815290600101906020018083116115b057829003601f168201915b505050505081526020019060010190611535565b5050509082525060058201546001600160a01b0316602082015260068201805460409092019161161090613dac565b80601f016020809104026020016040519081016040528092919081815260200182805461163c90613dac565b80156116895780601f1061165e57610100808354040283529160200191611689565b820191906000526020600020905b81548152906001019060200180831161166c57829003601f168201915b505050918352505060078201546020808301919091526008830154604083015260098301546060830152600a9092015460ff16151560809091015290825260019290920191016112e5565b505050908252506001600160a01b03881660009081526006602090815260408083208054825181850281018501909352808352948301949193909284015b828210156117795760008481526020908190206040805160a08101825260058602909201805483526001808201548486015260028201549284019290925260038101546060840152600401546001600160a01b031660808301529083529092019101611712565b505050508152602001848152602001876001600160a01b031661179a611e25565b6001600160a01b03161481526020016117b161070f565b6001600160a01b031681526020019290925250949350505050565b6117d4612d67565b8060046117e2600185613f32565b815481106117f2576117f2613eed565b90600052602060002090600b020160008201518160000155602082015181600101908161181f9190613e2e565b50604082015160028201906118349082613e2e565b50606082015180516118509160038401916020909101906131e8565b506080820151805161186c9160048401916020909101906131e8565b5060a08201516005820180546001600160a01b0319166001600160a01b0390921691909117905560c082015160068201906118a79082613e2e565b5060e082015160078201556101008201516008820155610120820151600982015561014090910151600a909101805460ff19169115159190911790555050565b6118ef612d99565b6118f882612e3e565b6119028282612e46565b5050565b6000611910612f03565b5060008051602061404283398151915290565b61192b612d67565b6119356000612f4c565b565b61193f612d67565b6001600461194d8284613f32565b8154811061195d5761195d613eed565b60009182526020909120600b90910201600a01805460ff191691151591909117905550565b60606004805480602002602001604051908101604052809291908181526020016000905b82821015611d9557838290600052602060002090600b020160405180610160016040529081600082015481526020016001820180546119e490613dac565b80601f0160208091040260200160405190810160405280929190818152602001828054611a1090613dac565b8015611a5d5780601f10611a3257610100808354040283529160200191611a5d565b820191906000526020600020905b815481529060010190602001808311611a4057829003601f168201915b50505050508152602001600282018054611a7690613dac565b80601f0160208091040260200160405190810160405280929190818152602001828054611aa290613dac565b8015611aef5780601f10611ac457610100808354040283529160200191611aef565b820191906000526020600020905b815481529060010190602001808311611ad257829003601f168201915b5050505050815260200160038201805480602002602001604051908101604052809291908181526020016000905b82821015611bc9578382906000526020600020018054611b3c90613dac565b80601f0160208091040260200160405190810160405280929190818152602001828054611b6890613dac565b8015611bb55780601f10611b8a57610100808354040283529160200191611bb5565b820191906000526020600020905b815481529060010190602001808311611b9857829003601f168201915b505050505081526020019060010190611b1d565b50505050815260200160048201805480602002602001604051908101604052809291908181526020016000905b82821015611ca2578382906000526020600020018054611c1590613dac565b80601f0160208091040260200160405190810160405280929190818152602001828054611c4190613dac565b8015611c8e5780601f10611c6357610100808354040283529160200191611c8e565b820191906000526020600020905b815481529060010190602001808311611c7157829003601f168201915b505050505081526020019060010190611bf6565b5050509082525060058201546001600160a01b03166020820152600682018054604090920191611cd190613dac565b80601f0160208091040260200160405190810160405280929190818152602001828054611cfd90613dac565b8015611d4a5780601f10611d1f57610100808354040283529160200191611d4a565b820191906000526020600020905b815481529060010190602001808311611d2d57829003601f168201915b505050918352505060078201546020808301919091526008830154604083015260098301546060830152600a9092015460ff16151560809091015290825260019290920191016119a6565b50505050905090565b611da6612d67565b806004611db4600185613f32565b81548110611dc457611dc4613eed565b90600052602060002090600b0201600901819055505050565b611de5612d67565b806004611df3600185613f32565b81548110611e0357611e03613eed565b90600052602060002090600b02016001019081611e209190613e2e565b505050565b7f9016d09d72d40fdae2fd8ceac6b6234c7706214fd39c1cd1e609a0528c199300546001600160a01b031690565b611e5b612d67565b600454611e69906001613f45565b815260a08101516001600160a01b0316611ea85760408051808201909152600381526208aa8960eb1b602082015260c0820152601260e0820152611f8b565b60008160a001519050806001600160a01b03166395d89b416040518163ffffffff1660e01b8152600401600060405180830381865afa158015611eef573d6000803e3d6000fd5b505050506040513d6000823e601f3d908101601f19168201604052611f179190810190613f58565b8260c00181905250806001600160a01b031663313ce5676040518163ffffffff1660e01b8152600401602060405180830381865afa158015611f5d573d6000803e3d6000fd5b505050506040513d601f19601f82011682018060405250810190611f819190613fce565b60ff1660e0830152505b600480546001810182556000919091528151600b9091027f8a35acfbc15ff81a39ae7d344fd709f28e8600b4aa8c65c6b64bfe7fe36bd19b810191825560208301518392917f8a35acfbc15ff81a39ae7d344fd709f28e8600b4aa8c65c6b64bfe7fe36bd19c0190611ffd9082613e2e565b50604082015160028201906120129082613e2e565b506060820151805161202e9160038401916020909101906131e8565b506080820151805161204a9160048401916020909101906131e8565b5060a08201516005820180546001600160a01b0319166001600160a01b0390921691909117905560c082015160068201906120859082613e2e565b5060e082015160078201556101008201516008820155610120820151600982015561014090910151600a909101805460ff191691151591909117905550565b600581815481106120d457600080fd5b600091825260209091206005909102018054600182015460028301546003840154600490940154929450909290916001600160a01b031685565b612116612d67565b6000600461194d600184613f32565b61212d612d67565b80600461213b600185613f32565b8154811061214b5761214b613eed565b90600052602060002090600b02016002019081611e209190613e2e565b60008054819061217790613dac565b80601f01602080910402602001604051908101604052809291908181526020018280546121a390613dac565b80156121f05780601f106121c5576101008083540402835291602001916121f0565b820191906000526020600020905b8154815290600101906020018083116121d357829003601f168201915b50505050509080600101805461220590613dac565b80601f016020809104026020016040519081016040528092919081815260200182805461223190613dac565b801561227e5780601f106122535761010080835404028352916020019161227e565b820191906000526020600020905b81548152906001019060200180831161226157829003601f168201915b50505050509080600201805461229390613dac565b80601f01602080910402602001604051908101604052809291908181526020018280546122bf90613dac565b801561230c5780601f106122e15761010080835404028352916020019161230c565b820191906000526020600020905b8154815290600101906020018083116122ef57829003601f168201915b505050600390930154919250506001600160a01b031684565b336000908152600660205260408120906004612342600186613f32565b8154811061235257612352613eed565b90600052602060002090600b0201604051806101600160405290816000820154815260200160018201805461238690613dac565b80601f01602080910402602001604051908101604052809291908181526020018280546123b290613dac565b80156123ff5780601f106123d4576101008083540402835291602001916123ff565b820191906000526020600020905b8154815290600101906020018083116123e257829003601f168201915b5050505050815260200160028201805461241890613dac565b80601f016020809104026020016040519081016040528092919081815260200182805461244490613dac565b80156124915780601f1061246657610100808354040283529160200191612491565b820191906000526020600020905b81548152906001019060200180831161247457829003601f168201915b5050505050815260200160038201805480602002602001604051908101604052809291908181526020016000905b8282101561256b5783829060005260206000200180546124de90613dac565b80601f016020809104026020016040519081016040528092919081815260200182805461250a90613dac565b80156125575780601f1061252c57610100808354040283529160200191612557565b820191906000526020600020905b81548152906001019060200180831161253a57829003601f168201915b5050505050815260200190600101906124bf565b50505050815260200160048201805480602002602001604051908101604052809291908181526020016000905b828210156126445783829060005260206000200180546125b790613dac565b80601f01602080910402602001604051908101604052809291908181526020018280546125e390613dac565b80156126305780601f1061260557610100808354040283529160200191612630565b820191906000526020600020905b81548152906001019060200180831161261357829003601f168201915b505050505081526020019060010190612598565b5050509082525060058201546001600160a01b0316602082015260068201805460409092019161267390613dac565b80601f016020809104026020016040519081016040528092919081815260200182805461269f90613dac565b80156126ec5780601f106126c1576101008083540402835291602001916126ec565b820191906000526020600020905b8154815290600101906020018083116126cf57829003601f168201915b505050918352505060078281015460208084019190915260088401546040808501919091526009850154606080860191909152600a9095015460ff161515608094850152805160a0810182528a81528083018a815261012088015182840190815242978301978852339683019687528a5460018181018d5560008d815287812086516005948502909101908155855181840155845160028201558b5160038201558a51600490910180546001600160a01b039283166001600160a01b031991821617909155845493840185558483528751939094027f036b6384b5eca791c62761152d0c79bb0604c104a5fb6f4eb0703f3154bb3db081019390935594517f036b6384b5eca791c62761152d0c79bb0604c104a5fb6f4eb0703f3154bb3db183015592517f036b6384b5eca791c62761152d0c79bb0604c104a5fb6f4eb0703f3154bb3db282015598517f036b6384b5eca791c62761152d0c79bb0604c104a5fb6f4eb0703f3154bb3db38a015596517f036b6384b5eca791c62761152d0c79bb0604c104a5fb6f4eb0703f3154bb3db4909801805498909216979096169690961790955585518452919052902054919250906128aa908590613f45565b825160009081526007602052604090205560a08201516001600160a01b031661297157838261012001516128de9190613ff1565b3410156129325760405162461bcd60e51b815260206004820152601d60248201527f546865205061796d656e7420416d6f756e7420497320546f6f204c6f7700000060448201526064015b60405180910390fd5b6003546040516001600160a01b03909116903480156108fc02916000818181858888f1935050505015801561296b573d6000803e3d6000fd5b50612a1b565b60a08201516003546101208401516001600160a01b03928316926323b872dd9233929116906129a1908990613ff1565b6040516001600160e01b031960e086901b1681526001600160a01b03938416600482015292909116602483015260448201526064016020604051808303816000875af11580156129f5573d6000803e3d6000fd5b505050506040513d601f19601f82011682018060405250810190612a199190614008565b505b5050505050565b612a2a612d67565b805181906000908190612a3d9082613e2e565b5060208201516001820190612a529082613e2e565b5060408201516002820190612a679082613e2e565b5060609190910151600390910180546001600160a01b0319166001600160a01b0390921691909117905550565b60066020528160005260406000208181548110612ab057600080fd5b60009182526020909120600590910201805460018201546002830154600384015460049094015492955090935091906001600160a01b031685565b612af3612d67565b6001600160a01b038116612b1d57604051631e4fbdf760e01b815260006004820152602401612929565b61070c81612f4c565b612b2e612d67565b806004612b3c600185613f32565b81548110612b4c57612b4c613eed565b60009182526020909120600b9091020160050180546001600160a01b0319166001600160a01b039283161790558116612c0c5760408051808201909152600381526208aa8960eb1b60208201526004612ba6600185613f32565b81548110612bb657612bb6613eed565b90600052602060002090600b02016006019081612bd39190613e2e565b5060126004612be3600185613f32565b81548110612bf357612bf3613eed565b90600052602060002090600b0201600701819055505050565b6000819050806001600160a01b03166395d89b416040518163ffffffff1660e01b8152600401600060405180830381865afa158015612c4f573d6000803e3d6000fd5b505050506040513d6000823e601f3d908101601f19168201604052612c779190810190613f58565b6004612c84600186613f32565b81548110612c9457612c94613eed565b90600052602060002090600b02016006019081612cb19190613e2e565b50806001600160a01b031663313ce5676040518163ffffffff1660e01b8152600401602060405180830381865afa158015612cf0573d6000803e3d6000fd5b505050506040513d601f19601f82011682018060405250810190612d149190613fce565b60ff166004612d24600186613f32565b81548110612d3457612d34613eed565b90600052602060002090600b020160070181905550505050565b612d56612fbd565b61070c81613006565b611935612fbd565b33612d70611e25565b6001600160a01b0316146119355760405163118cdaa760e01b8152336004820152602401612929565b306001600160a01b037f0000000000000000000000000000000000000000000000000000000000000000161480612e2057507f00000000000000000000000000000000000000000000000000000000000000006001600160a01b0316612e14600080516020614042833981519152546001600160a01b031690565b6001600160a01b031614155b156119355760405163703e46dd60e11b815260040160405180910390fd5b61070c612d67565b816001600160a01b03166352d1902d6040518163ffffffff1660e01b8152600401602060405180830381865afa925050508015612ea0575060408051601f3d908101601f19168201909252612e9d91810190613f03565b60015b612ec857604051634c9c8ce360e01b81526001600160a01b0383166004820152602401612929565b6000805160206140428339815191528114612ef957604051632a87526960e21b815260048101829052602401612929565b611e20838361300e565b306001600160a01b037f000000000000000000000000000000000000000000000000000000000000000016146119355760405163703e46dd60e11b815260040160405180910390fd5b7f9016d09d72d40fdae2fd8ceac6b6234c7706214fd39c1cd1e609a0528c19930080546001600160a01b031981166001600160a01b03848116918217845560405192169182907f8be0079c531659141344cd1fd0a4f28419497f9722a3daafe3b4186f6b6457e090600090a3505050565b7ff0c57e16840df040f15088dc2f81fe391c3923bec73e23a9662efc9c229c6a0054600160401b900460ff1661193557604051631afcd79f60e31b815260040160405180910390fd5b612af3612fbd565b61301782613064565b6040516001600160a01b038316907fbc7cd75a20ee27fd9adebab32041f755214dbc6bffa90cc0225b39da2e5c2d3b90600090a280511561305c57611e2082826130c9565b611902613141565b806001600160a01b03163b60000361309a57604051634c9c8ce360e01b81526001600160a01b0382166004820152602401612929565b60008051602061404283398151915280546001600160a01b0319166001600160a01b0392909216919091179055565b6060600080846001600160a01b0316846040516130e69190614025565b600060405180830381855af49150503d8060008114613121576040519150601f19603f3d011682016040523d82523d6000602084013e613126565b606091505b5091509150613136858383613160565b925050505b92915050565b34156119355760405163b398979f60e01b815260040160405180910390fd5b60608261317557613170826131bf565b6131b8565b815115801561318c57506001600160a01b0384163b155b156131b557604051639996b31560e01b81526001600160a01b0385166004820152602401612929565b50805b9392505050565b8051156131cf5780518082602001fd5b604051630a12f52160e11b815260040160405180910390fd5b82805482825590600052602060002090810192821561322e579160200282015b8281111561322e578251829061321e9082613e2e565b5091602001919060010190613208565b5061323a92915061323e565b5090565b8082111561323a576000613252828261325b565b5060010161323e565b50805461326790613dac565b6000825580601f10613277575050565b601f01602090049060005260206000209081019061070c91905b8082111561323a5760008155600101613291565b80356001600160a01b03811681146132bc57600080fd5b919050565b634e487b7160e01b600052604160045260246000fd5b60405161016081016001600160401b03811182821017156132fa576132fa6132c1565b60405290565b604051601f8201601f191681016001600160401b0381118282101715613328576133286132c1565b604052919050565b60006001600160401b03821115613349576133496132c1565b50601f01601f191660200190565b600061336a61336584613330565b613300565b905082815283838301111561337e57600080fd5b828260208301376000602084830101529392505050565b600082601f8301126133a657600080fd5b6131b883833560208501613357565b6000608082840312156133c757600080fd5b604051608081016001600160401b0382821081831117156133ea576133ea6132c1565b81604052829350843591508082111561340257600080fd5b61340e86838701613395565b8352602085013591508082111561342457600080fd5b61343086838701613395565b6020840152604085013591508082111561344957600080fd5b5061345685828601613395565b604083015250613468606084016132a5565b60608201525092915050565b6000806040838503121561348757600080fd5b613490836132a5565b915060208301356001600160401b038111156134ab57600080fd5b6134b7858286016133b5565b9150509250929050565b6000602082840312156134d357600080fd5b6131b8826132a5565b805182526020808201519083015260408082015190830152606080820151908301526080908101516001600160a01b03169082015260a00190565b6020808252825182820181905260009190848201906040850190845b81811015613554576135468385516134dc565b938501939250600101613533565b50909695505050505050565b60006020828403121561357257600080fd5b5035919050565b60005b8381101561359457818101518382015260200161357c565b50506000910152565b600081518084526135b5816020860160208601613579565b601f01601f19169290920160200192915050565b60006101208b83528060208401526135e38184018c61359d565b905082810360408401526135f7818b61359d565b6001600160a01b038a1660608501528381036080850152905061361a818961359d565b9150508560a08301528460c08301528360e08301528215156101008301529a9950505050505050505050565b60008282518085526020808601955060208260051b8401016020860160005b8481101561369357601f1986840301895261368183835161359d565b98840198925090830190600101613665565b5090979650505050505050565b600082825180855260208086019550808260051b84010181860160005b8481101561369357601f198684030189528151610160815185528582015181878701526136ec8287018261359d565b91505060408083015186830382880152613706838261359d565b92505050606080830151868303828801526137218382613646565b925050506080808301518683038288015261373c8382613646565b9250505060a08083015161375a828801826001600160a01b03169052565b505060c08083015186830382880152613773838261359d565b60e085810151908901526101008086015190890152610120808601519089015261014094850151801515868a01529490935091506137ae9050565b5099850199935050908301906001016136bd565b60008151808452602080850194506020840160005b838110156137f8576137ea8783516134dc565b9650908201906001016137d7565b509495945050505050565b60008151808452602080850194506020840160005b838110156137f85781518051885283810151848901526040908101519088015260609096019590820190600101613818565b60008151808452602080850194506020840160005b838110156137f85781518752958201959082019060010161385f565b602081526000825160e06020840152805160806101008501526138a261018085018261359d565b9050602082015160ff1980868403016101208701526138c1838361359d565b9250604084015191508086840301610140870152506138e0828261359d565b606093909301516001600160a01b031661016086015250506020840151601f198483038101604086015290919061391782846136a0565b9250604086015191508085840301606086015261393483836137c2565b925060608601519150808584030160808601526139518383613803565b92506080860151915061396860a086018315159052565b60a08601516001600160a01b03811660c0870152915060c08601519150808584030160e086015250613136828261384a565b600082601f8301126139ab57600080fd5b813560206001600160401b03808311156139c7576139c76132c1565b8260051b6139d6838201613300565b93845285810183019383810190888611156139f057600080fd5b84880192505b85831015613a2c57823584811115613a0e5760008081fd5b613a1c8a87838c0101613395565b83525091840191908401906139f6565b98975050505050505050565b801515811461070c57600080fd5b80356132bc81613a38565b60006101608284031215613a6457600080fd5b613a6c6132d7565b90508135815260208201356001600160401b0380821115613a8c57600080fd5b613a9885838601613395565b60208401526040840135915080821115613ab157600080fd5b613abd85838601613395565b60408401526060840135915080821115613ad657600080fd5b613ae28583860161399a565b60608401526080840135915080821115613afb57600080fd5b613b078583860161399a565b6080840152613b1860a085016132a5565b60a084015260c0840135915080821115613b3157600080fd5b50613b3e84828501613395565b60c08301525060e0828101359082015261010080830135908201526101208083013590820152610140613b72818401613a46565b9082015292915050565b60008060408385031215613b8f57600080fd5b8235915060208301356001600160401b03811115613bac57600080fd5b6134b785828601613a51565b60008060408385031215613bcb57600080fd5b613bd4836132a5565b915060208301356001600160401b03811115613bef57600080fd5b8301601f81018513613c0057600080fd5b6134b785823560208401613357565b6020815260006131b860208301846136a0565b60008060408385031215613c3557600080fd5b50508035926020909101359150565b60008060408385031215613c5757600080fd5b8235915060208301356001600160401b03811115613c7457600080fd5b6134b785828601613395565b600060208284031215613c9257600080fd5b81356001600160401b03811115613ca857600080fd5b613cb484828501613a51565b949350505050565b6020815260006131b8602083018461359d565b608081526000613ce2608083018761359d565b8281036020840152613cf4818761359d565b90508281036040840152613d08818661359d565b91505060018060a01b038316606083015295945050505050565b600060208284031215613d3457600080fd5b81356001600160401b03811115613d4a57600080fd5b613cb4848285016133b5565b60008060408385031215613d6957600080fd5b613d72836132a5565b946020939093013593505050565b60008060408385031215613d9357600080fd5b82359150613da3602084016132a5565b90509250929050565b600181811c90821680613dc057607f821691505b602082108103613de057634e487b7160e01b600052602260045260246000fd5b50919050565b601f821115611e20576000816000526020600020601f850160051c81016020861015613e0f5750805b601f850160051c820191505b81811015612a1957828155600101613e1b565b81516001600160401b03811115613e4757613e476132c1565b613e5b81613e558454613dac565b84613de6565b602080601f831160018114613e905760008415613e785750858301515b600019600386901b1c1916600185901b178555612a19565b600085815260208120601f198616915b82811015613ebf57888601518255948401946001909101908401613ea0565b5085821015613edd5787850151600019600388901b60f8161c191681555b5050505050600190811b01905550565b634e487b7160e01b600052603260045260246000fd5b600060208284031215613f1557600080fd5b5051919050565b634e487b7160e01b600052601160045260246000fd5b8181038181111561313b5761313b613f1c565b8082018082111561313b5761313b613f1c565b600060208284031215613f6a57600080fd5b81516001600160401b03811115613f8057600080fd5b8201601f81018413613f9157600080fd5b8051613f9f61336582613330565b818152856020838501011115613fb457600080fd5b613fc5826020830160208601613579565b95945050505050565b600060208284031215613fe057600080fd5b815160ff811681146131b857600080fd5b808202811582820484141761313b5761313b613f1c565b60006020828403121561401a57600080fd5b81516131b881613a38565b60008251614037818460208701613579565b919091019291505056fe360894a13ba1a3210667c828492db98dca3e2076cc3735a920a3ca505d382bbca264697066735822122083a57c5bd5ae9939624ca19038f228f31e634127c494b34ee8b210c33beed33b64736f6c63430008180033",
    "linkReferences": {},
    "deployedLinkReferences": {}
}