{
  "_format": "hh-sol-artifact-1",
  "contractName": "Community",
  "sourceName": "contracts/Community.sol",
  "abi": [
    {
      "inputs": [
        {
          "internalType": "address",
          "name": "initialOwner",
          "type": "address"
        },
        {
          "internalType": "string",
          "name": "_name",
          "type": "string"
        },
        {
          "internalType": "string",
          "name": "_description",
          "type": "string"
        },
        {
          "internalType": "string",
          "name": "_logo",
          "type": "string"
        }
      ],
      "stateMutability": "nonpayable",
      "type": "constructor"
    },
    {
      "inputs": [
        {
          "internalType": "address",
          "name": "owner",
          "type": "address"
        }
      ],
      "name": "OwnableInvalidOwner",
      "type": "error"
    },
    {
      "inputs": [
        {
          "internalType": "address",
          "name": "account",
          "type": "address"
        }
      ],
      "name": "OwnableUnauthorizedAccount",
      "type": "error"
    },
    {
      "anonymous": false,
      "inputs": [
        {
          "indexed": true,
          "internalType": "address",
          "name": "previousOwner",
          "type": "address"
        },
        {
          "indexed": true,
          "internalType": "address",
          "name": "newOwner",
          "type": "address"
        }
      ],
      "name": "OwnershipTransferred",
      "type": "event"
    },
    {
      "inputs": [
        {
          "components": [
            {
              "internalType": "string",
              "name": "name",
              "type": "string"
            },
            {
              "internalType": "string",
              "name": "description",
              "type": "string"
            },
            {
              "internalType": "string",
              "name": "logo",
              "type": "string"
            },
            {
              "internalType": "address",
              "name": "payToken",
              "type": "address"
            },
            {
              "internalType": "address",
              "name": "receiver",
              "type": "address"
            },
            {
              "internalType": "uint256",
              "name": "amount",
              "type": "uint256"
            },
            {
              "internalType": "uint256",
              "name": "price",
              "type": "uint256"
            }
          ],
          "internalType": "struct CommunityGoods.GoodsSetting",
          "name": "_setting",
          "type": "tuple"
        }
      ],
      "name": "createGoods",
      "outputs": [],
      "stateMutability": "nonpayable",
      "type": "function"
    },
    {
      "inputs": [
        {
          "internalType": "string",
          "name": "_name",
          "type": "string"
        },
        {
          "internalType": "string",
          "name": "_symbol",
          "type": "string"
        },
        {
          "internalType": "string",
          "name": "_baseTokenURI",
          "type": "string"
        },
        {
          "internalType": "uint256",
          "name": "_price",
          "type": "uint256"
        }
      ],
      "name": "createNFT",
      "outputs": [],
      "stateMutability": "nonpayable",
      "type": "function"
    },
    {
      "inputs": [
        {
          "internalType": "string",
          "name": "_name",
          "type": "string"
        },
        {
          "internalType": "string",
          "name": "_symbol",
          "type": "string"
        }
      ],
      "name": "createPointToken",
      "outputs": [],
      "stateMutability": "nonpayable",
      "type": "function"
    },
    {
      "inputs": [],
      "name": "description",
      "outputs": [
        {
          "internalType": "string",
          "name": "",
          "type": "string"
        }
      ],
      "stateMutability": "view",
      "type": "function"
    },
    {
      "inputs": [],
      "name": "getGoodsList",
      "outputs": [
        {
          "internalType": "address[]",
          "name": "",
          "type": "address[]"
        }
      ],
      "stateMutability": "view",
      "type": "function"
    },
    {
      "inputs": [],
      "name": "getNFTList",
      "outputs": [
        {
          "internalType": "address[]",
          "name": "",
          "type": "address[]"
        }
      ],
      "stateMutability": "view",
      "type": "function"
    },
    {
      "inputs": [],
      "name": "getUserList",
      "outputs": [
        {
          "internalType": "address[]",
          "name": "",
          "type": "address[]"
        }
      ],
      "stateMutability": "view",
      "type": "function"
    },
    {
      "inputs": [
        {
          "internalType": "uint256",
          "name": "",
          "type": "uint256"
        }
      ],
      "name": "goodsList",
      "outputs": [
        {
          "internalType": "address",
          "name": "",
          "type": "address"
        }
      ],
      "stateMutability": "view",
      "type": "function"
    },
    {
      "inputs": [],
      "name": "join",
      "outputs": [],
      "stateMutability": "nonpayable",
      "type": "function"
    },
    {
      "inputs": [],
      "name": "logo",
      "outputs": [
        {
          "internalType": "string",
          "name": "",
          "type": "string"
        }
      ],
      "stateMutability": "view",
      "type": "function"
    },
    {
      "inputs": [],
      "name": "name",
      "outputs": [
        {
          "internalType": "string",
          "name": "",
          "type": "string"
        }
      ],
      "stateMutability": "view",
      "type": "function"
    },
    {
      "inputs": [
        {
          "internalType": "uint256",
          "name": "",
          "type": "uint256"
        }
      ],
      "name": "nftList",
      "outputs": [
        {
          "internalType": "address",
          "name": "",
          "type": "address"
        }
      ],
      "stateMutability": "view",
      "type": "function"
    },
    {
      "inputs": [],
      "name": "owner",
      "outputs": [
        {
          "internalType": "address",
          "name": "",
          "type": "address"
        }
      ],
      "stateMutability": "view",
      "type": "function"
    },
    {
      "inputs": [],
      "name": "pointToken",
      "outputs": [
        {
          "internalType": "address",
          "name": "",
          "type": "address"
        }
      ],
      "stateMutability": "view",
      "type": "function"
    },
    {
      "inputs": [],
      "name": "quit",
      "outputs": [],
      "stateMutability": "nonpayable",
      "type": "function"
    },
    {
      "inputs": [],
      "name": "renounceOwnership",
      "outputs": [],
      "stateMutability": "nonpayable",
      "type": "function"
    },
    {
      "inputs": [
        {
          "internalType": "address",
          "name": "account",
          "type": "address"
        },
        {
          "internalType": "uint256",
          "name": "amount",
          "type": "uint256"
        }
      ],
      "name": "sendPointToken",
      "outputs": [],
      "stateMutability": "nonpayable",
      "type": "function"
    },
    {
      "inputs": [
        {
          "internalType": "string",
          "name": "_description",
          "type": "string"
        }
      ],
      "name": "setDescription",
      "outputs": [],
      "stateMutability": "nonpayable",
      "type": "function"
    },
    {
      "inputs": [
        {
          "internalType": "string",
          "name": "_logo",
          "type": "string"
        }
      ],
      "name": "setLogo",
      "outputs": [],
      "stateMutability": "nonpayable",
      "type": "function"
    },
    {
      "inputs": [
        {
          "internalType": "string",
          "name": "_name",
          "type": "string"
        }
      ],
      "name": "setName",
      "outputs": [],
      "stateMutability": "nonpayable",
      "type": "function"
    },
    {
      "inputs": [
        {
          "internalType": "address",
          "name": "_pointToken",
          "type": "address"
        }
      ],
      "name": "setPointToken",
      "outputs": [],
      "stateMutability": "nonpayable",
      "type": "function"
    },
    {
      "inputs": [
        {
          "internalType": "address",
          "name": "newOwner",
          "type": "address"
        }
      ],
      "name": "transferOwnership",
      "outputs": [],
      "stateMutability": "nonpayable",
      "type": "function"
    },
    {
      "inputs": [
        {
          "internalType": "uint256",
          "name": "",
          "type": "uint256"
        }
      ],
      "name": "userList",
      "outputs": [
        {
          "internalType": "address",
          "name": "",
          "type": "address"
        }
      ],
      "stateMutability": "view",
      "type": "function"
    },
    {
      "inputs": [
        {
          "internalType": "address",
          "name": "",
          "type": "address"
        }
      ],
      "name": "userMap",
      "outputs": [
        {
          "internalType": "uint256",
          "name": "",
          "type": "uint256"
        }
      ],
      "stateMutability": "view",
      "type": "function"
    }
  ],
  "bytecode": "0x60806040523480156200001157600080fd5b50604051620046a8380380620046a88339810160408190526200003491620001bf565b836001600160a01b0381166200006457604051631e4fbdf760e01b81526000600482015260240160405180910390fd5b6200006f81620000a7565b5060016200007e848262000302565b5060026200008d838262000302565b5060036200009c828262000302565b5050505050620003ce565b600080546001600160a01b038381166001600160a01b0319831681178455604051919092169283917f8be0079c531659141344cd1fd0a4f28419497f9722a3daafe3b4186f6b6457e09190a35050565b634e487b7160e01b600052604160045260246000fd5b600082601f8301126200011f57600080fd5b81516001600160401b03808211156200013c576200013c620000f7565b604051601f8301601f19908116603f01168101908282118183101715620001675762000167620000f7565b81604052838152602092508660208588010111156200018557600080fd5b600091505b83821015620001a957858201830151818301840152908201906200018a565b6000602085830101528094505050505092915050565b60008060008060808587031215620001d657600080fd5b84516001600160a01b0381168114620001ee57600080fd5b60208601519094506001600160401b03808211156200020c57600080fd5b6200021a888389016200010d565b945060408701519150808211156200023157600080fd5b6200023f888389016200010d565b935060608701519150808211156200025657600080fd5b5062000265878288016200010d565b91505092959194509250565b600181811c908216806200028657607f821691505b602082108103620002a757634e487b7160e01b600052602260045260246000fd5b50919050565b601f821115620002fd576000816000526020600020601f850160051c81016020861015620002d85750805b601f850160051c820191505b81811015620002f957828155600101620002e4565b5050505b505050565b81516001600160401b038111156200031e576200031e620000f7565b62000336816200032f845462000271565b84620002ad565b602080601f8311600181146200036e5760008415620003555750858301515b600019600386901b1c1916600185901b178555620002f9565b600085815260208120601f198616915b828110156200039f578886015182559484019460019091019084016200037e565b5085821015620003be5787850151600019600388901b60f8161c191681555b5050505050600190811b01905550565b6142ca80620003de6000396000f3fe60806040523480156200001157600080fd5b5060043610620001755760003560e01c806390c3f38f11620000d3578063c6435b911162000086578063c6435b911462000354578063ca1e217f146200036b578063e380ec5d1462000382578063f2fde38b1462000399578063fb7f21eb14620003b0578063fc2b8cc314620003ba57600080fd5b806390c3f38f14620002985780639676160914620002af5780639f4216e814620002c6578063b688a36314620002dd578063b85220431462000333578063c47f0027146200033d57600080fd5b806364625dbe116200012c57806364625dbe146200023a578063715018a614620002515780637284e416146200025b57806375bea166146200026557806383f8f54c146200027c5780638da5cb5b146200028657600080fd5b806306fdde03146200017a5780632251d3f0146200019c57806328d27f0914620001bf5780632bcc23f814620001d65780632fe319621462000208578063445a21121462000221575b600080fd5b62000184620003d0565b60405162000193919062000a03565b60405180910390f35b600854620001b0906001600160a01b031681565b60405162000193919062000a1f565b620001b0620001d036600462000a33565b62000466565b620001f9620001e736600462000a6a565b60046020526000908152604090205481565b60405190815260200162000193565b6200021f6200021936600462000b5d565b62000491565b005b6200022b620004ad565b60405162000193919062000b9d565b6200021f6200024b36600462000a6a565b62000511565b6200021f6200053d565b6200018462000555565b620001b06200027636600462000a33565b62000564565b6200022b62000575565b6000546001600160a01b0316620001b0565b6200021f620002a936600462000b5d565b620005d7565b6200021f620002c036600462000bec565b620005ef565b620001b0620002d736600462000a33565b6200065d565b6200021f6005805460018181019092557f036b6384b5eca791c62761152d0c79bb0604c104a5fb6f4eb0703f3154bb3db00180546001600160a01b03191633908117909155600090815260046020526040902055565b6200022b6200066e565b6200021f6200034e36600462000b5d565b620006d0565b6200021f6200036536600462000c56565b620006e8565b6200021f6200037c36600462000d55565b62000783565b6200021f6200039336600462000dee565b6200083e565b6200021f620003aa36600462000a6a565b620008b4565b6200018462000902565b6200021f33600090815260046020526040812055565b60018054620003df9062000e1b565b80601f01602080910402602001604051908101604052809291908181526020018280546200040d9062000e1b565b80156200045e5780601f1062000432576101008083540402835291602001916200045e565b820191906000526020600020905b8154815290600101906020018083116200044057829003601f168201915b505050505081565b600781815481106200047757600080fd5b6000918252602090912001546001600160a01b0316905081565b6200049b62000911565b6003620004a9828262000ea8565b5050565b606060068054806020026020016040519081016040528092919081815260200182805480156200050757602002820191906000526020600020905b81546001600160a01b03168152600190910190602001808311620004e8575b5050505050905090565b6200051b62000911565b600880546001600160a01b0319166001600160a01b0392909216919091179055565b6200054762000911565b62000553600062000941565b565b60028054620003df9062000e1b565b600681815481106200047757600080fd5b6060600780548060200260200160405190810160405280929190818152602001828054801562000507576020028201919060005260206000209081546001600160a01b03168152600190910190602001808311620004e8575050505050905090565b620005e162000911565b6002620004a9828262000ea8565b620005f962000911565b60003083836040516200060c9062000991565b6200061a9392919062000f74565b604051809103906000f08015801562000637573d6000803e3d6000fd5b50600880546001600160a01b0319166001600160a01b0392909216919091179055505050565b600581815481106200047757600080fd5b6060600580548060200260200160405190810160405280929190818152602001828054801562000507576020028201919060005260206000209081546001600160a01b03168152600190910190602001808311620004e8575050505050905090565b620006da62000911565b6001620004a9828262000ea8565b620006f262000911565b6000338260405162000704906200099f565b6200071192919062000fb8565b604051809103906000f0801580156200072e573d6000803e3d6000fd5b50600780546001810182556000919091527fa66cc928b5edb82af9bd49922954155ab7b0942694bea4ce44661d9a8736c6880180546001600160a01b0319166001600160a01b03929092169190911790555050565b6200078d62000911565b600033858585600860009054906101000a90046001600160a01b031686604051620007b890620009ad565b620007c99695949392919062001062565b604051809103906000f080158015620007e6573d6000803e3d6000fd5b50600680546001810182556000919091527ff652222313e28459528d920b65115c16c04f3efc82aaedc97be59f3f377c0d3f0180546001600160a01b0319166001600160a01b03929092169190911790555050505050565b6200084862000911565b6008546040516340c10f1960e01b81526001600160a01b03848116600483015260248201849052909116906340c10f1990604401600060405180830381600087803b1580156200089757600080fd5b505af1158015620008ac573d6000803e3d6000fd5b505050505050565b620008be62000911565b6001600160a01b038116620008f4576000604051631e4fbdf760e01b8152600401620008eb919062000a1f565b60405180910390fd5b620008ff8162000941565b50565b60038054620003df9062000e1b565b6000546001600160a01b0316331462000553573360405163118cdaa760e01b8152600401620008eb919062000a1f565b600080546001600160a01b038381166001600160a01b0319831681178455604051919092169283917f8be0079c531659141344cd1fd0a4f28419497f9722a3daafe3b4186f6b6457e09190a35050565b610cc580620010c883390190565b610c328062001d8d83390190565b6118d680620029bf83390190565b6000815180845260005b81811015620009e357602081850181015186830182015201620009c5565b506000602082860101526020601f19601f83011685010191505092915050565b60208152600062000a186020830184620009bb565b9392505050565b6001600160a01b0391909116815260200190565b60006020828403121562000a4657600080fd5b5035919050565b80356001600160a01b038116811462000a6557600080fd5b919050565b60006020828403121562000a7d57600080fd5b62000a188262000a4d565b634e487b7160e01b600052604160045260246000fd5b60405160e081016001600160401b038111828210171562000ac35762000ac362000a88565b60405290565b600082601f83011262000adb57600080fd5b81356001600160401b038082111562000af85762000af862000a88565b604051601f8301601f19908116603f0116810190828211818310171562000b235762000b2362000a88565b8160405283815286602085880101111562000b3d57600080fd5b836020870160208301376000602085830101528094505050505092915050565b60006020828403121562000b7057600080fd5b81356001600160401b0381111562000b8757600080fd5b62000b958482850162000ac9565b949350505050565b6020808252825182820181905260009190848201906040850190845b8181101562000be05783516001600160a01b03168352928401929184019160010162000bb9565b50909695505050505050565b6000806040838503121562000c0057600080fd5b82356001600160401b038082111562000c1857600080fd5b62000c268683870162000ac9565b9350602085013591508082111562000c3d57600080fd5b5062000c4c8582860162000ac9565b9150509250929050565b60006020828403121562000c6957600080fd5b81356001600160401b038082111562000c8157600080fd5b9083019060e0828603121562000c9657600080fd5b62000ca062000a9e565b82358281111562000cb057600080fd5b62000cbe8782860162000ac9565b82525060208301358281111562000cd457600080fd5b62000ce28782860162000ac9565b60208301525060408301358281111562000cfb57600080fd5b62000d098782860162000ac9565b60408301525062000d1d6060840162000a4d565b606082015262000d306080840162000a4d565b608082015260a083013560a082015260c083013560c082015280935050505092915050565b6000806000806080858703121562000d6c57600080fd5b84356001600160401b038082111562000d8457600080fd5b62000d928883890162000ac9565b9550602087013591508082111562000da957600080fd5b62000db78883890162000ac9565b9450604087013591508082111562000dce57600080fd5b5062000ddd8782880162000ac9565b949793965093946060013593505050565b6000806040838503121562000e0257600080fd5b62000e0d8362000a4d565b946020939093013593505050565b600181811c9082168062000e3057607f821691505b60208210810362000e5157634e487b7160e01b600052602260045260246000fd5b50919050565b601f82111562000ea3576000816000526020600020601f850160051c8101602086101562000e825750805b601f850160051c820191505b81811015620008ac5782815560010162000e8e565b505050565b81516001600160401b0381111562000ec45762000ec462000a88565b62000edc8162000ed5845462000e1b565b8462000e57565b602080601f83116001811462000f14576000841562000efb5750858301515b600019600386901b1c1916600185901b178555620008ac565b600085815260208120601f198616915b8281101562000f455788860151825594840194600190910190840162000f24565b508582101562000f645787850151600019600388901b60f8161c191681555b5050505050600190811b01905550565b6001600160a01b038416815260606020820181905260009062000f9a90830185620009bb565b828103604084015262000fae8185620009bb565b9695505050505050565b600060018060a01b03808516835260406020840152835160e0604085015262000fe6610120850182620009bb565b90506020850151603f1980868403016060870152620010068383620009bb565b9250604087015191508086840301608087015250620010268282620009bb565b9150508160608601511660a08501528160808601511660c085015260a085015160e085015260c085015161010085015280925050509392505050565b600060018060a01b03808916835260c060208401526200108660c0840189620009bb565b83810360408501526200109a8189620009bb565b90508381036060850152620010b08188620009bb565b959091166080840152505060a0015294935050505056fe60806040523480156200001157600080fd5b5060405162000cc538038062000cc58339810160408190526200003491620001b5565b8282826003620000458382620002d0565b506004620000548282620002d0565b5050506001600160a01b0381166200008657604051631e4fbdf760e01b81526000600482015260240160405180910390fd5b62000091816200009b565b505050506200039c565b600580546001600160a01b038381166001600160a01b0319831681179093556040519116919082907f8be0079c531659141344cd1fd0a4f28419497f9722a3daafe3b4186f6b6457e090600090a35050565b634e487b7160e01b600052604160045260246000fd5b600082601f8301126200011557600080fd5b81516001600160401b0380821115620001325762000132620000ed565b604051601f8301601f19908116603f011681019082821181831017156200015d576200015d620000ed565b81604052838152602092508660208588010111156200017b57600080fd5b600091505b838210156200019f578582018301518183018401529082019062000180565b6000602085830101528094505050505092915050565b600080600060608486031215620001cb57600080fd5b83516001600160a01b0381168114620001e357600080fd5b60208501519093506001600160401b03808211156200020157600080fd5b6200020f8783880162000103565b935060408601519150808211156200022657600080fd5b50620002358682870162000103565b9150509250925092565b600181811c908216806200025457607f821691505b6020821081036200027557634e487b7160e01b600052602260045260246000fd5b50919050565b601f821115620002cb576000816000526020600020601f850160051c81016020861015620002a65750805b601f850160051c820191505b81811015620002c757828155600101620002b2565b5050505b505050565b81516001600160401b03811115620002ec57620002ec620000ed565b6200030481620002fd84546200023f565b846200027b565b602080601f8311600181146200033c5760008415620003235750858301515b600019600386901b1c1916600185901b178555620002c7565b600085815260208120601f198616915b828110156200036d578886015182559484019460019091019084016200034c565b50858210156200038c5787850151600019600388901b60f8161c191681555b5050505050600190811b01905550565b61091980620003ac6000396000f3fe608060405234801561001057600080fd5b50600436106100ca5760003560e01c8063715018a61161007c578063715018a6146101825780638da5cb5b1461018a57806395d89b41146101a35780639dc29fac146101ab578063a9059cbb146101be578063dd62ed3e146101d1578063f2fde38b146101e457600080fd5b806306fdde03146100cf578063095ea7b3146100ed57806318160ddd1461011057806323b872dd14610122578063313ce5671461013557806340c10f191461014457806370a0823114610159575b600080fd5b6100d76101f7565b6040516100e4919061072d565b60405180910390f35b6101006100fb366004610798565b610289565b60405190151581526020016100e4565b6002545b6040519081526020016100e4565b6101006101303660046107c2565b6102a3565b604051601281526020016100e4565b610157610152366004610798565b6102c7565b005b6101146101673660046107fe565b6001600160a01b031660009081526020819052604090205490565b6101576102dd565b6005546001600160a01b03166040516100e49190610820565b6100d76102f1565b6101576101b9366004610798565b610300565b6101006101cc366004610798565b610312565b6101146101df366004610834565b610320565b6101576101f23660046107fe565b61034b565b60606003805461020690610867565b80601f016020809104026020016040519081016040528092919081815260200182805461023290610867565b801561027f5780601f106102545761010080835404028352916020019161027f565b820191906000526020600020905b81548152906001019060200180831161026257829003601f168201915b5050505050905090565b600033610297818585610392565b60019150505b92915050565b6000336102b18582856103a4565b6102bc8585856103f7565b506001949350505050565b6102cf610456565b6102d98282610483565b5050565b6102e5610456565b6102ef60006104b9565b565b60606004805461020690610867565b610308610456565b6102d9828261050b565b6000336102978185856103f7565b6001600160a01b03918216600090815260016020908152604080832093909416825291909152205490565b610353610456565b6001600160a01b038116610386576000604051631e4fbdf760e01b815260040161037d9190610820565b60405180910390fd5b61038f816104b9565b50565b61039f8383836001610541565b505050565b60006103b08484610320565b905060001981146103f157818110156103e257828183604051637dc7a0d960e11b815260040161037d939291906108a1565b6103f184848484036000610541565b50505050565b6001600160a01b038316610421576000604051634b637e8f60e11b815260040161037d9190610820565b6001600160a01b03821661044b57600060405163ec442f0560e01b815260040161037d9190610820565b61039f838383610616565b6005546001600160a01b031633146102ef573360405163118cdaa760e01b815260040161037d9190610820565b6001600160a01b0382166104ad57600060405163ec442f0560e01b815260040161037d9190610820565b6102d960008383610616565b600580546001600160a01b038381166001600160a01b0319831681179093556040519116919082907f8be0079c531659141344cd1fd0a4f28419497f9722a3daafe3b4186f6b6457e090600090a35050565b6001600160a01b038216610535576000604051634b637e8f60e11b815260040161037d9190610820565b6102d982600083610616565b6001600160a01b03841661056b57600060405163e602df0560e01b815260040161037d9190610820565b6001600160a01b038316610595576000604051634a1406b160e11b815260040161037d9190610820565b6001600160a01b03808516600090815260016020908152604080832093871683529290522082905580156103f157826001600160a01b0316846001600160a01b03167f8c5be1e5ebec7d5bd14f71427d1e84f3dd0314c0f7b2291e5b200ac8c7c3b9258460405161060891815260200190565b60405180910390a350505050565b6001600160a01b03831661064157806002600082825461063691906108c2565b909155506106a09050565b6001600160a01b038316600090815260208190526040902054818110156106815783818360405163391434e360e21b815260040161037d939291906108a1565b6001600160a01b03841660009081526020819052604090209082900390555b6001600160a01b0382166106bc576002805482900390556106db565b6001600160a01b03821660009081526020819052604090208054820190555b816001600160a01b0316836001600160a01b03167fddf252ad1be2c89b69c2b068fc378daa952ba7f163c4a11628f55a4df523b3ef8360405161072091815260200190565b60405180910390a3505050565b60006020808352835180602085015260005b8181101561075b5785810183015185820160400152820161073f565b506000604082860101526040601f19601f8301168501019250505092915050565b80356001600160a01b038116811461079357600080fd5b919050565b600080604083850312156107ab57600080fd5b6107b48361077c565b946020939093013593505050565b6000806000606084860312156107d757600080fd5b6107e08461077c565b92506107ee6020850161077c565b9150604084013590509250925092565b60006020828403121561081057600080fd5b6108198261077c565b9392505050565b6001600160a01b0391909116815260200190565b6000806040838503121561084757600080fd5b6108508361077c565b915061085e6020840161077c565b90509250929050565b600181811c9082168061087b57607f821691505b60208210810361089b57634e487b7160e01b600052602260045260246000fd5b50919050565b6001600160a01b039390931683526020830191909152604082015260600190565b8082018082111561029d57634e487b7160e01b600052601160045260246000fdfea264697066735822122097b55c42b9fded2454d03665a9ad55d821db44c9ad0d167f04dd3486361d5e2664736f6c6343000818003360806040523480156200001157600080fd5b5060405162000c3238038062000c3283398101604081905262000034916200026d565b816001600160a01b0381166200006457604051631e4fbdf760e01b81526000600482015260240160405180910390fd5b6200006f81620000ff565b50805160019062000081908262000410565b50602081015160029062000096908262000410565b506040810151600390620000ab908262000410565b506060810151600480546001600160a01b039283166001600160a01b03199182161790915560a0830151600681905560c08401516007556080909301516005805491909316911617905560085550620004dc565b600080546001600160a01b038381166001600160a01b0319831681178455604051919092169283917f8be0079c531659141344cd1fd0a4f28419497f9722a3daafe3b4186f6b6457e09190a35050565b80516001600160a01b03811681146200016757600080fd5b919050565b634e487b7160e01b600052604160045260246000fd5b60405160e081016001600160401b0381118282101715620001a757620001a76200016c565b60405290565b604051601f8201601f191681016001600160401b0381118282101715620001d857620001d86200016c565b604052919050565b600082601f830112620001f257600080fd5b81516001600160401b038111156200020e576200020e6200016c565b602062000224601f8301601f19168201620001ad565b82815285828487010111156200023957600080fd5b60005b83811015620002595785810183015182820184015282016200023c565b506000928101909101919091529392505050565b600080604083850312156200028157600080fd5b6200028c836200014f565b60208401519092506001600160401b0380821115620002aa57600080fd5b9084019060e08287031215620002bf57600080fd5b620002c962000182565b825182811115620002d957600080fd5b620002e788828601620001e0565b825250602083015182811115620002fd57600080fd5b6200030b88828601620001e0565b6020830152506040830151828111156200032457600080fd5b6200033288828601620001e0565b60408301525062000346606084016200014f565b606082015262000359608084016200014f565b608082015260a083015160a082015260c083015160c08201528093505050509250929050565b600181811c908216806200039457607f821691505b602082108103620003b557634e487b7160e01b600052602260045260246000fd5b50919050565b601f8211156200040b576000816000526020600020601f850160051c81016020861015620003e65750805b601f850160051c820191505b818110156200040757828155600101620003f2565b5050505b505050565b81516001600160401b038111156200042c576200042c6200016c565b62000444816200043d84546200037f565b84620003bb565b602080601f8311600181146200047c5760008415620004635750858301515b600019600386901b1c1916600185901b17855562000407565b600085815260208120601f198616915b82811015620004ad578886015182559484019460019091019084016200048c565b5085821015620004cc5787850151600019600388901b60f8161c191681555b5050505050600190811b01905550565b61074680620004ec6000396000f3fe608060405234801561001057600080fd5b506004361061006d5760003560e01c80635fcd79ca14610072578063715018a61461008e5780638da5cb5b14610098578063c0c9ce30146100b1578063d96a094a146100cc578063eed3e097146100df578063f2fde38b1461010d575b600080fd5b61007b60085481565b6040519081526020015b60405180910390f35b610096610120565b005b6000546001600160a01b0316604051610085919061052a565b6100b9610134565b6040516100859796959493929190610584565b6100966100da3660046105ed565b610309565b6100f26100ed366004610622565b610424565b60408051938452602084019290925290820152606001610085565b61009661011b36600461064c565b610466565b6101286104ad565b61013260006104da565b565b6001805481906101439061066e565b80601f016020809104026020016040519081016040528092919081815260200182805461016f9061066e565b80156101bc5780601f10610191576101008083540402835291602001916101bc565b820191906000526020600020905b81548152906001019060200180831161019f57829003601f168201915b5050505050908060010180546101d19061066e565b80601f01602080910402602001604051908101604052809291908181526020018280546101fd9061066e565b801561024a5780601f1061021f5761010080835404028352916020019161024a565b820191906000526020600020905b81548152906001019060200180831161022d57829003601f168201915b50505050509080600201805461025f9061066e565b80601f016020809104026020016040519081016040528092919081815260200182805461028b9061066e565b80156102d85780601f106102ad576101008083540402835291602001916102d8565b820191906000526020600020905b8154815290600101906020018083116102bb57829003601f168201915b5050505060038301546004840154600585015460069095015493946001600160a01b03928316949290911692509087565b3360009081526009602090815260409182902082516060810184528481526007549281019290925242928201929092526008546103479084906106be565b600855815460018181018455600084815260209081902084516003909402019283558301519082015560408201516002909101556004546005546007546001600160a01b03928316926323b872dd9233929116906103a69088906106d7565b6040516001600160e01b031960e086901b1681526001600160a01b03938416600482015292909116602483015260448201526064016020604051808303816000875af11580156103fa573d6000803e3d6000fd5b505050506040513d601f19601f8201168201806040525081019061041e91906106ee565b50505050565b6009602052816000526040600020818154811061044057600080fd5b600091825260209091206003909102018054600182015460029092015490935090915083565b61046e6104ad565b6001600160a01b0381166104a1576000604051631e4fbdf760e01b8152600401610498919061052a565b60405180910390fd5b6104aa816104da565b50565b6000546001600160a01b03163314610132573360405163118cdaa760e01b8152600401610498919061052a565b600080546001600160a01b038381166001600160a01b0319831681178455604051919092169283917f8be0079c531659141344cd1fd0a4f28419497f9722a3daafe3b4186f6b6457e09190a35050565b6001600160a01b0391909116815260200190565b6000815180845260005b8181101561056457602081850181015186830182015201610548565b506000602082860101526020601f19601f83011685010191505092915050565b60e08152600061059760e083018a61053e565b82810360208401526105a9818a61053e565b905082810360408401526105bd818961053e565b6001600160a01b0397881660608501529590961660808301525060a081019290925260c090910152949350505050565b6000602082840312156105ff57600080fd5b5035919050565b80356001600160a01b038116811461061d57600080fd5b919050565b6000806040838503121561063557600080fd5b61063e83610606565b946020939093013593505050565b60006020828403121561065e57600080fd5b61066782610606565b9392505050565b600181811c9082168061068257607f821691505b6020821081036106a257634e487b7160e01b600052602260045260246000fd5b50919050565b634e487b7160e01b600052601160045260246000fd5b818103818111156106d1576106d16106a8565b92915050565b80820281158282048414176106d1576106d16106a8565b60006020828403121561070057600080fd5b8151801515811461066757600080fdfea26469706673582212209e6f3387bf2590c54dda21c64d44726f0c05007d2f0d2caf95d719c73d0c5de264736f6c6343000818003360806040523480156200001157600080fd5b50604051620018d6380380620018d6833981016040819052620000349162000207565b858585600062000045838262000358565b50600162000054828262000358565b5050506001600160a01b0381166200008657604051631e4fbdf760e01b81526000600482015260240160405180910390fd5b6200009181620000d0565b506009620000a0848262000358565b50600a80546001600160a01b0319166001600160a01b039390931692909217909155600b55506200042492505050565b600780546001600160a01b038381166001600160a01b0319831681179093556040519116919082907f8be0079c531659141344cd1fd0a4f28419497f9722a3daafe3b4186f6b6457e090600090a35050565b80516001600160a01b03811681146200013a57600080fd5b919050565b634e487b7160e01b600052604160045260246000fd5b600082601f8301126200016757600080fd5b81516001600160401b03808211156200018457620001846200013f565b604051601f8301601f19908116603f01168101908282118183101715620001af57620001af6200013f565b8160405283815260209250866020858801011115620001cd57600080fd5b600091505b83821015620001f15785820183015181830184015290820190620001d2565b6000602085830101528094505050505092915050565b60008060008060008060c087890312156200022157600080fd5b6200022c8762000122565b60208801519096506001600160401b03808211156200024a57600080fd5b620002588a838b0162000155565b965060408901519150808211156200026f57600080fd5b6200027d8a838b0162000155565b955060608901519150808211156200029457600080fd5b50620002a389828a0162000155565b935050620002b46080880162000122565b915060a087015190509295509295509295565b600181811c90821680620002dc57607f821691505b602082108103620002fd57634e487b7160e01b600052602260045260246000fd5b50919050565b601f82111562000353576000816000526020600020601f850160051c810160208610156200032e5750805b601f850160051c820191505b818110156200034f578281556001016200033a565b5050505b505050565b81516001600160401b038111156200037457620003746200013f565b6200038c81620003858454620002c7565b8462000303565b602080601f831160018114620003c45760008415620003ab5750858301515b600019600386901b1c1916600185901b1785556200034f565b600085815260208120601f198616915b82811015620003f557888601518255948401946001909101908401620003d4565b5085821015620004145787850151600019600388901b60f8161c191681555b5050505050600190811b01905550565b6114a280620004346000396000f3fe608060405234801561001057600080fd5b50600436106101425760003560e01c8063715018a6116100b8578063a22cb4651161007c578063a22cb46514610296578063b88d4fde146102a9578063c87b56dd146102bc578063d547cfb7146102cf578063e985e9c5146102d7578063f2fde38b146102ea57600080fd5b8063715018a6146102595780638da5cb5b1461026157806395d89b411461027257806396336b301461027a578063a035b1fe1461028d57600080fd5b80633de419e91161010a5780633de419e9146101cc57806340c10f19146101ed57806342842e0e146102005780636352211e1461021357806369358db31461022657806370a082311461024657600080fd5b806301ffc9a71461014757806306fdde031461016f578063081812fc14610184578063095ea7b3146101a457806323b872dd146101b9575b600080fd5b61015a610155366004610fa0565b6102fd565b60405190151581526020015b60405180910390f35b610177610328565b6040516101669190611014565b610197610192366004611027565b6103ba565b6040516101669190611040565b6101b76101b2366004611070565b6103e3565b005b6101b76101c736600461109a565b6103f2565b6101df6101da366004611070565b610486565b604051908152602001610166565b6101b76101fb366004611070565b6104b7565b6101b761020e36600461109a565b6105ba565b610197610221366004611027565b6105d5565b6102396102343660046110d6565b6105e0565b60405161016691906110f1565b6101df6102543660046110d6565b61064c565b6101b7610694565b6007546001600160a01b0316610197565b6101776106a8565b600a54610197906001600160a01b031681565b6101df600b5481565b6101b76102a4366004611143565b6106b7565b6101b76102b7366004611190565b6106c2565b6101776102ca366004611027565b6106d9565b61017761070d565b61015a6102e536600461126c565b61079b565b6101b76102f83660046110d6565b6107c9565b60006001600160e01b03198216632483248360e11b1480610322575061032282610807565b92915050565b6060600080546103379061129f565b80601f01602080910402602001604051908101604052809291908181526020018280546103639061129f565b80156103b05780601f10610385576101008083540402835291602001916103b0565b820191906000526020600020905b81548152906001019060200180831161039357829003601f168201915b5050505050905090565b60006103c582610857565b506000828152600460205260409020546001600160a01b0316610322565b6103ee828233610890565b5050565b6001600160a01b038216610425576000604051633250574960e11b815260040161041c9190611040565b60405180910390fd5b600061043283833361089d565b9050836001600160a01b0316816001600160a01b031614610480576040516364283d7b60e01b81526001600160a01b038086166004830152602482018490528216604482015260640161041c565b50505050565b600c60205281600052604060002081815481106104a257600080fd5b90600052602060002001600091509150505481565b60005b81811015610515576008546104cf8482610996565b6008546104dd9060016112ef565b6008556001600160a01b0384166000908152600c602090815260408220805460018181018355918452919092200191909155016104ba565b50600a54600b546001600160a01b03909116906323b872dd903390309061053d908690611302565b6040516001600160e01b031960e086901b1681526001600160a01b03938416600482015292909116602483015260448201526064016020604051808303816000875af1158015610591573d6000803e3d6000fd5b505050506040513d601f19601f820116820180604052508101906105b59190611319565b505050565b6105b5838383604051806020016040528060008152506106c2565b600061032282610857565b6001600160a01b0381166000908152600c602090815260409182902080548351818402810184019094528084526060939283018282801561064057602002820191906000526020600020905b81548152602001906001019080831161062c575b50505050509050919050565b60006001600160a01b0382166106785760006040516322718ad960e21b815260040161041c9190611040565b506001600160a01b031660009081526003602052604090205490565b61069c6109b0565b6106a660006109dd565b565b6060600180546103379061129f565b6103ee338383610a2f565b6106cd8484846103f2565b61048084848484610ac5565b606060096106e683610bdc565b6040516020016106f7929190611352565b6040516020818303038152906040529050919050565b6009805461071a9061129f565b80601f01602080910402602001604051908101604052809291908181526020018280546107469061129f565b80156107935780601f1061076857610100808354040283529160200191610793565b820191906000526020600020905b81548152906001019060200180831161077657829003601f168201915b505050505081565b6001600160a01b03918216600090815260056020908152604080832093909416825291909152205460ff1690565b6107d16109b0565b6001600160a01b0381166107fb576000604051631e4fbdf760e01b815260040161041c9190611040565b610804816109dd565b50565b60006001600160e01b031982166380ac58cd60e01b148061083857506001600160e01b03198216635b5e139f60e01b145b8061032257506301ffc9a760e01b6001600160e01b0319831614610322565b6000818152600260205260408120546001600160a01b03168061032257604051637e27328960e01b81526004810184905260240161041c565b6105b58383836001610c6f565b6000828152600260205260408120546001600160a01b03908116908316156108ca576108ca818486610d6c565b6001600160a01b03811615610908576108e7600085600080610c6f565b6001600160a01b038116600090815260036020526040902080546000190190555b6001600160a01b03851615610937576001600160a01b0385166000908152600360205260409020805460010190555b60008481526002602052604080822080546001600160a01b0319166001600160a01b0389811691821790925591518793918516917fddf252ad1be2c89b69c2b068fc378daa952ba7f163c4a11628f55a4df523b3ef91a4949350505050565b6103ee828260405180602001604052806000815250610dd0565b6007546001600160a01b031633146106a6573360405163118cdaa760e01b815260040161041c9190611040565b600780546001600160a01b038381166001600160a01b0319831681179093556040519116919082907f8be0079c531659141344cd1fd0a4f28419497f9722a3daafe3b4186f6b6457e090600090a35050565b6001600160a01b038216610a585781604051630b61174360e31b815260040161041c9190611040565b6001600160a01b03838116600081815260056020908152604080832094871680845294825291829020805460ff191686151590811790915591519182527f17307eab39ab6107e8899845ad3d59bd9653f200f220920489ca2b5937696c31910160405180910390a3505050565b6001600160a01b0383163b1561048057604051630a85bd0160e11b81526001600160a01b0384169063150b7a0290610b07903390889087908790600401611412565b6020604051808303816000875af1925050508015610b42575060408051601f3d908101601f19168201909252610b3f9181019061144f565b60015b610ba2573d808015610b70576040519150601f19603f3d011682016040523d82523d6000602084013e610b75565b606091505b508051600003610b9a5783604051633250574960e11b815260040161041c9190611040565b805181602001fd5b6001600160e01b03198116630a85bd0160e11b14610bd55783604051633250574960e11b815260040161041c9190611040565b5050505050565b60606000610be983610de7565b600101905060008167ffffffffffffffff811115610c0957610c0961117a565b6040519080825280601f01601f191660200182016040528015610c33576020820181803683370190505b5090508181016020015b600019016f181899199a1a9b1b9c1cb0b131b232b360811b600a86061a8153600a8504945084610c3d57509392505050565b8080610c8357506001600160a01b03821615155b15610d3c576000610c9384610857565b90506001600160a01b03831615801590610cbf5750826001600160a01b0316816001600160a01b031614155b8015610cd25750610cd0818461079b565b155b15610cf2578260405163a9fbf51f60e01b815260040161041c9190611040565b8115610d3a5783856001600160a01b0316826001600160a01b03167f8c5be1e5ebec7d5bd14f71427d1e84f3dd0314c0f7b2291e5b200ac8c7c3b92560405160405180910390a45b505b5050600090815260046020526040902080546001600160a01b0319166001600160a01b0392909216919091179055565b610d77838383610ebf565b6105b5576001600160a01b038316610da557604051637e27328960e01b81526004810182905260240161041c565b60405163177e802f60e01b81526001600160a01b03831660048201526024810182905260440161041c565b610dda8383610f25565b6105b56000848484610ac5565b60008072184f03e93ff9f4daa797ed6e38ed64bf6a1f0160401b8310610e265772184f03e93ff9f4daa797ed6e38ed64bf6a1f0160401b830492506040015b6d04ee2d6d415b85acef81000000008310610e52576d04ee2d6d415b85acef8100000000830492506020015b662386f26fc100008310610e7057662386f26fc10000830492506010015b6305f5e1008310610e88576305f5e100830492506008015b6127108310610e9c57612710830492506004015b60648310610eae576064830492506002015b600a83106103225760010192915050565b60006001600160a01b03831615801590610f1d5750826001600160a01b0316846001600160a01b03161480610ef95750610ef9848461079b565b80610f1d57506000828152600460205260409020546001600160a01b038481169116145b949350505050565b6001600160a01b038216610f4f576000604051633250574960e11b815260040161041c9190611040565b6000610f5d8383600061089d565b90506001600160a01b038116156105b55760006040516339e3563760e11b815260040161041c9190611040565b6001600160e01b03198116811461080457600080fd5b600060208284031215610fb257600080fd5b8135610fbd81610f8a565b9392505050565b60005b83811015610fdf578181015183820152602001610fc7565b50506000910152565b60008151808452611000816020860160208601610fc4565b601f01601f19169290920160200192915050565b602081526000610fbd6020830184610fe8565b60006020828403121561103957600080fd5b5035919050565b6001600160a01b0391909116815260200190565b80356001600160a01b038116811461106b57600080fd5b919050565b6000806040838503121561108357600080fd5b61108c83611054565b946020939093013593505050565b6000806000606084860312156110af57600080fd5b6110b884611054565b92506110c660208501611054565b9150604084013590509250925092565b6000602082840312156110e857600080fd5b610fbd82611054565b6020808252825182820181905260009190848201906040850190845b818110156111295783518352928401929184019160010161110d565b50909695505050505050565b801515811461080457600080fd5b6000806040838503121561115657600080fd5b61115f83611054565b9150602083013561116f81611135565b809150509250929050565b634e487b7160e01b600052604160045260246000fd5b600080600080608085870312156111a657600080fd5b6111af85611054565b93506111bd60208601611054565b925060408501359150606085013567ffffffffffffffff808211156111e157600080fd5b818701915087601f8301126111f557600080fd5b8135818111156112075761120761117a565b604051601f8201601f19908116603f0116810190838211818310171561122f5761122f61117a565b816040528281528a602084870101111561124857600080fd5b82602086016020830137600060208483010152809550505050505092959194509250565b6000806040838503121561127f57600080fd5b61128883611054565b915061129660208401611054565b90509250929050565b600181811c908216806112b357607f821691505b6020821081036112d357634e487b7160e01b600052602260045260246000fd5b50919050565b634e487b7160e01b600052601160045260246000fd5b80820180821115610322576103226112d9565b8082028115828204841417610322576103226112d9565b60006020828403121561132b57600080fd5b8151610fbd81611135565b60008151611348818560208601610fc4565b9290920192915050565b60008084548160018260011c9150600183168061137057607f831692505b6020808410820361138f57634e487b7160e01b86526022600452602486fd5b8180156113a357600181146113b8576113e5565b60ff19861689528415158502890196506113e5565b60008b81526020902060005b868110156113dd5781548b8201529085019083016113c4565b505084890196505b5050505050506114096113f88286611336565b64173539b7b760d91b815260050190565b95945050505050565b6001600160a01b038581168252841660208201526040810183905260806060820181905260009061144590830184610fe8565b9695505050505050565b60006020828403121561146157600080fd5b8151610fbd81610f8a56fea264697066735822122057bd6ca3fbb9ee6e497cbcfb31d30df92c1dcd4a4984a62f165bd0bd271a50f464736f6c63430008180033a26469706673582212209bce4ca5519589dfe0584bab1caace5927ad43b56aa5dd63867546f1d5fc059764736f6c63430008180033",
  "linkReferences": {},
  "deployedLinkReferences": {}
}