{
    "_format": "hh-sol-artifact-1",
    "contractName": "CommunityManager",
    "sourceName": "contracts/CommunityManager.sol",
    "abi": [
        {
            "inputs": [],
            "stateMutability": "nonpayable",
            "type": "constructor"
        },
        {
            "anonymous": false,
            "inputs": [
                {
                    "indexed": true,
                    "internalType": "address",
                    "name": "previousOwner",
                    "type": "address"
                },
                {
                    "indexed": true,
                    "internalType": "address",
                    "name": "newOwner",
                    "type": "address"
                }
            ],
            "name": "OwnershipTransferred",
            "type": "event"
        },
        {
            "inputs": [
                {
                    "internalType": "uint256",
                    "name": "",
                    "type": "uint256"
                }
            ],
            "name": "communityList",
            "outputs": [
                {
                    "internalType": "uint256",
                    "name": "id",
                    "type": "uint256"
                },
                {
                    "internalType": "string",
                    "name": "name",
                    "type": "string"
                },
                {
                    "internalType": "string",
                    "name": "symbol",
                    "type": "string"
                },
                {
                    "internalType": "string",
                    "name": "desc",
                    "type": "string"
                },
                {
                    "internalType": "string",
                    "name": "logo",
                    "type": "string"
                },
                {
                    "internalType": "address",
                    "name": "owner",
                    "type": "address"
                }
            ],
            "stateMutability": "view",
            "type": "function"
        },
        {
            "inputs": [
                {
                    "components": [
                        {
                            "internalType": "uint256",
                            "name": "id",
                            "type": "uint256"
                        },
                        {
                            "internalType": "string",
                            "name": "name",
                            "type": "string"
                        },
                        {
                            "internalType": "string",
                            "name": "symbol",
                            "type": "string"
                        },
                        {
                            "internalType": "string",
                            "name": "desc",
                            "type": "string"
                        },
                        {
                            "internalType": "string",
                            "name": "logo",
                            "type": "string"
                        },
                        {
                            "internalType": "address",
                            "name": "owner",
                            "type": "address"
                        }
                    ],
                    "internalType": "struct CommunityManager.Community",
                    "name": "data",
                    "type": "tuple"
                }
            ],
            "name": "createCommunity",
            "outputs": [],
            "stateMutability": "nonpayable",
            "type": "function"
        },
        {
            "inputs": [
                {
                    "internalType": "uint256",
                    "name": "communityId",
                    "type": "uint256"
                },
                {
                    "components": [
                        {
                            "internalType": "uint256",
                            "name": "id",
                            "type": "uint256"
                        },
                        {
                            "internalType": "string",
                            "name": "name",
                            "type": "string"
                        },
                        {
                            "internalType": "string",
                            "name": "desc",
                            "type": "string"
                        },
                        {
                            "internalType": "string",
                            "name": "pos",
                            "type": "string"
                        },
                        {
                            "internalType": "string",
                            "name": "link",
                            "type": "string"
                        },
                        {
                            "internalType": "address",
                            "name": "creator",
                            "type": "address"
                        },
                        {
                            "internalType": "uint256",
                            "name": "communityId",
                            "type": "uint256"
                        }
                    ],
                    "internalType": "struct CommunityManager.CommunityEvent",
                    "name": "data",
                    "type": "tuple"
                }
            ],
            "name": "createEvent",
            "outputs": [],
            "stateMutability": "nonpayable",
            "type": "function"
        },
        {
            "inputs": [
                {
                    "internalType": "uint256",
                    "name": "",
                    "type": "uint256"
                }
            ],
            "name": "eventList",
            "outputs": [
                {
                    "internalType": "uint256",
                    "name": "id",
                    "type": "uint256"
                },
                {
                    "internalType": "string",
                    "name": "name",
                    "type": "string"
                },
                {
                    "internalType": "string",
                    "name": "desc",
                    "type": "string"
                },
                {
                    "internalType": "string",
                    "name": "pos",
                    "type": "string"
                },
                {
                    "internalType": "string",
                    "name": "link",
                    "type": "string"
                },
                {
                    "internalType": "address",
                    "name": "creator",
                    "type": "address"
                },
                {
                    "internalType": "uint256",
                    "name": "communityId",
                    "type": "uint256"
                }
            ],
            "stateMutability": "view",
            "type": "function"
        },
        {
            "inputs": [],
            "name": "getCommunityList",
            "outputs": [
                {
                    "components": [
                        {
                            "internalType": "uint256",
                            "name": "id",
                            "type": "uint256"
                        },
                        {
                            "internalType": "string",
                            "name": "name",
                            "type": "string"
                        },
                        {
                            "internalType": "string",
                            "name": "symbol",
                            "type": "string"
                        },
                        {
                            "internalType": "string",
                            "name": "desc",
                            "type": "string"
                        },
                        {
                            "internalType": "string",
                            "name": "logo",
                            "type": "string"
                        },
                        {
                            "internalType": "address",
                            "name": "owner",
                            "type": "address"
                        }
                    ],
                    "internalType": "struct CommunityManager.Community[]",
                    "name": "",
                    "type": "tuple[]"
                }
            ],
            "stateMutability": "view",
            "type": "function"
        },
        {
            "inputs": [],
            "name": "getEventList",
            "outputs": [
                {
                    "components": [
                        {
                            "internalType": "uint256",
                            "name": "id",
                            "type": "uint256"
                        },
                        {
                            "internalType": "string",
                            "name": "name",
                            "type": "string"
                        },
                        {
                            "internalType": "string",
                            "name": "desc",
                            "type": "string"
                        },
                        {
                            "internalType": "string",
                            "name": "pos",
                            "type": "string"
                        },
                        {
                            "internalType": "string",
                            "name": "link",
                            "type": "string"
                        },
                        {
                            "internalType": "address",
                            "name": "creator",
                            "type": "address"
                        },
                        {
                            "internalType": "uint256",
                            "name": "communityId",
                            "type": "uint256"
                        }
                    ],
                    "internalType": "struct CommunityManager.CommunityEvent[]",
                    "name": "",
                    "type": "tuple[]"
                }
            ],
            "stateMutability": "view",
            "type": "function"
        },
        {
            "inputs": [],
            "name": "owner",
            "outputs": [
                {
                    "internalType": "address",
                    "name": "",
                    "type": "address"
                }
            ],
            "stateMutability": "view",
            "type": "function"
        },
        {
            "inputs": [],
            "name": "renounceOwnership",
            "outputs": [],
            "stateMutability": "nonpayable",
            "type": "function"
        },
        {
            "inputs": [
                {
                    "internalType": "address",
                    "name": "newOwner",
                    "type": "address"
                }
            ],
            "name": "transferOwnership",
            "outputs": [],
            "stateMutability": "nonpayable",
            "type": "function"
        }
    ],
    "bytecode": "0x608060405234801561001057600080fd5b5061002d61002261003260201b60201c565b61003a60201b60201c565b6100fe565b600033905090565b60008060009054906101000a900473ffffffffffffffffffffffffffffffffffffffff169050816000806101000a81548173ffffffffffffffffffffffffffffffffffffffff021916908373ffffffffffffffffffffffffffffffffffffffff1602179055508173ffffffffffffffffffffffffffffffffffffffff168173ffffffffffffffffffffffffffffffffffffffff167f8be0079c531659141344cd1fd0a4f28419497f9722a3daafe3b4186f6b6457e060405160405180910390a35050565b611ed78061010d6000396000f3fe608060405234801561001057600080fd5b50600436106100935760003560e01c8063715018a611610066578063715018a6146101245780638da5cb5b1461012e57806390cea25e1461014c578063a681b7ba1461016a578063f2fde38b1461019f57610093565b80630eaad59e146100985780631db06949146100b45780633e067eef146100d2578063493280d2146100ee575b600080fd5b6100b260048036038101906100ad91906115e1565b6101bb565b005b6100bc610319565b6040516100c991906119a5565b60405180910390f35b6100ec60048036038101906100e79190611577565b61062a565b005b610108600480360381019061010391906115b8565b610773565b60405161011b9796959493929190611aa6565b60405180910390f35b61012c610a05565b005b610136610a8d565b604051610143919061198a565b60405180910390f35b610154610ab6565b60405161016191906119c7565b60405180910390f35b610184600480360381019061017f91906115b8565b610dbd565b60405161019696959493929190611a29565b60405180910390f35b6101b960048036038101906101b4919061154e565b611049565b005b338160a0019073ffffffffffffffffffffffffffffffffffffffff16908173ffffffffffffffffffffffffffffffffffffffff168152505060016003805490506102059190611c26565b816000018181525050818160c0018181525050600381908060018154018082558091505060019003906000526020600020906007020160009091909190915060008201518160000155602082015181600101908051906020019061026a92919061120d565b50604082015181600201908051906020019061028792919061120d565b5060608201518160030190805190602001906102a492919061120d565b5060808201518160040190805190602001906102c192919061120d565b5060a08201518160050160006101000a81548173ffffffffffffffffffffffffffffffffffffffff021916908373ffffffffffffffffffffffffffffffffffffffff16021790555060c0820151816006015550505050565b60606003805480602002602001604051908101604052809291908181526020016000905b8282101561062157838290600052602060002090600702016040518060e00160405290816000820154815260200160018201805461037a90611cfa565b80601f01602080910402602001604051908101604052809291908181526020018280546103a690611cfa565b80156103f35780601f106103c8576101008083540402835291602001916103f3565b820191906000526020600020905b8154815290600101906020018083116103d657829003601f168201915b5050505050815260200160028201805461040c90611cfa565b80601f016020809104026020016040519081016040528092919081815260200182805461043890611cfa565b80156104855780601f1061045a57610100808354040283529160200191610485565b820191906000526020600020905b81548152906001019060200180831161046857829003601f168201915b5050505050815260200160038201805461049e90611cfa565b80601f01602080910402602001604051908101604052809291908181526020018280546104ca90611cfa565b80156105175780601f106104ec57610100808354040283529160200191610517565b820191906000526020600020905b8154815290600101906020018083116104fa57829003601f168201915b5050505050815260200160048201805461053090611cfa565b80601f016020809104026020016040519081016040528092919081815260200182805461055c90611cfa565b80156105a95780601f1061057e576101008083540402835291602001916105a9565b820191906000526020600020905b81548152906001019060200180831161058c57829003601f168201915b505050505081526020016005820160009054906101000a900473ffffffffffffffffffffffffffffffffffffffff1673ffffffffffffffffffffffffffffffffffffffff1673ffffffffffffffffffffffffffffffffffffffff1681526020016006820154815250508152602001906001019061033d565b50505050905090565b338160a0019073ffffffffffffffffffffffffffffffffffffffff16908173ffffffffffffffffffffffffffffffffffffffff168152505060016002805490506106749190611c26565b81600001818152505060028190806001815401808255809150506001900390600052602060002090600602016000909190919091506000820151816000015560208201518160010190805190602001906106cf92919061120d565b5060408201518160020190805190602001906106ec92919061120d565b50606082015181600301908051906020019061070992919061120d565b50608082015181600401908051906020019061072692919061120d565b5060a08201518160050160006101000a81548173ffffffffffffffffffffffffffffffffffffffff021916908373ffffffffffffffffffffffffffffffffffffffff160217905550505050565b6003818154811061078357600080fd5b90600052602060002090600702016000915090508060000154908060010180546107ac90611cfa565b80601f01602080910402602001604051908101604052809291908181526020018280546107d890611cfa565b80156108255780601f106107fa57610100808354040283529160200191610825565b820191906000526020600020905b81548152906001019060200180831161080857829003601f168201915b50505050509080600201805461083a90611cfa565b80601f016020809104026020016040519081016040528092919081815260200182805461086690611cfa565b80156108b35780601f10610888576101008083540402835291602001916108b3565b820191906000526020600020905b81548152906001019060200180831161089657829003601f168201915b5050505050908060030180546108c890611cfa565b80601f01602080910402602001604051908101604052809291908181526020018280546108f490611cfa565b80156109415780601f1061091657610100808354040283529160200191610941565b820191906000526020600020905b81548152906001019060200180831161092457829003601f168201915b50505050509080600401805461095690611cfa565b80601f016020809104026020016040519081016040528092919081815260200182805461098290611cfa565b80156109cf5780601f106109a4576101008083540402835291602001916109cf565b820191906000526020600020905b8154815290600101906020018083116109b257829003601f168201915b5050505050908060050160009054906101000a900473ffffffffffffffffffffffffffffffffffffffff16908060060154905087565b610a0d611141565b73ffffffffffffffffffffffffffffffffffffffff16610a2b610a8d565b73ffffffffffffffffffffffffffffffffffffffff1614610a81576040517f08c379a0000000000000000000000000000000000000000000000000000000008152600401610a7890611a09565b60405180910390fd5b610a8b6000611149565b565b60008060009054906101000a900473ffffffffffffffffffffffffffffffffffffffff16905090565b60606002805480602002602001604051908101604052809291908181526020016000905b82821015610db457838290600052602060002090600602016040518060c001604052908160008201548152602001600182018054610b1790611cfa565b80601f0160208091040260200160405190810160405280929190818152602001828054610b4390611cfa565b8015610b905780601f10610b6557610100808354040283529160200191610b90565b820191906000526020600020905b815481529060010190602001808311610b7357829003601f168201915b50505050508152602001600282018054610ba990611cfa565b80601f0160208091040260200160405190810160405280929190818152602001828054610bd590611cfa565b8015610c225780601f10610bf757610100808354040283529160200191610c22565b820191906000526020600020905b815481529060010190602001808311610c0557829003601f168201915b50505050508152602001600382018054610c3b90611cfa565b80601f0160208091040260200160405190810160405280929190818152602001828054610c6790611cfa565b8015610cb45780601f10610c8957610100808354040283529160200191610cb4565b820191906000526020600020905b815481529060010190602001808311610c9757829003601f168201915b50505050508152602001600482018054610ccd90611cfa565b80601f0160208091040260200160405190810160405280929190818152602001828054610cf990611cfa565b8015610d465780601f10610d1b57610100808354040283529160200191610d46565b820191906000526020600020905b815481529060010190602001808311610d2957829003601f168201915b505050505081526020016005820160009054906101000a900473ffffffffffffffffffffffffffffffffffffffff1673ffffffffffffffffffffffffffffffffffffffff1673ffffffffffffffffffffffffffffffffffffffff168152505081526020019060010190610ada565b50505050905090565b60028181548110610dcd57600080fd5b9060005260206000209060060201600091509050806000015490806001018054610df690611cfa565b80601f0160208091040260200160405190810160405280929190818152602001828054610e2290611cfa565b8015610e6f5780601f10610e4457610100808354040283529160200191610e6f565b820191906000526020600020905b815481529060010190602001808311610e5257829003601f168201915b505050505090806002018054610e8490611cfa565b80601f0160208091040260200160405190810160405280929190818152602001828054610eb090611cfa565b8015610efd5780601f10610ed257610100808354040283529160200191610efd565b820191906000526020600020905b815481529060010190602001808311610ee057829003601f168201915b505050505090806003018054610f1290611cfa565b80601f0160208091040260200160405190810160405280929190818152602001828054610f3e90611cfa565b8015610f8b5780601f10610f6057610100808354040283529160200191610f8b565b820191906000526020600020905b815481529060010190602001808311610f6e57829003601f168201915b505050505090806004018054610fa090611cfa565b80601f0160208091040260200160405190810160405280929190818152602001828054610fcc90611cfa565b80156110195780601f10610fee57610100808354040283529160200191611019565b820191906000526020600020905b815481529060010190602001808311610ffc57829003601f168201915b5050505050908060050160009054906101000a900473ffffffffffffffffffffffffffffffffffffffff16905086565b611051611141565b73ffffffffffffffffffffffffffffffffffffffff1661106f610a8d565b73ffffffffffffffffffffffffffffffffffffffff16146110c5576040517f08c379a00000000000000000000000000000000000000000000000000000000081526004016110bc90611a09565b60405180910390fd5b600073ffffffffffffffffffffffffffffffffffffffff168173ffffffffffffffffffffffffffffffffffffffff161415611135576040517f08c379a000000000000000000000000000000000000000000000000000000000815260040161112c906119e9565b60405180910390fd5b61113e81611149565b50565b600033905090565b60008060009054906101000a900473ffffffffffffffffffffffffffffffffffffffff169050816000806101000a81548173ffffffffffffffffffffffffffffffffffffffff021916908373ffffffffffffffffffffffffffffffffffffffff1602179055508173ffffffffffffffffffffffffffffffffffffffff168173ffffffffffffffffffffffffffffffffffffffff167f8be0079c531659141344cd1fd0a4f28419497f9722a3daafe3b4186f6b6457e060405160405180910390a35050565b82805461121990611cfa565b90600052602060002090601f01602090048101928261123b5760008555611282565b82601f1061125457805160ff1916838001178555611282565b82800160010185558215611282579182015b82811115611281578251825591602001919060010190611266565b5b50905061128f9190611293565b5090565b5b808211156112ac576000816000905550600101611294565b5090565b60006112c36112be84611b56565b611b31565b9050828152602081018484840111156112db57600080fd5b6112e6848285611cb8565b509392505050565b6000813590506112fd81611e73565b92915050565b600082601f83011261131457600080fd5b81356113248482602086016112b0565b91505092915050565b600060e0828403121561133f57600080fd5b61134960e0611b31565b9050600061135984828501611539565b600083015250602082013567ffffffffffffffff81111561137957600080fd5b61138584828501611303565b602083015250604082013567ffffffffffffffff8111156113a557600080fd5b6113b184828501611303565b604083015250606082013567ffffffffffffffff8111156113d157600080fd5b6113dd84828501611303565b606083015250608082013567ffffffffffffffff8111156113fd57600080fd5b61140984828501611303565b60808301525060a061141d848285016112ee565b60a08301525060c061143184828501611539565b60c08301525092915050565b600060c0828403121561144f57600080fd5b61145960c0611b31565b9050600061146984828501611539565b600083015250602082013567ffffffffffffffff81111561148957600080fd5b61149584828501611303565b602083015250604082013567ffffffffffffffff8111156114b557600080fd5b6114c184828501611303565b604083015250606082013567ffffffffffffffff8111156114e157600080fd5b6114ed84828501611303565b606083015250608082013567ffffffffffffffff81111561150d57600080fd5b61151984828501611303565b60808301525060a061152d848285016112ee565b60a08301525092915050565b60008135905061154881611e8a565b92915050565b60006020828403121561156057600080fd5b600061156e848285016112ee565b91505092915050565b60006020828403121561158957600080fd5b600082013567ffffffffffffffff8111156115a357600080fd5b6115af8482850161143d565b91505092915050565b6000602082840312156115ca57600080fd5b60006115d884828501611539565b91505092915050565b600080604083850312156115f457600080fd5b600061160285828601611539565b925050602083013567ffffffffffffffff81111561161f57600080fd5b61162b8582860161132d565b9150509250929050565b6000611641838361181d565b905092915050565b600061165583836118ce565b905092915050565b61166681611c7c565b82525050565b61167581611c7c565b82525050565b600061168682611ba7565b6116908185611be2565b9350836020820285016116a285611b87565b8060005b858110156116de57848403895281516116bf8582611635565b94506116ca83611bc8565b925060208a019950506001810190506116a6565b50829750879550505050505092915050565b60006116fb82611bb2565b6117058185611bf3565b93508360208202850161171785611b97565b8060005b8581101561175357848403895281516117348582611649565b945061173f83611bd5565b925060208a0199505060018101905061171b565b50829750879550505050505092915050565b600061177082611bbd565b61177a8185611c04565b935061178a818560208601611cc7565b61179381611dea565b840191505092915050565b60006117a982611bbd565b6117b38185611c15565b93506117c3818560208601611cc7565b6117cc81611dea565b840191505092915050565b60006117e4602683611c15565b91506117ef82611dfb565b604082019050919050565b6000611807602083611c15565b915061181282611e4a565b602082019050919050565b600060e083016000830151611835600086018261196c565b506020830151848203602086015261184d8282611765565b915050604083015184820360408601526118678282611765565b915050606083015184820360608601526118818282611765565b9150506080830151848203608086015261189b8282611765565b91505060a08301516118b060a086018261165d565b5060c08301516118c360c086018261196c565b508091505092915050565b600060c0830160008301516118e6600086018261196c565b50602083015184820360208601526118fe8282611765565b915050604083015184820360408601526119188282611765565b915050606083015184820360608601526119328282611765565b9150506080830151848203608086015261194c8282611765565b91505060a083015161196160a086018261165d565b508091505092915050565b61197581611cae565b82525050565b61198481611cae565b82525050565b600060208201905061199f600083018461166c565b92915050565b600060208201905081810360008301526119bf818461167b565b905092915050565b600060208201905081810360008301526119e181846116f0565b905092915050565b60006020820190508181036000830152611a02816117d7565b9050919050565b60006020820190508181036000830152611a22816117fa565b9050919050565b600060c082019050611a3e600083018961197b565b8181036020830152611a50818861179e565b90508181036040830152611a64818761179e565b90508181036060830152611a78818661179e565b90508181036080830152611a8c818561179e565b9050611a9b60a083018461166c565b979650505050505050565b600060e082019050611abb600083018a61197b565b8181036020830152611acd818961179e565b90508181036040830152611ae1818861179e565b90508181036060830152611af5818761179e565b90508181036080830152611b09818661179e565b9050611b1860a083018561166c565b611b2560c083018461197b565b98975050505050505050565b6000611b3b611b4c565b9050611b478282611d2c565b919050565b6000604051905090565b600067ffffffffffffffff821115611b7157611b70611dbb565b5b611b7a82611dea565b9050602081019050919050565b6000819050602082019050919050565b6000819050602082019050919050565b600081519050919050565b600081519050919050565b600081519050919050565b6000602082019050919050565b6000602082019050919050565b600082825260208201905092915050565b600082825260208201905092915050565b600082825260208201905092915050565b600082825260208201905092915050565b6000611c3182611cae565b9150611c3c83611cae565b9250827fffffffffffffffffffffffffffffffffffffffffffffffffffffffffffffffff03821115611c7157611c70611d5d565b5b828201905092915050565b6000611c8782611c8e565b9050919050565b600073ffffffffffffffffffffffffffffffffffffffff82169050919050565b6000819050919050565b82818337600083830152505050565b60005b83811015611ce5578082015181840152602081019050611cca565b83811115611cf4576000848401525b50505050565b60006002820490506001821680611d1257607f821691505b60208210811415611d2657611d25611d8c565b5b50919050565b611d3582611dea565b810181811067ffffffffffffffff82111715611d5457611d53611dbb565b5b80604052505050565b7f4e487b7100000000000000000000000000000000000000000000000000000000600052601160045260246000fd5b7f4e487b7100000000000000000000000000000000000000000000000000000000600052602260045260246000fd5b7f4e487b7100000000000000000000000000000000000000000000000000000000600052604160045260246000fd5b6000601f19601f8301169050919050565b7f4f776e61626c653a206e6577206f776e657220697320746865207a65726f206160008201527f6464726573730000000000000000000000000000000000000000000000000000602082015250565b7f4f776e61626c653a2063616c6c6572206973206e6f7420746865206f776e6572600082015250565b611e7c81611c7c565b8114611e8757600080fd5b50565b611e9381611cae565b8114611e9e57600080fd5b5056fea26469706673582212205dab801db915a8a9a522a6cf042ba3e0b10d12c6f2558d0ef9784d7f2a838f1f64736f6c63430008040033",
    "linkReferences": {},
    "deployedLinkReferences": {}
}