{
  "_format": "hh-sol-artifact-1",
  "contractName": "Community",
  "sourceName": "contracts/Community.sol",
  "abi": [
    {
      "inputs": [
        {
          "internalType": "address",
          "name": "target",
          "type": "address"
        }
      ],
      "name": "AddressEmptyCode",
      "type": "error"
    },
    {
      "inputs": [
        {
          "internalType": "address",
          "name": "implementation",
          "type": "address"
        }
      ],
      "name": "ERC1967InvalidImplementation",
      "type": "error"
    },
    {
      "inputs": [],
      "name": "ERC1967NonPayable",
      "type": "error"
    },
    {
      "inputs": [],
      "name": "FailedInnerCall",
      "type": "error"
    },
    {
      "inputs": [],
      "name": "InvalidInitialization",
      "type": "error"
    },
    {
      "inputs": [],
      "name": "NotInitializing",
      "type": "error"
    },
    {
      "inputs": [
        {
          "internalType": "address",
          "name": "owner",
          "type": "address"
        }
      ],
      "name": "OwnableInvalidOwner",
      "type": "error"
    },
    {
      "inputs": [
        {
          "internalType": "address",
          "name": "account",
          "type": "address"
        }
      ],
      "name": "OwnableUnauthorizedAccount",
      "type": "error"
    },
    {
      "inputs": [],
      "name": "UUPSUnauthorizedCallContext",
      "type": "error"
    },
    {
      "inputs": [
        {
          "internalType": "bytes32",
          "name": "slot",
          "type": "bytes32"
        }
      ],
      "name": "UUPSUnsupportedProxiableUUID",
      "type": "error"
    },
    {
      "anonymous": false,
      "inputs": [
        {
          "indexed": false,
          "internalType": "uint64",
          "name": "version",
          "type": "uint64"
        }
      ],
      "name": "Initialized",
      "type": "event"
    },
    {
      "anonymous": false,
      "inputs": [
        {
          "indexed": true,
          "internalType": "address",
          "name": "previousOwner",
          "type": "address"
        },
        {
          "indexed": true,
          "internalType": "address",
          "name": "newOwner",
          "type": "address"
        }
      ],
      "name": "OwnershipTransferred",
      "type": "event"
    },
    {
      "anonymous": false,
      "inputs": [
        {
          "indexed": true,
          "internalType": "address",
          "name": "implementation",
          "type": "address"
        }
      ],
      "name": "Upgraded",
      "type": "event"
    },
    {
      "inputs": [],
      "name": "UPGRADE_INTERFACE_VERSION",
      "outputs": [
        {
          "internalType": "string",
          "name": "",
          "type": "string"
        }
      ],
      "stateMutability": "view",
      "type": "function"
    },
    {
      "inputs": [
        {
          "internalType": "string",
          "name": "_name",
          "type": "string"
        },
        {
          "internalType": "string",
          "name": "_symbol",
          "type": "string"
        },
        {
          "internalType": "string",
          "name": "_baseTokenURI",
          "type": "string"
        },
        {
          "internalType": "uint256",
          "name": "_price",
          "type": "uint256"
        }
      ],
      "name": "createNFT",
      "outputs": [],
      "stateMutability": "nonpayable",
      "type": "function"
    },
    {
      "inputs": [
        {
          "internalType": "string",
          "name": "_name",
          "type": "string"
        },
        {
          "internalType": "string",
          "name": "_symbol",
          "type": "string"
        }
      ],
      "name": "createPointToken",
      "outputs": [],
      "stateMutability": "nonpayable",
      "type": "function"
    },
    {
      "inputs": [
        {
          "internalType": "address",
          "name": "communityStoreAddress",
          "type": "address"
        },
        {
          "internalType": "bytes",
          "name": "_data",
          "type": "bytes"
        }
      ],
      "name": "createStore",
      "outputs": [],
      "stateMutability": "nonpayable",
      "type": "function"
    },
    {
      "inputs": [
        {
          "internalType": "address",
          "name": "account",
          "type": "address"
        }
      ],
      "name": "getCommunityInfo",
      "outputs": [
        {
          "components": [
            {
              "components": [
                {
                  "internalType": "string",
                  "name": "name",
                  "type": "string"
                },
                {
                  "internalType": "string",
                  "name": "description",
                  "type": "string"
                },
                {
                  "internalType": "string",
                  "name": "logo",
                  "type": "string"
                }
              ],
              "internalType": "struct Community.CommunitySettig",
              "name": "setting",
              "type": "tuple"
            },
            {
              "internalType": "address[]",
              "name": "userList",
              "type": "address[]"
            },
            {
              "internalType": "address[]",
              "name": "nftList",
              "type": "address[]"
            },
            {
              "internalType": "address[]",
              "name": "storeList",
              "type": "address[]"
            },
            {
              "internalType": "address",
              "name": "pointToken",
              "type": "address"
            },
            {
              "internalType": "string",
              "name": "pointTokenSymbol",
              "type": "string"
            },
            {
              "internalType": "uint256",
              "name": "pointTokenDecimals",
              "type": "uint256"
            },
            {
              "internalType": "uint256",
              "name": "pointTokenBalance",
              "type": "uint256"
            },
            {
              "internalType": "bool",
              "name": "isAdmin",
              "type": "bool"
            }
          ],
          "internalType": "struct Community.CommunityInfo",
          "name": "",
          "type": "tuple"
        }
      ],
      "stateMutability": "view",
      "type": "function"
    },
    {
      "inputs": [],
      "name": "getImplementationAddress",
      "outputs": [
        {
          "internalType": "address",
          "name": "",
          "type": "address"
        }
      ],
      "stateMutability": "view",
      "type": "function"
    },
    {
      "inputs": [],
      "name": "getNFTList",
      "outputs": [
        {
          "internalType": "address[]",
          "name": "",
          "type": "address[]"
        }
      ],
      "stateMutability": "view",
      "type": "function"
    },
    {
      "inputs": [],
      "name": "getStoreList",
      "outputs": [
        {
          "internalType": "address[]",
          "name": "",
          "type": "address[]"
        }
      ],
      "stateMutability": "view",
      "type": "function"
    },
    {
      "inputs": [],
      "name": "getUserList",
      "outputs": [
        {
          "internalType": "address[]",
          "name": "",
          "type": "address[]"
        }
      ],
      "stateMutability": "view",
      "type": "function"
    },
    {
      "inputs": [
        {
          "internalType": "address",
          "name": "initialOwner",
          "type": "address"
        },
        {
          "components": [
            {
              "internalType": "string",
              "name": "name",
              "type": "string"
            },
            {
              "internalType": "string",
              "name": "description",
              "type": "string"
            },
            {
              "internalType": "string",
              "name": "logo",
              "type": "string"
            }
          ],
          "internalType": "struct Community.CommunitySettig",
          "name": "_setting",
          "type": "tuple"
        }
      ],
      "name": "initialize",
      "outputs": [],
      "stateMutability": "nonpayable",
      "type": "function"
    },
    {
      "inputs": [],
      "name": "join",
      "outputs": [],
      "stateMutability": "nonpayable",
      "type": "function"
    },
    {
      "inputs": [
        {
          "internalType": "uint256",
          "name": "",
          "type": "uint256"
        }
      ],
      "name": "nftList",
      "outputs": [
        {
          "internalType": "address",
          "name": "",
          "type": "address"
        }
      ],
      "stateMutability": "view",
      "type": "function"
    },
    {
      "inputs": [],
      "name": "owner",
      "outputs": [
        {
          "internalType": "address",
          "name": "",
          "type": "address"
        }
      ],
      "stateMutability": "view",
      "type": "function"
    },
    {
      "inputs": [],
      "name": "pointToken",
      "outputs": [
        {
          "internalType": "address",
          "name": "",
          "type": "address"
        }
      ],
      "stateMutability": "view",
      "type": "function"
    },
    {
      "inputs": [],
      "name": "proxiableUUID",
      "outputs": [
        {
          "internalType": "bytes32",
          "name": "",
          "type": "bytes32"
        }
      ],
      "stateMutability": "view",
      "type": "function"
    },
    {
      "inputs": [],
      "name": "quit",
      "outputs": [],
      "stateMutability": "nonpayable",
      "type": "function"
    },
    {
      "inputs": [],
      "name": "renounceOwnership",
      "outputs": [],
      "stateMutability": "nonpayable",
      "type": "function"
    },
    {
      "inputs": [
        {
          "internalType": "address",
          "name": "account",
          "type": "address"
        },
        {
          "internalType": "uint256",
          "name": "amount",
          "type": "uint256"
        }
      ],
      "name": "sendPointToken",
      "outputs": [],
      "stateMutability": "nonpayable",
      "type": "function"
    },
    {
      "inputs": [
        {
          "internalType": "string",
          "name": "_description",
          "type": "string"
        }
      ],
      "name": "setDescription",
      "outputs": [],
      "stateMutability": "nonpayable",
      "type": "function"
    },
    {
      "inputs": [
        {
          "internalType": "string",
          "name": "_logo",
          "type": "string"
        }
      ],
      "name": "setLogo",
      "outputs": [],
      "stateMutability": "nonpayable",
      "type": "function"
    },
    {
      "inputs": [
        {
          "internalType": "string",
          "name": "_name",
          "type": "string"
        }
      ],
      "name": "setName",
      "outputs": [],
      "stateMutability": "nonpayable",
      "type": "function"
    },
    {
      "inputs": [
        {
          "internalType": "address",
          "name": "_pointToken",
          "type": "address"
        }
      ],
      "name": "setPointToken",
      "outputs": [],
      "stateMutability": "nonpayable",
      "type": "function"
    },
    {
      "inputs": [
        {
          "components": [
            {
              "internalType": "string",
              "name": "name",
              "type": "string"
            },
            {
              "internalType": "string",
              "name": "description",
              "type": "string"
            },
            {
              "internalType": "string",
              "name": "logo",
              "type": "string"
            }
          ],
          "internalType": "struct Community.CommunitySettig",
          "name": "_setting",
          "type": "tuple"
        }
      ],
      "name": "setSetting",
      "outputs": [],
      "stateMutability": "nonpayable",
      "type": "function"
    },
    {
      "inputs": [],
      "name": "setting",
      "outputs": [
        {
          "internalType": "string",
          "name": "name",
          "type": "string"
        },
        {
          "internalType": "string",
          "name": "description",
          "type": "string"
        },
        {
          "internalType": "string",
          "name": "logo",
          "type": "string"
        }
      ],
      "stateMutability": "view",
      "type": "function"
    },
    {
      "inputs": [
        {
          "internalType": "uint256",
          "name": "",
          "type": "uint256"
        }
      ],
      "name": "storeList",
      "outputs": [
        {
          "internalType": "address",
          "name": "",
          "type": "address"
        }
      ],
      "stateMutability": "view",
      "type": "function"
    },
    {
      "inputs": [
        {
          "internalType": "address",
          "name": "newOwner",
          "type": "address"
        }
      ],
      "name": "transferOwnership",
      "outputs": [],
      "stateMutability": "nonpayable",
      "type": "function"
    },
    {
      "inputs": [
        {
          "internalType": "address",
          "name": "newImplementation",
          "type": "address"
        }
      ],
      "name": "upgrade",
      "outputs": [],
      "stateMutability": "nonpayable",
      "type": "function"
    },
    {
      "inputs": [
        {
          "internalType": "address",
          "name": "newImplementation",
          "type": "address"
        },
        {
          "internalType": "bytes",
          "name": "data",
          "type": "bytes"
        }
      ],
      "name": "upgradeToAndCall",
      "outputs": [],
      "stateMutability": "payable",
      "type": "function"
    },
    {
      "inputs": [
        {
          "internalType": "uint256",
          "name": "",
          "type": "uint256"
        }
      ],
      "name": "userList",
      "outputs": [
        {
          "internalType": "address",
          "name": "",
          "type": "address"
        }
      ],
      "stateMutability": "view",
      "type": "function"
    },
    {
      "inputs": [
        {
          "internalType": "address",
          "name": "",
          "type": "address"
        }
      ],
      "name": "userMap",
      "outputs": [
        {
          "internalType": "uint256",
          "name": "",
          "type": "uint256"
        }
      ],
      "stateMutability": "view",
      "type": "function"
    }
  ],
  "bytecode": "0x60a06040523060805234801561001457600080fd5b50608051614e9761003e600039600081816115020152818161152c01526116810152614e976000f3fe608060405260043610620001f35760003560e01c806396761609116200010b578063c0c9ce3011620000a1578063e380ec5d116200006c578063e380ec5d1462000606578063ef6266df146200062b578063f2fde38b1462000650578063fc2b8cc3146200067557600080fd5b8063c0c9ce30146200056e578063c47f00271462000597578063ca1e217f14620005bc578063d0f2e2b714620005e157600080fd5b8063ad3cb1cc11620000e2578063ad3cb1cc1462000498578063b55dd26514620004da578063b688a36314620004f2578063b8522043146200055657600080fd5b80639676160914620004295780639f4216e8146200044e578063a4b952ab146200047357600080fd5b80634f1ef286116200018d57806375bea166116200015857806375bea16614620003935780637811db9a14620003b85780638da5cb5b14620003ec57806390c3f38f146200040457600080fd5b80634f1ef286146200032757806352d1902d146200033e57806364625dbe1462000356578063715018a6146200037b57600080fd5b80632bcc23f811620001ce5780632bcc23f814620002765780632fe3196214620002b6578063445a211214620002db57806347ccb670146200030257600080fd5b80630900f01014620001f85780630cbcae70146200021f5780632251d3f01462000254575b600080fd5b3480156200020557600080fd5b506200021d6200021736600462001a37565b62000699565b005b3480156200022c57600080fd5b5062000237620006c1565b6040516001600160a01b0390911681526020015b60405180910390f35b3480156200026157600080fd5b5060075462000237906001600160a01b031681565b3480156200028357600080fd5b50620002a76200029536600462001a37565b60036020526000908152604090205481565b6040519081526020016200024b565b348015620002c357600080fd5b506200021d620002d536600462001b2e565b620006e9565b348015620002e857600080fd5b50620002f362000705565b6040516200024b919062001b6e565b3480156200030f57600080fd5b506200021d6200032136600462001c78565b62000769565b6200021d6200033836600462001ccb565b620008d1565b3480156200034b57600080fd5b50620002a7620008f2565b3480156200036357600080fd5b506200021d6200037536600462001a37565b62000912565b3480156200038857600080fd5b506200021d6200093e565b348015620003a057600080fd5b5062000237620003b236600462001d29565b62000956565b348015620003c557600080fd5b50620003dd620003d736600462001a37565b62000981565b6040516200024b919062001e2c565b348015620003f957600080fd5b506200023762000ec5565b3480156200041157600080fd5b506200021d6200042336600462001b2e565b62000ef3565b3480156200043657600080fd5b506200021d6200044836600462001f21565b62000f0b565b3480156200045b57600080fd5b50620002376200046d36600462001d29565b62000f79565b3480156200048057600080fd5b506200021d6200049236600462001ccb565b62000f8a565b348015620004a557600080fd5b50620004cb604051806040016040528060058152602001640352e302e360dc1b81525081565b6040516200024b919062001f81565b348015620004e757600080fd5b50620002f362001026565b348015620004ff57600080fd5b506200021d6004805460018181019092557f8a35acfbc15ff81a39ae7d344fd709f28e8600b4aa8c65c6b64bfe7fe36bd19b0180546001600160a01b03191633908117909155600090815260036020526040902055565b3480156200056357600080fd5b50620002f362001088565b3480156200057b57600080fd5b5062000586620010ea565b6040516200024b9392919062001f96565b348015620005a457600080fd5b506200021d620005b636600462001b2e565b620012b0565b348015620005c957600080fd5b506200021d620005db36600462001fdf565b620012c8565b348015620005ee57600080fd5b50620002376200060036600462001d29565b62001383565b3480156200061357600080fd5b506200021d6200062536600462002078565b62001394565b3480156200063857600080fd5b506200021d6200064a366004620020a5565b6200140a565b3480156200065d57600080fd5b506200021d6200066f36600462001a37565b6200145d565b3480156200068257600080fd5b506200021d33600090815260036020526040812055565b620006a3620014a2565b620006be8160405180602001604052806000815250620008d1565b50565b6000620006e460008051602062004e42833981519152546001600160a01b031690565b905090565b620006f3620014a2565b600262000701828262002165565b5050565b606060058054806020026020016040519081016040528092919081815260200182805480156200075f57602002820191906000526020600020905b81546001600160a01b0316815260019091019060200180831162000740575b5050505050905090565b7ff0c57e16840df040f15088dc2f81fe391c3923bec73e23a9662efc9c229c6a008054600160401b810460ff1615906001600160401b0316600081158015620007af5750825b90506000826001600160401b03166001148015620007cc5750303b155b905081158015620007db575080155b15620007fa5760405163f92ee8a960e01b815260040160405180910390fd5b845467ffffffffffffffff1916600117855583156200082557845460ff60401b1916600160401b1785555b6200083087620014d8565b6200083a620014ed565b8551869060009081906200084f908262002165565b506020820151600182019062000866908262002165565b50604082015160028201906200087d908262002165565b509050508315620008c857845460ff60401b19168555604051600181527fc7f505b2f371ae2175ee4913f4499e1f2633a7b5936321eed1cdaeb6115181d29060200160405180910390a15b50505050505050565b620008db620014f7565b620008e682620015a0565b620007018282620015aa565b6000620008fe62001676565b5060008051602062004e4283398151915290565b6200091c620014a2565b600780546001600160a01b0319166001600160a01b0392909216919091179055565b62000948620014a2565b620009546000620016c0565b565b600581815481106200096757600080fd5b6000918252602090912001546001600160a01b0316905081565b6200098b62001976565b6007546000906001600160a01b0316620009b5576040518060200160405280600081525062000a33565b600760009054906101000a90046001600160a01b03166001600160a01b03166395d89b416040518163ffffffff1660e01b8152600401600060405180830381865afa15801562000a09573d6000803e3d6000fd5b505050506040513d6000823e601f3d908101601f1916820160405262000a33919081019062002231565b6007549091506000906001600160a01b031662000a5257601262000acc565b600760009054906101000a90046001600160a01b03166001600160a01b031663313ce5676040518163ffffffff1660e01b8152600401602060405180830381865afa15801562000aa6573d6000803e3d6000fd5b505050506040513d601f19601f8201168201806040525081019062000acc9190620022a7565b60075460ff9190911691506000906001600160a01b031662000af057600062000b61565b6007546040516370a0823160e01b81526001600160a01b038781166004830152909116906370a0823190602401602060405180830381865afa15801562000b3b573d6000803e3d6000fd5b505050506040513d601f19601f8201168201806040525081019062000b619190620022cc565b90506000604051806101200160405280600060405180606001604052908160008201805462000b9090620020dd565b80601f016020809104026020016040519081016040528092919081815260200182805462000bbe90620020dd565b801562000c0f5780601f1062000be35761010080835404028352916020019162000c0f565b820191906000526020600020905b81548152906001019060200180831162000bf157829003601f168201915b5050505050815260200160018201805462000c2a90620020dd565b80601f016020809104026020016040519081016040528092919081815260200182805462000c5890620020dd565b801562000ca95780601f1062000c7d5761010080835404028352916020019162000ca9565b820191906000526020600020905b81548152906001019060200180831162000c8b57829003601f168201915b5050505050815260200160028201805462000cc490620020dd565b80601f016020809104026020016040519081016040528092919081815260200182805462000cf290620020dd565b801562000d435780601f1062000d175761010080835404028352916020019162000d43565b820191906000526020600020905b81548152906001019060200180831162000d2557829003601f168201915b5050505050815250508152602001600480548060200260200160405190810160405280929190818152602001828054801562000da957602002820191906000526020600020905b81546001600160a01b0316815260019091019060200180831162000d8a575b50505050508152602001600580548060200260200160405190810160405280929190818152602001828054801562000e0b57602002820191906000526020600020905b81546001600160a01b0316815260019091019060200180831162000dec575b50505050508152602001600680548060200260200160405190810160405280929190818152602001828054801562000e6d57602002820191906000526020600020905b81546001600160a01b0316815260019091019060200180831162000e4e575b50505091835250506007546001600160a01b03908116602083015260408201879052606082018690526080820185905260a090910190881662000eaf62000ec5565b6001600160a01b03161490529695505050505050565b7f9016d09d72d40fdae2fd8ceac6b6234c7706214fd39c1cd1e609a0528c199300546001600160a01b031690565b62000efd620014a2565b600162000701828262002165565b62000f15620014a2565b600030838360405162000f2890620019f0565b62000f3693929190620022e6565b604051809103906000f08015801562000f53573d6000803e3d6000fd5b50600780546001600160a01b0319166001600160a01b0392909216919091179055505050565b600481815481106200096757600080fd5b62000f94620014a2565b6000828260405162000fa690620019fe565b62000fb392919062002320565b604051809103906000f08015801562000fd0573d6000803e3d6000fd5b50600680546001810182556000919091527ff652222313e28459528d920b65115c16c04f3efc82aaedc97be59f3f377c0d3f0180546001600160a01b0319166001600160a01b0392909216919091179055505050565b606060068054806020026020016040519081016040528092919081815260200182805480156200075f576020028201919060005260206000209081546001600160a01b0316815260019091019060200180831162000740575050505050905090565b606060048054806020026020016040519081016040528092919081815260200182805480156200075f576020028201919060005260206000209081546001600160a01b0316815260019091019060200180831162000740575050505050905090565b600080548190620010fb90620020dd565b80601f01602080910402602001604051908101604052809291908181526020018280546200112990620020dd565b80156200117a5780601f106200114e576101008083540402835291602001916200117a565b820191906000526020600020905b8154815290600101906020018083116200115c57829003601f168201915b5050505050908060010180546200119190620020dd565b80601f0160208091040260200160405190810160405280929190818152602001828054620011bf90620020dd565b8015620012105780601f10620011e45761010080835404028352916020019162001210565b820191906000526020600020905b815481529060010190602001808311620011f257829003601f168201915b5050505050908060020180546200122790620020dd565b80601f01602080910402602001604051908101604052809291908181526020018280546200125590620020dd565b8015620012a65780601f106200127a57610100808354040283529160200191620012a6565b820191906000526020600020905b8154815290600101906020018083116200128857829003601f168201915b5050505050905083565b620012ba620014a2565b600062000701828262002165565b620012d2620014a2565b600033858585600760009054906101000a90046001600160a01b031686604051620012fd9062001a0c565b6200130e9695949392919062002346565b604051809103906000f0801580156200132b573d6000803e3d6000fd5b50600580546001810182556000919091527f036b6384b5eca791c62761152d0c79bb0604c104a5fb6f4eb0703f3154bb3db00180546001600160a01b0319166001600160a01b03929092169190911790555050505050565b600681815481106200096757600080fd5b6200139e620014a2565b6007546040516340c10f1960e01b81526001600160a01b03848116600483015260248201849052909116906340c10f1990604401600060405180830381600087803b158015620013ed57600080fd5b505af115801562001402573d6000803e3d6000fd5b505050505050565b62001414620014a2565b80518190600090819062001429908262002165565b506020820151600182019062001440908262002165565b506040820151600282019062001457908262002165565b50505050565b62001467620014a2565b6001600160a01b0381166200149757604051631e4fbdf760e01b8152600060048201526024015b60405180910390fd5b620006be81620016c0565b33620014ad62000ec5565b6001600160a01b031614620009545760405163118cdaa760e01b81523360048201526024016200148e565b620014e262001731565b620006be816200177b565b6200095462001731565b306001600160a01b037f00000000000000000000000000000000000000000000000000000000000000001614806200158157507f00000000000000000000000000000000000000000000000000000000000000006001600160a01b03166200157560008051602062004e42833981519152546001600160a01b031690565b6001600160a01b031614155b15620009545760405163703e46dd60e11b815260040160405180910390fd5b620006be620014a2565b816001600160a01b03166352d1902d6040518163ffffffff1660e01b8152600401602060405180830381865afa92505050801562001607575060408051601f3d908101601f191682019092526200160491810190620022cc565b60015b6200163157604051634c9c8ce360e01b81526001600160a01b03831660048201526024016200148e565b60008051602062004e4283398151915281146200166557604051632a87526960e21b8152600481018290526024016200148e565b62001671838362001785565b505050565b306001600160a01b037f00000000000000000000000000000000000000000000000000000000000000001614620009545760405163703e46dd60e11b815260040160405180910390fd5b7f9016d09d72d40fdae2fd8ceac6b6234c7706214fd39c1cd1e609a0528c19930080546001600160a01b031981166001600160a01b03848116918217845560405192169182907f8be0079c531659141344cd1fd0a4f28419497f9722a3daafe3b4186f6b6457e090600090a3505050565b7ff0c57e16840df040f15088dc2f81fe391c3923bec73e23a9662efc9c229c6a0054600160401b900460ff166200095457604051631afcd79f60e31b815260040160405180910390fd5b6200146762001731565b6200179082620017e2565b6040516001600160a01b038316907fbc7cd75a20ee27fd9adebab32041f755214dbc6bffa90cc0225b39da2e5c2d3b90600090a2805115620017d8576200167182826200184a565b62000701620018c6565b806001600160a01b03163b6000036200181a57604051634c9c8ce360e01b81526001600160a01b03821660048201526024016200148e565b60008051602062004e4283398151915280546001600160a01b0319166001600160a01b0392909216919091179055565b6060600080846001600160a01b031684604051620018699190620023ab565b600060405180830381855af49150503d8060008114620018a6576040519150601f19603f3d011682016040523d82523d6000602084013e620018ab565b606091505b5091509150620018bd858383620018e6565b95945050505050565b3415620009545760405163b398979f60e01b815260040160405180910390fd5b606082620018ff57620018f9826200194c565b62001945565b81511580156200191757506001600160a01b0384163b155b156200194257604051639996b31560e01b81526001600160a01b03851660048201526024016200148e565b50805b9392505050565b8051156200195d5780518082602001fd5b604051630a12f52160e11b815260040160405180910390fd5b604051806101200160405280620019a760405180606001604052806060815260200160608152602001606081525090565b815260200160608152602001606081526020016060815260200160006001600160a01b031681526020016060815260200160008152602001600081526020016000151581525090565b610ce780620023ca83390190565b61040a80620030b183390190565b61198780620034bb83390190565b80356001600160a01b038116811462001a3257600080fd5b919050565b60006020828403121562001a4a57600080fd5b620019458262001a1a565b634e487b7160e01b600052604160045260246000fd5b604051601f8201601f191681016001600160401b038111828210171562001a965762001a9662001a55565b604052919050565b60006001600160401b0382111562001aba5762001aba62001a55565b50601f01601f191660200190565b600062001adf62001ad98462001a9e565b62001a6b565b905082815283838301111562001af457600080fd5b828260208301376000602084830101529392505050565b600082601f83011262001b1d57600080fd5b620019458383356020850162001ac8565b60006020828403121562001b4157600080fd5b81356001600160401b0381111562001b5857600080fd5b62001b668482850162001b0b565b949350505050565b6020808252825182820181905260009190848201906040850190845b8181101562001bb15783516001600160a01b03168352928401929184019160010162001b8a565b50909695505050505050565b60006060828403121562001bd057600080fd5b604051606081016001600160401b03828210818311171562001bf65762001bf662001a55565b81604052829350843591508082111562001c0f57600080fd5b62001c1d8683870162001b0b565b8352602085013591508082111562001c3457600080fd5b62001c428683870162001b0b565b6020840152604085013591508082111562001c5c57600080fd5b5062001c6b8582860162001b0b565b6040830152505092915050565b6000806040838503121562001c8c57600080fd5b62001c978362001a1a565b915060208301356001600160401b0381111562001cb357600080fd5b62001cc18582860162001bbd565b9150509250929050565b6000806040838503121562001cdf57600080fd5b62001cea8362001a1a565b915060208301356001600160401b0381111562001d0657600080fd5b8301601f8101851362001d1857600080fd5b62001cc18582356020840162001ac8565b60006020828403121562001d3c57600080fd5b5035919050565b60005b8381101562001d6057818101518382015260200162001d46565b50506000910152565b6000815180845262001d8381602086016020860162001d43565b601f01601f19169290920160200192915050565b600081516060845262001dae606085018262001d69565b90506020830151848203602086015262001dc9828262001d69565b91505060408301518482036040860152620018bd828262001d69565b60008151808452602080850194506020840160005b8381101562001e215781516001600160a01b03168752958201959082019060010162001dfa565b509495945050505050565b602081526000825161012080602085015262001e4d61014085018362001d97565b91506020850151601f198086850301604087015262001e6d848362001de5565b9350604087015191508086850301606087015262001e8c848362001de5565b9350606087015191508086850301608087015262001eab848362001de5565b93506080870151915062001eca60a08701836001600160a01b03169052565b60a08701519150808685030160c08701525062001ee8838262001d69565b92505060c085015160e085015260e085015161010081818701528087015191505062001f178286018215159052565b5090949350505050565b6000806040838503121562001f3557600080fd5b82356001600160401b038082111562001f4d57600080fd5b62001f5b8683870162001b0b565b9350602085013591508082111562001f7257600080fd5b5062001cc18582860162001b0b565b60208152600062001945602083018462001d69565b60608152600062001fab606083018662001d69565b828103602084015262001fbf818662001d69565b9050828103604084015262001fd5818562001d69565b9695505050505050565b6000806000806080858703121562001ff657600080fd5b84356001600160401b03808211156200200e57600080fd5b6200201c8883890162001b0b565b955060208701359150808211156200203357600080fd5b620020418883890162001b0b565b945060408701359150808211156200205857600080fd5b50620020678782880162001b0b565b949793965093946060013593505050565b600080604083850312156200208c57600080fd5b620020978362001a1a565b946020939093013593505050565b600060208284031215620020b857600080fd5b81356001600160401b03811115620020cf57600080fd5b62001b668482850162001bbd565b600181811c90821680620020f257607f821691505b6020821081036200211357634e487b7160e01b600052602260045260246000fd5b50919050565b601f82111562001671576000816000526020600020601f850160051c81016020861015620021445750805b601f850160051c820191505b81811015620014025782815560010162002150565b81516001600160401b0381111562002181576200218162001a55565b6200219981620021928454620020dd565b8462002119565b602080601f831160018114620021d15760008415620021b85750858301515b600019600386901b1c1916600185901b17855562001402565b600085815260208120601f198616915b828110156200220257888601518255948401946001909101908401620021e1565b5085821015620022215787850151600019600388901b60f8161c191681555b5050505050600190811b01905550565b6000602082840312156200224457600080fd5b81516001600160401b038111156200225b57600080fd5b8201601f810184136200226d57600080fd5b80516200227e62001ad98262001a9e565b8181528560208385010111156200229457600080fd5b620018bd82602083016020860162001d43565b600060208284031215620022ba57600080fd5b815160ff811681146200194557600080fd5b600060208284031215620022df57600080fd5b5051919050565b6001600160a01b03841681526060602082018190526000906200230c9083018562001d69565b828103604084015262001fd5818562001d69565b6001600160a01b038316815260406020820181905260009062001b669083018462001d69565b600060018060a01b03808916835260c060208401526200236a60c084018962001d69565b83810360408501526200237e818962001d69565b9050838103606085015262002394818862001d69565b959091166080840152505060a00152949350505050565b60008251620023bf81846020870162001d43565b919091019291505056fe60806040523480156200001157600080fd5b5060405162000ce738038062000ce78339810160408190526200003491620001b5565b8282826003620000458382620002d0565b506004620000548282620002d0565b5050506001600160a01b0381166200008657604051631e4fbdf760e01b81526000600482015260240160405180910390fd5b62000091816200009b565b505050506200039c565b600580546001600160a01b038381166001600160a01b0319831681179093556040519116919082907f8be0079c531659141344cd1fd0a4f28419497f9722a3daafe3b4186f6b6457e090600090a35050565b634e487b7160e01b600052604160045260246000fd5b600082601f8301126200011557600080fd5b81516001600160401b0380821115620001325762000132620000ed565b604051601f8301601f19908116603f011681019082821181831017156200015d576200015d620000ed565b81604052838152602092508660208588010111156200017b57600080fd5b600091505b838210156200019f578582018301518183018401529082019062000180565b6000602085830101528094505050505092915050565b600080600060608486031215620001cb57600080fd5b83516001600160a01b0381168114620001e357600080fd5b60208501519093506001600160401b03808211156200020157600080fd5b6200020f8783880162000103565b935060408601519150808211156200022657600080fd5b50620002358682870162000103565b9150509250925092565b600181811c908216806200025457607f821691505b6020821081036200027557634e487b7160e01b600052602260045260246000fd5b50919050565b601f821115620002cb576000816000526020600020601f850160051c81016020861015620002a65750805b601f850160051c820191505b81811015620002c757828155600101620002b2565b5050505b505050565b81516001600160401b03811115620002ec57620002ec620000ed565b6200030481620002fd84546200023f565b846200027b565b602080601f8311600181146200033c5760008415620003235750858301515b600019600386901b1c1916600185901b178555620002c7565b600085815260208120601f198616915b828110156200036d578886015182559484019460019091019084016200034c565b50858210156200038c5787850151600019600388901b60f8161c191681555b5050505050600190811b01905550565b61093b80620003ac6000396000f3fe608060405234801561001057600080fd5b50600436106100ea5760003560e01c8063715018a61161008c5780639dc29fac116100665780639dc29fac146101cd578063a9059cbb146101e0578063dd62ed3e146101f3578063f2fde38b1461022c57600080fd5b8063715018a6146101a25780638da5cb5b146101aa57806395d89b41146101c557600080fd5b806323b872dd116100c857806323b872dd14610142578063313ce5671461015557806340c10f191461016457806370a082311461017957600080fd5b806306fdde03146100ef578063095ea7b31461010d57806318160ddd14610130575b600080fd5b6100f761023f565b6040516101049190610784565b60405180910390f35b61012061011b3660046107ef565b6102d1565b6040519015158152602001610104565b6002545b604051908152602001610104565b610120610150366004610819565b6102eb565b60405160128152602001610104565b6101776101723660046107ef565b61030f565b005b610134610187366004610855565b6001600160a01b031660009081526020819052604090205490565b610177610325565b6005546040516001600160a01b039091168152602001610104565b6100f7610339565b6101776101db3660046107ef565b610348565b6101206101ee3660046107ef565b61035a565b610134610201366004610877565b6001600160a01b03918216600090815260016020908152604080832093909416825291909152205490565b61017761023a366004610855565b610368565b60606003805461024e906108aa565b80601f016020809104026020016040519081016040528092919081815260200182805461027a906108aa565b80156102c75780601f1061029c576101008083540402835291602001916102c7565b820191906000526020600020905b8154815290600101906020018083116102aa57829003601f168201915b5050505050905090565b6000336102df8185856103ab565b60019150505b92915050565b6000336102f98582856103bd565b61030485858561043b565b506001949350505050565b61031761049a565b61032182826104c7565b5050565b61032d61049a565b61033760006104fd565b565b60606004805461024e906108aa565b61035061049a565b610321828261054f565b6000336102df81858561043b565b61037061049a565b6001600160a01b03811661039f57604051631e4fbdf760e01b8152600060048201526024015b60405180910390fd5b6103a8816104fd565b50565b6103b88383836001610585565b505050565b6001600160a01b038381166000908152600160209081526040808320938616835292905220546000198114610435578181101561042657604051637dc7a0d960e11b81526001600160a01b03841660048201526024810182905260448101839052606401610396565b61043584848484036000610585565b50505050565b6001600160a01b03831661046557604051634b637e8f60e11b815260006004820152602401610396565b6001600160a01b03821661048f5760405163ec442f0560e01b815260006004820152602401610396565b6103b883838361065a565b6005546001600160a01b031633146103375760405163118cdaa760e01b8152336004820152602401610396565b6001600160a01b0382166104f15760405163ec442f0560e01b815260006004820152602401610396565b6103216000838361065a565b600580546001600160a01b038381166001600160a01b0319831681179093556040519116919082907f8be0079c531659141344cd1fd0a4f28419497f9722a3daafe3b4186f6b6457e090600090a35050565b6001600160a01b03821661057957604051634b637e8f60e11b815260006004820152602401610396565b6103218260008361065a565b6001600160a01b0384166105af5760405163e602df0560e01b815260006004820152602401610396565b6001600160a01b0383166105d957604051634a1406b160e11b815260006004820152602401610396565b6001600160a01b038085166000908152600160209081526040808320938716835292905220829055801561043557826001600160a01b0316846001600160a01b03167f8c5be1e5ebec7d5bd14f71427d1e84f3dd0314c0f7b2291e5b200ac8c7c3b9258460405161064c91815260200190565b60405180910390a350505050565b6001600160a01b03831661068557806002600082825461067a91906108e4565b909155506106f79050565b6001600160a01b038316600090815260208190526040902054818110156106d85760405163391434e360e21b81526001600160a01b03851660048201526024810182905260448101839052606401610396565b6001600160a01b03841660009081526020819052604090209082900390555b6001600160a01b03821661071357600280548290039055610732565b6001600160a01b03821660009081526020819052604090208054820190555b816001600160a01b0316836001600160a01b03167fddf252ad1be2c89b69c2b068fc378daa952ba7f163c4a11628f55a4df523b3ef8360405161077791815260200190565b60405180910390a3505050565b60006020808352835180602085015260005b818110156107b257858101830151858201604001528201610796565b506000604082860101526040601f19601f8301168501019250505092915050565b80356001600160a01b03811681146107ea57600080fd5b919050565b6000806040838503121561080257600080fd5b61080b836107d3565b946020939093013593505050565b60008060006060848603121561082e57600080fd5b610837846107d3565b9250610845602085016107d3565b9150604084013590509250925092565b60006020828403121561086757600080fd5b610870826107d3565b9392505050565b6000806040838503121561088a57600080fd5b610893836107d3565b91506108a1602084016107d3565b90509250929050565b600181811c908216806108be57607f821691505b6020821081036108de57634e487b7160e01b600052602260045260246000fd5b50919050565b808201808211156102e557634e487b7160e01b600052601160045260246000fdfea2646970667358221220351d0cf57be94eff44e4798069e2b5b1f34cb235824224127e60caaba928fb9b64736f6c63430008180033608060405260405161040a38038061040a83398101604081905261002291610268565b61002c8282610033565b5050610352565b61003c82610092565b6040516001600160a01b038316907fbc7cd75a20ee27fd9adebab32041f755214dbc6bffa90cc0225b39da2e5c2d3b90600090a280511561008657610081828261010e565b505050565b61008e610185565b5050565b806001600160a01b03163b6000036100cd57604051634c9c8ce360e01b81526001600160a01b03821660048201526024015b60405180910390fd5b7f360894a13ba1a3210667c828492db98dca3e2076cc3735a920a3ca505d382bbc80546001600160a01b0319166001600160a01b0392909216919091179055565b6060600080846001600160a01b03168460405161012b9190610336565b600060405180830381855af49150503d8060008114610166576040519150601f19603f3d011682016040523d82523d6000602084013e61016b565b606091505b50909250905061017c8583836101a6565b95945050505050565b34156101a45760405163b398979f60e01b815260040160405180910390fd5b565b6060826101bb576101b682610205565b6101fe565b81511580156101d257506001600160a01b0384163b155b156101fb57604051639996b31560e01b81526001600160a01b03851660048201526024016100c4565b50805b9392505050565b8051156102155780518082602001fd5b604051630a12f52160e11b815260040160405180910390fd5b634e487b7160e01b600052604160045260246000fd5b60005b8381101561025f578181015183820152602001610247565b50506000910152565b6000806040838503121561027b57600080fd5b82516001600160a01b038116811461029257600080fd5b60208401519092506001600160401b03808211156102af57600080fd5b818501915085601f8301126102c357600080fd5b8151818111156102d5576102d561022e565b604051601f8201601f19908116603f011681019083821181831017156102fd576102fd61022e565b8160405282815288602084870101111561031657600080fd5b610327836020830160208801610244565b80955050505050509250929050565b60008251610348818460208701610244565b9190910192915050565b60aa806103606000396000f3fe6080604052600a600c565b005b60186014601a565b6051565b565b6000604c7f360894a13ba1a3210667c828492db98dca3e2076cc3735a920a3ca505d382bbc546001600160a01b031690565b905090565b3660008037600080366000845af43d6000803e808015606f573d6000f35b3d6000fdfea2646970667358221220bd42728c374f7f0ddc17b53ec61cdb40d51094c5fa601cbd894add86d0771b8264736f6c6343000818003360806040523480156200001157600080fd5b506040516200198738038062001987833981016040819052620000349162000207565b858585600062000045838262000358565b50600162000054828262000358565b5050506001600160a01b0381166200008657604051631e4fbdf760e01b81526000600482015260240160405180910390fd5b6200009181620000d0565b506009620000a0848262000358565b50600a80546001600160a01b0319166001600160a01b039390931692909217909155600b55506200042492505050565b600780546001600160a01b038381166001600160a01b0319831681179093556040519116919082907f8be0079c531659141344cd1fd0a4f28419497f9722a3daafe3b4186f6b6457e090600090a35050565b80516001600160a01b03811681146200013a57600080fd5b919050565b634e487b7160e01b600052604160045260246000fd5b600082601f8301126200016757600080fd5b81516001600160401b03808211156200018457620001846200013f565b604051601f8301601f19908116603f01168101908282118183101715620001af57620001af6200013f565b8160405283815260209250866020858801011115620001cd57600080fd5b600091505b83821015620001f15785820183015181830184015290820190620001d2565b6000602085830101528094505050505092915050565b60008060008060008060c087890312156200022157600080fd5b6200022c8762000122565b60208801519096506001600160401b03808211156200024a57600080fd5b620002588a838b0162000155565b965060408901519150808211156200026f57600080fd5b6200027d8a838b0162000155565b955060608901519150808211156200029457600080fd5b50620002a389828a0162000155565b935050620002b46080880162000122565b915060a087015190509295509295509295565b600181811c90821680620002dc57607f821691505b602082108103620002fd57634e487b7160e01b600052602260045260246000fd5b50919050565b601f82111562000353576000816000526020600020601f850160051c810160208610156200032e5750805b601f850160051c820191505b818110156200034f578281556001016200033a565b5050505b505050565b81516001600160401b038111156200037457620003746200013f565b6200038c81620003858454620002c7565b8462000303565b602080601f831160018114620003c45760008415620003ab5750858301515b600019600386901b1c1916600185901b1785556200034f565b600085815260208120601f198616915b82811015620003f557888601518255948401946001909101908401620003d4565b5085821015620004145787850151600019600388901b60f8161c191681555b5050505050600190811b01905550565b61155380620004346000396000f3fe608060405234801561001057600080fd5b50600436106101425760003560e01c8063715018a6116100b8578063a22cb4651161007c578063a22cb465146102a1578063b88d4fde146102b4578063c87b56dd146102c7578063d547cfb7146102da578063e985e9c5146102e2578063f2fde38b146102f557600080fd5b8063715018a6146102645780638da5cb5b1461026c57806395d89b411461027d57806396336b3014610285578063a035b1fe1461029857600080fd5b80633de419e91161010a5780633de419e9146101d757806340c10f19146101f857806342842e0e1461020b5780636352211e1461021e57806369358db31461023157806370a082311461025157600080fd5b806301ffc9a71461014757806306fdde031461016f578063081812fc14610184578063095ea7b3146101af57806323b872dd146101c4575b600080fd5b61015a61015536600461105f565b610308565b60405190151581526020015b60405180910390f35b610177610333565b60405161016691906110d3565b6101976101923660046110e6565b6103c5565b6040516001600160a01b039091168152602001610166565b6101c26101bd36600461111b565b6103ee565b005b6101c26101d2366004611145565b6103fd565b6101ea6101e536600461111b565b61048d565b604051908152602001610166565b6101c261020636600461111b565b6104be565b6101c2610219366004611145565b610650565b61019761022c3660046110e6565b610670565b61024461023f366004611181565b61067b565b604051610166919061119c565b6101ea61025f366004611181565b6106e7565b6101c261072f565b6007546001600160a01b0316610197565b610177610743565b600a54610197906001600160a01b031681565b6101ea600b5481565b6101c26102af3660046111ee565b610752565b6101c26102c236600461123b565b61075d565b6101776102d53660046110e6565b610774565b6101776107a8565b61015a6102f0366004611317565b610836565b6101c2610303366004611181565b610864565b60006001600160e01b03198216632483248360e11b148061032d575061032d826108a2565b92915050565b6060600080546103429061134a565b80601f016020809104026020016040519081016040528092919081815260200182805461036e9061134a565b80156103bb5780601f10610390576101008083540402835291602001916103bb565b820191906000526020600020905b81548152906001019060200180831161039e57829003601f168201915b5050505050905090565b60006103d0826108f2565b506000828152600460205260409020546001600160a01b031661032d565b6103f982823361092b565b5050565b6001600160a01b03821661042c57604051633250574960e11b8152600060048201526024015b60405180910390fd5b6000610439838333610938565b9050836001600160a01b0316816001600160a01b031614610487576040516364283d7b60e01b81526001600160a01b0380861660048301526024820184905282166044820152606401610423565b50505050565b600c60205281600052604060002081815481106104a957600080fd5b90600052602060002001600091509150505481565b6000811161050e5760405162461bcd60e51b815260206004820152601f60248201527f436f756e74206d7573742062652067726561746572207468616e207a65726f006044820152606401610423565b60085460005b828110156105ab57816105278582610a31565b6001600160a01b0385166000908152600c60209081526040822080546001810182559083529120018190558261055c8161139a565b604080516001600160a01b0389168152602081018590529195507fb9144c96c86541f6fa89c9f2f02495cccf4b08cd6643e26d34ee00aa586558a892500160405180910390a150600101610514565b506008819055600a54600b546001600160a01b03909116906323b872dd90339030906105d89087906113b3565b6040516001600160e01b031960e086901b1681526001600160a01b03938416600482015292909116602483015260448201526064016020604051808303816000875af115801561062c573d6000803e3d6000fd5b505050506040513d601f19601f8201168201806040525081019061048791906113ca565b61066b8383836040518060200160405280600081525061075d565b505050565b600061032d826108f2565b6001600160a01b0381166000908152600c60209081526040918290208054835181840281018401909452808452606093928301828280156106db57602002820191906000526020600020905b8154815260200190600101908083116106c7575b50505050509050919050565b60006001600160a01b038216610713576040516322718ad960e21b815260006004820152602401610423565b506001600160a01b031660009081526003602052604090205490565b610737610a4b565b6107416000610a78565b565b6060600180546103429061134a565b6103f9338383610aca565b6107688484846103fd565b61048784848484610b69565b6060600961078183610c92565b604051602001610792929190611403565b6040516020818303038152906040529050919050565b600980546107b59061134a565b80601f01602080910402602001604051908101604052809291908181526020018280546107e19061134a565b801561082e5780601f106108035761010080835404028352916020019161082e565b820191906000526020600020905b81548152906001019060200180831161081157829003601f168201915b505050505081565b6001600160a01b03918216600090815260056020908152604080832093909416825291909152205460ff1690565b61086c610a4b565b6001600160a01b03811661089657604051631e4fbdf760e01b815260006004820152602401610423565b61089f81610a78565b50565b60006001600160e01b031982166380ac58cd60e01b14806108d357506001600160e01b03198216635b5e139f60e01b145b8061032d57506301ffc9a760e01b6001600160e01b031983161461032d565b6000818152600260205260408120546001600160a01b03168061032d57604051637e27328960e01b815260048101849052602401610423565b61066b8383836001610d25565b6000828152600260205260408120546001600160a01b039081169083161561096557610965818486610e2b565b6001600160a01b038116156109a357610982600085600080610d25565b6001600160a01b038116600090815260036020526040902080546000190190555b6001600160a01b038516156109d2576001600160a01b0385166000908152600360205260409020805460010190555b60008481526002602052604080822080546001600160a01b0319166001600160a01b0389811691821790925591518793918516917fddf252ad1be2c89b69c2b068fc378daa952ba7f163c4a11628f55a4df523b3ef91a4949350505050565b6103f9828260405180602001604052806000815250610e8f565b6007546001600160a01b031633146107415760405163118cdaa760e01b8152336004820152602401610423565b600780546001600160a01b038381166001600160a01b0319831681179093556040519116919082907f8be0079c531659141344cd1fd0a4f28419497f9722a3daafe3b4186f6b6457e090600090a35050565b6001600160a01b038216610afc57604051630b61174360e31b81526001600160a01b0383166004820152602401610423565b6001600160a01b03838116600081815260056020908152604080832094871680845294825291829020805460ff191686151590811790915591519182527f17307eab39ab6107e8899845ad3d59bd9653f200f220920489ca2b5937696c31910160405180910390a3505050565b6001600160a01b0383163b1561048757604051630a85bd0160e11b81526001600160a01b0384169063150b7a0290610bab9033908890879087906004016114c3565b6020604051808303816000875af1925050508015610be6575060408051601f3d908101601f19168201909252610be391810190611500565b60015b610c4f573d808015610c14576040519150601f19603f3d011682016040523d82523d6000602084013e610c19565b606091505b508051600003610c4757604051633250574960e11b81526001600160a01b0385166004820152602401610423565b805181602001fd5b6001600160e01b03198116630a85bd0160e11b14610c8b57604051633250574960e11b81526001600160a01b0385166004820152602401610423565b5050505050565b60606000610c9f83610ea6565b600101905060008167ffffffffffffffff811115610cbf57610cbf611225565b6040519080825280601f01601f191660200182016040528015610ce9576020820181803683370190505b5090508181016020015b600019016f181899199a1a9b1b9c1cb0b131b232b360811b600a86061a8153600a8504945084610cf357509392505050565b8080610d3957506001600160a01b03821615155b15610dfb576000610d49846108f2565b90506001600160a01b03831615801590610d755750826001600160a01b0316816001600160a01b031614155b8015610d885750610d868184610836565b155b15610db15760405163a9fbf51f60e01b81526001600160a01b0384166004820152602401610423565b8115610df95783856001600160a01b0316826001600160a01b03167f8c5be1e5ebec7d5bd14f71427d1e84f3dd0314c0f7b2291e5b200ac8c7c3b92560405160405180910390a45b505b5050600090815260046020526040902080546001600160a01b0319166001600160a01b0392909216919091179055565b610e36838383610f7e565b61066b576001600160a01b038316610e6457604051637e27328960e01b815260048101829052602401610423565b60405163177e802f60e01b81526001600160a01b038316600482015260248101829052604401610423565b610e998383610fe4565b61066b6000848484610b69565b60008072184f03e93ff9f4daa797ed6e38ed64bf6a1f0160401b8310610ee55772184f03e93ff9f4daa797ed6e38ed64bf6a1f0160401b830492506040015b6d04ee2d6d415b85acef81000000008310610f11576d04ee2d6d415b85acef8100000000830492506020015b662386f26fc100008310610f2f57662386f26fc10000830492506010015b6305f5e1008310610f47576305f5e100830492506008015b6127108310610f5b57612710830492506004015b60648310610f6d576064830492506002015b600a831061032d5760010192915050565b60006001600160a01b03831615801590610fdc5750826001600160a01b0316846001600160a01b03161480610fb85750610fb88484610836565b80610fdc57506000828152600460205260409020546001600160a01b038481169116145b949350505050565b6001600160a01b03821661100e57604051633250574960e11b815260006004820152602401610423565b600061101c83836000610938565b90506001600160a01b0381161561066b576040516339e3563760e11b815260006004820152602401610423565b6001600160e01b03198116811461089f57600080fd5b60006020828403121561107157600080fd5b813561107c81611049565b9392505050565b60005b8381101561109e578181015183820152602001611086565b50506000910152565b600081518084526110bf816020860160208601611083565b601f01601f19169290920160200192915050565b60208152600061107c60208301846110a7565b6000602082840312156110f857600080fd5b5035919050565b80356001600160a01b038116811461111657600080fd5b919050565b6000806040838503121561112e57600080fd5b611137836110ff565b946020939093013593505050565b60008060006060848603121561115a57600080fd5b611163846110ff565b9250611171602085016110ff565b9150604084013590509250925092565b60006020828403121561119357600080fd5b61107c826110ff565b6020808252825182820181905260009190848201906040850190845b818110156111d4578351835292840192918401916001016111b8565b50909695505050505050565b801515811461089f57600080fd5b6000806040838503121561120157600080fd5b61120a836110ff565b9150602083013561121a816111e0565b809150509250929050565b634e487b7160e01b600052604160045260246000fd5b6000806000806080858703121561125157600080fd5b61125a856110ff565b9350611268602086016110ff565b925060408501359150606085013567ffffffffffffffff8082111561128c57600080fd5b818701915087601f8301126112a057600080fd5b8135818111156112b2576112b2611225565b604051601f8201601f19908116603f011681019083821181831017156112da576112da611225565b816040528281528a60208487010111156112f357600080fd5b82602086016020830137600060208483010152809550505050505092959194509250565b6000806040838503121561132a57600080fd5b611333836110ff565b9150611341602084016110ff565b90509250929050565b600181811c9082168061135e57607f821691505b60208210810361137e57634e487b7160e01b600052602260045260246000fd5b50919050565b634e487b7160e01b600052601160045260246000fd5b6000600182016113ac576113ac611384565b5060010190565b808202811582820484141761032d5761032d611384565b6000602082840312156113dc57600080fd5b815161107c816111e0565b600081516113f9818560208601611083565b9290920192915050565b60008084548160018260011c9150600183168061142157607f831692505b6020808410820361144057634e487b7160e01b86526022600452602486fd5b818015611454576001811461146957611496565b60ff1986168952841515850289019650611496565b60008b81526020902060005b8681101561148e5781548b820152908501908301611475565b505084890196505b5050505050506114ba6114a982866113e7565b64173539b7b760d91b815260050190565b95945050505050565b6001600160a01b03858116825284166020820152604081018390526080606082018190526000906114f6908301846110a7565b9695505050505050565b60006020828403121561151257600080fd5b815161107c8161104956fea2646970667358221220d273ce86f56d5d013b790ffa5f1474e8a725291e947386029d09a7fbb03ed8bc64736f6c63430008180033360894a13ba1a3210667c828492db98dca3e2076cc3735a920a3ca505d382bbca26469706673582212209846d99ed7d82f35d28315cded23a985d0b29a1bc2ca1b193a12e39d59ef6e2964736f6c63430008180033",
  "linkReferences": {},
  "deployedLinkReferences": {}
}