{
    "_format": "hh-sol-artifact-1",
    "contractName": "CommunityStoreV2",
    "sourceName": "contracts/CommunityStoreV2.sol",
    "abi": [
        {
            "inputs": [
                {
                    "internalType": "address",
                    "name": "target",
                    "type": "address"
                }
            ],
            "name": "AddressEmptyCode",
            "type": "error"
        },
        {
            "inputs": [
                {
                    "internalType": "address",
                    "name": "implementation",
                    "type": "address"
                }
            ],
            "name": "ERC1967InvalidImplementation",
            "type": "error"
        },
        {
            "inputs": [],
            "name": "ERC1967NonPayable",
            "type": "error"
        },
        {
            "inputs": [],
            "name": "FailedInnerCall",
            "type": "error"
        },
        {
            "inputs": [],
            "name": "InvalidInitialization",
            "type": "error"
        },
        {
            "inputs": [],
            "name": "NotInitializing",
            "type": "error"
        },
        {
            "inputs": [
                {
                    "internalType": "address",
                    "name": "owner",
                    "type": "address"
                }
            ],
            "name": "OwnableInvalidOwner",
            "type": "error"
        },
        {
            "inputs": [
                {
                    "internalType": "address",
                    "name": "account",
                    "type": "address"
                }
            ],
            "name": "OwnableUnauthorizedAccount",
            "type": "error"
        },
        {
            "inputs": [],
            "name": "UUPSUnauthorizedCallContext",
            "type": "error"
        },
        {
            "inputs": [
                {
                    "internalType": "bytes32",
                    "name": "slot",
                    "type": "bytes32"
                }
            ],
            "name": "UUPSUnsupportedProxiableUUID",
            "type": "error"
        },
        {
            "anonymous": false,
            "inputs": [
                {
                    "indexed": false,
                    "internalType": "uint64",
                    "name": "version",
                    "type": "uint64"
                }
            ],
            "name": "Initialized",
            "type": "event"
        },
        {
            "anonymous": false,
            "inputs": [
                {
                    "indexed": true,
                    "internalType": "address",
                    "name": "previousOwner",
                    "type": "address"
                },
                {
                    "indexed": true,
                    "internalType": "address",
                    "name": "newOwner",
                    "type": "address"
                }
            ],
            "name": "OwnershipTransferred",
            "type": "event"
        },
        {
            "anonymous": false,
            "inputs": [
                {
                    "indexed": true,
                    "internalType": "address",
                    "name": "implementation",
                    "type": "address"
                }
            ],
            "name": "Upgraded",
            "type": "event"
        },
        {
            "inputs": [],
            "name": "UPGRADE_INTERFACE_VERSION",
            "outputs": [
                {
                    "internalType": "string",
                    "name": "",
                    "type": "string"
                }
            ],
            "stateMutability": "view",
            "type": "function"
        },
        {
            "inputs": [
                {
                    "components": [
                        {
                            "internalType": "uint256",
                            "name": "id",
                            "type": "uint256"
                        },
                        {
                            "internalType": "string",
                            "name": "name",
                            "type": "string"
                        },
                        {
                            "internalType": "string",
                            "name": "description",
                            "type": "string"
                        },
                        {
                            "internalType": "string[]",
                            "name": "images",
                            "type": "string[]"
                        },
                        {
                            "internalType": "string[]",
                            "name": "descImages",
                            "type": "string[]"
                        },
                        {
                            "internalType": "address",
                            "name": "payToken",
                            "type": "address"
                        },
                        {
                            "internalType": "string",
                            "name": "payTokenSymbol",
                            "type": "string"
                        },
                        {
                            "internalType": "uint256",
                            "name": "payTokenDecimals",
                            "type": "uint256"
                        },
                        {
                            "internalType": "uint256",
                            "name": "amount",
                            "type": "uint256"
                        },
                        {
                            "internalType": "uint256",
                            "name": "price",
                            "type": "uint256"
                        },
                        {
                            "internalType": "bool",
                            "name": "enabled",
                            "type": "bool"
                        }
                    ],
                    "internalType": "struct CommunityStoreV2.GoodsSetting",
                    "name": "_setting",
                    "type": "tuple"
                }
            ],
            "name": "addGoods",
            "outputs": [],
            "stateMutability": "nonpayable",
            "type": "function"
        },
        {
            "inputs": [
                {
                    "internalType": "uint256",
                    "name": "goodsId",
                    "type": "uint256"
                },
                {
                    "internalType": "uint256",
                    "name": "count",
                    "type": "uint256"
                }
            ],
            "name": "buy",
            "outputs": [],
            "stateMutability": "payable",
            "type": "function"
        },
        {
            "inputs": [
                {
                    "internalType": "uint256",
                    "name": "goodsId",
                    "type": "uint256"
                }
            ],
            "name": "disableGoods",
            "outputs": [],
            "stateMutability": "nonpayable",
            "type": "function"
        },
        {
            "inputs": [
                {
                    "internalType": "uint256",
                    "name": "goodsId",
                    "type": "uint256"
                }
            ],
            "name": "enableGoods",
            "outputs": [],
            "stateMutability": "nonpayable",
            "type": "function"
        },
        {
            "inputs": [],
            "name": "getGoodsList",
            "outputs": [
                {
                    "components": [
                        {
                            "internalType": "uint256",
                            "name": "id",
                            "type": "uint256"
                        },
                        {
                            "internalType": "string",
                            "name": "name",
                            "type": "string"
                        },
                        {
                            "internalType": "string",
                            "name": "description",
                            "type": "string"
                        },
                        {
                            "internalType": "string[]",
                            "name": "images",
                            "type": "string[]"
                        },
                        {
                            "internalType": "string[]",
                            "name": "descImages",
                            "type": "string[]"
                        },
                        {
                            "internalType": "address",
                            "name": "payToken",
                            "type": "address"
                        },
                        {
                            "internalType": "string",
                            "name": "payTokenSymbol",
                            "type": "string"
                        },
                        {
                            "internalType": "uint256",
                            "name": "payTokenDecimals",
                            "type": "uint256"
                        },
                        {
                            "internalType": "uint256",
                            "name": "amount",
                            "type": "uint256"
                        },
                        {
                            "internalType": "uint256",
                            "name": "price",
                            "type": "uint256"
                        },
                        {
                            "internalType": "bool",
                            "name": "enabled",
                            "type": "bool"
                        }
                    ],
                    "internalType": "struct CommunityStoreV2.GoodsSetting[]",
                    "name": "",
                    "type": "tuple[]"
                }
            ],
            "stateMutability": "view",
            "type": "function"
        },
        {
            "inputs": [],
            "name": "getImplementationAddress",
            "outputs": [
                {
                    "internalType": "address",
                    "name": "",
                    "type": "address"
                }
            ],
            "stateMutability": "view",
            "type": "function"
        },
        {
            "inputs": [
                {
                    "internalType": "address",
                    "name": "account",
                    "type": "address"
                }
            ],
            "name": "getPurchaseHistory",
            "outputs": [
                {
                    "components": [
                        {
                            "internalType": "uint256",
                            "name": "goodsId",
                            "type": "uint256"
                        },
                        {
                            "internalType": "uint256",
                            "name": "amount",
                            "type": "uint256"
                        },
                        {
                            "internalType": "uint256",
                            "name": "price",
                            "type": "uint256"
                        },
                        {
                            "internalType": "uint256",
                            "name": "time",
                            "type": "uint256"
                        }
                    ],
                    "internalType": "struct CommunityStoreV2.GoodsPurchase[]",
                    "name": "",
                    "type": "tuple[]"
                }
            ],
            "stateMutability": "view",
            "type": "function"
        },
        {
            "inputs": [
                {
                    "internalType": "address",
                    "name": "account",
                    "type": "address"
                }
            ],
            "name": "getStoreInfo",
            "outputs": [
                {
                    "components": [
                        {
                            "components": [
                                {
                                    "internalType": "string",
                                    "name": "name",
                                    "type": "string"
                                },
                                {
                                    "internalType": "string",
                                    "name": "description",
                                    "type": "string"
                                },
                                {
                                    "internalType": "string",
                                    "name": "image",
                                    "type": "string"
                                },
                                {
                                    "internalType": "address",
                                    "name": "receiver",
                                    "type": "address"
                                }
                            ],
                            "internalType": "struct CommunityStoreV2.StoreSettig",
                            "name": "setting",
                            "type": "tuple"
                        },
                        {
                            "components": [
                                {
                                    "internalType": "uint256",
                                    "name": "id",
                                    "type": "uint256"
                                },
                                {
                                    "internalType": "string",
                                    "name": "name",
                                    "type": "string"
                                },
                                {
                                    "internalType": "string",
                                    "name": "description",
                                    "type": "string"
                                },
                                {
                                    "internalType": "string[]",
                                    "name": "images",
                                    "type": "string[]"
                                },
                                {
                                    "internalType": "string[]",
                                    "name": "descImages",
                                    "type": "string[]"
                                },
                                {
                                    "internalType": "address",
                                    "name": "payToken",
                                    "type": "address"
                                },
                                {
                                    "internalType": "string",
                                    "name": "payTokenSymbol",
                                    "type": "string"
                                },
                                {
                                    "internalType": "uint256",
                                    "name": "payTokenDecimals",
                                    "type": "uint256"
                                },
                                {
                                    "internalType": "uint256",
                                    "name": "amount",
                                    "type": "uint256"
                                },
                                {
                                    "internalType": "uint256",
                                    "name": "price",
                                    "type": "uint256"
                                },
                                {
                                    "internalType": "bool",
                                    "name": "enabled",
                                    "type": "bool"
                                }
                            ],
                            "internalType": "struct CommunityStoreV2.GoodsSetting[]",
                            "name": "goodsList",
                            "type": "tuple[]"
                        },
                        {
                            "components": [
                                {
                                    "internalType": "uint256",
                                    "name": "goodsId",
                                    "type": "uint256"
                                },
                                {
                                    "internalType": "uint256",
                                    "name": "amount",
                                    "type": "uint256"
                                },
                                {
                                    "internalType": "uint256",
                                    "name": "price",
                                    "type": "uint256"
                                },
                                {
                                    "internalType": "uint256",
                                    "name": "time",
                                    "type": "uint256"
                                }
                            ],
                            "internalType": "struct CommunityStoreV2.GoodsPurchase[]",
                            "name": "userPurchaseHistory",
                            "type": "tuple[]"
                        },
                        {
                            "components": [
                                {
                                    "internalType": "uint256",
                                    "name": "goodsId",
                                    "type": "uint256"
                                },
                                {
                                    "internalType": "uint256",
                                    "name": "buyAllowance",
                                    "type": "uint256"
                                },
                                {
                                    "internalType": "uint256",
                                    "name": "payTokenBalance",
                                    "type": "uint256"
                                }
                            ],
                            "internalType": "struct CommunityStoreV2.GoodsAccountInfo[]",
                            "name": "goodsAccountInfos",
                            "type": "tuple[]"
                        },
                        {
                            "internalType": "bool",
                            "name": "isAdmin",
                            "type": "bool"
                        },
                        {
                            "internalType": "address",
                            "name": "implementation",
                            "type": "address"
                        }
                    ],
                    "internalType": "struct CommunityStoreV2.StoreInfo",
                    "name": "",
                    "type": "tuple"
                }
            ],
            "stateMutability": "view",
            "type": "function"
        },
        {
            "inputs": [
                {
                    "internalType": "uint256",
                    "name": "",
                    "type": "uint256"
                }
            ],
            "name": "goodsList",
            "outputs": [
                {
                    "internalType": "uint256",
                    "name": "id",
                    "type": "uint256"
                },
                {
                    "internalType": "string",
                    "name": "name",
                    "type": "string"
                },
                {
                    "internalType": "string",
                    "name": "description",
                    "type": "string"
                },
                {
                    "internalType": "address",
                    "name": "payToken",
                    "type": "address"
                },
                {
                    "internalType": "string",
                    "name": "payTokenSymbol",
                    "type": "string"
                },
                {
                    "internalType": "uint256",
                    "name": "payTokenDecimals",
                    "type": "uint256"
                },
                {
                    "internalType": "uint256",
                    "name": "amount",
                    "type": "uint256"
                },
                {
                    "internalType": "uint256",
                    "name": "price",
                    "type": "uint256"
                },
                {
                    "internalType": "bool",
                    "name": "enabled",
                    "type": "bool"
                }
            ],
            "stateMutability": "view",
            "type": "function"
        },
        {
            "inputs": [
                {
                    "internalType": "address",
                    "name": "initialOwner",
                    "type": "address"
                },
                {
                    "components": [
                        {
                            "internalType": "string",
                            "name": "name",
                            "type": "string"
                        },
                        {
                            "internalType": "string",
                            "name": "description",
                            "type": "string"
                        },
                        {
                            "internalType": "string",
                            "name": "image",
                            "type": "string"
                        },
                        {
                            "internalType": "address",
                            "name": "receiver",
                            "type": "address"
                        }
                    ],
                    "internalType": "struct CommunityStoreV2.StoreSettig",
                    "name": "_setting",
                    "type": "tuple"
                }
            ],
            "name": "initialize",
            "outputs": [],
            "stateMutability": "nonpayable",
            "type": "function"
        },
        {
            "inputs": [],
            "name": "owner",
            "outputs": [
                {
                    "internalType": "address",
                    "name": "",
                    "type": "address"
                }
            ],
            "stateMutability": "view",
            "type": "function"
        },
        {
            "inputs": [],
            "name": "proxiableUUID",
            "outputs": [
                {
                    "internalType": "bytes32",
                    "name": "",
                    "type": "bytes32"
                }
            ],
            "stateMutability": "view",
            "type": "function"
        },
        {
            "inputs": [],
            "name": "renounceOwnership",
            "outputs": [],
            "stateMutability": "nonpayable",
            "type": "function"
        },
        {
            "inputs": [],
            "name": "setting",
            "outputs": [
                {
                    "internalType": "string",
                    "name": "name",
                    "type": "string"
                },
                {
                    "internalType": "string",
                    "name": "description",
                    "type": "string"
                },
                {
                    "internalType": "string",
                    "name": "image",
                    "type": "string"
                },
                {
                    "internalType": "address",
                    "name": "receiver",
                    "type": "address"
                }
            ],
            "stateMutability": "view",
            "type": "function"
        },
        {
            "inputs": [
                {
                    "internalType": "address",
                    "name": "newOwner",
                    "type": "address"
                }
            ],
            "name": "transferOwnership",
            "outputs": [],
            "stateMutability": "nonpayable",
            "type": "function"
        },
        {
            "inputs": [
                {
                    "internalType": "uint256",
                    "name": "goodsId",
                    "type": "uint256"
                },
                {
                    "internalType": "string",
                    "name": "description",
                    "type": "string"
                }
            ],
            "name": "updateGoodsDescription",
            "outputs": [],
            "stateMutability": "nonpayable",
            "type": "function"
        },
        {
            "inputs": [
                {
                    "internalType": "uint256",
                    "name": "goodsId",
                    "type": "uint256"
                },
                {
                    "internalType": "string",
                    "name": "name",
                    "type": "string"
                }
            ],
            "name": "updateGoodsName",
            "outputs": [],
            "stateMutability": "nonpayable",
            "type": "function"
        },
        {
            "inputs": [
                {
                    "internalType": "uint256",
                    "name": "goodsId",
                    "type": "uint256"
                },
                {
                    "internalType": "address",
                    "name": "payToken",
                    "type": "address"
                }
            ],
            "name": "updateGoodsPayToken",
            "outputs": [],
            "stateMutability": "nonpayable",
            "type": "function"
        },
        {
            "inputs": [
                {
                    "internalType": "uint256",
                    "name": "goodsId",
                    "type": "uint256"
                },
                {
                    "internalType": "uint256",
                    "name": "price",
                    "type": "uint256"
                }
            ],
            "name": "updateGoodsPrice",
            "outputs": [],
            "stateMutability": "nonpayable",
            "type": "function"
        },
        {
            "inputs": [
                {
                    "internalType": "uint256",
                    "name": "goodsId",
                    "type": "uint256"
                },
                {
                    "components": [
                        {
                            "internalType": "uint256",
                            "name": "id",
                            "type": "uint256"
                        },
                        {
                            "internalType": "string",
                            "name": "name",
                            "type": "string"
                        },
                        {
                            "internalType": "string",
                            "name": "description",
                            "type": "string"
                        },
                        {
                            "internalType": "string[]",
                            "name": "images",
                            "type": "string[]"
                        },
                        {
                            "internalType": "string[]",
                            "name": "descImages",
                            "type": "string[]"
                        },
                        {
                            "internalType": "address",
                            "name": "payToken",
                            "type": "address"
                        },
                        {
                            "internalType": "string",
                            "name": "payTokenSymbol",
                            "type": "string"
                        },
                        {
                            "internalType": "uint256",
                            "name": "payTokenDecimals",
                            "type": "uint256"
                        },
                        {
                            "internalType": "uint256",
                            "name": "amount",
                            "type": "uint256"
                        },
                        {
                            "internalType": "uint256",
                            "name": "price",
                            "type": "uint256"
                        },
                        {
                            "internalType": "bool",
                            "name": "enabled",
                            "type": "bool"
                        }
                    ],
                    "internalType": "struct CommunityStoreV2.GoodsSetting",
                    "name": "_setting",
                    "type": "tuple"
                }
            ],
            "name": "updateGoodsSetting",
            "outputs": [],
            "stateMutability": "nonpayable",
            "type": "function"
        },
        {
            "inputs": [
                {
                    "components": [
                        {
                            "internalType": "string",
                            "name": "name",
                            "type": "string"
                        },
                        {
                            "internalType": "string",
                            "name": "description",
                            "type": "string"
                        },
                        {
                            "internalType": "string",
                            "name": "image",
                            "type": "string"
                        },
                        {
                            "internalType": "address",
                            "name": "receiver",
                            "type": "address"
                        }
                    ],
                    "internalType": "struct CommunityStoreV2.StoreSettig",
                    "name": "_setting",
                    "type": "tuple"
                }
            ],
            "name": "updateSettng",
            "outputs": [],
            "stateMutability": "nonpayable",
            "type": "function"
        },
        {
            "inputs": [
                {
                    "internalType": "address",
                    "name": "newImplementation",
                    "type": "address"
                }
            ],
            "name": "upgrade",
            "outputs": [],
            "stateMutability": "nonpayable",
            "type": "function"
        },
        {
            "inputs": [
                {
                    "internalType": "address",
                    "name": "newImplementation",
                    "type": "address"
                },
                {
                    "internalType": "bytes",
                    "name": "data",
                    "type": "bytes"
                }
            ],
            "name": "upgradeToAndCall",
            "outputs": [],
            "stateMutability": "payable",
            "type": "function"
        },
        {
            "inputs": [
                {
                    "internalType": "address",
                    "name": "",
                    "type": "address"
                },
                {
                    "internalType": "uint256",
                    "name": "",
                    "type": "uint256"
                }
            ],
            "name": "userPurchaseHistory",
            "outputs": [
                {
                    "internalType": "uint256",
                    "name": "goodsId",
                    "type": "uint256"
                },
                {
                    "internalType": "uint256",
                    "name": "amount",
                    "type": "uint256"
                },
                {
                    "internalType": "uint256",
                    "name": "price",
                    "type": "uint256"
                },
                {
                    "internalType": "uint256",
                    "name": "time",
                    "type": "uint256"
                }
            ],
            "stateMutability": "view",
            "type": "function"
        }
    ],
    "bytecode": "0x60a06040523060805234801561001457600080fd5b50608051613d7761003e60003960008181612acc01528181612af50152612c360152613d776000f3fe6080604052600436106101665760003560e01c8063852aa6d6116100d1578063bde5b8e01161008a578063e708817e11610064578063e708817e14610446578063eed3e09714610466578063f2fde38b146104a6578063f53c6cd4146104c657600080fd5b8063bde5b8e0146103ee578063c0c9ce301461040e578063d6febde81461043357600080fd5b8063852aa6d61461031b5780638a457ecd1461033b5780638da5cb5b1461035b578063a809b79314610370578063ad3cb1cc14610390578063b41e2d75146103ce57600080fd5b80634d4d2056116101235780634d4d20561461026e5780634f1ef2861461028e57806352d1902d146102a1578063715018a6146102c457806379b89ac9146102d957806383f8f54c146102f957600080fd5b806304608f211461016b5780630900f0101461018d5780630cbcae70146101ad57806321034444146101df57806328d27f091461020c578063329a587314610241575b600080fd5b34801561017757600080fd5b5061018b61018636600461319c565b6104e6565b005b34801561019957600080fd5b5061018b6101a83660046131e9565b610657565b3480156101b957600080fd5b506101c261067b565b6040516001600160a01b0390911681526020015b60405180910390f35b3480156101eb57600080fd5b506101ff6101fa3660046131e9565b6106a1565b6040516101d69190613204565b34801561021857600080fd5b5061022c61022736600461326a565b61073e565b6040516101d6999897969594939291906132d3565b34801561024d57600080fd5b5061026161025c3660046131e9565b610943565b6040516101d69190613571565b34801561027a57600080fd5b5061018b61028936600461385c565b61167d565b61018b61029c366004613898565b611798565b3480156102ad57600080fd5b506102b66117b7565b6040519081526020016101d6565b3480156102d057600080fd5b5061018b6117d4565b3480156102e557600080fd5b5061018b6102f436600461326a565b6117e8565b34801561030557600080fd5b5061030e611833565b6040516101d691906138ef565b34801561032757600080fd5b5061018b610336366004613902565b611c4f565b34801561034757600080fd5b5061018b610356366004613924565b611c8e565b34801561036757600080fd5b506101c2611cd6565b34801561037c57600080fd5b5061018b61038b366004613960565b611d04565b34801561039c57600080fd5b506103c1604051806040016040528060058152602001640352e302e360dc1b81525081565b6040516101d6919061399c565b3480156103da57600080fd5b5061018b6103e936600461326a565b611f75565b3480156103fa57600080fd5b5061018b610409366004613924565b611f8c565b34801561041a57600080fd5b50610423611fcf565b6040516101d694939291906139af565b61018b610441366004613902565b61218c565b34801561045257600080fd5b5061018b610461366004613a02565b61275b565b34801561047257600080fd5b50610486610481366004613a36565b6127cd565b6040805194855260208501939093529183015260608201526080016101d6565b3480156104b257600080fd5b5061018b6104c13660046131e9565b612813565b3480156104d257600080fd5b5061018b6104e1366004613a60565b61284e565b7ff0c57e16840df040f15088dc2f81fe391c3923bec73e23a9662efc9c229c6a008054600160401b810460ff1615906001600160401b031660008115801561052b5750825b90506000826001600160401b031660011480156105475750303b155b905081158015610555575080155b156105735760405163f92ee8a960e01b815260040160405180910390fd5b845467ffffffffffffffff19166001178555831561059d57845460ff60401b1916600160401b1785555b6105a687612a76565b6105ae612a87565b85516000906105bd9082613b0e565b5060208601516001906105d09082613b0e565b5060408601516002906105e39082613b0e565b506060860151600380546001600160a01b0319166001600160a01b03909216919091179055831561064e57845460ff60401b19168555604051600181527fc7f505b2f371ae2175ee4913f4499e1f2633a7b5936321eed1cdaeb6115181d29060200160405180910390a15b50505050505050565b61065f612a8f565b6106788160405180602001604052806000815250611798565b50565b600061069c600080516020613d22833981519152546001600160a01b031690565b905090565b6001600160a01b0381166000908152600560209081526040808320805482518185028101850190935280835260609492939192909184015b828210156107335783829060005260206000209060040201604051806080016040529081600082015481526020016001820154815260200160028201548152602001600382015481525050815260200190600101906106d9565b505050509050919050565b6004818154811061074e57600080fd5b60009182526020909120600b9091020180546001820180549193509061077390613a8c565b80601f016020809104026020016040519081016040528092919081815260200182805461079f90613a8c565b80156107ec5780601f106107c1576101008083540402835291602001916107ec565b820191906000526020600020905b8154815290600101906020018083116107cf57829003601f168201915b50505050509080600201805461080190613a8c565b80601f016020809104026020016040519081016040528092919081815260200182805461082d90613a8c565b801561087a5780601f1061084f5761010080835404028352916020019161087a565b820191906000526020600020905b81548152906001019060200180831161085d57829003601f168201915b505050600584015460068501805494956001600160a01b039092169491935091506108a490613a8c565b80601f01602080910402602001604051908101604052809291908181526020018280546108d090613a8c565b801561091d5780601f106108f25761010080835404028352916020019161091d565b820191906000526020600020905b81548152906001019060200180831161090057829003601f168201915b50505050600783015460088401546009850154600a909501549394919390925060ff1689565b6040805161014081018252606060c0820181815260e0830182905261010083018290526000610120840181905290835260208301829052928201819052808201526080810182905260a08101919091526004546000816001600160401b038111156109b0576109b0612fe9565b604051908082528060200260200182016040528015610a0557816020015b6109f260405180606001604052806000815260200160008152602001600081525090565b8152602001906001900390816109ce5790505b50905060005b82811015610fa157600060048281548110610a2857610a28613bcd565b90600052602060002090600b02016040518061016001604052908160008201548152602001600182018054610a5c90613a8c565b80601f0160208091040260200160405190810160405280929190818152602001828054610a8890613a8c565b8015610ad55780601f10610aaa57610100808354040283529160200191610ad5565b820191906000526020600020905b815481529060010190602001808311610ab857829003601f168201915b50505050508152602001600282018054610aee90613a8c565b80601f0160208091040260200160405190810160405280929190818152602001828054610b1a90613a8c565b8015610b675780601f10610b3c57610100808354040283529160200191610b67565b820191906000526020600020905b815481529060010190602001808311610b4a57829003601f168201915b5050505050815260200160038201805480602002602001604051908101604052809291908181526020016000905b82821015610c41578382906000526020600020018054610bb490613a8c565b80601f0160208091040260200160405190810160405280929190818152602001828054610be090613a8c565b8015610c2d5780601f10610c0257610100808354040283529160200191610c2d565b820191906000526020600020905b815481529060010190602001808311610c1057829003601f168201915b505050505081526020019060010190610b95565b50505050815260200160048201805480602002602001604051908101604052809291908181526020016000905b82821015610d1a578382906000526020600020018054610c8d90613a8c565b80601f0160208091040260200160405190810160405280929190818152602001828054610cb990613a8c565b8015610d065780601f10610cdb57610100808354040283529160200191610d06565b820191906000526020600020905b815481529060010190602001808311610ce957829003601f168201915b505050505081526020019060010190610c6e565b5050509082525060058201546001600160a01b03166020820152600682018054604090920191610d4990613a8c565b80601f0160208091040260200160405190810160405280929190818152602001828054610d7590613a8c565b8015610dc25780601f10610d9757610100808354040283529160200191610dc2565b820191906000526020600020905b815481529060010190602001808311610da557829003601f168201915b5050509183525050600782015460208201526008820154604082015260098201546060820152600a9091015460ff16151560809091015260a08101519091506001600160a01b0316610e64576040805160608101825282518152600019602082018190526001600160a01b038916319282018390528551909291908190879087908110610e5157610e51613bcd565b6020026020010181905250505050610f98565b60a0810151604051636eb1769f60e11b81526001600160a01b038881166004830152306024830152600092169063dd62ed3e90604401602060405180830381865afa158015610eb7573d6000803e3d6000fd5b505050506040513d601f19601f82011682018060405250810190610edb9190613be3565b60a08301516040516370a0823160e01b81526001600160a01b038a81166004830152929350600092909116906370a0823190602401602060405180830381865afa158015610f2d573d6000803e3d6000fd5b505050506040513d601f19601f82011682018060405250810190610f519190613be3565b9050600060405180606001604052808560000151815260200184815260200183815250905080868681518110610f8957610f89613bcd565b60200260200101819052505050505b50600101610a0b565b5060006040518060c001604052806000604051806080016040529081600082018054610fcc90613a8c565b80601f0160208091040260200160405190810160405280929190818152602001828054610ff890613a8c565b80156110455780601f1061101a57610100808354040283529160200191611045565b820191906000526020600020905b81548152906001019060200180831161102857829003601f168201915b5050505050815260200160018201805461105e90613a8c565b80601f016020809104026020016040519081016040528092919081815260200182805461108a90613a8c565b80156110d75780601f106110ac576101008083540402835291602001916110d7565b820191906000526020600020905b8154815290600101906020018083116110ba57829003601f168201915b505050505081526020016002820180546110f090613a8c565b80601f016020809104026020016040519081016040528092919081815260200182805461111c90613a8c565b80156111695780601f1061113e57610100808354040283529160200191611169565b820191906000526020600020905b81548152906001019060200180831161114c57829003601f168201915b5050509183525050600391909101546001600160a01b0316602091820152908252600480546040805182850281018501909152818152938301939260009084015b8282101561159957838290600052602060002090600b020160405180610160016040529081600082015481526020016001820180546111e890613a8c565b80601f016020809104026020016040519081016040528092919081815260200182805461121490613a8c565b80156112615780601f1061123657610100808354040283529160200191611261565b820191906000526020600020905b81548152906001019060200180831161124457829003601f168201915b5050505050815260200160028201805461127a90613a8c565b80601f01602080910402602001604051908101604052809291908181526020018280546112a690613a8c565b80156112f35780601f106112c8576101008083540402835291602001916112f3565b820191906000526020600020905b8154815290600101906020018083116112d657829003601f168201915b5050505050815260200160038201805480602002602001604051908101604052809291908181526020016000905b828210156113cd57838290600052602060002001805461134090613a8c565b80601f016020809104026020016040519081016040528092919081815260200182805461136c90613a8c565b80156113b95780601f1061138e576101008083540402835291602001916113b9565b820191906000526020600020905b81548152906001019060200180831161139c57829003601f168201915b505050505081526020019060010190611321565b50505050815260200160048201805480602002602001604051908101604052809291908181526020016000905b828210156114a657838290600052602060002001805461141990613a8c565b80601f016020809104026020016040519081016040528092919081815260200182805461144590613a8c565b80156114925780601f1061146757610100808354040283529160200191611492565b820191906000526020600020905b81548152906001019060200180831161147557829003601f168201915b5050505050815260200190600101906113fa565b5050509082525060058201546001600160a01b031660208201526006820180546040909201916114d590613a8c565b80601f016020809104026020016040519081016040528092919081815260200182805461150190613a8c565b801561154e5780601f106115235761010080835404028352916020019161154e565b820191906000526020600020905b81548152906001019060200180831161153157829003601f168201915b505050918352505060078201546020808301919091526008830154604083015260098301546060830152600a9092015460ff16151560809091015290825260019290920191016111aa565b505050908252506001600160a01b03871660009081526005602090815260408083208054825181850281018501909352808352948301949193909284015b828210156116315783829060005260206000209060040201604051806080016040529081600082015481526020016001820154815260200160028201548152602001600382015481525050815260200190600101906115d7565b505050508152602001838152602001866001600160a01b0316611652611cd6565b6001600160a01b031614815260200161166961067b565b6001600160a01b0316905295945050505050565b611685612a8f565b806004611693600185613c12565b815481106116a3576116a3613bcd565b90600052602060002090600b02016000820151816000015560208201518160010190816116d09190613b0e565b50604082015160028201906116e59082613b0e565b5060608201518051611701916003840191602090910190612f10565b506080820151805161171d916004840191602090910190612f10565b5060a08201516005820180546001600160a01b0319166001600160a01b0390921691909117905560c082015160068201906117589082613b0e565b5060e082015160078201556101008201516008820155610120820151600982015561014090910151600a909101805460ff19169115159190911790555050565b6117a0612ac1565b6117a982612b66565b6117b38282612b6e565b5050565b60006117c1612c2b565b50600080516020613d2283398151915290565b6117dc612a8f565b6117e66000612c74565b565b6117f0612a8f565b600160046117fe8284613c12565b8154811061180e5761180e613bcd565b60009182526020909120600b90910201600a01805460ff191691151591909117905550565b60606004805480602002602001604051908101604052809291908181526020016000905b82821015611c4657838290600052602060002090600b0201604051806101600160405290816000820154815260200160018201805461189590613a8c565b80601f01602080910402602001604051908101604052809291908181526020018280546118c190613a8c565b801561190e5780601f106118e35761010080835404028352916020019161190e565b820191906000526020600020905b8154815290600101906020018083116118f157829003601f168201915b5050505050815260200160028201805461192790613a8c565b80601f016020809104026020016040519081016040528092919081815260200182805461195390613a8c565b80156119a05780601f10611975576101008083540402835291602001916119a0565b820191906000526020600020905b81548152906001019060200180831161198357829003601f168201915b5050505050815260200160038201805480602002602001604051908101604052809291908181526020016000905b82821015611a7a5783829060005260206000200180546119ed90613a8c565b80601f0160208091040260200160405190810160405280929190818152602001828054611a1990613a8c565b8015611a665780601f10611a3b57610100808354040283529160200191611a66565b820191906000526020600020905b815481529060010190602001808311611a4957829003601f168201915b5050505050815260200190600101906119ce565b50505050815260200160048201805480602002602001604051908101604052809291908181526020016000905b82821015611b53578382906000526020600020018054611ac690613a8c565b80601f0160208091040260200160405190810160405280929190818152602001828054611af290613a8c565b8015611b3f5780601f10611b1457610100808354040283529160200191611b3f565b820191906000526020600020905b815481529060010190602001808311611b2257829003601f168201915b505050505081526020019060010190611aa7565b5050509082525060058201546001600160a01b03166020820152600682018054604090920191611b8290613a8c565b80601f0160208091040260200160405190810160405280929190818152602001828054611bae90613a8c565b8015611bfb5780601f10611bd057610100808354040283529160200191611bfb565b820191906000526020600020905b815481529060010190602001808311611bde57829003601f168201915b505050918352505060078201546020808301919091526008830154604083015260098301546060830152600a9092015460ff1615156080909101529082526001929092019101611857565b50505050905090565b611c57612a8f565b806004611c65600185613c12565b81548110611c7557611c75613bcd565b90600052602060002090600b0201600901819055505050565b611c96612a8f565b806004611ca4600185613c12565b81548110611cb457611cb4613bcd565b90600052602060002090600b02016001019081611cd19190613b0e565b505050565b7f9016d09d72d40fdae2fd8ceac6b6234c7706214fd39c1cd1e609a0528c199300546001600160a01b031690565b611d0c612a8f565b600454611d1a906001613c25565b815260a08101516001600160a01b0316611d595760408051808201909152600381526208aa8960eb1b602082015260c0820152601260e0820152611e3c565b60008160a001519050806001600160a01b03166395d89b416040518163ffffffff1660e01b8152600401600060405180830381865afa158015611da0573d6000803e3d6000fd5b505050506040513d6000823e601f3d908101601f19168201604052611dc89190810190613c38565b8260c00181905250806001600160a01b031663313ce5676040518163ffffffff1660e01b8152600401602060405180830381865afa158015611e0e573d6000803e3d6000fd5b505050506040513d601f19601f82011682018060405250810190611e329190613cae565b60ff1660e0830152505b600480546001810182556000919091528151600b9091027f8a35acfbc15ff81a39ae7d344fd709f28e8600b4aa8c65c6b64bfe7fe36bd19b810191825560208301518392917f8a35acfbc15ff81a39ae7d344fd709f28e8600b4aa8c65c6b64bfe7fe36bd19c0190611eae9082613b0e565b5060408201516002820190611ec39082613b0e565b5060608201518051611edf916003840191602090910190612f10565b5060808201518051611efb916004840191602090910190612f10565b5060a08201516005820180546001600160a01b0319166001600160a01b0390921691909117905560c08201516006820190611f369082613b0e565b5060e082015160078201556101008201516008820155610120820151600982015561014090910151600a909101805460ff191691151591909117905550565b611f7d612a8f565b600060046117fe600184613c12565b611f94612a8f565b806004611fa2600185613c12565b81548110611fb257611fb2613bcd565b90600052602060002090600b02016002019081611cd19190613b0e565b600080548190611fde90613a8c565b80601f016020809104026020016040519081016040528092919081815260200182805461200a90613a8c565b80156120575780601f1061202c57610100808354040283529160200191612057565b820191906000526020600020905b81548152906001019060200180831161203a57829003601f168201915b50505050509080600101805461206c90613a8c565b80601f016020809104026020016040519081016040528092919081815260200182805461209890613a8c565b80156120e55780601f106120ba576101008083540402835291602001916120e5565b820191906000526020600020905b8154815290600101906020018083116120c857829003601f168201915b5050505050908060020180546120fa90613a8c565b80601f016020809104026020016040519081016040528092919081815260200182805461212690613a8c565b80156121735780601f1061214857610100808354040283529160200191612173565b820191906000526020600020905b81548152906001019060200180831161215657829003601f168201915b505050600390930154919250506001600160a01b031684565b3360009081526005602052604081209060046121a9600186613c12565b815481106121b9576121b9613bcd565b90600052602060002090600b020160405180610160016040529081600082015481526020016001820180546121ed90613a8c565b80601f016020809104026020016040519081016040528092919081815260200182805461221990613a8c565b80156122665780601f1061223b57610100808354040283529160200191612266565b820191906000526020600020905b81548152906001019060200180831161224957829003601f168201915b5050505050815260200160028201805461227f90613a8c565b80601f01602080910402602001604051908101604052809291908181526020018280546122ab90613a8c565b80156122f85780601f106122cd576101008083540402835291602001916122f8565b820191906000526020600020905b8154815290600101906020018083116122db57829003601f168201915b5050505050815260200160038201805480602002602001604051908101604052809291908181526020016000905b828210156123d257838290600052602060002001805461234590613a8c565b80601f016020809104026020016040519081016040528092919081815260200182805461237190613a8c565b80156123be5780601f10612393576101008083540402835291602001916123be565b820191906000526020600020905b8154815290600101906020018083116123a157829003601f168201915b505050505081526020019060010190612326565b50505050815260200160048201805480602002602001604051908101604052809291908181526020016000905b828210156124ab57838290600052602060002001805461241e90613a8c565b80601f016020809104026020016040519081016040528092919081815260200182805461244a90613a8c565b80156124975780601f1061246c57610100808354040283529160200191612497565b820191906000526020600020905b81548152906001019060200180831161247a57829003601f168201915b5050505050815260200190600101906123ff565b5050509082525060058201546001600160a01b031660208201526006820180546040909201916124da90613a8c565b80601f016020809104026020016040519081016040528092919081815260200182805461250690613a8c565b80156125535780601f1061252857610100808354040283529160200191612553565b820191906000526020600020905b81548152906001019060200180831161253657829003601f168201915b5050509183525050600782015460208083019190915260088301546040808401919091526009840154606080850191909152600a9094015460ff1615156080938401528051928301815288835282820188815261012086015191840191825242948401948552875460018181018a5560008a8152949094208551600490920201908155905192810192909255516002820155915160039092019190915560a0820151919250906001600160a01b03166126aa57838261012001516126179190613cd1565b34101561266b5760405162461bcd60e51b815260206004820152601d60248201527f546865205061796d656e7420416d6f756e7420497320546f6f204c6f7700000060448201526064015b60405180910390fd5b6003546040516001600160a01b03909116903480156108fc02916000818181858888f193505050501580156126a4573d6000803e3d6000fd5b50612754565b60a08201516003546101208401516001600160a01b03928316926323b872dd9233929116906126da908990613cd1565b6040516001600160e01b031960e086901b1681526001600160a01b03938416600482015292909116602483015260448201526064016020604051808303816000875af115801561272e573d6000803e3d6000fd5b505050506040513d601f19601f820116820180604052508101906127529190613ce8565b505b5050505050565b612763612a8f565b8051819060009081906127769082613b0e565b506020820151600182019061278b9082613b0e565b50604082015160028201906127a09082613b0e565b5060609190910151600390910180546001600160a01b0319166001600160a01b0390921691909117905550565b600560205281600052604060002081815481106127e957600080fd5b60009182526020909120600490910201805460018201546002830154600390930154919450925084565b61281b612a8f565b6001600160a01b03811661284557604051631e4fbdf760e01b815260006004820152602401612662565b61067881612c74565b612856612a8f565b806004612864600185613c12565b8154811061287457612874613bcd565b60009182526020909120600b9091020160050180546001600160a01b0319166001600160a01b0392831617905581166129345760408051808201909152600381526208aa8960eb1b602082015260046128ce600185613c12565b815481106128de576128de613bcd565b90600052602060002090600b020160060190816128fb9190613b0e565b506012600461290b600185613c12565b8154811061291b5761291b613bcd565b90600052602060002090600b0201600701819055505050565b6000819050806001600160a01b03166395d89b416040518163ffffffff1660e01b8152600401600060405180830381865afa158015612977573d6000803e3d6000fd5b505050506040513d6000823e601f3d908101601f1916820160405261299f9190810190613c38565b60046129ac600186613c12565b815481106129bc576129bc613bcd565b90600052602060002090600b020160060190816129d99190613b0e565b50806001600160a01b031663313ce5676040518163ffffffff1660e01b8152600401602060405180830381865afa158015612a18573d6000803e3d6000fd5b505050506040513d601f19601f82011682018060405250810190612a3c9190613cae565b60ff166004612a4c600186613c12565b81548110612a5c57612a5c613bcd565b90600052602060002090600b020160070181905550505050565b612a7e612ce5565b61067881612d2e565b6117e6612ce5565b33612a98611cd6565b6001600160a01b0316146117e65760405163118cdaa760e01b8152336004820152602401612662565b306001600160a01b037f0000000000000000000000000000000000000000000000000000000000000000161480612b4857507f00000000000000000000000000000000000000000000000000000000000000006001600160a01b0316612b3c600080516020613d22833981519152546001600160a01b031690565b6001600160a01b031614155b156117e65760405163703e46dd60e11b815260040160405180910390fd5b610678612a8f565b816001600160a01b03166352d1902d6040518163ffffffff1660e01b8152600401602060405180830381865afa925050508015612bc8575060408051601f3d908101601f19168201909252612bc591810190613be3565b60015b612bf057604051634c9c8ce360e01b81526001600160a01b0383166004820152602401612662565b600080516020613d228339815191528114612c2157604051632a87526960e21b815260048101829052602401612662565b611cd18383612d36565b306001600160a01b037f000000000000000000000000000000000000000000000000000000000000000016146117e65760405163703e46dd60e11b815260040160405180910390fd5b7f9016d09d72d40fdae2fd8ceac6b6234c7706214fd39c1cd1e609a0528c19930080546001600160a01b031981166001600160a01b03848116918217845560405192169182907f8be0079c531659141344cd1fd0a4f28419497f9722a3daafe3b4186f6b6457e090600090a3505050565b7ff0c57e16840df040f15088dc2f81fe391c3923bec73e23a9662efc9c229c6a0054600160401b900460ff166117e657604051631afcd79f60e31b815260040160405180910390fd5b61281b612ce5565b612d3f82612d8c565b6040516001600160a01b038316907fbc7cd75a20ee27fd9adebab32041f755214dbc6bffa90cc0225b39da2e5c2d3b90600090a2805115612d8457611cd18282612df1565b6117b3612e69565b806001600160a01b03163b600003612dc257604051634c9c8ce360e01b81526001600160a01b0382166004820152602401612662565b600080516020613d2283398151915280546001600160a01b0319166001600160a01b0392909216919091179055565b6060600080846001600160a01b031684604051612e0e9190613d05565b600060405180830381855af49150503d8060008114612e49576040519150601f19603f3d011682016040523d82523d6000602084013e612e4e565b606091505b5091509150612e5e858383612e88565b925050505b92915050565b34156117e65760405163b398979f60e01b815260040160405180910390fd5b606082612e9d57612e9882612ee7565b612ee0565b8151158015612eb457506001600160a01b0384163b155b15612edd57604051639996b31560e01b81526001600160a01b0385166004820152602401612662565b50805b9392505050565b805115612ef75780518082602001fd5b604051630a12f52160e11b815260040160405180910390fd5b828054828255906000526020600020908101928215612f56579160200282015b82811115612f565782518290612f469082613b0e565b5091602001919060010190612f30565b50612f62929150612f66565b5090565b80821115612f62576000612f7a8282612f83565b50600101612f66565b508054612f8f90613a8c565b6000825580601f10612f9f575050565b601f01602090049060005260206000209081019061067891905b80821115612f625760008155600101612fb9565b80356001600160a01b0381168114612fe457600080fd5b919050565b634e487b7160e01b600052604160045260246000fd5b60405161016081016001600160401b038111828210171561302257613022612fe9565b60405290565b604051601f8201601f191681016001600160401b038111828210171561305057613050612fe9565b604052919050565b60006001600160401b0382111561307157613071612fe9565b50601f01601f191660200190565b600061309261308d84613058565b613028565b90508281528383830111156130a657600080fd5b828260208301376000602084830101529392505050565b600082601f8301126130ce57600080fd5b612ee08383356020850161307f565b6000608082840312156130ef57600080fd5b604051608081016001600160401b03828210818311171561311257613112612fe9565b81604052829350843591508082111561312a57600080fd5b613136868387016130bd565b8352602085013591508082111561314c57600080fd5b613158868387016130bd565b6020840152604085013591508082111561317157600080fd5b5061317e858286016130bd565b60408301525061319060608401612fcd565b60608201525092915050565b600080604083850312156131af57600080fd5b6131b883612fcd565b915060208301356001600160401b038111156131d357600080fd5b6131df858286016130dd565b9150509250929050565b6000602082840312156131fb57600080fd5b612ee082612fcd565b6020808252825182820181905260009190848201906040850190845b8181101561325e5783518051845260208082015190850152604080820151908501526060908101519084015260808301938501939250600101613220565b50909695505050505050565b60006020828403121561327c57600080fd5b5035919050565b60005b8381101561329e578181015183820152602001613286565b50506000910152565b600081518084526132bf816020860160208601613283565b601f01601f19169290920160200192915050565b60006101208b83528060208401526132ed8184018c6132a7565b90508281036040840152613301818b6132a7565b6001600160a01b038a1660608501528381036080850152905061332481896132a7565b9150508560a08301528460c08301528360e08301528215156101008301529a9950505050505050505050565b60008282518085526020808601955060208260051b8401016020860160005b8481101561339d57601f1986840301895261338b8383516132a7565b9884019892509083019060010161336f565b5090979650505050505050565b600082825180855260208086019550808260051b84010181860160005b8481101561339d57601f198684030189528151610160815185528582015181878701526133f6828701826132a7565b9150506040808301518683038288015261341083826132a7565b925050506060808301518683038288015261342b8382613350565b92505050608080830151868303828801526134468382613350565b9250505060a080830151613464828801826001600160a01b03169052565b505060c0808301518683038288015261347d83826132a7565b60e085810151908901526101008086015190890152610120808601519089015261014094850151801515868a01529490935091506134b89050565b5099850199935050908301906001016133c7565b60008151808452602080850194506020840160005b8381101561351f57815180518852602080820151908901526040808201519089015260609081015190880152608087019650908201906001016134e1565b509495945050505050565b60008151808452602080850194506020840160005b8381101561351f578151805188528381015184890152604090810151908801526060909601959082019060010161353f565b602081526000825160c060208401528051608060e08501526135976101608501826132a7565b9050602082015160df1980868403016101008701526135b683836132a7565b9250604084015191508086840301610120870152506135d582826132a7565b606093909301516001600160a01b031661014086015250506020840151601f198483038101604086015290919061360c82846133aa565b9250604086015191508085840301606086015261362983836134cc565b9250606086015191508085840301608086015250613647828261352a565b915050608084015161365d60a085018215159052565b5060a08401516001600160a01b03811660c0850152509392505050565b600082601f83011261368b57600080fd5b813560206001600160401b03808311156136a7576136a7612fe9565b8260051b6136b6838201613028565b93845285810183019383810190888611156136d057600080fd5b84880192505b8583101561370c578235848111156136ee5760008081fd5b6136fc8a87838c01016130bd565b83525091840191908401906136d6565b98975050505050505050565b801515811461067857600080fd5b8035612fe481613718565b6000610160828403121561374457600080fd5b61374c612fff565b90508135815260208201356001600160401b038082111561376c57600080fd5b613778858386016130bd565b6020840152604084013591508082111561379157600080fd5b61379d858386016130bd565b604084015260608401359150808211156137b657600080fd5b6137c28583860161367a565b606084015260808401359150808211156137db57600080fd5b6137e78583860161367a565b60808401526137f860a08501612fcd565b60a084015260c084013591508082111561381157600080fd5b5061381e848285016130bd565b60c08301525060e0828101359082015261010080830135908201526101208083013590820152610140613852818401613726565b9082015292915050565b6000806040838503121561386f57600080fd5b8235915060208301356001600160401b0381111561388c57600080fd5b6131df85828601613731565b600080604083850312156138ab57600080fd5b6138b483612fcd565b915060208301356001600160401b038111156138cf57600080fd5b8301601f810185136138e057600080fd5b6131df8582356020840161307f565b602081526000612ee060208301846133aa565b6000806040838503121561391557600080fd5b50508035926020909101359150565b6000806040838503121561393757600080fd5b8235915060208301356001600160401b0381111561395457600080fd5b6131df858286016130bd565b60006020828403121561397257600080fd5b81356001600160401b0381111561398857600080fd5b61399484828501613731565b949350505050565b602081526000612ee060208301846132a7565b6080815260006139c260808301876132a7565b82810360208401526139d481876132a7565b905082810360408401526139e881866132a7565b91505060018060a01b038316606083015295945050505050565b600060208284031215613a1457600080fd5b81356001600160401b03811115613a2a57600080fd5b613994848285016130dd565b60008060408385031215613a4957600080fd5b613a5283612fcd565b946020939093013593505050565b60008060408385031215613a7357600080fd5b82359150613a8360208401612fcd565b90509250929050565b600181811c90821680613aa057607f821691505b602082108103613ac057634e487b7160e01b600052602260045260246000fd5b50919050565b601f821115611cd1576000816000526020600020601f850160051c81016020861015613aef5750805b601f850160051c820191505b8181101561275257828155600101613afb565b81516001600160401b03811115613b2757613b27612fe9565b613b3b81613b358454613a8c565b84613ac6565b602080601f831160018114613b705760008415613b585750858301515b600019600386901b1c1916600185901b178555612752565b600085815260208120601f198616915b82811015613b9f57888601518255948401946001909101908401613b80565b5085821015613bbd5787850151600019600388901b60f8161c191681555b5050505050600190811b01905550565b634e487b7160e01b600052603260045260246000fd5b600060208284031215613bf557600080fd5b5051919050565b634e487b7160e01b600052601160045260246000fd5b81810381811115612e6357612e63613bfc565b80820180821115612e6357612e63613bfc565b600060208284031215613c4a57600080fd5b81516001600160401b03811115613c6057600080fd5b8201601f81018413613c7157600080fd5b8051613c7f61308d82613058565b818152856020838501011115613c9457600080fd5b613ca5826020830160208601613283565b95945050505050565b600060208284031215613cc057600080fd5b815160ff81168114612ee057600080fd5b8082028115828204841417612e6357612e63613bfc565b600060208284031215613cfa57600080fd5b8151612ee081613718565b60008251613d17818460208701613283565b919091019291505056fe360894a13ba1a3210667c828492db98dca3e2076cc3735a920a3ca505d382bbca26469706673582212209247572e5eefcb2dc639170927af424d49ad2e4580e5d184247ed2afa78da5c264736f6c63430008180033",
    "linkReferences": {},
    "deployedLinkReferences": {}
}