{
  "_format": "hh-sol-artifact-1",
  "contractName": "CommunityStore",
  "sourceName": "contracts/CommunityStore.sol",
  "abi": [
    {
      "inputs": [
        {
          "internalType": "address",
          "name": "target",
          "type": "address"
        }
      ],
      "name": "AddressEmptyCode",
      "type": "error"
    },
    {
      "inputs": [
        {
          "internalType": "address",
          "name": "implementation",
          "type": "address"
        }
      ],
      "name": "ERC1967InvalidImplementation",
      "type": "error"
    },
    {
      "inputs": [],
      "name": "ERC1967NonPayable",
      "type": "error"
    },
    {
      "inputs": [],
      "name": "FailedInnerCall",
      "type": "error"
    },
    {
      "inputs": [],
      "name": "InvalidInitialization",
      "type": "error"
    },
    {
      "inputs": [],
      "name": "NotInitializing",
      "type": "error"
    },
    {
      "inputs": [
        {
          "internalType": "address",
          "name": "owner",
          "type": "address"
        }
      ],
      "name": "OwnableInvalidOwner",
      "type": "error"
    },
    {
      "inputs": [
        {
          "internalType": "address",
          "name": "account",
          "type": "address"
        }
      ],
      "name": "OwnableUnauthorizedAccount",
      "type": "error"
    },
    {
      "inputs": [],
      "name": "UUPSUnauthorizedCallContext",
      "type": "error"
    },
    {
      "inputs": [
        {
          "internalType": "bytes32",
          "name": "slot",
          "type": "bytes32"
        }
      ],
      "name": "UUPSUnsupportedProxiableUUID",
      "type": "error"
    },
    {
      "anonymous": false,
      "inputs": [
        {
          "indexed": false,
          "internalType": "uint64",
          "name": "version",
          "type": "uint64"
        }
      ],
      "name": "Initialized",
      "type": "event"
    },
    {
      "anonymous": false,
      "inputs": [
        {
          "indexed": true,
          "internalType": "address",
          "name": "previousOwner",
          "type": "address"
        },
        {
          "indexed": true,
          "internalType": "address",
          "name": "newOwner",
          "type": "address"
        }
      ],
      "name": "OwnershipTransferred",
      "type": "event"
    },
    {
      "anonymous": false,
      "inputs": [
        {
          "indexed": true,
          "internalType": "address",
          "name": "implementation",
          "type": "address"
        }
      ],
      "name": "Upgraded",
      "type": "event"
    },
    {
      "inputs": [],
      "name": "UPGRADE_INTERFACE_VERSION",
      "outputs": [
        {
          "internalType": "string",
          "name": "",
          "type": "string"
        }
      ],
      "stateMutability": "view",
      "type": "function"
    },
    {
      "inputs": [
        {
          "components": [
            {
              "internalType": "uint256",
              "name": "id",
              "type": "uint256"
            },
            {
              "internalType": "string",
              "name": "name",
              "type": "string"
            },
            {
              "internalType": "string",
              "name": "description",
              "type": "string"
            },
            {
              "internalType": "string[]",
              "name": "images",
              "type": "string[]"
            },
            {
              "internalType": "string[]",
              "name": "descImages",
              "type": "string[]"
            },
            {
              "internalType": "address",
              "name": "payToken",
              "type": "address"
            },
            {
              "internalType": "string",
              "name": "payTokenSymbol",
              "type": "string"
            },
            {
              "internalType": "uint256",
              "name": "payTokenDecimals",
              "type": "uint256"
            },
            {
              "internalType": "uint256",
              "name": "amount",
              "type": "uint256"
            },
            {
              "internalType": "uint256",
              "name": "price",
              "type": "uint256"
            },
            {
              "internalType": "bool",
              "name": "enabled",
              "type": "bool"
            }
          ],
          "internalType": "struct CommunityStore.GoodsSetting",
          "name": "_setting",
          "type": "tuple"
        }
      ],
      "name": "addGoods",
      "outputs": [],
      "stateMutability": "nonpayable",
      "type": "function"
    },
    {
      "inputs": [
        {
          "internalType": "uint256",
          "name": "goodsId",
          "type": "uint256"
        },
        {
          "internalType": "uint256",
          "name": "count",
          "type": "uint256"
        }
      ],
      "name": "buy",
      "outputs": [],
      "stateMutability": "nonpayable",
      "type": "function"
    },
    {
      "inputs": [],
      "name": "getGoodsList",
      "outputs": [
        {
          "components": [
            {
              "internalType": "uint256",
              "name": "id",
              "type": "uint256"
            },
            {
              "internalType": "string",
              "name": "name",
              "type": "string"
            },
            {
              "internalType": "string",
              "name": "description",
              "type": "string"
            },
            {
              "internalType": "string[]",
              "name": "images",
              "type": "string[]"
            },
            {
              "internalType": "string[]",
              "name": "descImages",
              "type": "string[]"
            },
            {
              "internalType": "address",
              "name": "payToken",
              "type": "address"
            },
            {
              "internalType": "string",
              "name": "payTokenSymbol",
              "type": "string"
            },
            {
              "internalType": "uint256",
              "name": "payTokenDecimals",
              "type": "uint256"
            },
            {
              "internalType": "uint256",
              "name": "amount",
              "type": "uint256"
            },
            {
              "internalType": "uint256",
              "name": "price",
              "type": "uint256"
            },
            {
              "internalType": "bool",
              "name": "enabled",
              "type": "bool"
            }
          ],
          "internalType": "struct CommunityStore.GoodsSetting[]",
          "name": "",
          "type": "tuple[]"
        }
      ],
      "stateMutability": "view",
      "type": "function"
    },
    {
      "inputs": [],
      "name": "getImplementationAddress",
      "outputs": [
        {
          "internalType": "address",
          "name": "",
          "type": "address"
        }
      ],
      "stateMutability": "view",
      "type": "function"
    },
    {
      "inputs": [
        {
          "internalType": "address",
          "name": "account",
          "type": "address"
        }
      ],
      "name": "getPurchaseHistory",
      "outputs": [
        {
          "components": [
            {
              "internalType": "uint256",
              "name": "goodsId",
              "type": "uint256"
            },
            {
              "internalType": "uint256",
              "name": "amount",
              "type": "uint256"
            },
            {
              "internalType": "uint256",
              "name": "price",
              "type": "uint256"
            },
            {
              "internalType": "uint256",
              "name": "time",
              "type": "uint256"
            }
          ],
          "internalType": "struct CommunityStore.GoodsPurchase[]",
          "name": "",
          "type": "tuple[]"
        }
      ],
      "stateMutability": "view",
      "type": "function"
    },
    {
      "inputs": [
        {
          "internalType": "address",
          "name": "account",
          "type": "address"
        }
      ],
      "name": "getStoreInfo",
      "outputs": [
        {
          "components": [
            {
              "components": [
                {
                  "internalType": "string",
                  "name": "name",
                  "type": "string"
                },
                {
                  "internalType": "string",
                  "name": "description",
                  "type": "string"
                },
                {
                  "internalType": "string",
                  "name": "image",
                  "type": "string"
                },
                {
                  "internalType": "address",
                  "name": "receiver",
                  "type": "address"
                }
              ],
              "internalType": "struct CommunityStore.StoreSettig",
              "name": "setting",
              "type": "tuple"
            },
            {
              "components": [
                {
                  "internalType": "uint256",
                  "name": "id",
                  "type": "uint256"
                },
                {
                  "internalType": "string",
                  "name": "name",
                  "type": "string"
                },
                {
                  "internalType": "string",
                  "name": "description",
                  "type": "string"
                },
                {
                  "internalType": "string[]",
                  "name": "images",
                  "type": "string[]"
                },
                {
                  "internalType": "string[]",
                  "name": "descImages",
                  "type": "string[]"
                },
                {
                  "internalType": "address",
                  "name": "payToken",
                  "type": "address"
                },
                {
                  "internalType": "string",
                  "name": "payTokenSymbol",
                  "type": "string"
                },
                {
                  "internalType": "uint256",
                  "name": "payTokenDecimals",
                  "type": "uint256"
                },
                {
                  "internalType": "uint256",
                  "name": "amount",
                  "type": "uint256"
                },
                {
                  "internalType": "uint256",
                  "name": "price",
                  "type": "uint256"
                },
                {
                  "internalType": "bool",
                  "name": "enabled",
                  "type": "bool"
                }
              ],
              "internalType": "struct CommunityStore.GoodsSetting[]",
              "name": "goodsList",
              "type": "tuple[]"
            },
            {
              "components": [
                {
                  "internalType": "uint256",
                  "name": "goodsId",
                  "type": "uint256"
                },
                {
                  "internalType": "uint256",
                  "name": "amount",
                  "type": "uint256"
                },
                {
                  "internalType": "uint256",
                  "name": "price",
                  "type": "uint256"
                },
                {
                  "internalType": "uint256",
                  "name": "time",
                  "type": "uint256"
                }
              ],
              "internalType": "struct CommunityStore.GoodsPurchase[]",
              "name": "userPurchaseHistory",
              "type": "tuple[]"
            },
            {
              "components": [
                {
                  "internalType": "uint256",
                  "name": "goodsId",
                  "type": "uint256"
                },
                {
                  "internalType": "uint256",
                  "name": "buyAllowance",
                  "type": "uint256"
                }
              ],
              "internalType": "struct CommunityStore.GoodsAccountInfo[]",
              "name": "goodsAccountInfos",
              "type": "tuple[]"
            },
            {
              "internalType": "bool",
              "name": "isAdmin",
              "type": "bool"
            }
          ],
          "internalType": "struct CommunityStore.StoreInfo",
          "name": "",
          "type": "tuple"
        }
      ],
      "stateMutability": "view",
      "type": "function"
    },
    {
      "inputs": [
        {
          "internalType": "uint256",
          "name": "",
          "type": "uint256"
        }
      ],
      "name": "goodsList",
      "outputs": [
        {
          "internalType": "uint256",
          "name": "id",
          "type": "uint256"
        },
        {
          "internalType": "string",
          "name": "name",
          "type": "string"
        },
        {
          "internalType": "string",
          "name": "description",
          "type": "string"
        },
        {
          "internalType": "address",
          "name": "payToken",
          "type": "address"
        },
        {
          "internalType": "string",
          "name": "payTokenSymbol",
          "type": "string"
        },
        {
          "internalType": "uint256",
          "name": "payTokenDecimals",
          "type": "uint256"
        },
        {
          "internalType": "uint256",
          "name": "amount",
          "type": "uint256"
        },
        {
          "internalType": "uint256",
          "name": "price",
          "type": "uint256"
        },
        {
          "internalType": "bool",
          "name": "enabled",
          "type": "bool"
        }
      ],
      "stateMutability": "view",
      "type": "function"
    },
    {
      "inputs": [
        {
          "internalType": "address",
          "name": "initialOwner",
          "type": "address"
        },
        {
          "components": [
            {
              "internalType": "string",
              "name": "name",
              "type": "string"
            },
            {
              "internalType": "string",
              "name": "description",
              "type": "string"
            },
            {
              "internalType": "string",
              "name": "image",
              "type": "string"
            },
            {
              "internalType": "address",
              "name": "receiver",
              "type": "address"
            }
          ],
          "internalType": "struct CommunityStore.StoreSettig",
          "name": "_setting",
          "type": "tuple"
        }
      ],
      "name": "initialize",
      "outputs": [],
      "stateMutability": "nonpayable",
      "type": "function"
    },
    {
      "inputs": [],
      "name": "owner",
      "outputs": [
        {
          "internalType": "address",
          "name": "",
          "type": "address"
        }
      ],
      "stateMutability": "view",
      "type": "function"
    },
    {
      "inputs": [],
      "name": "proxiableUUID",
      "outputs": [
        {
          "internalType": "bytes32",
          "name": "",
          "type": "bytes32"
        }
      ],
      "stateMutability": "view",
      "type": "function"
    },
    {
      "inputs": [],
      "name": "renounceOwnership",
      "outputs": [],
      "stateMutability": "nonpayable",
      "type": "function"
    },
    {
      "inputs": [],
      "name": "setting",
      "outputs": [
        {
          "internalType": "string",
          "name": "name",
          "type": "string"
        },
        {
          "internalType": "string",
          "name": "description",
          "type": "string"
        },
        {
          "internalType": "string",
          "name": "image",
          "type": "string"
        },
        {
          "internalType": "address",
          "name": "receiver",
          "type": "address"
        }
      ],
      "stateMutability": "view",
      "type": "function"
    },
    {
      "inputs": [
        {
          "internalType": "address",
          "name": "newOwner",
          "type": "address"
        }
      ],
      "name": "transferOwnership",
      "outputs": [],
      "stateMutability": "nonpayable",
      "type": "function"
    },
    {
      "inputs": [
        {
          "internalType": "uint256",
          "name": "goodsId",
          "type": "uint256"
        },
        {
          "components": [
            {
              "internalType": "uint256",
              "name": "id",
              "type": "uint256"
            },
            {
              "internalType": "string",
              "name": "name",
              "type": "string"
            },
            {
              "internalType": "string",
              "name": "description",
              "type": "string"
            },
            {
              "internalType": "string[]",
              "name": "images",
              "type": "string[]"
            },
            {
              "internalType": "string[]",
              "name": "descImages",
              "type": "string[]"
            },
            {
              "internalType": "address",
              "name": "payToken",
              "type": "address"
            },
            {
              "internalType": "string",
              "name": "payTokenSymbol",
              "type": "string"
            },
            {
              "internalType": "uint256",
              "name": "payTokenDecimals",
              "type": "uint256"
            },
            {
              "internalType": "uint256",
              "name": "amount",
              "type": "uint256"
            },
            {
              "internalType": "uint256",
              "name": "price",
              "type": "uint256"
            },
            {
              "internalType": "bool",
              "name": "enabled",
              "type": "bool"
            }
          ],
          "internalType": "struct CommunityStore.GoodsSetting",
          "name": "_setting",
          "type": "tuple"
        }
      ],
      "name": "updateGoodsSetting",
      "outputs": [],
      "stateMutability": "nonpayable",
      "type": "function"
    },
    {
      "inputs": [
        {
          "components": [
            {
              "internalType": "string",
              "name": "name",
              "type": "string"
            },
            {
              "internalType": "string",
              "name": "description",
              "type": "string"
            },
            {
              "internalType": "string",
              "name": "image",
              "type": "string"
            },
            {
              "internalType": "address",
              "name": "receiver",
              "type": "address"
            }
          ],
          "internalType": "struct CommunityStore.StoreSettig",
          "name": "_setting",
          "type": "tuple"
        }
      ],
      "name": "updateSettng",
      "outputs": [],
      "stateMutability": "nonpayable",
      "type": "function"
    },
    {
      "inputs": [
        {
          "internalType": "address",
          "name": "newImplementation",
          "type": "address"
        }
      ],
      "name": "upgrade",
      "outputs": [],
      "stateMutability": "nonpayable",
      "type": "function"
    },
    {
      "inputs": [
        {
          "internalType": "address",
          "name": "newImplementation",
          "type": "address"
        },
        {
          "internalType": "bytes",
          "name": "data",
          "type": "bytes"
        }
      ],
      "name": "upgradeToAndCall",
      "outputs": [],
      "stateMutability": "payable",
      "type": "function"
    },
    {
      "inputs": [
        {
          "internalType": "address",
          "name": "",
          "type": "address"
        },
        {
          "internalType": "uint256",
          "name": "",
          "type": "uint256"
        }
      ],
      "name": "userPurchaseHistory",
      "outputs": [
        {
          "internalType": "uint256",
          "name": "goodsId",
          "type": "uint256"
        },
        {
          "internalType": "uint256",
          "name": "amount",
          "type": "uint256"
        },
        {
          "internalType": "uint256",
          "name": "price",
          "type": "uint256"
        },
        {
          "internalType": "uint256",
          "name": "time",
          "type": "uint256"
        }
      ],
      "stateMutability": "view",
      "type": "function"
    }
  ],
  "bytecode": "0x60a06040523060805234801561001457600080fd5b506080516135d161003e600039600081816123aa015281816123d3015261251901526135d16000f3fe6080604052600436106101145760003560e01c8063715018a6116100a0578063c0c9ce3011610064578063c0c9ce301461031c578063d6febde814610341578063e708817e14610361578063eed3e09714610381578063f2fde38b146103c157600080fd5b8063715018a61461027257806383f8f54c146102875780638da5cb5b146102a9578063a809b793146102be578063ad3cb1cc146102de57600080fd5b806328d27f09116100e757806328d27f09146101ba578063329a5873146101ef5780634d4d20561461021c5780634f1ef2861461023c57806352d1902d1461024f57600080fd5b806304608f21146101195780630900f0101461013b5780630cbcae701461015b578063210344441461018d575b600080fd5b34801561012557600080fd5b50610139610134366004612a7f565b6103e1565b005b34801561014757600080fd5b50610139610156366004612acc565b610552565b34801561016757600080fd5b50610170610576565b6040516001600160a01b0390911681526020015b60405180910390f35b34801561019957600080fd5b506101ad6101a8366004612acc565b61059c565b6040516101849190612ae7565b3480156101c657600080fd5b506101da6101d5366004612b4d565b610639565b60405161018499989796959493929190612bb6565b3480156101fb57600080fd5b5061020f61020a366004612acc565b61083e565b6040516101849190612e49565b34801561022857600080fd5b5061013961023736600461311e565b611469565b61013961024a36600461315a565b611584565b34801561025b57600080fd5b506102646115a3565b604051908152602001610184565b34801561027e57600080fd5b506101396115c0565b34801561029357600080fd5b5061029c6115d4565b60405161018491906131b1565b3480156102b557600080fd5b506101706119f0565b3480156102ca57600080fd5b506101396102d93660046131c4565b611a1e565b3480156102ea57600080fd5b5061030f604051806040016040528060058152602001640352e302e360dc1b81525081565b6040516101849190613200565b34801561032857600080fd5b50610331611b8c565b6040516101849493929190613213565b34801561034d57600080fd5b5061013961035c366004613266565b611d49565b34801561036d57600080fd5b5061013961037c366004613288565b61225c565b34801561038d57600080fd5b506103a161039c3660046132bc565b6122ce565b604080519485526020850193909352918301526060820152608001610184565b3480156103cd57600080fd5b506101396103dc366004612acc565b612314565b7ff0c57e16840df040f15088dc2f81fe391c3923bec73e23a9662efc9c229c6a008054600160401b810460ff1615906001600160401b03166000811580156104265750825b90506000826001600160401b031660011480156104425750303b155b905081158015610450575080155b1561046e5760405163f92ee8a960e01b815260040160405180910390fd5b845467ffffffffffffffff19166001178555831561049857845460ff60401b1916600160401b1785555b6104a187612354565b6104a9612365565b85516000906104b89082613368565b5060208601516001906104cb9082613368565b5060408601516002906104de9082613368565b506060860151600380546001600160a01b0319166001600160a01b03909216919091179055831561054957845460ff60401b19168555604051600181527fc7f505b2f371ae2175ee4913f4499e1f2633a7b5936321eed1cdaeb6115181d29060200160405180910390a15b50505050505050565b61055a61236d565b6105738160405180602001604052806000815250611584565b50565b600061059760008051602061357c833981519152546001600160a01b031690565b905090565b6001600160a01b0381166000908152600560209081526040808320805482518185028101850190935280835260609492939192909184015b8282101561062e5783829060005260206000209060040201604051806080016040529081600082015481526020016001820154815260200160028201548152602001600382015481525050815260200190600101906105d4565b505050509050919050565b6004818154811061064957600080fd5b60009182526020909120600b9091020180546001820180549193509061066e906132e6565b80601f016020809104026020016040519081016040528092919081815260200182805461069a906132e6565b80156106e75780601f106106bc576101008083540402835291602001916106e7565b820191906000526020600020905b8154815290600101906020018083116106ca57829003601f168201915b5050505050908060020180546106fc906132e6565b80601f0160208091040260200160405190810160405280929190818152602001828054610728906132e6565b80156107755780601f1061074a57610100808354040283529160200191610775565b820191906000526020600020905b81548152906001019060200180831161075857829003601f168201915b505050600584015460068501805494956001600160a01b0390921694919350915061079f906132e6565b80601f01602080910402602001604051908101604052809291908181526020018280546107cb906132e6565b80156108185780601f106107ed57610100808354040283529160200191610818565b820191906000526020600020905b8154815290600101906020018083116107fb57829003601f168201915b50505050600783015460088401546009850154600a909501549394919390925060ff1689565b6040805161012081018252606060a0820181815260c0830182905260e0830182905260006101008401819052908352602083018290529282018190528082015260808101919091526004546000816001600160401b038111156108a3576108a36128cc565b6040519080825280602002602001820160405280156108e857816020015b60408051808201909152600080825260208201528152602001906001900390816108c15790505b50905060005b82811015610da35760006004828154811061090b5761090b613427565b90600052602060002090600b0201604051806101600160405290816000820154815260200160018201805461093f906132e6565b80601f016020809104026020016040519081016040528092919081815260200182805461096b906132e6565b80156109b85780601f1061098d576101008083540402835291602001916109b8565b820191906000526020600020905b81548152906001019060200180831161099b57829003601f168201915b505050505081526020016002820180546109d1906132e6565b80601f01602080910402602001604051908101604052809291908181526020018280546109fd906132e6565b8015610a4a5780601f10610a1f57610100808354040283529160200191610a4a565b820191906000526020600020905b815481529060010190602001808311610a2d57829003601f168201915b5050505050815260200160038201805480602002602001604051908101604052809291908181526020016000905b82821015610b24578382906000526020600020018054610a97906132e6565b80601f0160208091040260200160405190810160405280929190818152602001828054610ac3906132e6565b8015610b105780601f10610ae557610100808354040283529160200191610b10565b820191906000526020600020905b815481529060010190602001808311610af357829003601f168201915b505050505081526020019060010190610a78565b50505050815260200160048201805480602002602001604051908101604052809291908181526020016000905b82821015610bfd578382906000526020600020018054610b70906132e6565b80601f0160208091040260200160405190810160405280929190818152602001828054610b9c906132e6565b8015610be95780601f10610bbe57610100808354040283529160200191610be9565b820191906000526020600020905b815481529060010190602001808311610bcc57829003601f168201915b505050505081526020019060010190610b51565b5050509082525060058201546001600160a01b03166020820152600682018054604090920191610c2c906132e6565b80601f0160208091040260200160405190810160405280929190818152602001828054610c58906132e6565b8015610ca55780601f10610c7a57610100808354040283529160200191610ca5565b820191906000526020600020905b815481529060010190602001808311610c8857829003601f168201915b505050918352505060078201546020820152600882015460408083019190915260098301546060830152600a9092015460ff16151560809091015260a08201519051636eb1769f60e11b81526001600160a01b0389811660048301523060248301529293506000929091169063dd62ed3e90604401602060405180830381865afa158015610d37573d6000803e3d6000fd5b505050506040513d601f19601f82011682018060405250810190610d5b919061343d565b9050600060405180604001604052808460000151815260200183815250905080858581518110610d8d57610d8d613427565b60209081029190910101525050506001016108ee565b5060006040518060a001604052806000604051806080016040529081600082018054610dce906132e6565b80601f0160208091040260200160405190810160405280929190818152602001828054610dfa906132e6565b8015610e475780601f10610e1c57610100808354040283529160200191610e47565b820191906000526020600020905b815481529060010190602001808311610e2a57829003601f168201915b50505050508152602001600182018054610e60906132e6565b80601f0160208091040260200160405190810160405280929190818152602001828054610e8c906132e6565b8015610ed95780601f10610eae57610100808354040283529160200191610ed9565b820191906000526020600020905b815481529060010190602001808311610ebc57829003601f168201915b50505050508152602001600282018054610ef2906132e6565b80601f0160208091040260200160405190810160405280929190818152602001828054610f1e906132e6565b8015610f6b5780601f10610f4057610100808354040283529160200191610f6b565b820191906000526020600020905b815481529060010190602001808311610f4e57829003601f168201915b5050509183525050600391909101546001600160a01b0316602091820152908252600480546040805182850281018501909152818152938301939260009084015b8282101561139b57838290600052602060002090600b02016040518061016001604052908160008201548152602001600182018054610fea906132e6565b80601f0160208091040260200160405190810160405280929190818152602001828054611016906132e6565b80156110635780601f1061103857610100808354040283529160200191611063565b820191906000526020600020905b81548152906001019060200180831161104657829003601f168201915b5050505050815260200160028201805461107c906132e6565b80601f01602080910402602001604051908101604052809291908181526020018280546110a8906132e6565b80156110f55780601f106110ca576101008083540402835291602001916110f5565b820191906000526020600020905b8154815290600101906020018083116110d857829003601f168201915b5050505050815260200160038201805480602002602001604051908101604052809291908181526020016000905b828210156111cf578382906000526020600020018054611142906132e6565b80601f016020809104026020016040519081016040528092919081815260200182805461116e906132e6565b80156111bb5780601f10611190576101008083540402835291602001916111bb565b820191906000526020600020905b81548152906001019060200180831161119e57829003601f168201915b505050505081526020019060010190611123565b50505050815260200160048201805480602002602001604051908101604052809291908181526020016000905b828210156112a857838290600052602060002001805461121b906132e6565b80601f0160208091040260200160405190810160405280929190818152602001828054611247906132e6565b80156112945780601f1061126957610100808354040283529160200191611294565b820191906000526020600020905b81548152906001019060200180831161127757829003601f168201915b5050505050815260200190600101906111fc565b5050509082525060058201546001600160a01b031660208201526006820180546040909201916112d7906132e6565b80601f0160208091040260200160405190810160405280929190818152602001828054611303906132e6565b80156113505780601f1061132557610100808354040283529160200191611350565b820191906000526020600020905b81548152906001019060200180831161133357829003601f168201915b505050918352505060078201546020808301919091526008830154604083015260098301546060830152600a9092015460ff1615156080909101529082526001929092019101610fac565b505050908252506001600160a01b03871660009081526005602090815260408083208054825181850281018501909352808352948301949193909284015b828210156114335783829060005260206000209060040201604051806080016040529081600082015481526020016001820154815260200160028201548152602001600382015481525050815260200190600101906113d9565b505050508152602001838152602001866001600160a01b03166114546119f0565b6001600160a01b031614905295945050505050565b61147161236d565b80600461147f60018561346c565b8154811061148f5761148f613427565b90600052602060002090600b02016000820151816000015560208201518160010190816114bc9190613368565b50604082015160028201906114d19082613368565b50606082015180516114ed9160038401916020909101906127f3565b50608082015180516115099160048401916020909101906127f3565b5060a08201516005820180546001600160a01b0319166001600160a01b0390921691909117905560c082015160068201906115449082613368565b5060e082015160078201556101008201516008820155610120820151600982015561014090910151600a909101805460ff19169115159190911790555050565b61158c61239f565b61159582612444565b61159f828261244c565b5050565b60006115ad61250e565b5060008051602061357c83398151915290565b6115c861236d565b6115d26000612557565b565b60606004805480602002602001604051908101604052809291908181526020016000905b828210156119e757838290600052602060002090600b02016040518061016001604052908160008201548152602001600182018054611636906132e6565b80601f0160208091040260200160405190810160405280929190818152602001828054611662906132e6565b80156116af5780601f10611684576101008083540402835291602001916116af565b820191906000526020600020905b81548152906001019060200180831161169257829003601f168201915b505050505081526020016002820180546116c8906132e6565b80601f01602080910402602001604051908101604052809291908181526020018280546116f4906132e6565b80156117415780601f1061171657610100808354040283529160200191611741565b820191906000526020600020905b81548152906001019060200180831161172457829003601f168201915b5050505050815260200160038201805480602002602001604051908101604052809291908181526020016000905b8282101561181b57838290600052602060002001805461178e906132e6565b80601f01602080910402602001604051908101604052809291908181526020018280546117ba906132e6565b80156118075780601f106117dc57610100808354040283529160200191611807565b820191906000526020600020905b8154815290600101906020018083116117ea57829003601f168201915b50505050508152602001906001019061176f565b50505050815260200160048201805480602002602001604051908101604052809291908181526020016000905b828210156118f4578382906000526020600020018054611867906132e6565b80601f0160208091040260200160405190810160405280929190818152602001828054611893906132e6565b80156118e05780601f106118b5576101008083540402835291602001916118e0565b820191906000526020600020905b8154815290600101906020018083116118c357829003601f168201915b505050505081526020019060010190611848565b5050509082525060058201546001600160a01b03166020820152600682018054604090920191611923906132e6565b80601f016020809104026020016040519081016040528092919081815260200182805461194f906132e6565b801561199c5780601f106119715761010080835404028352916020019161199c565b820191906000526020600020905b81548152906001019060200180831161197f57829003601f168201915b505050918352505060078201546020808301919091526008830154604083015260098301546060830152600a9092015460ff16151560809091015290825260019290920191016115f8565b50505050905090565b7f9016d09d72d40fdae2fd8ceac6b6234c7706214fd39c1cd1e609a0528c199300546001600160a01b031690565b611a2661236d565b600454611a3490600161347f565b815260a0810151604080516395d89b4160e01b815290516001600160a01b038316916395d89b419160048083019260009291908290030181865afa158015611a80573d6000803e3d6000fd5b505050506040513d6000823e601f3d908101601f19168201604052611aa89190810190613492565b8260c00181905250806001600160a01b031663313ce5676040518163ffffffff1660e01b8152600401602060405180830381865afa158015611aee573d6000803e3d6000fd5b505050506040513d601f19601f82011682018060405250810190611b129190613508565b60ff1660e0830152600480546001810182556000919091528251600b9091027f8a35acfbc15ff81a39ae7d344fd709f28e8600b4aa8c65c6b64bfe7fe36bd19b810191825560208401518492917f8a35acfbc15ff81a39ae7d344fd709f28e8600b4aa8c65c6b64bfe7fe36bd19c01906114bc9082613368565b600080548190611b9b906132e6565b80601f0160208091040260200160405190810160405280929190818152602001828054611bc7906132e6565b8015611c145780601f10611be957610100808354040283529160200191611c14565b820191906000526020600020905b815481529060010190602001808311611bf757829003601f168201915b505050505090806001018054611c29906132e6565b80601f0160208091040260200160405190810160405280929190818152602001828054611c55906132e6565b8015611ca25780601f10611c7757610100808354040283529160200191611ca2565b820191906000526020600020905b815481529060010190602001808311611c8557829003601f168201915b505050505090806002018054611cb7906132e6565b80601f0160208091040260200160405190810160405280929190818152602001828054611ce3906132e6565b8015611d305780601f10611d0557610100808354040283529160200191611d30565b820191906000526020600020905b815481529060010190602001808311611d1357829003601f168201915b505050600390930154919250506001600160a01b031684565b336000908152600560205260408120906004611d6660018661346c565b81548110611d7657611d76613427565b90600052602060002090600b02016040518061016001604052908160008201548152602001600182018054611daa906132e6565b80601f0160208091040260200160405190810160405280929190818152602001828054611dd6906132e6565b8015611e235780601f10611df857610100808354040283529160200191611e23565b820191906000526020600020905b815481529060010190602001808311611e0657829003601f168201915b50505050508152602001600282018054611e3c906132e6565b80601f0160208091040260200160405190810160405280929190818152602001828054611e68906132e6565b8015611eb55780601f10611e8a57610100808354040283529160200191611eb5565b820191906000526020600020905b815481529060010190602001808311611e9857829003601f168201915b5050505050815260200160038201805480602002602001604051908101604052809291908181526020016000905b82821015611f8f578382906000526020600020018054611f02906132e6565b80601f0160208091040260200160405190810160405280929190818152602001828054611f2e906132e6565b8015611f7b5780601f10611f5057610100808354040283529160200191611f7b565b820191906000526020600020905b815481529060010190602001808311611f5e57829003601f168201915b505050505081526020019060010190611ee3565b50505050815260200160048201805480602002602001604051908101604052809291908181526020016000905b82821015612068578382906000526020600020018054611fdb906132e6565b80601f0160208091040260200160405190810160405280929190818152602001828054612007906132e6565b80156120545780601f1061202957610100808354040283529160200191612054565b820191906000526020600020905b81548152906001019060200180831161203757829003601f168201915b505050505081526020019060010190611fbc565b5050509082525060058201546001600160a01b03166020820152600682018054604090920191612097906132e6565b80601f01602080910402602001604051908101604052809291908181526020018280546120c3906132e6565b80156121105780601f106120e557610100808354040283529160200191612110565b820191906000526020600020905b8154815290600101906020018083116120f357829003601f168201915b5050509183525050600782015460208083019190915260088301546040808401919091526009840154606080850191909152600a9094015460ff161515608093840152805192830181528883528282018881526101208601805192850192835242958501958652885460018181018b5560008b815295909520865160049092020190815591519382019390935590516002820155925160039384015560a08401519254905193945090926001600160a01b03928316926323b872dd9233929116906121dc90899061352b565b6040516001600160e01b031960e086901b1681526001600160a01b03938416600482015292909116602483015260448201526064016020604051808303816000875af1158015612230573d6000803e3d6000fd5b505050506040513d601f19601f820116820180604052508101906122549190613542565b505050505050565b61226461236d565b8051819060009081906122779082613368565b506020820151600182019061228c9082613368565b50604082015160028201906122a19082613368565b5060609190910151600390910180546001600160a01b0319166001600160a01b0390921691909117905550565b600560205281600052604060002081815481106122ea57600080fd5b60009182526020909120600490910201805460018201546002830154600390930154919450925084565b61231c61236d565b6001600160a01b03811661234b57604051631e4fbdf760e01b8152600060048201526024015b60405180910390fd5b61057381612557565b61235c6125c8565b61057381612611565b6115d26125c8565b336123766119f0565b6001600160a01b0316146115d25760405163118cdaa760e01b8152336004820152602401612342565b306001600160a01b037f000000000000000000000000000000000000000000000000000000000000000016148061242657507f00000000000000000000000000000000000000000000000000000000000000006001600160a01b031661241a60008051602061357c833981519152546001600160a01b031690565b6001600160a01b031614155b156115d25760405163703e46dd60e11b815260040160405180910390fd5b61057361236d565b816001600160a01b03166352d1902d6040518163ffffffff1660e01b8152600401602060405180830381865afa9250505080156124a6575060408051601f3d908101601f191682019092526124a39181019061343d565b60015b6124ce57604051634c9c8ce360e01b81526001600160a01b0383166004820152602401612342565b60008051602061357c83398151915281146124ff57604051632a87526960e21b815260048101829052602401612342565b6125098383612619565b505050565b306001600160a01b037f000000000000000000000000000000000000000000000000000000000000000016146115d25760405163703e46dd60e11b815260040160405180910390fd5b7f9016d09d72d40fdae2fd8ceac6b6234c7706214fd39c1cd1e609a0528c19930080546001600160a01b031981166001600160a01b03848116918217845560405192169182907f8be0079c531659141344cd1fd0a4f28419497f9722a3daafe3b4186f6b6457e090600090a3505050565b7ff0c57e16840df040f15088dc2f81fe391c3923bec73e23a9662efc9c229c6a0054600160401b900460ff166115d257604051631afcd79f60e31b815260040160405180910390fd5b61231c6125c8565b6126228261266f565b6040516001600160a01b038316907fbc7cd75a20ee27fd9adebab32041f755214dbc6bffa90cc0225b39da2e5c2d3b90600090a28051156126675761250982826126d4565b61159f61274c565b806001600160a01b03163b6000036126a557604051634c9c8ce360e01b81526001600160a01b0382166004820152602401612342565b60008051602061357c83398151915280546001600160a01b0319166001600160a01b0392909216919091179055565b6060600080846001600160a01b0316846040516126f1919061355f565b600060405180830381855af49150503d806000811461272c576040519150601f19603f3d011682016040523d82523d6000602084013e612731565b606091505b509150915061274185838361276b565b925050505b92915050565b34156115d25760405163b398979f60e01b815260040160405180910390fd5b6060826127805761277b826127ca565b6127c3565b815115801561279757506001600160a01b0384163b155b156127c057604051639996b31560e01b81526001600160a01b0385166004820152602401612342565b50805b9392505050565b8051156127da5780518082602001fd5b604051630a12f52160e11b815260040160405180910390fd5b828054828255906000526020600020908101928215612839579160200282015b8281111561283957825182906128299082613368565b5091602001919060010190612813565b50612845929150612849565b5090565b8082111561284557600061285d8282612866565b50600101612849565b508054612872906132e6565b6000825580601f10612882575050565b601f01602090049060005260206000209081019061057391905b80821115612845576000815560010161289c565b80356001600160a01b03811681146128c757600080fd5b919050565b634e487b7160e01b600052604160045260246000fd5b60405161016081016001600160401b0381118282101715612905576129056128cc565b60405290565b604051601f8201601f191681016001600160401b0381118282101715612933576129336128cc565b604052919050565b60006001600160401b03821115612954576129546128cc565b50601f01601f191660200190565b60006129756129708461293b565b61290b565b905082815283838301111561298957600080fd5b828260208301376000602084830101529392505050565b600082601f8301126129b157600080fd5b6127c383833560208501612962565b6000608082840312156129d257600080fd5b604051608081016001600160401b0382821081831117156129f5576129f56128cc565b816040528293508435915080821115612a0d57600080fd5b612a19868387016129a0565b83526020850135915080821115612a2f57600080fd5b612a3b868387016129a0565b60208401526040850135915080821115612a5457600080fd5b50612a61858286016129a0565b604083015250612a73606084016128b0565b60608201525092915050565b60008060408385031215612a9257600080fd5b612a9b836128b0565b915060208301356001600160401b03811115612ab657600080fd5b612ac2858286016129c0565b9150509250929050565b600060208284031215612ade57600080fd5b6127c3826128b0565b6020808252825182820181905260009190848201906040850190845b81811015612b415783518051845260208082015190850152604080820151908501526060908101519084015260808301938501939250600101612b03565b50909695505050505050565b600060208284031215612b5f57600080fd5b5035919050565b60005b83811015612b81578181015183820152602001612b69565b50506000910152565b60008151808452612ba2816020860160208601612b66565b601f01601f19169290920160200192915050565b60006101208b8352806020840152612bd08184018c612b8a565b90508281036040840152612be4818b612b8a565b6001600160a01b038a16606085015283810360808501529050612c078189612b8a565b9150508560a08301528460c08301528360e08301528215156101008301529a9950505050505050505050565b60008282518085526020808601955060208260051b8401016020860160005b84811015612c8057601f19868403018952612c6e838351612b8a565b98840198925090830190600101612c52565b5090979650505050505050565b600082825180855260208086019550808260051b84010181860160005b84811015612c8057601f19868403018952815161016081518552858201518187870152612cd982870182612b8a565b91505060408083015186830382880152612cf38382612b8a565b9250505060608083015186830382880152612d0e8382612c33565b9250505060808083015186830382880152612d298382612c33565b9250505060a080830151612d47828801826001600160a01b03169052565b505060c08083015186830382880152612d608382612b8a565b60e085810151908901526101008086015190890152610120808601519089015261014094850151801515868a0152949093509150612d9b9050565b509985019993505090830190600101612caa565b60008151808452602080850194506020840160005b83811015612e025781518051885260208082015190890152604080820151908901526060908101519088015260808701965090820190600101612dc4565b509495945050505050565b60008151808452602080850194506020840160005b83811015612e02578151805188528301518388015260409096019590820190600101612e22565b602081526000825160a060208401528051608060c0850152612e6f610140850182612b8a565b9050602082015160bf19808684030160e0870152612e8d8383612b8a565b925060408401519150808684030161010087015250612eac8282612b8a565b606093909301516001600160a01b031661012086015250506020840151601f1984830381016040860152909190612ee38284612c8d565b92506040860151915080858403016060860152612f008383612daf565b9250606086015191508085840301608086015250612f1e8282612e0d565b9150506080840151612f3460a085018215159052565b509392505050565b600082601f830112612f4d57600080fd5b813560206001600160401b0380831115612f6957612f696128cc565b8260051b612f7883820161290b565b9384528581018301938381019088861115612f9257600080fd5b84880192505b85831015612fce57823584811115612fb05760008081fd5b612fbe8a87838c01016129a0565b8352509184019190840190612f98565b98975050505050505050565b801515811461057357600080fd5b80356128c781612fda565b6000610160828403121561300657600080fd5b61300e6128e2565b90508135815260208201356001600160401b038082111561302e57600080fd5b61303a858386016129a0565b6020840152604084013591508082111561305357600080fd5b61305f858386016129a0565b6040840152606084013591508082111561307857600080fd5b61308485838601612f3c565b6060840152608084013591508082111561309d57600080fd5b6130a985838601612f3c565b60808401526130ba60a085016128b0565b60a084015260c08401359150808211156130d357600080fd5b506130e0848285016129a0565b60c08301525060e0828101359082015261010080830135908201526101208083013590820152610140613114818401612fe8565b9082015292915050565b6000806040838503121561313157600080fd5b8235915060208301356001600160401b0381111561314e57600080fd5b612ac285828601612ff3565b6000806040838503121561316d57600080fd5b613176836128b0565b915060208301356001600160401b0381111561319157600080fd5b8301601f810185136131a257600080fd5b612ac285823560208401612962565b6020815260006127c36020830184612c8d565b6000602082840312156131d657600080fd5b81356001600160401b038111156131ec57600080fd5b6131f884828501612ff3565b949350505050565b6020815260006127c36020830184612b8a565b6080815260006132266080830187612b8a565b82810360208401526132388187612b8a565b9050828103604084015261324c8186612b8a565b91505060018060a01b038316606083015295945050505050565b6000806040838503121561327957600080fd5b50508035926020909101359150565b60006020828403121561329a57600080fd5b81356001600160401b038111156132b057600080fd5b6131f8848285016129c0565b600080604083850312156132cf57600080fd5b6132d8836128b0565b946020939093013593505050565b600181811c908216806132fa57607f821691505b60208210810361331a57634e487b7160e01b600052602260045260246000fd5b50919050565b601f821115612509576000816000526020600020601f850160051c810160208610156133495750805b601f850160051c820191505b8181101561225457828155600101613355565b81516001600160401b03811115613381576133816128cc565b6133958161338f84546132e6565b84613320565b602080601f8311600181146133ca57600084156133b25750858301515b600019600386901b1c1916600185901b178555612254565b600085815260208120601f198616915b828110156133f9578886015182559484019460019091019084016133da565b50858210156134175787850151600019600388901b60f8161c191681555b5050505050600190811b01905550565b634e487b7160e01b600052603260045260246000fd5b60006020828403121561344f57600080fd5b5051919050565b634e487b7160e01b600052601160045260246000fd5b8181038181111561274657612746613456565b8082018082111561274657612746613456565b6000602082840312156134a457600080fd5b81516001600160401b038111156134ba57600080fd5b8201601f810184136134cb57600080fd5b80516134d96129708261293b565b8181528560208385010111156134ee57600080fd5b6134ff826020830160208601612b66565b95945050505050565b60006020828403121561351a57600080fd5b815160ff811681146127c357600080fd5b808202811582820484141761274657612746613456565b60006020828403121561355457600080fd5b81516127c381612fda565b60008251613571818460208701612b66565b919091019291505056fe360894a13ba1a3210667c828492db98dca3e2076cc3735a920a3ca505d382bbca2646970667358221220b730e0dc670bd7fb251fb9bc3a751d50c4add6825ffad61d9baca684fe41260b64736f6c63430008180033",
  "linkReferences": {},
  "deployedLinkReferences": {}
}