{
    "_format": "hh-sol-artifact-1",
    "contractName": "EventManager",
    "sourceName": "contracts/EventManager.sol",
    "abi": [
        {
            "inputs": [],
            "stateMutability": "nonpayable",
            "type": "constructor"
        },
        {
            "anonymous": false,
            "inputs": [
                {
                    "indexed": true,
                    "internalType": "address",
                    "name": "previousOwner",
                    "type": "address"
                },
                {
                    "indexed": true,
                    "internalType": "address",
                    "name": "newOwner",
                    "type": "address"
                }
            ],
            "name": "OwnershipTransferred",
            "type": "event"
        },
        {
            "inputs": [
                {
                    "components": [
                        {
                            "internalType": "uint256",
                            "name": "id",
                            "type": "uint256"
                        },
                        {
                            "internalType": "string",
                            "name": "name",
                            "type": "string"
                        },
                        {
                            "internalType": "string",
                            "name": "desc",
                            "type": "string"
                        },
                        {
                            "internalType": "string",
                            "name": "pos",
                            "type": "string"
                        },
                        {
                            "internalType": "string",
                            "name": "link",
                            "type": "string"
                        },
                        {
                            "internalType": "string",
                            "name": "logo",
                            "type": "string"
                        },
                        {
                            "internalType": "address",
                            "name": "creator",
                            "type": "address"
                        }
                    ],
                    "internalType": "struct EventManager.CommunityEvent",
                    "name": "data",
                    "type": "tuple"
                }
            ],
            "name": "createEvent",
            "outputs": [],
            "stateMutability": "nonpayable",
            "type": "function"
        },
        {
            "inputs": [
                {
                    "internalType": "uint256",
                    "name": "",
                    "type": "uint256"
                },
                {
                    "internalType": "uint256",
                    "name": "",
                    "type": "uint256"
                }
            ],
            "name": "eventJoiners",
            "outputs": [
                {
                    "internalType": "address",
                    "name": "",
                    "type": "address"
                }
            ],
            "stateMutability": "view",
            "type": "function"
        },
        {
            "inputs": [
                {
                    "internalType": "uint256",
                    "name": "",
                    "type": "uint256"
                }
            ],
            "name": "eventList",
            "outputs": [
                {
                    "internalType": "uint256",
                    "name": "id",
                    "type": "uint256"
                },
                {
                    "internalType": "string",
                    "name": "name",
                    "type": "string"
                },
                {
                    "internalType": "string",
                    "name": "desc",
                    "type": "string"
                },
                {
                    "internalType": "string",
                    "name": "pos",
                    "type": "string"
                },
                {
                    "internalType": "string",
                    "name": "link",
                    "type": "string"
                },
                {
                    "internalType": "string",
                    "name": "logo",
                    "type": "string"
                },
                {
                    "internalType": "address",
                    "name": "creator",
                    "type": "address"
                }
            ],
            "stateMutability": "view",
            "type": "function"
        },
        {
            "inputs": [
                {
                    "internalType": "uint256",
                    "name": "eventId",
                    "type": "uint256"
                }
            ],
            "name": "getEventJoinList",
            "outputs": [
                {
                    "internalType": "address[]",
                    "name": "",
                    "type": "address[]"
                }
            ],
            "stateMutability": "view",
            "type": "function"
        },
        {
            "inputs": [],
            "name": "getEventList",
            "outputs": [
                {
                    "components": [
                        {
                            "internalType": "uint256",
                            "name": "id",
                            "type": "uint256"
                        },
                        {
                            "internalType": "string",
                            "name": "name",
                            "type": "string"
                        },
                        {
                            "internalType": "string",
                            "name": "desc",
                            "type": "string"
                        },
                        {
                            "internalType": "string",
                            "name": "pos",
                            "type": "string"
                        },
                        {
                            "internalType": "string",
                            "name": "link",
                            "type": "string"
                        },
                        {
                            "internalType": "string",
                            "name": "logo",
                            "type": "string"
                        },
                        {
                            "internalType": "address",
                            "name": "creator",
                            "type": "address"
                        }
                    ],
                    "internalType": "struct EventManager.CommunityEvent[]",
                    "name": "",
                    "type": "tuple[]"
                }
            ],
            "stateMutability": "view",
            "type": "function"
        },
        {
            "inputs": [
                {
                    "internalType": "uint256",
                    "name": "eventId",
                    "type": "uint256"
                }
            ],
            "name": "joinEvent",
            "outputs": [],
            "stateMutability": "nonpayable",
            "type": "function"
        },
        {
            "inputs": [],
            "name": "owner",
            "outputs": [
                {
                    "internalType": "address",
                    "name": "",
                    "type": "address"
                }
            ],
            "stateMutability": "view",
            "type": "function"
        },
        {
            "inputs": [],
            "name": "renounceOwnership",
            "outputs": [],
            "stateMutability": "nonpayable",
            "type": "function"
        },
        {
            "inputs": [
                {
                    "internalType": "address",
                    "name": "newOwner",
                    "type": "address"
                }
            ],
            "name": "transferOwnership",
            "outputs": [],
            "stateMutability": "nonpayable",
            "type": "function"
        }
    ],
    "bytecode": "0x608060405234801561001057600080fd5b5061002d61002261003260201b60201c565b61003a60201b60201c565b6100fe565b600033905090565b60008060009054906101000a900473ffffffffffffffffffffffffffffffffffffffff169050816000806101000a81548173ffffffffffffffffffffffffffffffffffffffff021916908373ffffffffffffffffffffffffffffffffffffffff1602179055508173ffffffffffffffffffffffffffffffffffffffff168173ffffffffffffffffffffffffffffffffffffffff167f8be0079c531659141344cd1fd0a4f28419497f9722a3daafe3b4186f6b6457e060405160405180910390a35050565b61186a8061010d6000396000f3fe608060405234801561001057600080fd5b50600436106100935760003560e01c806338d361e21161006657806338d361e214610132578063493280d21461014e578063715018a6146101845780638da5cb5b1461018e578063f2fde38b146101ac57610093565b80630234f111146100985780631d48f434146100c85780631db06949146100e45780633151976814610102575b600080fd5b6100b260048036038101906100ad9190611083565b6101c8565b6040516100bf91906113ae565b60405180910390f35b6100e260048036038101906100dd9190611042565b610269565b005b6100ec6103cf565b6040516100f991906113d0565b60405180910390f35b61011c600480360381019061011791906110ac565b610768565b6040516101299190611393565b60405180910390f35b61014c60048036038101906101479190611083565b6107b6565b005b61016860048036038101906101639190611083565b61082d565b60405161017b9796959493929190611432565b60405180910390f35b61018c610b47565b005b610196610bcf565b6040516101a39190611393565b60405180910390f35b6101c660048036038101906101c19190611019565b610bf8565b005b60606003600083815260200190815260200160002080548060200260200160405190810160405280929190818152602001828054801561025d57602002820191906000526020600020905b8160009054906101000a900473ffffffffffffffffffffffffffffffffffffffff1673ffffffffffffffffffffffffffffffffffffffff1681526020019060010190808311610213575b50505050509050919050565b338160c0019073ffffffffffffffffffffffffffffffffffffffff16908173ffffffffffffffffffffffffffffffffffffffff168152505060016002805490506102b391906115b9565b816000018181525050600281908060018154018082558091505060019003906000526020600020906007020160009091909190915060008201518160000155602082015181600101908051906020019061030e929190610dbc565b50604082015181600201908051906020019061032b929190610dbc565b506060820151816003019080519060200190610348929190610dbc565b506080820151816004019080519060200190610365929190610dbc565b5060a0820151816005019080519060200190610382929190610dbc565b5060c08201518160060160006101000a81548173ffffffffffffffffffffffffffffffffffffffff021916908373ffffffffffffffffffffffffffffffffffffffff160217905550505050565b60606002805480602002602001604051908101604052809291908181526020016000905b8282101561075f57838290600052602060002090600702016040518060e0016040529081600082015481526020016001820180546104309061168d565b80601f016020809104026020016040519081016040528092919081815260200182805461045c9061168d565b80156104a95780601f1061047e576101008083540402835291602001916104a9565b820191906000526020600020905b81548152906001019060200180831161048c57829003601f168201915b505050505081526020016002820180546104c29061168d565b80601f01602080910402602001604051908101604052809291908181526020018280546104ee9061168d565b801561053b5780601f106105105761010080835404028352916020019161053b565b820191906000526020600020905b81548152906001019060200180831161051e57829003601f168201915b505050505081526020016003820180546105549061168d565b80601f01602080910402602001604051908101604052809291908181526020018280546105809061168d565b80156105cd5780601f106105a2576101008083540402835291602001916105cd565b820191906000526020600020905b8154815290600101906020018083116105b057829003601f168201915b505050505081526020016004820180546105e69061168d565b80601f01602080910402602001604051908101604052809291908181526020018280546106129061168d565b801561065f5780601f106106345761010080835404028352916020019161065f565b820191906000526020600020905b81548152906001019060200180831161064257829003601f168201915b505050505081526020016005820180546106789061168d565b80601f01602080910402602001604051908101604052809291908181526020018280546106a49061168d565b80156106f15780601f106106c6576101008083540402835291602001916106f1565b820191906000526020600020905b8154815290600101906020018083116106d457829003601f168201915b505050505081526020016006820160009054906101000a900473ffffffffffffffffffffffffffffffffffffffff1673ffffffffffffffffffffffffffffffffffffffff1673ffffffffffffffffffffffffffffffffffffffff1681525050815260200190600101906103f3565b50505050905090565b6003602052816000526040600020818154811061078457600080fd5b906000526020600020016000915091509054906101000a900473ffffffffffffffffffffffffffffffffffffffff1681565b60036000828152602001908152602001600020339080600181540180825580915050600190039060005260206000200160009091909190916101000a81548173ffffffffffffffffffffffffffffffffffffffff021916908373ffffffffffffffffffffffffffffffffffffffff16021790555050565b6002818154811061083d57600080fd5b90600052602060002090600702016000915090508060000154908060010180546108669061168d565b80601f01602080910402602001604051908101604052809291908181526020018280546108929061168d565b80156108df5780601f106108b4576101008083540402835291602001916108df565b820191906000526020600020905b8154815290600101906020018083116108c257829003601f168201915b5050505050908060020180546108f49061168d565b80601f01602080910402602001604051908101604052809291908181526020018280546109209061168d565b801561096d5780601f106109425761010080835404028352916020019161096d565b820191906000526020600020905b81548152906001019060200180831161095057829003601f168201915b5050505050908060030180546109829061168d565b80601f01602080910402602001604051908101604052809291908181526020018280546109ae9061168d565b80156109fb5780601f106109d0576101008083540402835291602001916109fb565b820191906000526020600020905b8154815290600101906020018083116109de57829003601f168201915b505050505090806004018054610a109061168d565b80601f0160208091040260200160405190810160405280929190818152602001828054610a3c9061168d565b8015610a895780601f10610a5e57610100808354040283529160200191610a89565b820191906000526020600020905b815481529060010190602001808311610a6c57829003601f168201915b505050505090806005018054610a9e9061168d565b80601f0160208091040260200160405190810160405280929190818152602001828054610aca9061168d565b8015610b175780601f10610aec57610100808354040283529160200191610b17565b820191906000526020600020905b815481529060010190602001808311610afa57829003601f168201915b5050505050908060060160009054906101000a900473ffffffffffffffffffffffffffffffffffffffff16905087565b610b4f610cf0565b73ffffffffffffffffffffffffffffffffffffffff16610b6d610bcf565b73ffffffffffffffffffffffffffffffffffffffff1614610bc3576040517f08c379a0000000000000000000000000000000000000000000000000000000008152600401610bba90611412565b60405180910390fd5b610bcd6000610cf8565b565b60008060009054906101000a900473ffffffffffffffffffffffffffffffffffffffff16905090565b610c00610cf0565b73ffffffffffffffffffffffffffffffffffffffff16610c1e610bcf565b73ffffffffffffffffffffffffffffffffffffffff1614610c74576040517f08c379a0000000000000000000000000000000000000000000000000000000008152600401610c6b90611412565b60405180910390fd5b600073ffffffffffffffffffffffffffffffffffffffff168173ffffffffffffffffffffffffffffffffffffffff161415610ce4576040517f08c379a0000000000000000000000000000000000000000000000000000000008152600401610cdb906113f2565b60405180910390fd5b610ced81610cf8565b50565b600033905090565b60008060009054906101000a900473ffffffffffffffffffffffffffffffffffffffff169050816000806101000a81548173ffffffffffffffffffffffffffffffffffffffff021916908373ffffffffffffffffffffffffffffffffffffffff1602179055508173ffffffffffffffffffffffffffffffffffffffff168173ffffffffffffffffffffffffffffffffffffffff167f8be0079c531659141344cd1fd0a4f28419497f9722a3daafe3b4186f6b6457e060405160405180910390a35050565b828054610dc89061168d565b90600052602060002090601f016020900481019282610dea5760008555610e31565b82601f10610e0357805160ff1916838001178555610e31565b82800160010185558215610e31579182015b82811115610e30578251825591602001919060010190610e15565b5b509050610e3e9190610e42565b5090565b5b80821115610e5b576000816000905550600101610e43565b5090565b6000610e72610e6d846114e9565b6114c4565b905082815260208101848484011115610e8a57600080fd5b610e9584828561164b565b509392505050565b600081359050610eac81611806565b92915050565b600082601f830112610ec357600080fd5b8135610ed3848260208601610e5f565b91505092915050565b600060e08284031215610eee57600080fd5b610ef860e06114c4565b90506000610f0884828501611004565b600083015250602082013567ffffffffffffffff811115610f2857600080fd5b610f3484828501610eb2565b602083015250604082013567ffffffffffffffff811115610f5457600080fd5b610f6084828501610eb2565b604083015250606082013567ffffffffffffffff811115610f8057600080fd5b610f8c84828501610eb2565b606083015250608082013567ffffffffffffffff811115610fac57600080fd5b610fb884828501610eb2565b60808301525060a082013567ffffffffffffffff811115610fd857600080fd5b610fe484828501610eb2565b60a08301525060c0610ff884828501610e9d565b60c08301525092915050565b6000813590506110138161181d565b92915050565b60006020828403121561102b57600080fd5b600061103984828501610e9d565b91505092915050565b60006020828403121561105457600080fd5b600082013567ffffffffffffffff81111561106e57600080fd5b61107a84828501610edc565b91505092915050565b60006020828403121561109557600080fd5b60006110a384828501611004565b91505092915050565b600080604083850312156110bf57600080fd5b60006110cd85828601611004565b92505060206110de85828601611004565b9150509250929050565b60006110f48383611114565b60208301905092915050565b600061110c83836112bd565b905092915050565b61111d8161160f565b82525050565b61112c8161160f565b82525050565b600061113d8261153a565b6111478185611575565b93506111528361151a565b8060005b8381101561118357815161116a88826110e8565b97506111758361155b565b925050600181019050611156565b5085935050505092915050565b600061119b82611545565b6111a58185611586565b9350836020820285016111b78561152a565b8060005b858110156111f357848403895281516111d48582611100565b94506111df83611568565b925060208a019950506001810190506111bb565b50829750879550505050505092915050565b600061121082611550565b61121a8185611597565b935061122a81856020860161165a565b6112338161177d565b840191505092915050565b600061124982611550565b61125381856115a8565b935061126381856020860161165a565b61126c8161177d565b840191505092915050565b60006112846026836115a8565b915061128f8261178e565b604082019050919050565b60006112a76020836115a8565b91506112b2826117dd565b602082019050919050565b600060e0830160008301516112d56000860182611375565b50602083015184820360208601526112ed8282611205565b915050604083015184820360408601526113078282611205565b915050606083015184820360608601526113218282611205565b9150506080830151848203608086015261133b8282611205565b91505060a083015184820360a08601526113558282611205565b91505060c083015161136a60c0860182611114565b508091505092915050565b61137e81611641565b82525050565b61138d81611641565b82525050565b60006020820190506113a86000830184611123565b92915050565b600060208201905081810360008301526113c88184611132565b905092915050565b600060208201905081810360008301526113ea8184611190565b905092915050565b6000602082019050818103600083015261140b81611277565b9050919050565b6000602082019050818103600083015261142b8161129a565b9050919050565b600060e082019050611447600083018a611384565b8181036020830152611459818961123e565b9050818103604083015261146d818861123e565b90508181036060830152611481818761123e565b90508181036080830152611495818661123e565b905081810360a08301526114a9818561123e565b90506114b860c0830184611123565b98975050505050505050565b60006114ce6114df565b90506114da82826116bf565b919050565b6000604051905090565b600067ffffffffffffffff8211156115045761150361174e565b5b61150d8261177d565b9050602081019050919050565b6000819050602082019050919050565b6000819050602082019050919050565b600081519050919050565b600081519050919050565b600081519050919050565b6000602082019050919050565b6000602082019050919050565b600082825260208201905092915050565b600082825260208201905092915050565b600082825260208201905092915050565b600082825260208201905092915050565b60006115c482611641565b91506115cf83611641565b9250827fffffffffffffffffffffffffffffffffffffffffffffffffffffffffffffffff03821115611604576116036116f0565b5b828201905092915050565b600061161a82611621565b9050919050565b600073ffffffffffffffffffffffffffffffffffffffff82169050919050565b6000819050919050565b82818337600083830152505050565b60005b8381101561167857808201518184015260208101905061165d565b83811115611687576000848401525b50505050565b600060028204905060018216806116a557607f821691505b602082108114156116b9576116b861171f565b5b50919050565b6116c88261177d565b810181811067ffffffffffffffff821117156116e7576116e661174e565b5b80604052505050565b7f4e487b7100000000000000000000000000000000000000000000000000000000600052601160045260246000fd5b7f4e487b7100000000000000000000000000000000000000000000000000000000600052602260045260246000fd5b7f4e487b7100000000000000000000000000000000000000000000000000000000600052604160045260246000fd5b6000601f19601f8301169050919050565b7f4f776e61626c653a206e6577206f776e657220697320746865207a65726f206160008201527f6464726573730000000000000000000000000000000000000000000000000000602082015250565b7f4f776e61626c653a2063616c6c6572206973206e6f7420746865206f776e6572600082015250565b61180f8161160f565b811461181a57600080fd5b50565b61182681611641565b811461183157600080fd5b5056fea26469706673582212205f7748d12dbaf3c34e9276b2d79c8995e6123ad6ef0c9b82852d5f81926fb10964736f6c63430008040033",
    "linkReferences": {},
    "deployedLinkReferences": {}
}